{
	"contracts/CryptoKids.sol": {
		"CryptoKids": {
			"abi": [
				{
					"inputs": [],
					"stateMutability": "nonpayable",
					"type": "constructor"
				},
				{
					"inputs": [
						{
							"internalType": "address",
							"name": "walletAddress",
							"type": "address"
						},
						{
							"internalType": "string",
							"name": "firstName",
							"type": "string"
						},
						{
							"internalType": "string",
							"name": "lastName",
							"type": "string"
						},
						{
							"internalType": "uint256",
							"name": "releaseTime",
							"type": "uint256"
						},
						{
							"internalType": "uint256",
							"name": "amount",
							"type": "uint256"
						},
						{
							"internalType": "bool",
							"name": "canWithdraw",
							"type": "bool"
						}
					],
					"name": "addKid",
					"outputs": [],
					"stateMutability": "nonpayable",
					"type": "function"
				},
				{
					"inputs": [
						{
							"internalType": "address",
							"name": "walletAddress",
							"type": "address"
						}
					],
					"name": "deposit",
					"outputs": [],
					"stateMutability": "payable",
					"type": "function"
				},
				{
					"inputs": [
						{
							"internalType": "uint256",
							"name": "",
							"type": "uint256"
						}
					],
					"name": "kids",
					"outputs": [
						{
							"internalType": "address",
							"name": "walletAddress",
							"type": "address"
						},
						{
							"internalType": "string",
							"name": "firstName",
							"type": "string"
						},
						{
							"internalType": "string",
							"name": "lastName",
							"type": "string"
						},
						{
							"internalType": "uint256",
							"name": "releaseTime",
							"type": "uint256"
						},
						{
							"internalType": "uint256",
							"name": "amount",
							"type": "uint256"
						},
						{
							"internalType": "bool",
							"name": "canWithdraw",
							"type": "bool"
						}
					],
					"stateMutability": "view",
					"type": "function"
				}
			],
			"devdoc": {
				"kind": "dev",
				"methods": {},
				"version": 1
			},
			"evm": {
				"assembly": "    /* \"contracts/CryptoKids.sol\":116:909  contract CryptoKids {... */\n  mstore(0x40, 0x80)\n    /* \"contracts/CryptoKids.sol\":167:216  constructor() {... */\n  callvalue\n  dup1\n  iszero\n  tag_1\n  jumpi\n  0x00\n  dup1\n  revert\ntag_1:\n  pop\n    /* \"contracts/CryptoKids.sol\":199:209  msg.sender */\n  caller\n    /* \"contracts/CryptoKids.sol\":191:196  owner */\n  0x00\n  dup1\n    /* \"contracts/CryptoKids.sol\":191:209  owner = msg.sender */\n  0x0100\n  exp\n  dup2\n  sload\n  dup2\n  0xffffffffffffffffffffffffffffffffffffffff\n  mul\n  not\n  and\n  swap1\n  dup4\n  0xffffffffffffffffffffffffffffffffffffffff\n  and\n  mul\n  or\n  swap1\n  sstore\n  pop\n    /* \"contracts/CryptoKids.sol\":116:909  contract CryptoKids {... */\n  dataSize(sub_0)\n  dup1\n  dataOffset(sub_0)\n  0x00\n  codecopy\n  0x00\n  return\nstop\n\nsub_0: assembly {\n        /* \"contracts/CryptoKids.sol\":116:909  contract CryptoKids {... */\n      mstore(0x40, 0x80)\n      jumpi(tag_1, lt(calldatasize, 0x04))\n      shr(0xe0, calldataload(0x00))\n      dup1\n      0x31d575c5\n      eq\n      tag_2\n      jumpi\n      dup1\n      0x7285fd3a\n      eq\n      tag_3\n      jumpi\n      dup1\n      0xf340fa01\n      eq\n      tag_4\n      jumpi\n    tag_1:\n      0x00\n      dup1\n      revert\n        /* \"contracts/CryptoKids.sol\":425:838  function addKid(... */\n    tag_2:\n      callvalue\n      dup1\n      iszero\n      tag_5\n      jumpi\n      0x00\n      dup1\n      revert\n    tag_5:\n      pop\n      tag_6\n      0x04\n      dup1\n      calldatasize\n      sub\n      dup2\n      add\n      swap1\n      tag_7\n      swap2\n      swap1\n      tag_8\n      jump\t// in\n    tag_7:\n      tag_9\n      jump\t// in\n    tag_6:\n      stop\n        /* \"contracts/CryptoKids.sol\":401:418  Kid[] public kids */\n    tag_3:\n      callvalue\n      dup1\n      iszero\n      tag_10\n      jumpi\n      0x00\n      dup1\n      revert\n    tag_10:\n      pop\n      tag_11\n      0x04\n      dup1\n      calldatasize\n      sub\n      dup2\n      add\n      swap1\n      tag_12\n      swap2\n      swap1\n      tag_13\n      jump\t// in\n    tag_12:\n      tag_14\n      jump\t// in\n    tag_11:\n      mload(0x40)\n      tag_15\n      swap7\n      swap6\n      swap5\n      swap4\n      swap3\n      swap2\n      swap1\n      tag_16\n      jump\t// in\n    tag_15:\n      mload(0x40)\n      dup1\n      swap2\n      sub\n      swap1\n      return\n        /* \"contracts/CryptoKids.sol\":844:901  function deposit(address walletAddress) payable public {} */\n    tag_4:\n      tag_17\n      0x04\n      dup1\n      calldatasize\n      sub\n      dup2\n      add\n      swap1\n      tag_18\n      swap2\n      swap1\n      tag_19\n      jump\t// in\n    tag_18:\n      tag_20\n      jump\t// in\n    tag_17:\n      stop\n        /* \"contracts/CryptoKids.sol\":425:838  function addKid(... */\n    tag_9:\n        /* \"contracts/CryptoKids.sol\":637:641  kids */\n      0x01\n        /* \"contracts/CryptoKids.sol\":647:830  Kid(... */\n      mload(0x40)\n      dup1\n      0xc0\n      add\n      0x40\n      mstore\n      dup1\n        /* \"contracts/CryptoKids.sol\":668:681  walletAddress */\n      dup9\n        /* \"contracts/CryptoKids.sol\":647:830  Kid(... */\n      0xffffffffffffffffffffffffffffffffffffffff\n      and\n      dup2\n      mstore\n      0x20\n      add\n        /* \"contracts/CryptoKids.sol\":699:708  firstName */\n      dup8\n        /* \"contracts/CryptoKids.sol\":647:830  Kid(... */\n      dup2\n      mstore\n      0x20\n      add\n        /* \"contracts/CryptoKids.sol\":726:734  lastName */\n      dup7\n        /* \"contracts/CryptoKids.sol\":647:830  Kid(... */\n      dup2\n      mstore\n      0x20\n      add\n        /* \"contracts/CryptoKids.sol\":752:763  releaseTime */\n      dup6\n        /* \"contracts/CryptoKids.sol\":647:830  Kid(... */\n      dup2\n      mstore\n      0x20\n      add\n        /* \"contracts/CryptoKids.sol\":781:787  amount */\n      dup5\n        /* \"contracts/CryptoKids.sol\":647:830  Kid(... */\n      dup2\n      mstore\n      0x20\n      add\n        /* \"contracts/CryptoKids.sol\":805:816  canWithdraw */\n      dup4\n        /* \"contracts/CryptoKids.sol\":647:830  Kid(... */\n      iszero\n      iszero\n      dup2\n      mstore\n      pop\n        /* \"contracts/CryptoKids.sol\":637:831  kids.push(Kid(... */\n      swap1\n      dup1\n      0x01\n      dup2\n      sload\n      add\n      dup1\n      dup3\n      sstore\n      dup1\n      swap2\n      pop\n      pop\n      0x01\n      swap1\n      sub\n      swap1\n      0x00\n      mstore\n      keccak256(0x00, 0x20)\n      swap1\n      0x06\n      mul\n      add\n      0x00\n      swap1\n      swap2\n      swap1\n      swap2\n      swap1\n      swap2\n      pop\n      0x00\n      dup3\n      add\n      mload\n      dup2\n      0x00\n      add\n      exp(0x0100, 0x00)\n      dup2\n      sload\n      dup2\n      0xffffffffffffffffffffffffffffffffffffffff\n      mul\n      not\n      and\n      swap1\n      dup4\n      0xffffffffffffffffffffffffffffffffffffffff\n      and\n      mul\n      or\n      swap1\n      sstore\n      pop\n      0x20\n      dup3\n      add\n      mload\n      dup2\n      0x01\n      add\n      swap1\n      dup1\n      mload\n      swap1\n      0x20\n      add\n      swap1\n      tag_23\n      swap3\n      swap2\n      swap1\n      tag_24\n      jump\t// in\n    tag_23:\n      pop\n      0x40\n      dup3\n      add\n      mload\n      dup2\n      0x02\n      add\n      swap1\n      dup1\n      mload\n      swap1\n      0x20\n      add\n      swap1\n      tag_25\n      swap3\n      swap2\n      swap1\n      tag_24\n      jump\t// in\n    tag_25:\n      pop\n      0x60\n      dup3\n      add\n      mload\n      dup2\n      0x03\n      add\n      sstore\n      0x80\n      dup3\n      add\n      mload\n      dup2\n      0x04\n      add\n      sstore\n      0xa0\n      dup3\n      add\n      mload\n      dup2\n      0x05\n      add\n      exp(0x0100, 0x00)\n      dup2\n      sload\n      dup2\n      0xff\n      mul\n      not\n      and\n      swap1\n      dup4\n      iszero\n      iszero\n      mul\n      or\n      swap1\n      sstore\n      pop\n      pop\n      pop\n        /* \"contracts/CryptoKids.sol\":425:838  function addKid(... */\n      pop\n      pop\n      pop\n      pop\n      pop\n      pop\n      jump\t// out\n        /* \"contracts/CryptoKids.sol\":401:418  Kid[] public kids */\n    tag_14:\n      0x01\n      dup2\n      dup2\n      sload\n      dup2\n      lt\n      tag_26\n      jumpi\n      0x00\n      dup1\n      revert\n    tag_26:\n      swap1\n      0x00\n      mstore\n      keccak256(0x00, 0x20)\n      swap1\n      0x06\n      mul\n      add\n      0x00\n      swap2\n      pop\n      swap1\n      pop\n      dup1\n      0x00\n      add\n      0x00\n      swap1\n      sload\n      swap1\n      0x0100\n      exp\n      swap1\n      div\n      0xffffffffffffffffffffffffffffffffffffffff\n      and\n      swap1\n      dup1\n      0x01\n      add\n      dup1\n      sload\n      tag_28\n      swap1\n      tag_29\n      jump\t// in\n    tag_28:\n      dup1\n      0x1f\n      add\n      0x20\n      dup1\n      swap2\n      div\n      mul\n      0x20\n      add\n      mload(0x40)\n      swap1\n      dup2\n      add\n      0x40\n      mstore\n      dup1\n      swap3\n      swap2\n      swap1\n      dup2\n      dup2\n      mstore\n      0x20\n      add\n      dup3\n      dup1\n      sload\n      tag_30\n      swap1\n      tag_29\n      jump\t// in\n    tag_30:\n      dup1\n      iszero\n      tag_31\n      jumpi\n      dup1\n      0x1f\n      lt\n      tag_32\n      jumpi\n      0x0100\n      dup1\n      dup4\n      sload\n      div\n      mul\n      dup4\n      mstore\n      swap2\n      0x20\n      add\n      swap2\n      jump(tag_31)\n    tag_32:\n      dup3\n      add\n      swap2\n      swap1\n      0x00\n      mstore\n      keccak256(0x00, 0x20)\n      swap1\n    tag_33:\n      dup2\n      sload\n      dup2\n      mstore\n      swap1\n      0x01\n      add\n      swap1\n      0x20\n      add\n      dup1\n      dup4\n      gt\n      tag_33\n      jumpi\n      dup3\n      swap1\n      sub\n      0x1f\n      and\n      dup3\n      add\n      swap2\n    tag_31:\n      pop\n      pop\n      pop\n      pop\n      pop\n      swap1\n      dup1\n      0x02\n      add\n      dup1\n      sload\n      tag_34\n      swap1\n      tag_29\n      jump\t// in\n    tag_34:\n      dup1\n      0x1f\n      add\n      0x20\n      dup1\n      swap2\n      div\n      mul\n      0x20\n      add\n      mload(0x40)\n      swap1\n      dup2\n      add\n      0x40\n      mstore\n      dup1\n      swap3\n      swap2\n      swap1\n      dup2\n      dup2\n      mstore\n      0x20\n      add\n      dup3\n      dup1\n      sload\n      tag_35\n      swap1\n      tag_29\n      jump\t// in\n    tag_35:\n      dup1\n      iszero\n      tag_36\n      jumpi\n      dup1\n      0x1f\n      lt\n      tag_37\n      jumpi\n      0x0100\n      dup1\n      dup4\n      sload\n      div\n      mul\n      dup4\n      mstore\n      swap2\n      0x20\n      add\n      swap2\n      jump(tag_36)\n    tag_37:\n      dup3\n      add\n      swap2\n      swap1\n      0x00\n      mstore\n      keccak256(0x00, 0x20)\n      swap1\n    tag_38:\n      dup2\n      sload\n      dup2\n      mstore\n      swap1\n      0x01\n      add\n      swap1\n      0x20\n      add\n      dup1\n      dup4\n      gt\n      tag_38\n      jumpi\n      dup3\n      swap1\n      sub\n      0x1f\n      and\n      dup3\n      add\n      swap2\n    tag_36:\n      pop\n      pop\n      pop\n      pop\n      pop\n      swap1\n      dup1\n      0x03\n      add\n      sload\n      swap1\n      dup1\n      0x04\n      add\n      sload\n      swap1\n      dup1\n      0x05\n      add\n      0x00\n      swap1\n      sload\n      swap1\n      0x0100\n      exp\n      swap1\n      div\n      0xff\n      and\n      swap1\n      pop\n      dup7\n      jump\t// out\n        /* \"contracts/CryptoKids.sol\":844:901  function deposit(address walletAddress) payable public {} */\n    tag_20:\n      pop\n      jump\t// out\n    tag_24:\n      dup3\n      dup1\n      sload\n      tag_40\n      swap1\n      tag_29\n      jump\t// in\n    tag_40:\n      swap1\n      0x00\n      mstore\n      keccak256(0x00, 0x20)\n      swap1\n      0x1f\n      add\n      0x20\n      swap1\n      div\n      dup2\n      add\n      swap3\n      dup3\n      tag_42\n      jumpi\n      0x00\n      dup6\n      sstore\n      jump(tag_41)\n    tag_42:\n      dup3\n      0x1f\n      lt\n      tag_43\n      jumpi\n      dup1\n      mload\n      not(0xff)\n      and\n      dup4\n      dup1\n      add\n      or\n      dup6\n      sstore\n      jump(tag_41)\n    tag_43:\n      dup3\n      dup1\n      add\n      0x01\n      add\n      dup6\n      sstore\n      dup3\n      iszero\n      tag_41\n      jumpi\n      swap2\n      dup3\n      add\n    tag_44:\n      dup3\n      dup2\n      gt\n      iszero\n      tag_45\n      jumpi\n      dup3\n      mload\n      dup3\n      sstore\n      swap2\n      0x20\n      add\n      swap2\n      swap1\n      0x01\n      add\n      swap1\n      jump(tag_44)\n    tag_45:\n    tag_41:\n      pop\n      swap1\n      pop\n      tag_46\n      swap2\n      swap1\n      tag_47\n      jump\t// in\n    tag_46:\n      pop\n      swap1\n      jump\t// out\n    tag_47:\n    tag_48:\n      dup1\n      dup3\n      gt\n      iszero\n      tag_49\n      jumpi\n      0x00\n      dup2\n      0x00\n      swap1\n      sstore\n      pop\n      0x01\n      add\n      jump(tag_48)\n    tag_49:\n      pop\n      swap1\n      jump\t// out\n        /* \"#utility.yul\":7:419   */\n    tag_51:\n        /* \"#utility.yul\":85:90   */\n      0x00\n        /* \"#utility.yul\":110:176   */\n      tag_53\n        /* \"#utility.yul\":126:175   */\n      tag_54\n        /* \"#utility.yul\":168:174   */\n      dup5\n        /* \"#utility.yul\":126:175   */\n      tag_55\n      jump\t// in\n    tag_54:\n        /* \"#utility.yul\":110:176   */\n      tag_56\n      jump\t// in\n    tag_53:\n        /* \"#utility.yul\":101:176   */\n      swap1\n      pop\n        /* \"#utility.yul\":199:205   */\n      dup3\n        /* \"#utility.yul\":192:197   */\n      dup2\n        /* \"#utility.yul\":185:206   */\n      mstore\n        /* \"#utility.yul\":237:241   */\n      0x20\n        /* \"#utility.yul\":230:235   */\n      dup2\n        /* \"#utility.yul\":226:242   */\n      add\n        /* \"#utility.yul\":275:278   */\n      dup5\n        /* \"#utility.yul\":266:272   */\n      dup5\n        /* \"#utility.yul\":261:264   */\n      dup5\n        /* \"#utility.yul\":257:273   */\n      add\n        /* \"#utility.yul\":254:279   */\n      gt\n        /* \"#utility.yul\":251:363   */\n      iszero\n      tag_57\n      jumpi\n        /* \"#utility.yul\":282:361   */\n      tag_58\n      tag_59\n      jump\t// in\n    tag_58:\n        /* \"#utility.yul\":251:363   */\n    tag_57:\n        /* \"#utility.yul\":372:413   */\n      tag_60\n        /* \"#utility.yul\":406:412   */\n      dup5\n        /* \"#utility.yul\":401:404   */\n      dup3\n        /* \"#utility.yul\":396:399   */\n      dup6\n        /* \"#utility.yul\":372:413   */\n      tag_61\n      jump\t// in\n    tag_60:\n        /* \"#utility.yul\":91:419   */\n      pop\n        /* \"#utility.yul\":7:419   */\n      swap4\n      swap3\n      pop\n      pop\n      pop\n      jump\t// out\n        /* \"#utility.yul\":425:564   */\n    tag_62:\n        /* \"#utility.yul\":471:476   */\n      0x00\n        /* \"#utility.yul\":509:515   */\n      dup2\n        /* \"#utility.yul\":496:516   */\n      calldataload\n        /* \"#utility.yul\":487:516   */\n      swap1\n      pop\n        /* \"#utility.yul\":525:558   */\n      tag_64\n        /* \"#utility.yul\":552:557   */\n      dup2\n        /* \"#utility.yul\":525:558   */\n      tag_65\n      jump\t// in\n    tag_64:\n        /* \"#utility.yul\":425:564   */\n      swap3\n      swap2\n      pop\n      pop\n      jump\t// out\n        /* \"#utility.yul\":570:703   */\n    tag_66:\n        /* \"#utility.yul\":613:618   */\n      0x00\n        /* \"#utility.yul\":651:657   */\n      dup2\n        /* \"#utility.yul\":638:658   */\n      calldataload\n        /* \"#utility.yul\":629:658   */\n      swap1\n      pop\n        /* \"#utility.yul\":667:697   */\n      tag_68\n        /* \"#utility.yul\":691:696   */\n      dup2\n        /* \"#utility.yul\":667:697   */\n      tag_69\n      jump\t// in\n    tag_68:\n        /* \"#utility.yul\":570:703   */\n      swap3\n      swap2\n      pop\n      pop\n      jump\t// out\n        /* \"#utility.yul\":723:1063   */\n    tag_70:\n        /* \"#utility.yul\":779:784   */\n      0x00\n        /* \"#utility.yul\":828:831   */\n      dup3\n        /* \"#utility.yul\":821:825   */\n      0x1f\n        /* \"#utility.yul\":813:819   */\n      dup4\n        /* \"#utility.yul\":809:826   */\n      add\n        /* \"#utility.yul\":805:832   */\n      slt\n        /* \"#utility.yul\":795:917   */\n      tag_72\n      jumpi\n        /* \"#utility.yul\":836:915   */\n      tag_73\n      tag_74\n      jump\t// in\n    tag_73:\n        /* \"#utility.yul\":795:917   */\n    tag_72:\n        /* \"#utility.yul\":953:959   */\n      dup2\n        /* \"#utility.yul\":940:960   */\n      calldataload\n        /* \"#utility.yul\":978:1057   */\n      tag_75\n        /* \"#utility.yul\":1053:1056   */\n      dup5\n        /* \"#utility.yul\":1045:1051   */\n      dup3\n        /* \"#utility.yul\":1038:1042   */\n      0x20\n        /* \"#utility.yul\":1030:1036   */\n      dup7\n        /* \"#utility.yul\":1026:1043   */\n      add\n        /* \"#utility.yul\":978:1057   */\n      tag_51\n      jump\t// in\n    tag_75:\n        /* \"#utility.yul\":969:1057   */\n      swap2\n      pop\n        /* \"#utility.yul\":785:1063   */\n      pop\n        /* \"#utility.yul\":723:1063   */\n      swap3\n      swap2\n      pop\n      pop\n      jump\t// out\n        /* \"#utility.yul\":1069:1208   */\n    tag_76:\n        /* \"#utility.yul\":1115:1120   */\n      0x00\n        /* \"#utility.yul\":1153:1159   */\n      dup2\n        /* \"#utility.yul\":1140:1160   */\n      calldataload\n        /* \"#utility.yul\":1131:1160   */\n      swap1\n      pop\n        /* \"#utility.yul\":1169:1202   */\n      tag_78\n        /* \"#utility.yul\":1196:1201   */\n      dup2\n        /* \"#utility.yul\":1169:1202   */\n      tag_79\n      jump\t// in\n    tag_78:\n        /* \"#utility.yul\":1069:1208   */\n      swap3\n      swap2\n      pop\n      pop\n      jump\t// out\n        /* \"#utility.yul\":1214:1543   */\n    tag_19:\n        /* \"#utility.yul\":1273:1279   */\n      0x00\n        /* \"#utility.yul\":1322:1324   */\n      0x20\n        /* \"#utility.yul\":1310:1319   */\n      dup3\n        /* \"#utility.yul\":1301:1308   */\n      dup5\n        /* \"#utility.yul\":1297:1320   */\n      sub\n        /* \"#utility.yul\":1293:1325   */\n      slt\n        /* \"#utility.yul\":1290:1409   */\n      iszero\n      tag_81\n      jumpi\n        /* \"#utility.yul\":1328:1407   */\n      tag_82\n      tag_83\n      jump\t// in\n    tag_82:\n        /* \"#utility.yul\":1290:1409   */\n    tag_81:\n        /* \"#utility.yul\":1448:1449   */\n      0x00\n        /* \"#utility.yul\":1473:1526   */\n      tag_84\n        /* \"#utility.yul\":1518:1525   */\n      dup5\n        /* \"#utility.yul\":1509:1515   */\n      dup3\n        /* \"#utility.yul\":1498:1507   */\n      dup6\n        /* \"#utility.yul\":1494:1516   */\n      add\n        /* \"#utility.yul\":1473:1526   */\n      tag_62\n      jump\t// in\n    tag_84:\n        /* \"#utility.yul\":1463:1526   */\n      swap2\n      pop\n        /* \"#utility.yul\":1419:1536   */\n      pop\n        /* \"#utility.yul\":1214:1543   */\n      swap3\n      swap2\n      pop\n      pop\n      jump\t// out\n        /* \"#utility.yul\":1549:2960   */\n    tag_8:\n        /* \"#utility.yul\":1670:1676   */\n      0x00\n        /* \"#utility.yul\":1678:1684   */\n      dup1\n        /* \"#utility.yul\":1686:1692   */\n      0x00\n        /* \"#utility.yul\":1694:1700   */\n      dup1\n        /* \"#utility.yul\":1702:1708   */\n      0x00\n        /* \"#utility.yul\":1710:1716   */\n      dup1\n        /* \"#utility.yul\":1759:1762   */\n      0xc0\n        /* \"#utility.yul\":1747:1756   */\n      dup8\n        /* \"#utility.yul\":1738:1745   */\n      dup10\n        /* \"#utility.yul\":1734:1757   */\n      sub\n        /* \"#utility.yul\":1730:1763   */\n      slt\n        /* \"#utility.yul\":1727:1847   */\n      iszero\n      tag_86\n      jumpi\n        /* \"#utility.yul\":1766:1845   */\n      tag_87\n      tag_83\n      jump\t// in\n    tag_87:\n        /* \"#utility.yul\":1727:1847   */\n    tag_86:\n        /* \"#utility.yul\":1886:1887   */\n      0x00\n        /* \"#utility.yul\":1911:1964   */\n      tag_88\n        /* \"#utility.yul\":1956:1963   */\n      dup10\n        /* \"#utility.yul\":1947:1953   */\n      dup3\n        /* \"#utility.yul\":1936:1945   */\n      dup11\n        /* \"#utility.yul\":1932:1954   */\n      add\n        /* \"#utility.yul\":1911:1964   */\n      tag_62\n      jump\t// in\n    tag_88:\n        /* \"#utility.yul\":1901:1964   */\n      swap7\n      pop\n        /* \"#utility.yul\":1857:1974   */\n      pop\n        /* \"#utility.yul\":2041:2043   */\n      0x20\n        /* \"#utility.yul\":2030:2039   */\n      dup8\n        /* \"#utility.yul\":2026:2044   */\n      add\n        /* \"#utility.yul\":2013:2045   */\n      calldataload\n        /* \"#utility.yul\":2072:2090   */\n      0xffffffffffffffff\n        /* \"#utility.yul\":2064:2070   */\n      dup2\n        /* \"#utility.yul\":2061:2091   */\n      gt\n        /* \"#utility.yul\":2058:2175   */\n      iszero\n      tag_89\n      jumpi\n        /* \"#utility.yul\":2094:2173   */\n      tag_90\n      tag_91\n      jump\t// in\n    tag_90:\n        /* \"#utility.yul\":2058:2175   */\n    tag_89:\n        /* \"#utility.yul\":2199:2262   */\n      tag_92\n        /* \"#utility.yul\":2254:2261   */\n      dup10\n        /* \"#utility.yul\":2245:2251   */\n      dup3\n        /* \"#utility.yul\":2234:2243   */\n      dup11\n        /* \"#utility.yul\":2230:2252   */\n      add\n        /* \"#utility.yul\":2199:2262   */\n      tag_70\n      jump\t// in\n    tag_92:\n        /* \"#utility.yul\":2189:2262   */\n      swap6\n      pop\n        /* \"#utility.yul\":1984:2272   */\n      pop\n        /* \"#utility.yul\":2339:2341   */\n      0x40\n        /* \"#utility.yul\":2328:2337   */\n      dup8\n        /* \"#utility.yul\":2324:2342   */\n      add\n        /* \"#utility.yul\":2311:2343   */\n      calldataload\n        /* \"#utility.yul\":2370:2388   */\n      0xffffffffffffffff\n        /* \"#utility.yul\":2362:2368   */\n      dup2\n        /* \"#utility.yul\":2359:2389   */\n      gt\n        /* \"#utility.yul\":2356:2473   */\n      iszero\n      tag_93\n      jumpi\n        /* \"#utility.yul\":2392:2471   */\n      tag_94\n      tag_91\n      jump\t// in\n    tag_94:\n        /* \"#utility.yul\":2356:2473   */\n    tag_93:\n        /* \"#utility.yul\":2497:2560   */\n      tag_95\n        /* \"#utility.yul\":2552:2559   */\n      dup10\n        /* \"#utility.yul\":2543:2549   */\n      dup3\n        /* \"#utility.yul\":2532:2541   */\n      dup11\n        /* \"#utility.yul\":2528:2550   */\n      add\n        /* \"#utility.yul\":2497:2560   */\n      tag_70\n      jump\t// in\n    tag_95:\n        /* \"#utility.yul\":2487:2560   */\n      swap5\n      pop\n        /* \"#utility.yul\":2282:2570   */\n      pop\n        /* \"#utility.yul\":2609:2611   */\n      0x60\n        /* \"#utility.yul\":2635:2688   */\n      tag_96\n        /* \"#utility.yul\":2680:2687   */\n      dup10\n        /* \"#utility.yul\":2671:2677   */\n      dup3\n        /* \"#utility.yul\":2660:2669   */\n      dup11\n        /* \"#utility.yul\":2656:2678   */\n      add\n        /* \"#utility.yul\":2635:2688   */\n      tag_76\n      jump\t// in\n    tag_96:\n        /* \"#utility.yul\":2625:2688   */\n      swap4\n      pop\n        /* \"#utility.yul\":2580:2698   */\n      pop\n        /* \"#utility.yul\":2737:2740   */\n      0x80\n        /* \"#utility.yul\":2764:2817   */\n      tag_97\n        /* \"#utility.yul\":2809:2816   */\n      dup10\n        /* \"#utility.yul\":2800:2806   */\n      dup3\n        /* \"#utility.yul\":2789:2798   */\n      dup11\n        /* \"#utility.yul\":2785:2807   */\n      add\n        /* \"#utility.yul\":2764:2817   */\n      tag_76\n      jump\t// in\n    tag_97:\n        /* \"#utility.yul\":2754:2817   */\n      swap3\n      pop\n        /* \"#utility.yul\":2708:2827   */\n      pop\n        /* \"#utility.yul\":2866:2869   */\n      0xa0\n        /* \"#utility.yul\":2893:2943   */\n      tag_98\n        /* \"#utility.yul\":2935:2942   */\n      dup10\n        /* \"#utility.yul\":2926:2932   */\n      dup3\n        /* \"#utility.yul\":2915:2924   */\n      dup11\n        /* \"#utility.yul\":2911:2933   */\n      add\n        /* \"#utility.yul\":2893:2943   */\n      tag_66\n      jump\t// in\n    tag_98:\n        /* \"#utility.yul\":2883:2943   */\n      swap2\n      pop\n        /* \"#utility.yul\":2837:2953   */\n      pop\n        /* \"#utility.yul\":1549:2960   */\n      swap3\n      swap6\n      pop\n      swap3\n      swap6\n      pop\n      swap3\n      swap6\n      jump\t// out\n        /* \"#utility.yul\":2966:3295   */\n    tag_13:\n        /* \"#utility.yul\":3025:3031   */\n      0x00\n        /* \"#utility.yul\":3074:3076   */\n      0x20\n        /* \"#utility.yul\":3062:3071   */\n      dup3\n        /* \"#utility.yul\":3053:3060   */\n      dup5\n        /* \"#utility.yul\":3049:3072   */\n      sub\n        /* \"#utility.yul\":3045:3077   */\n      slt\n        /* \"#utility.yul\":3042:3161   */\n      iszero\n      tag_100\n      jumpi\n        /* \"#utility.yul\":3080:3159   */\n      tag_101\n      tag_83\n      jump\t// in\n    tag_101:\n        /* \"#utility.yul\":3042:3161   */\n    tag_100:\n        /* \"#utility.yul\":3200:3201   */\n      0x00\n        /* \"#utility.yul\":3225:3278   */\n      tag_102\n        /* \"#utility.yul\":3270:3277   */\n      dup5\n        /* \"#utility.yul\":3261:3267   */\n      dup3\n        /* \"#utility.yul\":3250:3259   */\n      dup6\n        /* \"#utility.yul\":3246:3268   */\n      add\n        /* \"#utility.yul\":3225:3278   */\n      tag_76\n      jump\t// in\n    tag_102:\n        /* \"#utility.yul\":3215:3278   */\n      swap2\n      pop\n        /* \"#utility.yul\":3171:3288   */\n      pop\n        /* \"#utility.yul\":2966:3295   */\n      swap3\n      swap2\n      pop\n      pop\n      jump\t// out\n        /* \"#utility.yul\":3301:3419   */\n    tag_103:\n        /* \"#utility.yul\":3388:3412   */\n      tag_105\n        /* \"#utility.yul\":3406:3411   */\n      dup2\n        /* \"#utility.yul\":3388:3412   */\n      tag_106\n      jump\t// in\n    tag_105:\n        /* \"#utility.yul\":3383:3386   */\n      dup3\n        /* \"#utility.yul\":3376:3413   */\n      mstore\n        /* \"#utility.yul\":3301:3419   */\n      pop\n      pop\n      jump\t// out\n        /* \"#utility.yul\":3425:3534   */\n    tag_107:\n        /* \"#utility.yul\":3506:3527   */\n      tag_109\n        /* \"#utility.yul\":3521:3526   */\n      dup2\n        /* \"#utility.yul\":3506:3527   */\n      tag_110\n      jump\t// in\n    tag_109:\n        /* \"#utility.yul\":3501:3504   */\n      dup3\n        /* \"#utility.yul\":3494:3528   */\n      mstore\n        /* \"#utility.yul\":3425:3534   */\n      pop\n      pop\n      jump\t// out\n        /* \"#utility.yul\":3540:3904   */\n    tag_111:\n        /* \"#utility.yul\":3628:3631   */\n      0x00\n        /* \"#utility.yul\":3656:3695   */\n      tag_113\n        /* \"#utility.yul\":3689:3694   */\n      dup3\n        /* \"#utility.yul\":3656:3695   */\n      tag_114\n      jump\t// in\n    tag_113:\n        /* \"#utility.yul\":3711:3782   */\n      tag_115\n        /* \"#utility.yul\":3775:3781   */\n      dup2\n        /* \"#utility.yul\":3770:3773   */\n      dup6\n        /* \"#utility.yul\":3711:3782   */\n      tag_116\n      jump\t// in\n    tag_115:\n        /* \"#utility.yul\":3704:3782   */\n      swap4\n      pop\n        /* \"#utility.yul\":3791:3843   */\n      tag_117\n        /* \"#utility.yul\":3836:3842   */\n      dup2\n        /* \"#utility.yul\":3831:3834   */\n      dup6\n        /* \"#utility.yul\":3824:3828   */\n      0x20\n        /* \"#utility.yul\":3817:3822   */\n      dup7\n        /* \"#utility.yul\":3813:3829   */\n      add\n        /* \"#utility.yul\":3791:3843   */\n      tag_118\n      jump\t// in\n    tag_117:\n        /* \"#utility.yul\":3868:3897   */\n      tag_119\n        /* \"#utility.yul\":3890:3896   */\n      dup2\n        /* \"#utility.yul\":3868:3897   */\n      tag_120\n      jump\t// in\n    tag_119:\n        /* \"#utility.yul\":3863:3866   */\n      dup5\n        /* \"#utility.yul\":3859:3898   */\n      add\n        /* \"#utility.yul\":3852:3898   */\n      swap2\n      pop\n        /* \"#utility.yul\":3632:3904   */\n      pop\n        /* \"#utility.yul\":3540:3904   */\n      swap3\n      swap2\n      pop\n      pop\n      jump\t// out\n        /* \"#utility.yul\":3910:4028   */\n    tag_121:\n        /* \"#utility.yul\":3997:4021   */\n      tag_123\n        /* \"#utility.yul\":4015:4020   */\n      dup2\n        /* \"#utility.yul\":3997:4021   */\n      tag_124\n      jump\t// in\n    tag_123:\n        /* \"#utility.yul\":3992:3995   */\n      dup3\n        /* \"#utility.yul\":3985:4022   */\n      mstore\n        /* \"#utility.yul\":3910:4028   */\n      pop\n      pop\n      jump\t// out\n        /* \"#utility.yul\":4034:4979   */\n    tag_16:\n        /* \"#utility.yul\":4301:4305   */\n      0x00\n        /* \"#utility.yul\":4339:4342   */\n      0xc0\n        /* \"#utility.yul\":4328:4337   */\n      dup3\n        /* \"#utility.yul\":4324:4343   */\n      add\n        /* \"#utility.yul\":4316:4343   */\n      swap1\n      pop\n        /* \"#utility.yul\":4353:4424   */\n      tag_126\n        /* \"#utility.yul\":4421:4422   */\n      0x00\n        /* \"#utility.yul\":4410:4419   */\n      dup4\n        /* \"#utility.yul\":4406:4423   */\n      add\n        /* \"#utility.yul\":4397:4403   */\n      dup10\n        /* \"#utility.yul\":4353:4424   */\n      tag_103\n      jump\t// in\n    tag_126:\n        /* \"#utility.yul\":4471:4480   */\n      dup2\n        /* \"#utility.yul\":4465:4469   */\n      dup2\n        /* \"#utility.yul\":4461:4481   */\n      sub\n        /* \"#utility.yul\":4456:4458   */\n      0x20\n        /* \"#utility.yul\":4445:4454   */\n      dup4\n        /* \"#utility.yul\":4441:4459   */\n      add\n        /* \"#utility.yul\":4434:4482   */\n      mstore\n        /* \"#utility.yul\":4499:4577   */\n      tag_127\n        /* \"#utility.yul\":4572:4576   */\n      dup2\n        /* \"#utility.yul\":4563:4569   */\n      dup9\n        /* \"#utility.yul\":4499:4577   */\n      tag_111\n      jump\t// in\n    tag_127:\n        /* \"#utility.yul\":4491:4577   */\n      swap1\n      pop\n        /* \"#utility.yul\":4624:4633   */\n      dup2\n        /* \"#utility.yul\":4618:4622   */\n      dup2\n        /* \"#utility.yul\":4614:4634   */\n      sub\n        /* \"#utility.yul\":4609:4611   */\n      0x40\n        /* \"#utility.yul\":4598:4607   */\n      dup4\n        /* \"#utility.yul\":4594:4612   */\n      add\n        /* \"#utility.yul\":4587:4635   */\n      mstore\n        /* \"#utility.yul\":4652:4730   */\n      tag_128\n        /* \"#utility.yul\":4725:4729   */\n      dup2\n        /* \"#utility.yul\":4716:4722   */\n      dup8\n        /* \"#utility.yul\":4652:4730   */\n      tag_111\n      jump\t// in\n    tag_128:\n        /* \"#utility.yul\":4644:4730   */\n      swap1\n      pop\n        /* \"#utility.yul\":4740:4812   */\n      tag_129\n        /* \"#utility.yul\":4808:4810   */\n      0x60\n        /* \"#utility.yul\":4797:4806   */\n      dup4\n        /* \"#utility.yul\":4793:4811   */\n      add\n        /* \"#utility.yul\":4784:4790   */\n      dup7\n        /* \"#utility.yul\":4740:4812   */\n      tag_121\n      jump\t// in\n    tag_129:\n        /* \"#utility.yul\":4822:4895   */\n      tag_130\n        /* \"#utility.yul\":4890:4893   */\n      0x80\n        /* \"#utility.yul\":4879:4888   */\n      dup4\n        /* \"#utility.yul\":4875:4894   */\n      add\n        /* \"#utility.yul\":4866:4872   */\n      dup6\n        /* \"#utility.yul\":4822:4895   */\n      tag_121\n      jump\t// in\n    tag_130:\n        /* \"#utility.yul\":4905:4972   */\n      tag_131\n        /* \"#utility.yul\":4967:4970   */\n      0xa0\n        /* \"#utility.yul\":4956:4965   */\n      dup4\n        /* \"#utility.yul\":4952:4971   */\n      add\n        /* \"#utility.yul\":4943:4949   */\n      dup5\n        /* \"#utility.yul\":4905:4972   */\n      tag_107\n      jump\t// in\n    tag_131:\n        /* \"#utility.yul\":4034:4979   */\n      swap8\n      swap7\n      pop\n      pop\n      pop\n      pop\n      pop\n      pop\n      pop\n      jump\t// out\n        /* \"#utility.yul\":4985:5114   */\n    tag_56:\n        /* \"#utility.yul\":5019:5025   */\n      0x00\n        /* \"#utility.yul\":5046:5066   */\n      tag_133\n      tag_134\n      jump\t// in\n    tag_133:\n        /* \"#utility.yul\":5036:5066   */\n      swap1\n      pop\n        /* \"#utility.yul\":5075:5108   */\n      tag_135\n        /* \"#utility.yul\":5103:5107   */\n      dup3\n        /* \"#utility.yul\":5095:5101   */\n      dup3\n        /* \"#utility.yul\":5075:5108   */\n      tag_136\n      jump\t// in\n    tag_135:\n        /* \"#utility.yul\":4985:5114   */\n      swap2\n      swap1\n      pop\n      jump\t// out\n        /* \"#utility.yul\":5120:5195   */\n    tag_134:\n        /* \"#utility.yul\":5153:5159   */\n      0x00\n        /* \"#utility.yul\":5186:5188   */\n      0x40\n        /* \"#utility.yul\":5180:5189   */\n      mload\n        /* \"#utility.yul\":5170:5189   */\n      swap1\n      pop\n        /* \"#utility.yul\":5120:5195   */\n      swap1\n      jump\t// out\n        /* \"#utility.yul\":5201:5509   */\n    tag_55:\n        /* \"#utility.yul\":5263:5267   */\n      0x00\n        /* \"#utility.yul\":5353:5371   */\n      0xffffffffffffffff\n        /* \"#utility.yul\":5345:5351   */\n      dup3\n        /* \"#utility.yul\":5342:5372   */\n      gt\n        /* \"#utility.yul\":5339:5395   */\n      iszero\n      tag_139\n      jumpi\n        /* \"#utility.yul\":5375:5393   */\n      tag_140\n      tag_141\n      jump\t// in\n    tag_140:\n        /* \"#utility.yul\":5339:5395   */\n    tag_139:\n        /* \"#utility.yul\":5413:5442   */\n      tag_142\n        /* \"#utility.yul\":5435:5441   */\n      dup3\n        /* \"#utility.yul\":5413:5442   */\n      tag_120\n      jump\t// in\n    tag_142:\n        /* \"#utility.yul\":5405:5442   */\n      swap1\n      pop\n        /* \"#utility.yul\":5497:5501   */\n      0x20\n        /* \"#utility.yul\":5491:5495   */\n      dup2\n        /* \"#utility.yul\":5487:5502   */\n      add\n        /* \"#utility.yul\":5479:5502   */\n      swap1\n      pop\n        /* \"#utility.yul\":5201:5509   */\n      swap2\n      swap1\n      pop\n      jump\t// out\n        /* \"#utility.yul\":5515:5614   */\n    tag_114:\n        /* \"#utility.yul\":5567:5573   */\n      0x00\n        /* \"#utility.yul\":5601:5606   */\n      dup2\n        /* \"#utility.yul\":5595:5607   */\n      mload\n        /* \"#utility.yul\":5585:5607   */\n      swap1\n      pop\n        /* \"#utility.yul\":5515:5614   */\n      swap2\n      swap1\n      pop\n      jump\t// out\n        /* \"#utility.yul\":5620:5789   */\n    tag_116:\n        /* \"#utility.yul\":5704:5715   */\n      0x00\n        /* \"#utility.yul\":5738:5744   */\n      dup3\n        /* \"#utility.yul\":5733:5736   */\n      dup3\n        /* \"#utility.yul\":5726:5745   */\n      mstore\n        /* \"#utility.yul\":5778:5782   */\n      0x20\n        /* \"#utility.yul\":5773:5776   */\n      dup3\n        /* \"#utility.yul\":5769:5783   */\n      add\n        /* \"#utility.yul\":5754:5783   */\n      swap1\n      pop\n        /* \"#utility.yul\":5620:5789   */\n      swap3\n      swap2\n      pop\n      pop\n      jump\t// out\n        /* \"#utility.yul\":5795:5891   */\n    tag_106:\n        /* \"#utility.yul\":5832:5839   */\n      0x00\n        /* \"#utility.yul\":5861:5885   */\n      tag_146\n        /* \"#utility.yul\":5879:5884   */\n      dup3\n        /* \"#utility.yul\":5861:5885   */\n      tag_147\n      jump\t// in\n    tag_146:\n        /* \"#utility.yul\":5850:5885   */\n      swap1\n      pop\n        /* \"#utility.yul\":5795:5891   */\n      swap2\n      swap1\n      pop\n      jump\t// out\n        /* \"#utility.yul\":5897:5987   */\n    tag_110:\n        /* \"#utility.yul\":5931:5938   */\n      0x00\n        /* \"#utility.yul\":5974:5979   */\n      dup2\n        /* \"#utility.yul\":5967:5980   */\n      iszero\n        /* \"#utility.yul\":5960:5981   */\n      iszero\n        /* \"#utility.yul\":5949:5981   */\n      swap1\n      pop\n        /* \"#utility.yul\":5897:5987   */\n      swap2\n      swap1\n      pop\n      jump\t// out\n        /* \"#utility.yul\":5993:6119   */\n    tag_147:\n        /* \"#utility.yul\":6030:6037   */\n      0x00\n        /* \"#utility.yul\":6070:6112   */\n      0xffffffffffffffffffffffffffffffffffffffff\n        /* \"#utility.yul\":6063:6068   */\n      dup3\n        /* \"#utility.yul\":6059:6113   */\n      and\n        /* \"#utility.yul\":6048:6113   */\n      swap1\n      pop\n        /* \"#utility.yul\":5993:6119   */\n      swap2\n      swap1\n      pop\n      jump\t// out\n        /* \"#utility.yul\":6125:6202   */\n    tag_124:\n        /* \"#utility.yul\":6162:6169   */\n      0x00\n        /* \"#utility.yul\":6191:6196   */\n      dup2\n        /* \"#utility.yul\":6180:6196   */\n      swap1\n      pop\n        /* \"#utility.yul\":6125:6202   */\n      swap2\n      swap1\n      pop\n      jump\t// out\n        /* \"#utility.yul\":6208:6362   */\n    tag_61:\n        /* \"#utility.yul\":6292:6298   */\n      dup3\n        /* \"#utility.yul\":6287:6290   */\n      dup2\n        /* \"#utility.yul\":6282:6285   */\n      dup4\n        /* \"#utility.yul\":6269:6299   */\n      calldatacopy\n        /* \"#utility.yul\":6354:6355   */\n      0x00\n        /* \"#utility.yul\":6345:6351   */\n      dup4\n        /* \"#utility.yul\":6340:6343   */\n      dup4\n        /* \"#utility.yul\":6336:6352   */\n      add\n        /* \"#utility.yul\":6329:6356   */\n      mstore\n        /* \"#utility.yul\":6208:6362   */\n      pop\n      pop\n      pop\n      jump\t// out\n        /* \"#utility.yul\":6368:6675   */\n    tag_118:\n        /* \"#utility.yul\":6436:6437   */\n      0x00\n        /* \"#utility.yul\":6446:6559   */\n    tag_153:\n        /* \"#utility.yul\":6460:6466   */\n      dup4\n        /* \"#utility.yul\":6457:6458   */\n      dup2\n        /* \"#utility.yul\":6454:6467   */\n      lt\n        /* \"#utility.yul\":6446:6559   */\n      iszero\n      tag_155\n      jumpi\n        /* \"#utility.yul\":6545:6546   */\n      dup1\n        /* \"#utility.yul\":6540:6543   */\n      dup3\n        /* \"#utility.yul\":6536:6547   */\n      add\n        /* \"#utility.yul\":6530:6548   */\n      mload\n        /* \"#utility.yul\":6526:6527   */\n      dup2\n        /* \"#utility.yul\":6521:6524   */\n      dup5\n        /* \"#utility.yul\":6517:6528   */\n      add\n        /* \"#utility.yul\":6510:6549   */\n      mstore\n        /* \"#utility.yul\":6482:6484   */\n      0x20\n        /* \"#utility.yul\":6479:6480   */\n      dup2\n        /* \"#utility.yul\":6475:6485   */\n      add\n        /* \"#utility.yul\":6470:6485   */\n      swap1\n      pop\n        /* \"#utility.yul\":6446:6559   */\n      jump(tag_153)\n    tag_155:\n        /* \"#utility.yul\":6577:6583   */\n      dup4\n        /* \"#utility.yul\":6574:6575   */\n      dup2\n        /* \"#utility.yul\":6571:6584   */\n      gt\n        /* \"#utility.yul\":6568:6669   */\n      iszero\n      tag_156\n      jumpi\n        /* \"#utility.yul\":6657:6658   */\n      0x00\n        /* \"#utility.yul\":6648:6654   */\n      dup5\n        /* \"#utility.yul\":6643:6646   */\n      dup5\n        /* \"#utility.yul\":6639:6655   */\n      add\n        /* \"#utility.yul\":6632:6659   */\n      mstore\n        /* \"#utility.yul\":6568:6669   */\n    tag_156:\n        /* \"#utility.yul\":6417:6675   */\n      pop\n        /* \"#utility.yul\":6368:6675   */\n      pop\n      pop\n      pop\n      jump\t// out\n        /* \"#utility.yul\":6681:7001   */\n    tag_29:\n        /* \"#utility.yul\":6725:6731   */\n      0x00\n        /* \"#utility.yul\":6762:6763   */\n      0x02\n        /* \"#utility.yul\":6756:6760   */\n      dup3\n        /* \"#utility.yul\":6752:6764   */\n      div\n        /* \"#utility.yul\":6742:6764   */\n      swap1\n      pop\n        /* \"#utility.yul\":6809:6810   */\n      0x01\n        /* \"#utility.yul\":6803:6807   */\n      dup3\n        /* \"#utility.yul\":6799:6811   */\n      and\n        /* \"#utility.yul\":6830:6848   */\n      dup1\n        /* \"#utility.yul\":6820:6901   */\n      tag_158\n      jumpi\n        /* \"#utility.yul\":6886:6890   */\n      0x7f\n        /* \"#utility.yul\":6878:6884   */\n      dup3\n        /* \"#utility.yul\":6874:6891   */\n      and\n        /* \"#utility.yul\":6864:6891   */\n      swap2\n      pop\n        /* \"#utility.yul\":6820:6901   */\n    tag_158:\n        /* \"#utility.yul\":6948:6950   */\n      0x20\n        /* \"#utility.yul\":6940:6946   */\n      dup3\n        /* \"#utility.yul\":6937:6951   */\n      lt\n        /* \"#utility.yul\":6917:6935   */\n      dup2\n        /* \"#utility.yul\":6914:6952   */\n      eq\n        /* \"#utility.yul\":6911:6995   */\n      iszero\n      tag_159\n      jumpi\n        /* \"#utility.yul\":6967:6985   */\n      tag_160\n      tag_161\n      jump\t// in\n    tag_160:\n        /* \"#utility.yul\":6911:6995   */\n    tag_159:\n        /* \"#utility.yul\":6732:7001   */\n      pop\n        /* \"#utility.yul\":6681:7001   */\n      swap2\n      swap1\n      pop\n      jump\t// out\n        /* \"#utility.yul\":7007:7288   */\n    tag_136:\n        /* \"#utility.yul\":7090:7117   */\n      tag_163\n        /* \"#utility.yul\":7112:7116   */\n      dup3\n        /* \"#utility.yul\":7090:7117   */\n      tag_120\n      jump\t// in\n    tag_163:\n        /* \"#utility.yul\":7082:7088   */\n      dup2\n        /* \"#utility.yul\":7078:7118   */\n      add\n        /* \"#utility.yul\":7220:7226   */\n      dup2\n        /* \"#utility.yul\":7208:7218   */\n      dup2\n        /* \"#utility.yul\":7205:7227   */\n      lt\n        /* \"#utility.yul\":7184:7202   */\n      0xffffffffffffffff\n        /* \"#utility.yul\":7172:7182   */\n      dup3\n        /* \"#utility.yul\":7169:7203   */\n      gt\n        /* \"#utility.yul\":7166:7228   */\n      or\n        /* \"#utility.yul\":7163:7251   */\n      iszero\n      tag_164\n      jumpi\n        /* \"#utility.yul\":7231:7249   */\n      tag_165\n      tag_141\n      jump\t// in\n    tag_165:\n        /* \"#utility.yul\":7163:7251   */\n    tag_164:\n        /* \"#utility.yul\":7271:7281   */\n      dup1\n        /* \"#utility.yul\":7267:7269   */\n      0x40\n        /* \"#utility.yul\":7260:7282   */\n      mstore\n        /* \"#utility.yul\":7050:7288   */\n      pop\n        /* \"#utility.yul\":7007:7288   */\n      pop\n      pop\n      jump\t// out\n        /* \"#utility.yul\":7294:7474   */\n    tag_161:\n        /* \"#utility.yul\":7342:7419   */\n      0x4e487b7100000000000000000000000000000000000000000000000000000000\n        /* \"#utility.yul\":7339:7340   */\n      0x00\n        /* \"#utility.yul\":7332:7420   */\n      mstore\n        /* \"#utility.yul\":7439:7443   */\n      0x22\n        /* \"#utility.yul\":7436:7437   */\n      0x04\n        /* \"#utility.yul\":7429:7444   */\n      mstore\n        /* \"#utility.yul\":7463:7467   */\n      0x24\n        /* \"#utility.yul\":7460:7461   */\n      0x00\n        /* \"#utility.yul\":7453:7468   */\n      revert\n        /* \"#utility.yul\":7480:7660   */\n    tag_141:\n        /* \"#utility.yul\":7528:7605   */\n      0x4e487b7100000000000000000000000000000000000000000000000000000000\n        /* \"#utility.yul\":7525:7526   */\n      0x00\n        /* \"#utility.yul\":7518:7606   */\n      mstore\n        /* \"#utility.yul\":7625:7629   */\n      0x41\n        /* \"#utility.yul\":7622:7623   */\n      0x04\n        /* \"#utility.yul\":7615:7630   */\n      mstore\n        /* \"#utility.yul\":7649:7653   */\n      0x24\n        /* \"#utility.yul\":7646:7647   */\n      0x00\n        /* \"#utility.yul\":7639:7654   */\n      revert\n        /* \"#utility.yul\":7666:7783   */\n    tag_74:\n        /* \"#utility.yul\":7775:7776   */\n      0x00\n        /* \"#utility.yul\":7772:7773   */\n      dup1\n        /* \"#utility.yul\":7765:7777   */\n      revert\n        /* \"#utility.yul\":7789:7906   */\n    tag_59:\n        /* \"#utility.yul\":7898:7899   */\n      0x00\n        /* \"#utility.yul\":7895:7896   */\n      dup1\n        /* \"#utility.yul\":7888:7900   */\n      revert\n        /* \"#utility.yul\":7912:8029   */\n    tag_91:\n        /* \"#utility.yul\":8021:8022   */\n      0x00\n        /* \"#utility.yul\":8018:8019   */\n      dup1\n        /* \"#utility.yul\":8011:8023   */\n      revert\n        /* \"#utility.yul\":8035:8152   */\n    tag_83:\n        /* \"#utility.yul\":8144:8145   */\n      0x00\n        /* \"#utility.yul\":8141:8142   */\n      dup1\n        /* \"#utility.yul\":8134:8146   */\n      revert\n        /* \"#utility.yul\":8158:8260   */\n    tag_120:\n        /* \"#utility.yul\":8199:8205   */\n      0x00\n        /* \"#utility.yul\":8250:8252   */\n      0x1f\n        /* \"#utility.yul\":8246:8253   */\n      not\n        /* \"#utility.yul\":8241:8243   */\n      0x1f\n        /* \"#utility.yul\":8234:8239   */\n      dup4\n        /* \"#utility.yul\":8230:8244   */\n      add\n        /* \"#utility.yul\":8226:8254   */\n      and\n        /* \"#utility.yul\":8216:8254   */\n      swap1\n      pop\n        /* \"#utility.yul\":8158:8260   */\n      swap2\n      swap1\n      pop\n      jump\t// out\n        /* \"#utility.yul\":8266:8388   */\n    tag_65:\n        /* \"#utility.yul\":8339:8363   */\n      tag_174\n        /* \"#utility.yul\":8357:8362   */\n      dup2\n        /* \"#utility.yul\":8339:8363   */\n      tag_106\n      jump\t// in\n    tag_174:\n        /* \"#utility.yul\":8332:8337   */\n      dup2\n        /* \"#utility.yul\":8329:8364   */\n      eq\n        /* \"#utility.yul\":8319:8382   */\n      tag_175\n      jumpi\n        /* \"#utility.yul\":8378:8379   */\n      0x00\n        /* \"#utility.yul\":8375:8376   */\n      dup1\n        /* \"#utility.yul\":8368:8380   */\n      revert\n        /* \"#utility.yul\":8319:8382   */\n    tag_175:\n        /* \"#utility.yul\":8266:8388   */\n      pop\n      jump\t// out\n        /* \"#utility.yul\":8394:8510   */\n    tag_69:\n        /* \"#utility.yul\":8464:8485   */\n      tag_177\n        /* \"#utility.yul\":8479:8484   */\n      dup2\n        /* \"#utility.yul\":8464:8485   */\n      tag_110\n      jump\t// in\n    tag_177:\n        /* \"#utility.yul\":8457:8462   */\n      dup2\n        /* \"#utility.yul\":8454:8486   */\n      eq\n        /* \"#utility.yul\":8444:8504   */\n      tag_178\n      jumpi\n        /* \"#utility.yul\":8500:8501   */\n      0x00\n        /* \"#utility.yul\":8497:8498   */\n      dup1\n        /* \"#utility.yul\":8490:8502   */\n      revert\n        /* \"#utility.yul\":8444:8504   */\n    tag_178:\n        /* \"#utility.yul\":8394:8510   */\n      pop\n      jump\t// out\n        /* \"#utility.yul\":8516:8638   */\n    tag_79:\n        /* \"#utility.yul\":8589:8613   */\n      tag_180\n        /* \"#utility.yul\":8607:8612   */\n      dup2\n        /* \"#utility.yul\":8589:8613   */\n      tag_124\n      jump\t// in\n    tag_180:\n        /* \"#utility.yul\":8582:8587   */\n      dup2\n        /* \"#utility.yul\":8579:8614   */\n      eq\n        /* \"#utility.yul\":8569:8632   */\n      tag_181\n      jumpi\n        /* \"#utility.yul\":8628:8629   */\n      0x00\n        /* \"#utility.yul\":8625:8626   */\n      dup1\n        /* \"#utility.yul\":8618:8630   */\n      revert\n        /* \"#utility.yul\":8569:8632   */\n    tag_181:\n        /* \"#utility.yul\":8516:8638   */\n      pop\n      jump\t// out\n\n    auxdata: 0xa2646970667358221220436629ea5e47f830f78c914092df47913fc58d6f61dedd6daebc022f0e921f5664736f6c63430008070033\n}\n",
				"bytecode": {
					"linkReferences": {},
					"object": "608060405234801561001057600080fd5b50336000806101000a81548173ffffffffffffffffffffffffffffffffffffffff021916908373ffffffffffffffffffffffffffffffffffffffff16021790555061091e806100606000396000f3fe6080604052600436106100345760003560e01c806331d575c5146100395780637285fd3a14610062578063f340fa01146100a4575b600080fd5b34801561004557600080fd5b50610060600480360381019061005b91906104fa565b6100c0565b005b34801561006e57600080fd5b50610089600480360381019061008491906105bf565b6101ef565b60405161009b96959493929190610652565b60405180910390f35b6100be60048036038101906100b991906104cd565b610378565b005b60016040518060c001604052808873ffffffffffffffffffffffffffffffffffffffff168152602001878152602001868152602001858152602001848152602001831515815250908060018154018082558091505060019003906000526020600020906006020160009091909190915060008201518160000160006101000a81548173ffffffffffffffffffffffffffffffffffffffff021916908373ffffffffffffffffffffffffffffffffffffffff160217905550602082015181600101908051906020019061019392919061037b565b5060408201518160020190805190602001906101b092919061037b565b50606082015181600301556080820151816004015560a08201518160050160006101000a81548160ff0219169083151502179055505050505050505050565b600181815481106101ff57600080fd5b90600052602060002090600602016000915090508060000160009054906101000a900473ffffffffffffffffffffffffffffffffffffffff1690806001018054610248906107bd565b80601f0160208091040260200160405190810160405280929190818152602001828054610274906107bd565b80156102c15780601f10610296576101008083540402835291602001916102c1565b820191906000526020600020905b8154815290600101906020018083116102a457829003601f168201915b5050505050908060020180546102d6906107bd565b80601f0160208091040260200160405190810160405280929190818152602001828054610302906107bd565b801561034f5780601f106103245761010080835404028352916020019161034f565b820191906000526020600020905b81548152906001019060200180831161033257829003601f168201915b5050505050908060030154908060040154908060050160009054906101000a900460ff16905086565b50565b828054610387906107bd565b90600052602060002090601f0160209004810192826103a957600085556103f0565b82601f106103c257805160ff19168380011785556103f0565b828001600101855582156103f0579182015b828111156103ef5782518255916020019190600101906103d4565b5b5090506103fd9190610401565b5090565b5b8082111561041a576000816000905550600101610402565b5090565b600061043161042c846106e6565b6106c1565b90508281526020810184848401111561044d5761044c610883565b5b61045884828561077b565b509392505050565b60008135905061046f816108a3565b92915050565b600081359050610484816108ba565b92915050565b600082601f83011261049f5761049e61087e565b5b81356104af84826020860161041e565b91505092915050565b6000813590506104c7816108d1565b92915050565b6000602082840312156104e3576104e261088d565b5b60006104f184828501610460565b91505092915050565b60008060008060008060c087890312156105175761051661088d565b5b600061052589828a01610460565b965050602087013567ffffffffffffffff81111561054657610545610888565b5b61055289828a0161048a565b955050604087013567ffffffffffffffff81111561057357610572610888565b5b61057f89828a0161048a565b945050606061059089828a016104b8565b93505060806105a189828a016104b8565b92505060a06105b289828a01610475565b9150509295509295509295565b6000602082840312156105d5576105d461088d565b5b60006105e3848285016104b8565b91505092915050565b6105f581610733565b82525050565b61060481610745565b82525050565b600061061582610717565b61061f8185610722565b935061062f81856020860161078a565b61063881610892565b840191505092915050565b61064c81610771565b82525050565b600060c08201905061066760008301896105ec565b8181036020830152610679818861060a565b9050818103604083015261068d818761060a565b905061069c6060830186610643565b6106a96080830185610643565b6106b660a08301846105fb565b979650505050505050565b60006106cb6106dc565b90506106d782826107ef565b919050565b6000604051905090565b600067ffffffffffffffff8211156107015761070061084f565b5b61070a82610892565b9050602081019050919050565b600081519050919050565b600082825260208201905092915050565b600061073e82610751565b9050919050565b60008115159050919050565b600073ffffffffffffffffffffffffffffffffffffffff82169050919050565b6000819050919050565b82818337600083830152505050565b60005b838110156107a857808201518184015260208101905061078d565b838111156107b7576000848401525b50505050565b600060028204905060018216806107d557607f821691505b602082108114156107e9576107e8610820565b5b50919050565b6107f882610892565b810181811067ffffffffffffffff821117156108175761081661084f565b5b80604052505050565b7f4e487b7100000000000000000000000000000000000000000000000000000000600052602260045260246000fd5b7f4e487b7100000000000000000000000000000000000000000000000000000000600052604160045260246000fd5b600080fd5b600080fd5b600080fd5b600080fd5b6000601f19601f8301169050919050565b6108ac81610733565b81146108b757600080fd5b50565b6108c381610745565b81146108ce57600080fd5b50565b6108da81610771565b81146108e557600080fd5b5056fea2646970667358221220436629ea5e47f830f78c914092df47913fc58d6f61dedd6daebc022f0e921f5664736f6c63430008070033",
					"opcodes": "PUSH1 0x80 PUSH1 0x40 MSTORE CALLVALUE DUP1 ISZERO PUSH2 0x10 JUMPI PUSH1 0x0 DUP1 REVERT JUMPDEST POP CALLER PUSH1 0x0 DUP1 PUSH2 0x100 EXP DUP2 SLOAD DUP2 PUSH20 0xFFFFFFFFFFFFFFFFFFFFFFFFFFFFFFFFFFFFFFFF MUL NOT AND SWAP1 DUP4 PUSH20 0xFFFFFFFFFFFFFFFFFFFFFFFFFFFFFFFFFFFFFFFF AND MUL OR SWAP1 SSTORE POP PUSH2 0x91E DUP1 PUSH2 0x60 PUSH1 0x0 CODECOPY PUSH1 0x0 RETURN INVALID PUSH1 0x80 PUSH1 0x40 MSTORE PUSH1 0x4 CALLDATASIZE LT PUSH2 0x34 JUMPI PUSH1 0x0 CALLDATALOAD PUSH1 0xE0 SHR DUP1 PUSH4 0x31D575C5 EQ PUSH2 0x39 JUMPI DUP1 PUSH4 0x7285FD3A EQ PUSH2 0x62 JUMPI DUP1 PUSH4 0xF340FA01 EQ PUSH2 0xA4 JUMPI JUMPDEST PUSH1 0x0 DUP1 REVERT JUMPDEST CALLVALUE DUP1 ISZERO PUSH2 0x45 JUMPI PUSH1 0x0 DUP1 REVERT JUMPDEST POP PUSH2 0x60 PUSH1 0x4 DUP1 CALLDATASIZE SUB DUP2 ADD SWAP1 PUSH2 0x5B SWAP2 SWAP1 PUSH2 0x4FA JUMP JUMPDEST PUSH2 0xC0 JUMP JUMPDEST STOP JUMPDEST CALLVALUE DUP1 ISZERO PUSH2 0x6E JUMPI PUSH1 0x0 DUP1 REVERT JUMPDEST POP PUSH2 0x89 PUSH1 0x4 DUP1 CALLDATASIZE SUB DUP2 ADD SWAP1 PUSH2 0x84 SWAP2 SWAP1 PUSH2 0x5BF JUMP JUMPDEST PUSH2 0x1EF JUMP JUMPDEST PUSH1 0x40 MLOAD PUSH2 0x9B SWAP7 SWAP6 SWAP5 SWAP4 SWAP3 SWAP2 SWAP1 PUSH2 0x652 JUMP JUMPDEST PUSH1 0x40 MLOAD DUP1 SWAP2 SUB SWAP1 RETURN JUMPDEST PUSH2 0xBE PUSH1 0x4 DUP1 CALLDATASIZE SUB DUP2 ADD SWAP1 PUSH2 0xB9 SWAP2 SWAP1 PUSH2 0x4CD JUMP JUMPDEST PUSH2 0x378 JUMP JUMPDEST STOP JUMPDEST PUSH1 0x1 PUSH1 0x40 MLOAD DUP1 PUSH1 0xC0 ADD PUSH1 0x40 MSTORE DUP1 DUP9 PUSH20 0xFFFFFFFFFFFFFFFFFFFFFFFFFFFFFFFFFFFFFFFF AND DUP2 MSTORE PUSH1 0x20 ADD DUP8 DUP2 MSTORE PUSH1 0x20 ADD DUP7 DUP2 MSTORE PUSH1 0x20 ADD DUP6 DUP2 MSTORE PUSH1 0x20 ADD DUP5 DUP2 MSTORE PUSH1 0x20 ADD DUP4 ISZERO ISZERO DUP2 MSTORE POP SWAP1 DUP1 PUSH1 0x1 DUP2 SLOAD ADD DUP1 DUP3 SSTORE DUP1 SWAP2 POP POP PUSH1 0x1 SWAP1 SUB SWAP1 PUSH1 0x0 MSTORE PUSH1 0x20 PUSH1 0x0 KECCAK256 SWAP1 PUSH1 0x6 MUL ADD PUSH1 0x0 SWAP1 SWAP2 SWAP1 SWAP2 SWAP1 SWAP2 POP PUSH1 0x0 DUP3 ADD MLOAD DUP2 PUSH1 0x0 ADD PUSH1 0x0 PUSH2 0x100 EXP DUP2 SLOAD DUP2 PUSH20 0xFFFFFFFFFFFFFFFFFFFFFFFFFFFFFFFFFFFFFFFF MUL NOT AND SWAP1 DUP4 PUSH20 0xFFFFFFFFFFFFFFFFFFFFFFFFFFFFFFFFFFFFFFFF AND MUL OR SWAP1 SSTORE POP PUSH1 0x20 DUP3 ADD MLOAD DUP2 PUSH1 0x1 ADD SWAP1 DUP1 MLOAD SWAP1 PUSH1 0x20 ADD SWAP1 PUSH2 0x193 SWAP3 SWAP2 SWAP1 PUSH2 0x37B JUMP JUMPDEST POP PUSH1 0x40 DUP3 ADD MLOAD DUP2 PUSH1 0x2 ADD SWAP1 DUP1 MLOAD SWAP1 PUSH1 0x20 ADD SWAP1 PUSH2 0x1B0 SWAP3 SWAP2 SWAP1 PUSH2 0x37B JUMP JUMPDEST POP PUSH1 0x60 DUP3 ADD MLOAD DUP2 PUSH1 0x3 ADD SSTORE PUSH1 0x80 DUP3 ADD MLOAD DUP2 PUSH1 0x4 ADD SSTORE PUSH1 0xA0 DUP3 ADD MLOAD DUP2 PUSH1 0x5 ADD PUSH1 0x0 PUSH2 0x100 EXP DUP2 SLOAD DUP2 PUSH1 0xFF MUL NOT AND SWAP1 DUP4 ISZERO ISZERO MUL OR SWAP1 SSTORE POP POP POP POP POP POP POP POP POP JUMP JUMPDEST PUSH1 0x1 DUP2 DUP2 SLOAD DUP2 LT PUSH2 0x1FF JUMPI PUSH1 0x0 DUP1 REVERT JUMPDEST SWAP1 PUSH1 0x0 MSTORE PUSH1 0x20 PUSH1 0x0 KECCAK256 SWAP1 PUSH1 0x6 MUL ADD PUSH1 0x0 SWAP2 POP SWAP1 POP DUP1 PUSH1 0x0 ADD PUSH1 0x0 SWAP1 SLOAD SWAP1 PUSH2 0x100 EXP SWAP1 DIV PUSH20 0xFFFFFFFFFFFFFFFFFFFFFFFFFFFFFFFFFFFFFFFF AND SWAP1 DUP1 PUSH1 0x1 ADD DUP1 SLOAD PUSH2 0x248 SWAP1 PUSH2 0x7BD JUMP JUMPDEST DUP1 PUSH1 0x1F ADD PUSH1 0x20 DUP1 SWAP2 DIV MUL PUSH1 0x20 ADD PUSH1 0x40 MLOAD SWAP1 DUP2 ADD PUSH1 0x40 MSTORE DUP1 SWAP3 SWAP2 SWAP1 DUP2 DUP2 MSTORE PUSH1 0x20 ADD DUP3 DUP1 SLOAD PUSH2 0x274 SWAP1 PUSH2 0x7BD JUMP JUMPDEST DUP1 ISZERO PUSH2 0x2C1 JUMPI DUP1 PUSH1 0x1F LT PUSH2 0x296 JUMPI PUSH2 0x100 DUP1 DUP4 SLOAD DIV MUL DUP4 MSTORE SWAP2 PUSH1 0x20 ADD SWAP2 PUSH2 0x2C1 JUMP JUMPDEST DUP3 ADD SWAP2 SWAP1 PUSH1 0x0 MSTORE PUSH1 0x20 PUSH1 0x0 KECCAK256 SWAP1 JUMPDEST DUP2 SLOAD DUP2 MSTORE SWAP1 PUSH1 0x1 ADD SWAP1 PUSH1 0x20 ADD DUP1 DUP4 GT PUSH2 0x2A4 JUMPI DUP3 SWAP1 SUB PUSH1 0x1F AND DUP3 ADD SWAP2 JUMPDEST POP POP POP POP POP SWAP1 DUP1 PUSH1 0x2 ADD DUP1 SLOAD PUSH2 0x2D6 SWAP1 PUSH2 0x7BD JUMP JUMPDEST DUP1 PUSH1 0x1F ADD PUSH1 0x20 DUP1 SWAP2 DIV MUL PUSH1 0x20 ADD PUSH1 0x40 MLOAD SWAP1 DUP2 ADD PUSH1 0x40 MSTORE DUP1 SWAP3 SWAP2 SWAP1 DUP2 DUP2 MSTORE PUSH1 0x20 ADD DUP3 DUP1 SLOAD PUSH2 0x302 SWAP1 PUSH2 0x7BD JUMP JUMPDEST DUP1 ISZERO PUSH2 0x34F JUMPI DUP1 PUSH1 0x1F LT PUSH2 0x324 JUMPI PUSH2 0x100 DUP1 DUP4 SLOAD DIV MUL DUP4 MSTORE SWAP2 PUSH1 0x20 ADD SWAP2 PUSH2 0x34F JUMP JUMPDEST DUP3 ADD SWAP2 SWAP1 PUSH1 0x0 MSTORE PUSH1 0x20 PUSH1 0x0 KECCAK256 SWAP1 JUMPDEST DUP2 SLOAD DUP2 MSTORE SWAP1 PUSH1 0x1 ADD SWAP1 PUSH1 0x20 ADD DUP1 DUP4 GT PUSH2 0x332 JUMPI DUP3 SWAP1 SUB PUSH1 0x1F AND DUP3 ADD SWAP2 JUMPDEST POP POP POP POP POP SWAP1 DUP1 PUSH1 0x3 ADD SLOAD SWAP1 DUP1 PUSH1 0x4 ADD SLOAD SWAP1 DUP1 PUSH1 0x5 ADD PUSH1 0x0 SWAP1 SLOAD SWAP1 PUSH2 0x100 EXP SWAP1 DIV PUSH1 0xFF AND SWAP1 POP DUP7 JUMP JUMPDEST POP JUMP JUMPDEST DUP3 DUP1 SLOAD PUSH2 0x387 SWAP1 PUSH2 0x7BD JUMP JUMPDEST SWAP1 PUSH1 0x0 MSTORE PUSH1 0x20 PUSH1 0x0 KECCAK256 SWAP1 PUSH1 0x1F ADD PUSH1 0x20 SWAP1 DIV DUP2 ADD SWAP3 DUP3 PUSH2 0x3A9 JUMPI PUSH1 0x0 DUP6 SSTORE PUSH2 0x3F0 JUMP JUMPDEST DUP3 PUSH1 0x1F LT PUSH2 0x3C2 JUMPI DUP1 MLOAD PUSH1 0xFF NOT AND DUP4 DUP1 ADD OR DUP6 SSTORE PUSH2 0x3F0 JUMP JUMPDEST DUP3 DUP1 ADD PUSH1 0x1 ADD DUP6 SSTORE DUP3 ISZERO PUSH2 0x3F0 JUMPI SWAP2 DUP3 ADD JUMPDEST DUP3 DUP2 GT ISZERO PUSH2 0x3EF JUMPI DUP3 MLOAD DUP3 SSTORE SWAP2 PUSH1 0x20 ADD SWAP2 SWAP1 PUSH1 0x1 ADD SWAP1 PUSH2 0x3D4 JUMP JUMPDEST JUMPDEST POP SWAP1 POP PUSH2 0x3FD SWAP2 SWAP1 PUSH2 0x401 JUMP JUMPDEST POP SWAP1 JUMP JUMPDEST JUMPDEST DUP1 DUP3 GT ISZERO PUSH2 0x41A JUMPI PUSH1 0x0 DUP2 PUSH1 0x0 SWAP1 SSTORE POP PUSH1 0x1 ADD PUSH2 0x402 JUMP JUMPDEST POP SWAP1 JUMP JUMPDEST PUSH1 0x0 PUSH2 0x431 PUSH2 0x42C DUP5 PUSH2 0x6E6 JUMP JUMPDEST PUSH2 0x6C1 JUMP JUMPDEST SWAP1 POP DUP3 DUP2 MSTORE PUSH1 0x20 DUP2 ADD DUP5 DUP5 DUP5 ADD GT ISZERO PUSH2 0x44D JUMPI PUSH2 0x44C PUSH2 0x883 JUMP JUMPDEST JUMPDEST PUSH2 0x458 DUP5 DUP3 DUP6 PUSH2 0x77B JUMP JUMPDEST POP SWAP4 SWAP3 POP POP POP JUMP JUMPDEST PUSH1 0x0 DUP2 CALLDATALOAD SWAP1 POP PUSH2 0x46F DUP2 PUSH2 0x8A3 JUMP JUMPDEST SWAP3 SWAP2 POP POP JUMP JUMPDEST PUSH1 0x0 DUP2 CALLDATALOAD SWAP1 POP PUSH2 0x484 DUP2 PUSH2 0x8BA JUMP JUMPDEST SWAP3 SWAP2 POP POP JUMP JUMPDEST PUSH1 0x0 DUP3 PUSH1 0x1F DUP4 ADD SLT PUSH2 0x49F JUMPI PUSH2 0x49E PUSH2 0x87E JUMP JUMPDEST JUMPDEST DUP2 CALLDATALOAD PUSH2 0x4AF DUP5 DUP3 PUSH1 0x20 DUP7 ADD PUSH2 0x41E JUMP JUMPDEST SWAP2 POP POP SWAP3 SWAP2 POP POP JUMP JUMPDEST PUSH1 0x0 DUP2 CALLDATALOAD SWAP1 POP PUSH2 0x4C7 DUP2 PUSH2 0x8D1 JUMP JUMPDEST SWAP3 SWAP2 POP POP JUMP JUMPDEST PUSH1 0x0 PUSH1 0x20 DUP3 DUP5 SUB SLT ISZERO PUSH2 0x4E3 JUMPI PUSH2 0x4E2 PUSH2 0x88D JUMP JUMPDEST JUMPDEST PUSH1 0x0 PUSH2 0x4F1 DUP5 DUP3 DUP6 ADD PUSH2 0x460 JUMP JUMPDEST SWAP2 POP POP SWAP3 SWAP2 POP POP JUMP JUMPDEST PUSH1 0x0 DUP1 PUSH1 0x0 DUP1 PUSH1 0x0 DUP1 PUSH1 0xC0 DUP8 DUP10 SUB SLT ISZERO PUSH2 0x517 JUMPI PUSH2 0x516 PUSH2 0x88D JUMP JUMPDEST JUMPDEST PUSH1 0x0 PUSH2 0x525 DUP10 DUP3 DUP11 ADD PUSH2 0x460 JUMP JUMPDEST SWAP7 POP POP PUSH1 0x20 DUP8 ADD CALLDATALOAD PUSH8 0xFFFFFFFFFFFFFFFF DUP2 GT ISZERO PUSH2 0x546 JUMPI PUSH2 0x545 PUSH2 0x888 JUMP JUMPDEST JUMPDEST PUSH2 0x552 DUP10 DUP3 DUP11 ADD PUSH2 0x48A JUMP JUMPDEST SWAP6 POP POP PUSH1 0x40 DUP8 ADD CALLDATALOAD PUSH8 0xFFFFFFFFFFFFFFFF DUP2 GT ISZERO PUSH2 0x573 JUMPI PUSH2 0x572 PUSH2 0x888 JUMP JUMPDEST JUMPDEST PUSH2 0x57F DUP10 DUP3 DUP11 ADD PUSH2 0x48A JUMP JUMPDEST SWAP5 POP POP PUSH1 0x60 PUSH2 0x590 DUP10 DUP3 DUP11 ADD PUSH2 0x4B8 JUMP JUMPDEST SWAP4 POP POP PUSH1 0x80 PUSH2 0x5A1 DUP10 DUP3 DUP11 ADD PUSH2 0x4B8 JUMP JUMPDEST SWAP3 POP POP PUSH1 0xA0 PUSH2 0x5B2 DUP10 DUP3 DUP11 ADD PUSH2 0x475 JUMP JUMPDEST SWAP2 POP POP SWAP3 SWAP6 POP SWAP3 SWAP6 POP SWAP3 SWAP6 JUMP JUMPDEST PUSH1 0x0 PUSH1 0x20 DUP3 DUP5 SUB SLT ISZERO PUSH2 0x5D5 JUMPI PUSH2 0x5D4 PUSH2 0x88D JUMP JUMPDEST JUMPDEST PUSH1 0x0 PUSH2 0x5E3 DUP5 DUP3 DUP6 ADD PUSH2 0x4B8 JUMP JUMPDEST SWAP2 POP POP SWAP3 SWAP2 POP POP JUMP JUMPDEST PUSH2 0x5F5 DUP2 PUSH2 0x733 JUMP JUMPDEST DUP3 MSTORE POP POP JUMP JUMPDEST PUSH2 0x604 DUP2 PUSH2 0x745 JUMP JUMPDEST DUP3 MSTORE POP POP JUMP JUMPDEST PUSH1 0x0 PUSH2 0x615 DUP3 PUSH2 0x717 JUMP JUMPDEST PUSH2 0x61F DUP2 DUP6 PUSH2 0x722 JUMP JUMPDEST SWAP4 POP PUSH2 0x62F DUP2 DUP6 PUSH1 0x20 DUP7 ADD PUSH2 0x78A JUMP JUMPDEST PUSH2 0x638 DUP2 PUSH2 0x892 JUMP JUMPDEST DUP5 ADD SWAP2 POP POP SWAP3 SWAP2 POP POP JUMP JUMPDEST PUSH2 0x64C DUP2 PUSH2 0x771 JUMP JUMPDEST DUP3 MSTORE POP POP JUMP JUMPDEST PUSH1 0x0 PUSH1 0xC0 DUP3 ADD SWAP1 POP PUSH2 0x667 PUSH1 0x0 DUP4 ADD DUP10 PUSH2 0x5EC JUMP JUMPDEST DUP2 DUP2 SUB PUSH1 0x20 DUP4 ADD MSTORE PUSH2 0x679 DUP2 DUP9 PUSH2 0x60A JUMP JUMPDEST SWAP1 POP DUP2 DUP2 SUB PUSH1 0x40 DUP4 ADD MSTORE PUSH2 0x68D DUP2 DUP8 PUSH2 0x60A JUMP JUMPDEST SWAP1 POP PUSH2 0x69C PUSH1 0x60 DUP4 ADD DUP7 PUSH2 0x643 JUMP JUMPDEST PUSH2 0x6A9 PUSH1 0x80 DUP4 ADD DUP6 PUSH2 0x643 JUMP JUMPDEST PUSH2 0x6B6 PUSH1 0xA0 DUP4 ADD DUP5 PUSH2 0x5FB JUMP JUMPDEST SWAP8 SWAP7 POP POP POP POP POP POP POP JUMP JUMPDEST PUSH1 0x0 PUSH2 0x6CB PUSH2 0x6DC JUMP JUMPDEST SWAP1 POP PUSH2 0x6D7 DUP3 DUP3 PUSH2 0x7EF JUMP JUMPDEST SWAP2 SWAP1 POP JUMP JUMPDEST PUSH1 0x0 PUSH1 0x40 MLOAD SWAP1 POP SWAP1 JUMP JUMPDEST PUSH1 0x0 PUSH8 0xFFFFFFFFFFFFFFFF DUP3 GT ISZERO PUSH2 0x701 JUMPI PUSH2 0x700 PUSH2 0x84F JUMP JUMPDEST JUMPDEST PUSH2 0x70A DUP3 PUSH2 0x892 JUMP JUMPDEST SWAP1 POP PUSH1 0x20 DUP2 ADD SWAP1 POP SWAP2 SWAP1 POP JUMP JUMPDEST PUSH1 0x0 DUP2 MLOAD SWAP1 POP SWAP2 SWAP1 POP JUMP JUMPDEST PUSH1 0x0 DUP3 DUP3 MSTORE PUSH1 0x20 DUP3 ADD SWAP1 POP SWAP3 SWAP2 POP POP JUMP JUMPDEST PUSH1 0x0 PUSH2 0x73E DUP3 PUSH2 0x751 JUMP JUMPDEST SWAP1 POP SWAP2 SWAP1 POP JUMP JUMPDEST PUSH1 0x0 DUP2 ISZERO ISZERO SWAP1 POP SWAP2 SWAP1 POP JUMP JUMPDEST PUSH1 0x0 PUSH20 0xFFFFFFFFFFFFFFFFFFFFFFFFFFFFFFFFFFFFFFFF DUP3 AND SWAP1 POP SWAP2 SWAP1 POP JUMP JUMPDEST PUSH1 0x0 DUP2 SWAP1 POP SWAP2 SWAP1 POP JUMP JUMPDEST DUP3 DUP2 DUP4 CALLDATACOPY PUSH1 0x0 DUP4 DUP4 ADD MSTORE POP POP POP JUMP JUMPDEST PUSH1 0x0 JUMPDEST DUP4 DUP2 LT ISZERO PUSH2 0x7A8 JUMPI DUP1 DUP3 ADD MLOAD DUP2 DUP5 ADD MSTORE PUSH1 0x20 DUP2 ADD SWAP1 POP PUSH2 0x78D JUMP JUMPDEST DUP4 DUP2 GT ISZERO PUSH2 0x7B7 JUMPI PUSH1 0x0 DUP5 DUP5 ADD MSTORE JUMPDEST POP POP POP POP JUMP JUMPDEST PUSH1 0x0 PUSH1 0x2 DUP3 DIV SWAP1 POP PUSH1 0x1 DUP3 AND DUP1 PUSH2 0x7D5 JUMPI PUSH1 0x7F DUP3 AND SWAP2 POP JUMPDEST PUSH1 0x20 DUP3 LT DUP2 EQ ISZERO PUSH2 0x7E9 JUMPI PUSH2 0x7E8 PUSH2 0x820 JUMP JUMPDEST JUMPDEST POP SWAP2 SWAP1 POP JUMP JUMPDEST PUSH2 0x7F8 DUP3 PUSH2 0x892 JUMP JUMPDEST DUP2 ADD DUP2 DUP2 LT PUSH8 0xFFFFFFFFFFFFFFFF DUP3 GT OR ISZERO PUSH2 0x817 JUMPI PUSH2 0x816 PUSH2 0x84F JUMP JUMPDEST JUMPDEST DUP1 PUSH1 0x40 MSTORE POP POP POP JUMP JUMPDEST PUSH32 0x4E487B7100000000000000000000000000000000000000000000000000000000 PUSH1 0x0 MSTORE PUSH1 0x22 PUSH1 0x4 MSTORE PUSH1 0x24 PUSH1 0x0 REVERT JUMPDEST PUSH32 0x4E487B7100000000000000000000000000000000000000000000000000000000 PUSH1 0x0 MSTORE PUSH1 0x41 PUSH1 0x4 MSTORE PUSH1 0x24 PUSH1 0x0 REVERT JUMPDEST PUSH1 0x0 DUP1 REVERT JUMPDEST PUSH1 0x0 DUP1 REVERT JUMPDEST PUSH1 0x0 DUP1 REVERT JUMPDEST PUSH1 0x0 DUP1 REVERT JUMPDEST PUSH1 0x0 PUSH1 0x1F NOT PUSH1 0x1F DUP4 ADD AND SWAP1 POP SWAP2 SWAP1 POP JUMP JUMPDEST PUSH2 0x8AC DUP2 PUSH2 0x733 JUMP JUMPDEST DUP2 EQ PUSH2 0x8B7 JUMPI PUSH1 0x0 DUP1 REVERT JUMPDEST POP JUMP JUMPDEST PUSH2 0x8C3 DUP2 PUSH2 0x745 JUMP JUMPDEST DUP2 EQ PUSH2 0x8CE JUMPI PUSH1 0x0 DUP1 REVERT JUMPDEST POP JUMP JUMPDEST PUSH2 0x8DA DUP2 PUSH2 0x771 JUMP JUMPDEST DUP2 EQ PUSH2 0x8E5 JUMPI PUSH1 0x0 DUP1 REVERT JUMPDEST POP JUMP INVALID LOG2 PUSH5 0x6970667358 0x22 SLT KECCAK256 NUMBER PUSH7 0x29EA5E47F830F7 DUP13 SWAP2 BLOCKHASH SWAP3 0xDF SELFBALANCE SWAP2 EXTCODEHASH 0xC5 DUP14 PUSH16 0x61DEDD6DAEBC022F0E921F5664736F6C PUSH4 0x43000807 STOP CALLER "
				},
				"gasEstimates": {
					"creation": {
						"codeDepositCost": "466800",
						"executionCost": "24765",
						"totalCost": "491565"
					},
					"external": {
						"addKid(address,string,string,uint256,uint256,bool)": "infinite",
						"deposit(address)": "453",
						"kids(uint256)": "infinite"
					}
				},
				"methodIdentifiers": {
					"addKid(address,string,string,uint256,uint256,bool)": "31d575c5",
					"deposit(address)": "f340fa01",
					"kids(uint256)": "7285fd3a"
				}
			},
			"storageLayout": {
				"storage": [
					{
						"astId": 3,
						"contract": "contracts/CryptoKids.sol:CryptoKids",
						"label": "owner",
						"offset": 0,
						"slot": "0",
						"type": "t_address"
					},
					{
						"astId": 29,
						"contract": "contracts/CryptoKids.sol:CryptoKids",
						"label": "kids",
						"offset": 0,
						"slot": "1",
						"type": "t_array(t_struct(Kid)25_storage)dyn_storage"
					}
				],
				"types": {
					"t_address": {
						"encoding": "inplace",
						"label": "address",
						"numberOfBytes": "20"
					},
					"t_array(t_struct(Kid)25_storage)dyn_storage": {
						"base": "t_struct(Kid)25_storage",
						"encoding": "dynamic_array",
						"label": "struct CryptoKids.Kid[]",
						"numberOfBytes": "32"
					},
					"t_bool": {
						"encoding": "inplace",
						"label": "bool",
						"numberOfBytes": "1"
					},
					"t_string_storage": {
						"encoding": "bytes",
						"label": "string",
						"numberOfBytes": "32"
					},
					"t_struct(Kid)25_storage": {
						"encoding": "inplace",
						"label": "struct CryptoKids.Kid",
						"members": [
							{
								"astId": 14,
								"contract": "contracts/CryptoKids.sol:CryptoKids",
								"label": "walletAddress",
								"offset": 0,
								"slot": "0",
								"type": "t_address"
							},
							{
								"astId": 16,
								"contract": "contracts/CryptoKids.sol:CryptoKids",
								"label": "firstName",
								"offset": 0,
								"slot": "1",
								"type": "t_string_storage"
							},
							{
								"astId": 18,
								"contract": "contracts/CryptoKids.sol:CryptoKids",
								"label": "lastName",
								"offset": 0,
								"slot": "2",
								"type": "t_string_storage"
							},
							{
								"astId": 20,
								"contract": "contracts/CryptoKids.sol:CryptoKids",
								"label": "releaseTime",
								"offset": 0,
								"slot": "3",
								"type": "t_uint256"
							},
							{
								"astId": 22,
								"contract": "contracts/CryptoKids.sol:CryptoKids",
								"label": "amount",
								"offset": 0,
								"slot": "4",
								"type": "t_uint256"
							},
							{
								"astId": 24,
								"contract": "contracts/CryptoKids.sol:CryptoKids",
								"label": "canWithdraw",
								"offset": 0,
								"slot": "5",
								"type": "t_bool"
							}
						],
						"numberOfBytes": "192"
					},
					"t_uint256": {
						"encoding": "inplace",
						"label": "uint256",
						"numberOfBytes": "32"
					}
				}
			},
			"userdoc": {
				"kind": "user",
				"methods": {},
				"version": 1
			}
		}
	}
}