{
	"contracts/CryptoKids.sol": {
		"CryptoKids": {
			"abi": [
				{
					"inputs": [],
					"stateMutability": "nonpayable",
					"type": "constructor"
				},
				{
					"inputs": [
						{
							"internalType": "address payable",
							"name": "walletAddress",
							"type": "address"
						},
						{
							"internalType": "string",
							"name": "firstName",
							"type": "string"
						},
						{
							"internalType": "string",
							"name": "lastName",
							"type": "string"
						},
						{
							"internalType": "uint256",
							"name": "releaseTime",
							"type": "uint256"
						},
						{
							"internalType": "uint256",
							"name": "amount",
							"type": "uint256"
						},
						{
							"internalType": "bool",
							"name": "canWithdraw",
							"type": "bool"
						}
					],
					"name": "addKid",
					"outputs": [],
					"stateMutability": "nonpayable",
					"type": "function"
				},
				{
					"inputs": [
						{
							"internalType": "address",
							"name": "walletAddress",
							"type": "address"
						}
					],
					"name": "avaiableToWithdraw",
					"outputs": [
						{
							"internalType": "bool",
							"name": "",
							"type": "bool"
						}
					],
					"stateMutability": "nonpayable",
					"type": "function"
				},
				{
					"inputs": [],
					"name": "balanceOf",
					"outputs": [
						{
							"internalType": "uint256",
							"name": "",
							"type": "uint256"
						}
					],
					"stateMutability": "view",
					"type": "function"
				},
				{
					"inputs": [
						{
							"internalType": "address",
							"name": "walletAddress",
							"type": "address"
						}
					],
					"name": "deposit",
					"outputs": [],
					"stateMutability": "payable",
					"type": "function"
				},
				{
					"inputs": [
						{
							"internalType": "uint256",
							"name": "",
							"type": "uint256"
						}
					],
					"name": "kids",
					"outputs": [
						{
							"internalType": "address payable",
							"name": "walletAddress",
							"type": "address"
						},
						{
							"internalType": "string",
							"name": "firstName",
							"type": "string"
						},
						{
							"internalType": "string",
							"name": "lastName",
							"type": "string"
						},
						{
							"internalType": "uint256",
							"name": "releaseTime",
							"type": "uint256"
						},
						{
							"internalType": "uint256",
							"name": "amount",
							"type": "uint256"
						},
						{
							"internalType": "bool",
							"name": "canWithdraw",
							"type": "bool"
						}
					],
					"stateMutability": "view",
					"type": "function"
				},
				{
					"inputs": [
						{
							"internalType": "address payable",
							"name": "walletAddress",
							"type": "address"
						}
					],
					"name": "withdraw",
					"outputs": [],
					"stateMutability": "payable",
					"type": "function"
				}
			],
			"devdoc": {
				"kind": "dev",
				"methods": {},
				"version": 1
			},
			"evm": {
				"assembly": "    /* \"contracts/CryptoKids.sol\":116:2525  contract CryptoKids {... */\n  mstore(0x40, 0x80)\n    /* \"contracts/CryptoKids.sol\":167:216  constructor() {... */\n  callvalue\n  dup1\n  iszero\n  tag_1\n  jumpi\n  0x00\n  dup1\n  revert\ntag_1:\n  pop\n    /* \"contracts/CryptoKids.sol\":199:209  msg.sender */\n  caller\n    /* \"contracts/CryptoKids.sol\":191:196  owner */\n  0x00\n  dup1\n    /* \"contracts/CryptoKids.sol\":191:209  owner = msg.sender */\n  0x0100\n  exp\n  dup2\n  sload\n  dup2\n  0xffffffffffffffffffffffffffffffffffffffff\n  mul\n  not\n  and\n  swap1\n  dup4\n  0xffffffffffffffffffffffffffffffffffffffff\n  and\n  mul\n  or\n  swap1\n  sstore\n  pop\n    /* \"contracts/CryptoKids.sol\":116:2525  contract CryptoKids {... */\n  dataSize(sub_0)\n  dup1\n  dataOffset(sub_0)\n  0x00\n  codecopy\n  0x00\n  return\nstop\n\nsub_0: assembly {\n        /* \"contracts/CryptoKids.sol\":116:2525  contract CryptoKids {... */\n      mstore(0x40, 0x80)\n      jumpi(tag_1, lt(calldatasize, 0x04))\n      shr(0xe0, calldataload(0x00))\n      dup1\n      0x31d575c5\n      eq\n      tag_2\n      jumpi\n      dup1\n      0x51cff8d9\n      eq\n      tag_3\n      jumpi\n      dup1\n      0x6640c922\n      eq\n      tag_4\n      jumpi\n      dup1\n      0x722713f7\n      eq\n      tag_5\n      jumpi\n      dup1\n      0x7285fd3a\n      eq\n      tag_6\n      jumpi\n      dup1\n      0xf340fa01\n      eq\n      tag_7\n      jumpi\n    tag_1:\n      0x00\n      dup1\n      revert\n        /* \"contracts/CryptoKids.sol\":433:854  function addKid(... */\n    tag_2:\n      callvalue\n      dup1\n      iszero\n      tag_8\n      jumpi\n      0x00\n      dup1\n      revert\n    tag_8:\n      pop\n      tag_9\n      0x04\n      dup1\n      calldatasize\n      sub\n      dup2\n      add\n      swap1\n      tag_10\n      swap2\n      swap1\n      tag_11\n      jump\t// in\n    tag_10:\n      tag_12\n      jump\t// in\n    tag_9:\n      stop\n        /* \"contracts/CryptoKids.sol\":2125:2522  function withdraw(address payable walletAddress) payable public {... */\n    tag_3:\n      tag_13\n      0x04\n      dup1\n      calldatasize\n      sub\n      dup2\n      add\n      swap1\n      tag_14\n      swap2\n      swap1\n      tag_15\n      jump\t// in\n    tag_14:\n      tag_16\n      jump\t// in\n    tag_13:\n      stop\n        /* \"contracts/CryptoKids.sol\":1601:2017  function avaiableToWithdraw(address walletAddress) public returns(bool) {... */\n    tag_4:\n      callvalue\n      dup1\n      iszero\n      tag_17\n      jumpi\n      0x00\n      dup1\n      revert\n    tag_17:\n      pop\n      tag_18\n      0x04\n      dup1\n      calldatasize\n      sub\n      dup2\n      add\n      swap1\n      tag_19\n      swap2\n      swap1\n      tag_20\n      jump\t// in\n    tag_19:\n      tag_21\n      jump\t// in\n    tag_18:\n      mload(0x40)\n      tag_22\n      swap2\n      swap1\n      tag_23\n      jump\t// in\n    tag_22:\n      mload(0x40)\n      dup1\n      swap2\n      sub\n      swap1\n      return\n        /* \"contracts/CryptoKids.sol\":2027:2119  function balanceOf() public view returns(uint) {... */\n    tag_5:\n      callvalue\n      dup1\n      iszero\n      tag_24\n      jumpi\n      0x00\n      dup1\n      revert\n    tag_24:\n      pop\n      tag_25\n      tag_26\n      jump\t// in\n    tag_25:\n      mload(0x40)\n      tag_27\n      swap2\n      swap1\n      tag_28\n      jump\t// in\n    tag_27:\n      mload(0x40)\n      dup1\n      swap2\n      sub\n      swap1\n      return\n        /* \"contracts/CryptoKids.sol\":409:426  Kid[] public kids */\n    tag_6:\n      callvalue\n      dup1\n      iszero\n      tag_29\n      jumpi\n      0x00\n      dup1\n      revert\n    tag_29:\n      pop\n      tag_30\n      0x04\n      dup1\n      calldatasize\n      sub\n      dup2\n      add\n      swap1\n      tag_31\n      swap2\n      swap1\n      tag_32\n      jump\t// in\n    tag_31:\n      tag_33\n      jump\t// in\n    tag_30:\n      mload(0x40)\n      tag_34\n      swap7\n      swap6\n      swap5\n      swap4\n      swap3\n      swap2\n      swap1\n      tag_35\n      jump\t// in\n    tag_34:\n      mload(0x40)\n      dup1\n      swap2\n      sub\n      swap1\n      return\n        /* \"contracts/CryptoKids.sol\":860:963  function deposit(address walletAddress) payable public {... */\n    tag_7:\n      tag_36\n      0x04\n      dup1\n      calldatasize\n      sub\n      dup2\n      add\n      swap1\n      tag_37\n      swap2\n      swap1\n      tag_20\n      jump\t// in\n    tag_37:\n      tag_38\n      jump\t// in\n    tag_36:\n      stop\n        /* \"contracts/CryptoKids.sol\":433:854  function addKid(... */\n    tag_12:\n        /* \"contracts/CryptoKids.sol\":653:657  kids */\n      0x01\n        /* \"contracts/CryptoKids.sol\":663:846  Kid(... */\n      mload(0x40)\n      dup1\n      0xc0\n      add\n      0x40\n      mstore\n      dup1\n        /* \"contracts/CryptoKids.sol\":684:697  walletAddress */\n      dup9\n        /* \"contracts/CryptoKids.sol\":663:846  Kid(... */\n      0xffffffffffffffffffffffffffffffffffffffff\n      and\n      dup2\n      mstore\n      0x20\n      add\n        /* \"contracts/CryptoKids.sol\":715:724  firstName */\n      dup8\n        /* \"contracts/CryptoKids.sol\":663:846  Kid(... */\n      dup2\n      mstore\n      0x20\n      add\n        /* \"contracts/CryptoKids.sol\":742:750  lastName */\n      dup7\n        /* \"contracts/CryptoKids.sol\":663:846  Kid(... */\n      dup2\n      mstore\n      0x20\n      add\n        /* \"contracts/CryptoKids.sol\":768:779  releaseTime */\n      dup6\n        /* \"contracts/CryptoKids.sol\":663:846  Kid(... */\n      dup2\n      mstore\n      0x20\n      add\n        /* \"contracts/CryptoKids.sol\":797:803  amount */\n      dup5\n        /* \"contracts/CryptoKids.sol\":663:846  Kid(... */\n      dup2\n      mstore\n      0x20\n      add\n        /* \"contracts/CryptoKids.sol\":821:832  canWithdraw */\n      dup4\n        /* \"contracts/CryptoKids.sol\":663:846  Kid(... */\n      iszero\n      iszero\n      dup2\n      mstore\n      pop\n        /* \"contracts/CryptoKids.sol\":653:847  kids.push(Kid(... */\n      swap1\n      dup1\n      0x01\n      dup2\n      sload\n      add\n      dup1\n      dup3\n      sstore\n      dup1\n      swap2\n      pop\n      pop\n      0x01\n      swap1\n      sub\n      swap1\n      0x00\n      mstore\n      keccak256(0x00, 0x20)\n      swap1\n      0x06\n      mul\n      add\n      0x00\n      swap1\n      swap2\n      swap1\n      swap2\n      swap1\n      swap2\n      pop\n      0x00\n      dup3\n      add\n      mload\n      dup2\n      0x00\n      add\n      exp(0x0100, 0x00)\n      dup2\n      sload\n      dup2\n      0xffffffffffffffffffffffffffffffffffffffff\n      mul\n      not\n      and\n      swap1\n      dup4\n      0xffffffffffffffffffffffffffffffffffffffff\n      and\n      mul\n      or\n      swap1\n      sstore\n      pop\n      0x20\n      dup3\n      add\n      mload\n      dup2\n      0x01\n      add\n      swap1\n      dup1\n      mload\n      swap1\n      0x20\n      add\n      swap1\n      tag_41\n      swap3\n      swap2\n      swap1\n      tag_42\n      jump\t// in\n    tag_41:\n      pop\n      0x40\n      dup3\n      add\n      mload\n      dup2\n      0x02\n      add\n      swap1\n      dup1\n      mload\n      swap1\n      0x20\n      add\n      swap1\n      tag_43\n      swap3\n      swap2\n      swap1\n      tag_42\n      jump\t// in\n    tag_43:\n      pop\n      0x60\n      dup3\n      add\n      mload\n      dup2\n      0x03\n      add\n      sstore\n      0x80\n      dup3\n      add\n      mload\n      dup2\n      0x04\n      add\n      sstore\n      0xa0\n      dup3\n      add\n      mload\n      dup2\n      0x05\n      add\n      exp(0x0100, 0x00)\n      dup2\n      sload\n      dup2\n      0xff\n      mul\n      not\n      and\n      swap1\n      dup4\n      iszero\n      iszero\n      mul\n      or\n      swap1\n      sstore\n      pop\n      pop\n      pop\n        /* \"contracts/CryptoKids.sol\":433:854  function addKid(... */\n      pop\n      pop\n      pop\n      pop\n      pop\n      pop\n      jump\t// out\n        /* \"contracts/CryptoKids.sol\":2125:2522  function withdraw(address payable walletAddress) payable public {... */\n    tag_16:\n        /* \"contracts/CryptoKids.sol\":2199:2205  uint i */\n      0x00\n        /* \"contracts/CryptoKids.sol\":2208:2234  getKidIndex(walletAddress) */\n      tag_45\n        /* \"contracts/CryptoKids.sol\":2220:2233  walletAddress */\n      dup3\n        /* \"contracts/CryptoKids.sol\":2208:2219  getKidIndex */\n      tag_46\n        /* \"contracts/CryptoKids.sol\":2208:2234  getKidIndex(walletAddress) */\n      jump\t// in\n    tag_45:\n        /* \"contracts/CryptoKids.sol\":2199:2234  uint i = getKidIndex(walletAddress) */\n      swap1\n      pop\n        /* \"contracts/CryptoKids.sol\":2266:2270  kids */\n      0x01\n        /* \"contracts/CryptoKids.sol\":2271:2272  i */\n      dup2\n        /* \"contracts/CryptoKids.sol\":2266:2273  kids[i] */\n      dup2\n      sload\n      dup2\n      lt\n      tag_47\n      jumpi\n      tag_48\n      tag_49\n      jump\t// in\n    tag_48:\n    tag_47:\n      swap1\n      0x00\n      mstore\n      keccak256(0x00, 0x20)\n      swap1\n      0x06\n      mul\n      add\n        /* \"contracts/CryptoKids.sol\":2266:2287  kids[i].walletAddress */\n      0x00\n      add\n      0x00\n      swap1\n      sload\n      swap1\n      0x0100\n      exp\n      swap1\n      div\n      0xffffffffffffffffffffffffffffffffffffffff\n      and\n        /* \"contracts/CryptoKids.sol\":2252:2287  msg.sender == kids[i].walletAddress */\n      0xffffffffffffffffffffffffffffffffffffffff\n      and\n        /* \"contracts/CryptoKids.sol\":2252:2262  msg.sender */\n      caller\n        /* \"contracts/CryptoKids.sol\":2252:2287  msg.sender == kids[i].walletAddress */\n      0xffffffffffffffffffffffffffffffffffffffff\n      and\n      eq\n        /* \"contracts/CryptoKids.sol\":2244:2350  require(msg.sender == kids[i].walletAddress, \"You are not allowed to withdraw! Address Does Not Matched!\") */\n      tag_51\n      jumpi\n      mload(0x40)\n      0x08c379a000000000000000000000000000000000000000000000000000000000\n      dup2\n      mstore\n      0x04\n      add\n      tag_52\n      swap1\n      tag_53\n      jump\t// in\n    tag_52:\n      mload(0x40)\n      dup1\n      swap2\n      sub\n      swap1\n      revert\n    tag_51:\n        /* \"contracts/CryptoKids.sol\":2368:2401  avaiableToWithdraw(walletAddress) */\n      tag_54\n        /* \"contracts/CryptoKids.sol\":2387:2400  walletAddress */\n      dup3\n        /* \"contracts/CryptoKids.sol\":2368:2386  avaiableToWithdraw */\n      tag_21\n        /* \"contracts/CryptoKids.sol\":2368:2401  avaiableToWithdraw(walletAddress) */\n      jump\t// in\n    tag_54:\n        /* \"contracts/CryptoKids.sol\":2360:2459  require(avaiableToWithdraw(walletAddress), \"You are not allowed to withdraw! Time has not passed!\") */\n      tag_55\n      jumpi\n      mload(0x40)\n      0x08c379a000000000000000000000000000000000000000000000000000000000\n      dup2\n      mstore\n      0x04\n      add\n      tag_56\n      swap1\n      tag_57\n      jump\t// in\n    tag_56:\n      mload(0x40)\n      dup1\n      swap2\n      sub\n      swap1\n      revert\n    tag_55:\n        /* \"contracts/CryptoKids.sol\":2469:2473  kids */\n      0x01\n        /* \"contracts/CryptoKids.sol\":2474:2475  i */\n      dup2\n        /* \"contracts/CryptoKids.sol\":2469:2476  kids[i] */\n      dup2\n      sload\n      dup2\n      lt\n      tag_58\n      jumpi\n      tag_59\n      tag_49\n      jump\t// in\n    tag_59:\n    tag_58:\n      swap1\n      0x00\n      mstore\n      keccak256(0x00, 0x20)\n      swap1\n      0x06\n      mul\n      add\n        /* \"contracts/CryptoKids.sol\":2469:2490  kids[i].walletAddress */\n      0x00\n      add\n      0x00\n      swap1\n      sload\n      swap1\n      0x0100\n      exp\n      swap1\n      div\n      0xffffffffffffffffffffffffffffffffffffffff\n      and\n        /* \"contracts/CryptoKids.sol\":2469:2499  kids[i].walletAddress.transfer */\n      0xffffffffffffffffffffffffffffffffffffffff\n      and\n        /* \"contracts/CryptoKids.sol\":2469:2515  kids[i].walletAddress.transfer(kids[i].amount) */\n      0x08fc\n        /* \"contracts/CryptoKids.sol\":2500:2504  kids */\n      0x01\n        /* \"contracts/CryptoKids.sol\":2505:2506  i */\n      dup4\n        /* \"contracts/CryptoKids.sol\":2500:2507  kids[i] */\n      dup2\n      sload\n      dup2\n      lt\n      tag_61\n      jumpi\n      tag_62\n      tag_49\n      jump\t// in\n    tag_62:\n    tag_61:\n      swap1\n      0x00\n      mstore\n      keccak256(0x00, 0x20)\n      swap1\n      0x06\n      mul\n      add\n        /* \"contracts/CryptoKids.sol\":2500:2514  kids[i].amount */\n      0x04\n      add\n      sload\n        /* \"contracts/CryptoKids.sol\":2469:2515  kids[i].walletAddress.transfer(kids[i].amount) */\n      swap1\n      dup2\n      iszero\n      mul\n      swap1\n      mload(0x40)\n      0x00\n      mload(0x40)\n      dup1\n      dup4\n      sub\n      dup2\n      dup6\n      dup9\n      dup9\n      call\n      swap4\n      pop\n      pop\n      pop\n      pop\n      iszero\n      dup1\n      iszero\n      tag_65\n      jumpi\n      returndatasize\n      0x00\n      dup1\n      returndatacopy\n      revert(0x00, returndatasize)\n    tag_65:\n      pop\n        /* \"contracts/CryptoKids.sol\":2189:2522  {... */\n      pop\n        /* \"contracts/CryptoKids.sol\":2125:2522  function withdraw(address payable walletAddress) payable public {... */\n      pop\n      jump\t// out\n        /* \"contracts/CryptoKids.sol\":1601:2017  function avaiableToWithdraw(address walletAddress) public returns(bool) {... */\n    tag_21:\n        /* \"contracts/CryptoKids.sol\":1667:1671  bool */\n      0x00\n        /* \"contracts/CryptoKids.sol\":1683:1689  uint i */\n      dup1\n        /* \"contracts/CryptoKids.sol\":1692:1718  getKidIndex(walletAddress) */\n      tag_67\n        /* \"contracts/CryptoKids.sol\":1704:1717  walletAddress */\n      dup4\n        /* \"contracts/CryptoKids.sol\":1692:1703  getKidIndex */\n      tag_46\n        /* \"contracts/CryptoKids.sol\":1692:1718  getKidIndex(walletAddress) */\n      jump\t// in\n    tag_67:\n        /* \"contracts/CryptoKids.sol\":1683:1718  uint i = getKidIndex(walletAddress) */\n      swap1\n      pop\n        /* \"contracts/CryptoKids.sol\":1891:1895  kids */\n      0x01\n        /* \"contracts/CryptoKids.sol\":1896:1897  i */\n      dup2\n        /* \"contracts/CryptoKids.sol\":1891:1898  kids[i] */\n      dup2\n      sload\n      dup2\n      lt\n      tag_68\n      jumpi\n      tag_69\n      tag_49\n      jump\t// in\n    tag_69:\n    tag_68:\n      swap1\n      0x00\n      mstore\n      keccak256(0x00, 0x20)\n      swap1\n      0x06\n      mul\n      add\n        /* \"contracts/CryptoKids.sol\":1891:1910  kids[i].releaseTime */\n      0x03\n      add\n      sload\n        /* \"contracts/CryptoKids.sol\":1873:1888  block.timestamp */\n      timestamp\n        /* \"contracts/CryptoKids.sol\":1873:1910  block.timestamp > kids[i].releaseTime */\n      gt\n        /* \"contracts/CryptoKids.sol\":1869:1988  if (block.timestamp > kids[i].releaseTime) {... */\n      iszero\n      tag_71\n      jumpi\n        /* \"contracts/CryptoKids.sol\":1948:1952  true */\n      0x01\n        /* \"contracts/CryptoKids.sol\":1926:1930  kids */\n      dup1\n        /* \"contracts/CryptoKids.sol\":1931:1932  i */\n      dup3\n        /* \"contracts/CryptoKids.sol\":1926:1933  kids[i] */\n      dup2\n      sload\n      dup2\n      lt\n      tag_72\n      jumpi\n      tag_73\n      tag_49\n      jump\t// in\n    tag_73:\n    tag_72:\n      swap1\n      0x00\n      mstore\n      keccak256(0x00, 0x20)\n      swap1\n      0x06\n      mul\n      add\n        /* \"contracts/CryptoKids.sol\":1926:1945  kids[i].canWithdraw */\n      0x05\n      add\n      0x00\n        /* \"contracts/CryptoKids.sol\":1926:1952  kids[i].canWithdraw = true */\n      0x0100\n      exp\n      dup2\n      sload\n      dup2\n      0xff\n      mul\n      not\n      and\n      swap1\n      dup4\n      iszero\n      iszero\n      mul\n      or\n      swap1\n      sstore\n      pop\n        /* \"contracts/CryptoKids.sol\":1973:1977  true */\n      0x01\n        /* \"contracts/CryptoKids.sol\":1966:1977  return true */\n      swap2\n      pop\n      pop\n      jump(tag_66)\n        /* \"contracts/CryptoKids.sol\":1869:1988  if (block.timestamp > kids[i].releaseTime) {... */\n    tag_71:\n        /* \"contracts/CryptoKids.sol\":2005:2010  false */\n      0x00\n        /* \"contracts/CryptoKids.sol\":1998:2010  return false */\n      swap2\n      pop\n      pop\n        /* \"contracts/CryptoKids.sol\":1601:2017  function avaiableToWithdraw(address walletAddress) public returns(bool) {... */\n    tag_66:\n      swap2\n      swap1\n      pop\n      jump\t// out\n        /* \"contracts/CryptoKids.sol\":2027:2119  function balanceOf() public view returns(uint) {... */\n    tag_26:\n        /* \"contracts/CryptoKids.sol\":2068:2072  uint */\n      0x00\n        /* \"contracts/CryptoKids.sol\":2091:2112  address(this).balance */\n      selfbalance\n        /* \"contracts/CryptoKids.sol\":2084:2112  return address(this).balance */\n      swap1\n      pop\n        /* \"contracts/CryptoKids.sol\":2027:2119  function balanceOf() public view returns(uint) {... */\n      swap1\n      jump\t// out\n        /* \"contracts/CryptoKids.sol\":409:426  Kid[] public kids */\n    tag_33:\n      0x01\n      dup2\n      dup2\n      sload\n      dup2\n      lt\n      tag_76\n      jumpi\n      0x00\n      dup1\n      revert\n    tag_76:\n      swap1\n      0x00\n      mstore\n      keccak256(0x00, 0x20)\n      swap1\n      0x06\n      mul\n      add\n      0x00\n      swap2\n      pop\n      swap1\n      pop\n      dup1\n      0x00\n      add\n      0x00\n      swap1\n      sload\n      swap1\n      0x0100\n      exp\n      swap1\n      div\n      0xffffffffffffffffffffffffffffffffffffffff\n      and\n      swap1\n      dup1\n      0x01\n      add\n      dup1\n      sload\n      tag_78\n      swap1\n      tag_79\n      jump\t// in\n    tag_78:\n      dup1\n      0x1f\n      add\n      0x20\n      dup1\n      swap2\n      div\n      mul\n      0x20\n      add\n      mload(0x40)\n      swap1\n      dup2\n      add\n      0x40\n      mstore\n      dup1\n      swap3\n      swap2\n      swap1\n      dup2\n      dup2\n      mstore\n      0x20\n      add\n      dup3\n      dup1\n      sload\n      tag_80\n      swap1\n      tag_79\n      jump\t// in\n    tag_80:\n      dup1\n      iszero\n      tag_81\n      jumpi\n      dup1\n      0x1f\n      lt\n      tag_82\n      jumpi\n      0x0100\n      dup1\n      dup4\n      sload\n      div\n      mul\n      dup4\n      mstore\n      swap2\n      0x20\n      add\n      swap2\n      jump(tag_81)\n    tag_82:\n      dup3\n      add\n      swap2\n      swap1\n      0x00\n      mstore\n      keccak256(0x00, 0x20)\n      swap1\n    tag_83:\n      dup2\n      sload\n      dup2\n      mstore\n      swap1\n      0x01\n      add\n      swap1\n      0x20\n      add\n      dup1\n      dup4\n      gt\n      tag_83\n      jumpi\n      dup3\n      swap1\n      sub\n      0x1f\n      and\n      dup3\n      add\n      swap2\n    tag_81:\n      pop\n      pop\n      pop\n      pop\n      pop\n      swap1\n      dup1\n      0x02\n      add\n      dup1\n      sload\n      tag_84\n      swap1\n      tag_79\n      jump\t// in\n    tag_84:\n      dup1\n      0x1f\n      add\n      0x20\n      dup1\n      swap2\n      div\n      mul\n      0x20\n      add\n      mload(0x40)\n      swap1\n      dup2\n      add\n      0x40\n      mstore\n      dup1\n      swap3\n      swap2\n      swap1\n      dup2\n      dup2\n      mstore\n      0x20\n      add\n      dup3\n      dup1\n      sload\n      tag_85\n      swap1\n      tag_79\n      jump\t// in\n    tag_85:\n      dup1\n      iszero\n      tag_86\n      jumpi\n      dup1\n      0x1f\n      lt\n      tag_87\n      jumpi\n      0x0100\n      dup1\n      dup4\n      sload\n      div\n      mul\n      dup4\n      mstore\n      swap2\n      0x20\n      add\n      swap2\n      jump(tag_86)\n    tag_87:\n      dup3\n      add\n      swap2\n      swap1\n      0x00\n      mstore\n      keccak256(0x00, 0x20)\n      swap1\n    tag_88:\n      dup2\n      sload\n      dup2\n      mstore\n      swap1\n      0x01\n      add\n      swap1\n      0x20\n      add\n      dup1\n      dup4\n      gt\n      tag_88\n      jumpi\n      dup3\n      swap1\n      sub\n      0x1f\n      and\n      dup3\n      add\n      swap2\n    tag_86:\n      pop\n      pop\n      pop\n      pop\n      pop\n      swap1\n      dup1\n      0x03\n      add\n      sload\n      swap1\n      dup1\n      0x04\n      add\n      sload\n      swap1\n      dup1\n      0x05\n      add\n      0x00\n      swap1\n      sload\n      swap1\n      0x0100\n      exp\n      swap1\n      div\n      0xff\n      and\n      swap1\n      pop\n      dup7\n      jump\t// out\n        /* \"contracts/CryptoKids.sol\":860:963  function deposit(address walletAddress) payable public {... */\n    tag_38:\n        /* \"contracts/CryptoKids.sol\":925:956  addToKidsBalance(walletAddress) */\n      tag_90\n        /* \"contracts/CryptoKids.sol\":942:955  walletAddress */\n      dup2\n        /* \"contracts/CryptoKids.sol\":925:941  addToKidsBalance */\n      tag_91\n        /* \"contracts/CryptoKids.sol\":925:956  addToKidsBalance(walletAddress) */\n      jump\t// in\n    tag_90:\n        /* \"contracts/CryptoKids.sol\":860:963  function deposit(address walletAddress) payable public {... */\n      pop\n      jump\t// out\n        /* \"contracts/CryptoKids.sol\":1000:1368  function getKidIndex(address walletAddress) private view returns(uint) {... */\n    tag_46:\n        /* \"contracts/CryptoKids.sol\":1065:1069  uint */\n      0x00\n        /* \"contracts/CryptoKids.sol\":1086:1092  uint i */\n      dup1\n        /* \"contracts/CryptoKids.sol\":1095:1096  0 */\n      0x00\n        /* \"contracts/CryptoKids.sol\":1086:1096  uint i = 0 */\n      swap1\n      pop\n        /* \"contracts/CryptoKids.sol\":1081:1230  for( uint i = 0; i < kids.length; i++) {... */\n    tag_93:\n        /* \"contracts/CryptoKids.sol\":1102:1106  kids */\n      0x01\n        /* \"contracts/CryptoKids.sol\":1102:1113  kids.length */\n      dup1\n      sload\n      swap1\n      pop\n        /* \"contracts/CryptoKids.sol\":1098:1099  i */\n      dup2\n        /* \"contracts/CryptoKids.sol\":1098:1113  i < kids.length */\n      lt\n        /* \"contracts/CryptoKids.sol\":1081:1230  for( uint i = 0; i < kids.length; i++) {... */\n      iszero\n      tag_94\n      jumpi\n        /* \"contracts/CryptoKids.sol\":1164:1177  walletAddress */\n      dup3\n        /* \"contracts/CryptoKids.sol\":1139:1177  kids[i].walletAddress == walletAddress */\n      0xffffffffffffffffffffffffffffffffffffffff\n      and\n        /* \"contracts/CryptoKids.sol\":1139:1143  kids */\n      0x01\n        /* \"contracts/CryptoKids.sol\":1144:1145  i */\n      dup3\n        /* \"contracts/CryptoKids.sol\":1139:1146  kids[i] */\n      dup2\n      sload\n      dup2\n      lt\n      tag_96\n      jumpi\n      tag_97\n      tag_49\n      jump\t// in\n    tag_97:\n    tag_96:\n      swap1\n      0x00\n      mstore\n      keccak256(0x00, 0x20)\n      swap1\n      0x06\n      mul\n      add\n        /* \"contracts/CryptoKids.sol\":1139:1160  kids[i].walletAddress */\n      0x00\n      add\n      0x00\n      swap1\n      sload\n      swap1\n      0x0100\n      exp\n      swap1\n      div\n      0xffffffffffffffffffffffffffffffffffffffff\n      and\n        /* \"contracts/CryptoKids.sol\":1139:1177  kids[i].walletAddress == walletAddress */\n      0xffffffffffffffffffffffffffffffffffffffff\n      and\n      eq\n        /* \"contracts/CryptoKids.sol\":1134:1220  if ( kids[i].walletAddress == walletAddress) {... */\n      iszero\n      tag_99\n      jumpi\n        /* \"contracts/CryptoKids.sol\":1204:1205  i */\n      dup1\n        /* \"contracts/CryptoKids.sol\":1197:1205  return i */\n      swap2\n      pop\n      pop\n      jump(tag_92)\n        /* \"contracts/CryptoKids.sol\":1134:1220  if ( kids[i].walletAddress == walletAddress) {... */\n    tag_99:\n        /* \"contracts/CryptoKids.sol\":1115:1118  i++ */\n      dup1\n      dup1\n      tag_100\n      swap1\n      tag_101\n      jump\t// in\n    tag_100:\n      swap2\n      pop\n      pop\n        /* \"contracts/CryptoKids.sol\":1081:1230  for( uint i = 0; i < kids.length; i++) {... */\n      jump(tag_93)\n    tag_94:\n      pop\n        /* \"contracts/CryptoKids.sol\":1246:1250  kids */\n      0x01\n        /* \"contracts/CryptoKids.sol\":1246:1257  kids.length */\n      dup1\n      sload\n      swap1\n      pop\n        /* \"contracts/CryptoKids.sol\":1239:1257  return kids.length */\n      swap1\n      pop\n        /* \"contracts/CryptoKids.sol\":1000:1368  function getKidIndex(address walletAddress) private view returns(uint) {... */\n    tag_92:\n      swap2\n      swap1\n      pop\n      jump\t// out\n        /* \"contracts/CryptoKids.sol\":1374:1595  function addToKidsBalance(address walletAddress) private {... */\n    tag_91:\n        /* \"contracts/CryptoKids.sol\":1441:1457  uint theKidIndex */\n      0x00\n        /* \"contracts/CryptoKids.sol\":1460:1486  getKidIndex(walletAddress) */\n      tag_103\n        /* \"contracts/CryptoKids.sol\":1472:1485  walletAddress */\n      dup3\n        /* \"contracts/CryptoKids.sol\":1460:1471  getKidIndex */\n      tag_46\n        /* \"contracts/CryptoKids.sol\":1460:1486  getKidIndex(walletAddress) */\n      jump\t// in\n    tag_103:\n        /* \"contracts/CryptoKids.sol\":1441:1486  uint theKidIndex = getKidIndex(walletAddress) */\n      swap1\n      pop\n        /* \"contracts/CryptoKids.sol\":1514:1518  kids */\n      0x01\n        /* \"contracts/CryptoKids.sol\":1514:1525  kids.length */\n      dup1\n      sload\n      swap1\n      pop\n        /* \"contracts/CryptoKids.sol\":1500:1511  theKidIndex */\n      dup2\n        /* \"contracts/CryptoKids.sol\":1500:1525  theKidIndex < kids.length */\n      lt\n        /* \"contracts/CryptoKids.sol\":1496:1589  if (theKidIndex < kids.length) {... */\n      iszero\n      tag_104\n      jumpi\n        /* \"contracts/CryptoKids.sol\":1569:1578  msg.value */\n      callvalue\n        /* \"contracts/CryptoKids.sol\":1541:1545  kids */\n      0x01\n        /* \"contracts/CryptoKids.sol\":1546:1557  theKidIndex */\n      dup3\n        /* \"contracts/CryptoKids.sol\":1541:1558  kids[theKidIndex] */\n      dup2\n      sload\n      dup2\n      lt\n      tag_105\n      jumpi\n      tag_106\n      tag_49\n      jump\t// in\n    tag_106:\n    tag_105:\n      swap1\n      0x00\n      mstore\n      keccak256(0x00, 0x20)\n      swap1\n      0x06\n      mul\n      add\n        /* \"contracts/CryptoKids.sol\":1541:1565  kids[theKidIndex].amount */\n      0x04\n      add\n      0x00\n        /* \"contracts/CryptoKids.sol\":1541:1578  kids[theKidIndex].amount += msg.value */\n      dup3\n      dup3\n      sload\n      tag_108\n      swap2\n      swap1\n      tag_109\n      jump\t// in\n    tag_108:\n      swap3\n      pop\n      pop\n      dup2\n      swap1\n      sstore\n      pop\n        /* \"contracts/CryptoKids.sol\":1496:1589  if (theKidIndex < kids.length) {... */\n    tag_104:\n        /* \"contracts/CryptoKids.sol\":1431:1595  {... */\n      pop\n        /* \"contracts/CryptoKids.sol\":1374:1595  function addToKidsBalance(address walletAddress) private {... */\n      pop\n      jump\t// out\n    tag_42:\n      dup3\n      dup1\n      sload\n      tag_110\n      swap1\n      tag_79\n      jump\t// in\n    tag_110:\n      swap1\n      0x00\n      mstore\n      keccak256(0x00, 0x20)\n      swap1\n      0x1f\n      add\n      0x20\n      swap1\n      div\n      dup2\n      add\n      swap3\n      dup3\n      tag_112\n      jumpi\n      0x00\n      dup6\n      sstore\n      jump(tag_111)\n    tag_112:\n      dup3\n      0x1f\n      lt\n      tag_113\n      jumpi\n      dup1\n      mload\n      not(0xff)\n      and\n      dup4\n      dup1\n      add\n      or\n      dup6\n      sstore\n      jump(tag_111)\n    tag_113:\n      dup3\n      dup1\n      add\n      0x01\n      add\n      dup6\n      sstore\n      dup3\n      iszero\n      tag_111\n      jumpi\n      swap2\n      dup3\n      add\n    tag_114:\n      dup3\n      dup2\n      gt\n      iszero\n      tag_115\n      jumpi\n      dup3\n      mload\n      dup3\n      sstore\n      swap2\n      0x20\n      add\n      swap2\n      swap1\n      0x01\n      add\n      swap1\n      jump(tag_114)\n    tag_115:\n    tag_111:\n      pop\n      swap1\n      pop\n      tag_116\n      swap2\n      swap1\n      tag_117\n      jump\t// in\n    tag_116:\n      pop\n      swap1\n      jump\t// out\n    tag_117:\n    tag_118:\n      dup1\n      dup3\n      gt\n      iszero\n      tag_119\n      jumpi\n      0x00\n      dup2\n      0x00\n      swap1\n      sstore\n      pop\n      0x01\n      add\n      jump(tag_118)\n    tag_119:\n      pop\n      swap1\n      jump\t// out\n        /* \"#utility.yul\":7:419   */\n    tag_121:\n        /* \"#utility.yul\":85:90   */\n      0x00\n        /* \"#utility.yul\":110:176   */\n      tag_123\n        /* \"#utility.yul\":126:175   */\n      tag_124\n        /* \"#utility.yul\":168:174   */\n      dup5\n        /* \"#utility.yul\":126:175   */\n      tag_125\n      jump\t// in\n    tag_124:\n        /* \"#utility.yul\":110:176   */\n      tag_126\n      jump\t// in\n    tag_123:\n        /* \"#utility.yul\":101:176   */\n      swap1\n      pop\n        /* \"#utility.yul\":199:205   */\n      dup3\n        /* \"#utility.yul\":192:197   */\n      dup2\n        /* \"#utility.yul\":185:206   */\n      mstore\n        /* \"#utility.yul\":237:241   */\n      0x20\n        /* \"#utility.yul\":230:235   */\n      dup2\n        /* \"#utility.yul\":226:242   */\n      add\n        /* \"#utility.yul\":275:278   */\n      dup5\n        /* \"#utility.yul\":266:272   */\n      dup5\n        /* \"#utility.yul\":261:264   */\n      dup5\n        /* \"#utility.yul\":257:273   */\n      add\n        /* \"#utility.yul\":254:279   */\n      gt\n        /* \"#utility.yul\":251:363   */\n      iszero\n      tag_127\n      jumpi\n        /* \"#utility.yul\":282:361   */\n      tag_128\n      tag_129\n      jump\t// in\n    tag_128:\n        /* \"#utility.yul\":251:363   */\n    tag_127:\n        /* \"#utility.yul\":372:413   */\n      tag_130\n        /* \"#utility.yul\":406:412   */\n      dup5\n        /* \"#utility.yul\":401:404   */\n      dup3\n        /* \"#utility.yul\":396:399   */\n      dup6\n        /* \"#utility.yul\":372:413   */\n      tag_131\n      jump\t// in\n    tag_130:\n        /* \"#utility.yul\":91:419   */\n      pop\n        /* \"#utility.yul\":7:419   */\n      swap4\n      swap3\n      pop\n      pop\n      pop\n      jump\t// out\n        /* \"#utility.yul\":425:564   */\n    tag_132:\n        /* \"#utility.yul\":471:476   */\n      0x00\n        /* \"#utility.yul\":509:515   */\n      dup2\n        /* \"#utility.yul\":496:516   */\n      calldataload\n        /* \"#utility.yul\":487:516   */\n      swap1\n      pop\n        /* \"#utility.yul\":525:558   */\n      tag_134\n        /* \"#utility.yul\":552:557   */\n      dup2\n        /* \"#utility.yul\":525:558   */\n      tag_135\n      jump\t// in\n    tag_134:\n        /* \"#utility.yul\":425:564   */\n      swap3\n      swap2\n      pop\n      pop\n      jump\t// out\n        /* \"#utility.yul\":570:725   */\n    tag_136:\n        /* \"#utility.yul\":624:629   */\n      0x00\n        /* \"#utility.yul\":662:668   */\n      dup2\n        /* \"#utility.yul\":649:669   */\n      calldataload\n        /* \"#utility.yul\":640:669   */\n      swap1\n      pop\n        /* \"#utility.yul\":678:719   */\n      tag_138\n        /* \"#utility.yul\":713:718   */\n      dup2\n        /* \"#utility.yul\":678:719   */\n      tag_139\n      jump\t// in\n    tag_138:\n        /* \"#utility.yul\":570:725   */\n      swap3\n      swap2\n      pop\n      pop\n      jump\t// out\n        /* \"#utility.yul\":731:864   */\n    tag_140:\n        /* \"#utility.yul\":774:779   */\n      0x00\n        /* \"#utility.yul\":812:818   */\n      dup2\n        /* \"#utility.yul\":799:819   */\n      calldataload\n        /* \"#utility.yul\":790:819   */\n      swap1\n      pop\n        /* \"#utility.yul\":828:858   */\n      tag_142\n        /* \"#utility.yul\":852:857   */\n      dup2\n        /* \"#utility.yul\":828:858   */\n      tag_143\n      jump\t// in\n    tag_142:\n        /* \"#utility.yul\":731:864   */\n      swap3\n      swap2\n      pop\n      pop\n      jump\t// out\n        /* \"#utility.yul\":884:1224   */\n    tag_144:\n        /* \"#utility.yul\":940:945   */\n      0x00\n        /* \"#utility.yul\":989:992   */\n      dup3\n        /* \"#utility.yul\":982:986   */\n      0x1f\n        /* \"#utility.yul\":974:980   */\n      dup4\n        /* \"#utility.yul\":970:987   */\n      add\n        /* \"#utility.yul\":966:993   */\n      slt\n        /* \"#utility.yul\":956:1078   */\n      tag_146\n      jumpi\n        /* \"#utility.yul\":997:1076   */\n      tag_147\n      tag_148\n      jump\t// in\n    tag_147:\n        /* \"#utility.yul\":956:1078   */\n    tag_146:\n        /* \"#utility.yul\":1114:1120   */\n      dup2\n        /* \"#utility.yul\":1101:1121   */\n      calldataload\n        /* \"#utility.yul\":1139:1218   */\n      tag_149\n        /* \"#utility.yul\":1214:1217   */\n      dup5\n        /* \"#utility.yul\":1206:1212   */\n      dup3\n        /* \"#utility.yul\":1199:1203   */\n      0x20\n        /* \"#utility.yul\":1191:1197   */\n      dup7\n        /* \"#utility.yul\":1187:1204   */\n      add\n        /* \"#utility.yul\":1139:1218   */\n      tag_121\n      jump\t// in\n    tag_149:\n        /* \"#utility.yul\":1130:1218   */\n      swap2\n      pop\n        /* \"#utility.yul\":946:1224   */\n      pop\n        /* \"#utility.yul\":884:1224   */\n      swap3\n      swap2\n      pop\n      pop\n      jump\t// out\n        /* \"#utility.yul\":1230:1369   */\n    tag_150:\n        /* \"#utility.yul\":1276:1281   */\n      0x00\n        /* \"#utility.yul\":1314:1320   */\n      dup2\n        /* \"#utility.yul\":1301:1321   */\n      calldataload\n        /* \"#utility.yul\":1292:1321   */\n      swap1\n      pop\n        /* \"#utility.yul\":1330:1363   */\n      tag_152\n        /* \"#utility.yul\":1357:1362   */\n      dup2\n        /* \"#utility.yul\":1330:1363   */\n      tag_153\n      jump\t// in\n    tag_152:\n        /* \"#utility.yul\":1230:1369   */\n      swap3\n      swap2\n      pop\n      pop\n      jump\t// out\n        /* \"#utility.yul\":1375:1704   */\n    tag_20:\n        /* \"#utility.yul\":1434:1440   */\n      0x00\n        /* \"#utility.yul\":1483:1485   */\n      0x20\n        /* \"#utility.yul\":1471:1480   */\n      dup3\n        /* \"#utility.yul\":1462:1469   */\n      dup5\n        /* \"#utility.yul\":1458:1481   */\n      sub\n        /* \"#utility.yul\":1454:1486   */\n      slt\n        /* \"#utility.yul\":1451:1570   */\n      iszero\n      tag_155\n      jumpi\n        /* \"#utility.yul\":1489:1568   */\n      tag_156\n      tag_157\n      jump\t// in\n    tag_156:\n        /* \"#utility.yul\":1451:1570   */\n    tag_155:\n        /* \"#utility.yul\":1609:1610   */\n      0x00\n        /* \"#utility.yul\":1634:1687   */\n      tag_158\n        /* \"#utility.yul\":1679:1686   */\n      dup5\n        /* \"#utility.yul\":1670:1676   */\n      dup3\n        /* \"#utility.yul\":1659:1668   */\n      dup6\n        /* \"#utility.yul\":1655:1677   */\n      add\n        /* \"#utility.yul\":1634:1687   */\n      tag_132\n      jump\t// in\n    tag_158:\n        /* \"#utility.yul\":1624:1687   */\n      swap2\n      pop\n        /* \"#utility.yul\":1580:1697   */\n      pop\n        /* \"#utility.yul\":1375:1704   */\n      swap3\n      swap2\n      pop\n      pop\n      jump\t// out\n        /* \"#utility.yul\":1710:2055   */\n    tag_15:\n        /* \"#utility.yul\":1777:1783   */\n      0x00\n        /* \"#utility.yul\":1826:1828   */\n      0x20\n        /* \"#utility.yul\":1814:1823   */\n      dup3\n        /* \"#utility.yul\":1805:1812   */\n      dup5\n        /* \"#utility.yul\":1801:1824   */\n      sub\n        /* \"#utility.yul\":1797:1829   */\n      slt\n        /* \"#utility.yul\":1794:1913   */\n      iszero\n      tag_160\n      jumpi\n        /* \"#utility.yul\":1832:1911   */\n      tag_161\n      tag_157\n      jump\t// in\n    tag_161:\n        /* \"#utility.yul\":1794:1913   */\n    tag_160:\n        /* \"#utility.yul\":1952:1953   */\n      0x00\n        /* \"#utility.yul\":1977:2038   */\n      tag_162\n        /* \"#utility.yul\":2030:2037   */\n      dup5\n        /* \"#utility.yul\":2021:2027   */\n      dup3\n        /* \"#utility.yul\":2010:2019   */\n      dup6\n        /* \"#utility.yul\":2006:2028   */\n      add\n        /* \"#utility.yul\":1977:2038   */\n      tag_136\n      jump\t// in\n    tag_162:\n        /* \"#utility.yul\":1967:2038   */\n      swap2\n      pop\n        /* \"#utility.yul\":1923:2048   */\n      pop\n        /* \"#utility.yul\":1710:2055   */\n      swap3\n      swap2\n      pop\n      pop\n      jump\t// out\n        /* \"#utility.yul\":2061:3488   */\n    tag_11:\n        /* \"#utility.yul\":2190:2196   */\n      0x00\n        /* \"#utility.yul\":2198:2204   */\n      dup1\n        /* \"#utility.yul\":2206:2212   */\n      0x00\n        /* \"#utility.yul\":2214:2220   */\n      dup1\n        /* \"#utility.yul\":2222:2228   */\n      0x00\n        /* \"#utility.yul\":2230:2236   */\n      dup1\n        /* \"#utility.yul\":2279:2282   */\n      0xc0\n        /* \"#utility.yul\":2267:2276   */\n      dup8\n        /* \"#utility.yul\":2258:2265   */\n      dup10\n        /* \"#utility.yul\":2254:2277   */\n      sub\n        /* \"#utility.yul\":2250:2283   */\n      slt\n        /* \"#utility.yul\":2247:2367   */\n      iszero\n      tag_164\n      jumpi\n        /* \"#utility.yul\":2286:2365   */\n      tag_165\n      tag_157\n      jump\t// in\n    tag_165:\n        /* \"#utility.yul\":2247:2367   */\n    tag_164:\n        /* \"#utility.yul\":2406:2407   */\n      0x00\n        /* \"#utility.yul\":2431:2492   */\n      tag_166\n        /* \"#utility.yul\":2484:2491   */\n      dup10\n        /* \"#utility.yul\":2475:2481   */\n      dup3\n        /* \"#utility.yul\":2464:2473   */\n      dup11\n        /* \"#utility.yul\":2460:2482   */\n      add\n        /* \"#utility.yul\":2431:2492   */\n      tag_136\n      jump\t// in\n    tag_166:\n        /* \"#utility.yul\":2421:2492   */\n      swap7\n      pop\n        /* \"#utility.yul\":2377:2502   */\n      pop\n        /* \"#utility.yul\":2569:2571   */\n      0x20\n        /* \"#utility.yul\":2558:2567   */\n      dup8\n        /* \"#utility.yul\":2554:2572   */\n      add\n        /* \"#utility.yul\":2541:2573   */\n      calldataload\n        /* \"#utility.yul\":2600:2618   */\n      0xffffffffffffffff\n        /* \"#utility.yul\":2592:2598   */\n      dup2\n        /* \"#utility.yul\":2589:2619   */\n      gt\n        /* \"#utility.yul\":2586:2703   */\n      iszero\n      tag_167\n      jumpi\n        /* \"#utility.yul\":2622:2701   */\n      tag_168\n      tag_169\n      jump\t// in\n    tag_168:\n        /* \"#utility.yul\":2586:2703   */\n    tag_167:\n        /* \"#utility.yul\":2727:2790   */\n      tag_170\n        /* \"#utility.yul\":2782:2789   */\n      dup10\n        /* \"#utility.yul\":2773:2779   */\n      dup3\n        /* \"#utility.yul\":2762:2771   */\n      dup11\n        /* \"#utility.yul\":2758:2780   */\n      add\n        /* \"#utility.yul\":2727:2790   */\n      tag_144\n      jump\t// in\n    tag_170:\n        /* \"#utility.yul\":2717:2790   */\n      swap6\n      pop\n        /* \"#utility.yul\":2512:2800   */\n      pop\n        /* \"#utility.yul\":2867:2869   */\n      0x40\n        /* \"#utility.yul\":2856:2865   */\n      dup8\n        /* \"#utility.yul\":2852:2870   */\n      add\n        /* \"#utility.yul\":2839:2871   */\n      calldataload\n        /* \"#utility.yul\":2898:2916   */\n      0xffffffffffffffff\n        /* \"#utility.yul\":2890:2896   */\n      dup2\n        /* \"#utility.yul\":2887:2917   */\n      gt\n        /* \"#utility.yul\":2884:3001   */\n      iszero\n      tag_171\n      jumpi\n        /* \"#utility.yul\":2920:2999   */\n      tag_172\n      tag_169\n      jump\t// in\n    tag_172:\n        /* \"#utility.yul\":2884:3001   */\n    tag_171:\n        /* \"#utility.yul\":3025:3088   */\n      tag_173\n        /* \"#utility.yul\":3080:3087   */\n      dup10\n        /* \"#utility.yul\":3071:3077   */\n      dup3\n        /* \"#utility.yul\":3060:3069   */\n      dup11\n        /* \"#utility.yul\":3056:3078   */\n      add\n        /* \"#utility.yul\":3025:3088   */\n      tag_144\n      jump\t// in\n    tag_173:\n        /* \"#utility.yul\":3015:3088   */\n      swap5\n      pop\n        /* \"#utility.yul\":2810:3098   */\n      pop\n        /* \"#utility.yul\":3137:3139   */\n      0x60\n        /* \"#utility.yul\":3163:3216   */\n      tag_174\n        /* \"#utility.yul\":3208:3215   */\n      dup10\n        /* \"#utility.yul\":3199:3205   */\n      dup3\n        /* \"#utility.yul\":3188:3197   */\n      dup11\n        /* \"#utility.yul\":3184:3206   */\n      add\n        /* \"#utility.yul\":3163:3216   */\n      tag_150\n      jump\t// in\n    tag_174:\n        /* \"#utility.yul\":3153:3216   */\n      swap4\n      pop\n        /* \"#utility.yul\":3108:3226   */\n      pop\n        /* \"#utility.yul\":3265:3268   */\n      0x80\n        /* \"#utility.yul\":3292:3345   */\n      tag_175\n        /* \"#utility.yul\":3337:3344   */\n      dup10\n        /* \"#utility.yul\":3328:3334   */\n      dup3\n        /* \"#utility.yul\":3317:3326   */\n      dup11\n        /* \"#utility.yul\":3313:3335   */\n      add\n        /* \"#utility.yul\":3292:3345   */\n      tag_150\n      jump\t// in\n    tag_175:\n        /* \"#utility.yul\":3282:3345   */\n      swap3\n      pop\n        /* \"#utility.yul\":3236:3355   */\n      pop\n        /* \"#utility.yul\":3394:3397   */\n      0xa0\n        /* \"#utility.yul\":3421:3471   */\n      tag_176\n        /* \"#utility.yul\":3463:3470   */\n      dup10\n        /* \"#utility.yul\":3454:3460   */\n      dup3\n        /* \"#utility.yul\":3443:3452   */\n      dup11\n        /* \"#utility.yul\":3439:3461   */\n      add\n        /* \"#utility.yul\":3421:3471   */\n      tag_140\n      jump\t// in\n    tag_176:\n        /* \"#utility.yul\":3411:3471   */\n      swap2\n      pop\n        /* \"#utility.yul\":3365:3481   */\n      pop\n        /* \"#utility.yul\":2061:3488   */\n      swap3\n      swap6\n      pop\n      swap3\n      swap6\n      pop\n      swap3\n      swap6\n      jump\t// out\n        /* \"#utility.yul\":3494:3823   */\n    tag_32:\n        /* \"#utility.yul\":3553:3559   */\n      0x00\n        /* \"#utility.yul\":3602:3604   */\n      0x20\n        /* \"#utility.yul\":3590:3599   */\n      dup3\n        /* \"#utility.yul\":3581:3588   */\n      dup5\n        /* \"#utility.yul\":3577:3600   */\n      sub\n        /* \"#utility.yul\":3573:3605   */\n      slt\n        /* \"#utility.yul\":3570:3689   */\n      iszero\n      tag_178\n      jumpi\n        /* \"#utility.yul\":3608:3687   */\n      tag_179\n      tag_157\n      jump\t// in\n    tag_179:\n        /* \"#utility.yul\":3570:3689   */\n    tag_178:\n        /* \"#utility.yul\":3728:3729   */\n      0x00\n        /* \"#utility.yul\":3753:3806   */\n      tag_180\n        /* \"#utility.yul\":3798:3805   */\n      dup5\n        /* \"#utility.yul\":3789:3795   */\n      dup3\n        /* \"#utility.yul\":3778:3787   */\n      dup6\n        /* \"#utility.yul\":3774:3796   */\n      add\n        /* \"#utility.yul\":3753:3806   */\n      tag_150\n      jump\t// in\n    tag_180:\n        /* \"#utility.yul\":3743:3806   */\n      swap2\n      pop\n        /* \"#utility.yul\":3699:3816   */\n      pop\n        /* \"#utility.yul\":3494:3823   */\n      swap3\n      swap2\n      pop\n      pop\n      jump\t// out\n        /* \"#utility.yul\":3829:3971   */\n    tag_181:\n        /* \"#utility.yul\":3932:3964   */\n      tag_183\n        /* \"#utility.yul\":3958:3963   */\n      dup2\n        /* \"#utility.yul\":3932:3964   */\n      tag_184\n      jump\t// in\n    tag_183:\n        /* \"#utility.yul\":3927:3930   */\n      dup3\n        /* \"#utility.yul\":3920:3965   */\n      mstore\n        /* \"#utility.yul\":3829:3971   */\n      pop\n      pop\n      jump\t// out\n        /* \"#utility.yul\":3977:4086   */\n    tag_185:\n        /* \"#utility.yul\":4058:4079   */\n      tag_187\n        /* \"#utility.yul\":4073:4078   */\n      dup2\n        /* \"#utility.yul\":4058:4079   */\n      tag_188\n      jump\t// in\n    tag_187:\n        /* \"#utility.yul\":4053:4056   */\n      dup3\n        /* \"#utility.yul\":4046:4080   */\n      mstore\n        /* \"#utility.yul\":3977:4086   */\n      pop\n      pop\n      jump\t// out\n        /* \"#utility.yul\":4092:4456   */\n    tag_189:\n        /* \"#utility.yul\":4180:4183   */\n      0x00\n        /* \"#utility.yul\":4208:4247   */\n      tag_191\n        /* \"#utility.yul\":4241:4246   */\n      dup3\n        /* \"#utility.yul\":4208:4247   */\n      tag_192\n      jump\t// in\n    tag_191:\n        /* \"#utility.yul\":4263:4334   */\n      tag_193\n        /* \"#utility.yul\":4327:4333   */\n      dup2\n        /* \"#utility.yul\":4322:4325   */\n      dup6\n        /* \"#utility.yul\":4263:4334   */\n      tag_194\n      jump\t// in\n    tag_193:\n        /* \"#utility.yul\":4256:4334   */\n      swap4\n      pop\n        /* \"#utility.yul\":4343:4395   */\n      tag_195\n        /* \"#utility.yul\":4388:4394   */\n      dup2\n        /* \"#utility.yul\":4383:4386   */\n      dup6\n        /* \"#utility.yul\":4376:4380   */\n      0x20\n        /* \"#utility.yul\":4369:4374   */\n      dup7\n        /* \"#utility.yul\":4365:4381   */\n      add\n        /* \"#utility.yul\":4343:4395   */\n      tag_196\n      jump\t// in\n    tag_195:\n        /* \"#utility.yul\":4420:4449   */\n      tag_197\n        /* \"#utility.yul\":4442:4448   */\n      dup2\n        /* \"#utility.yul\":4420:4449   */\n      tag_198\n      jump\t// in\n    tag_197:\n        /* \"#utility.yul\":4415:4418   */\n      dup5\n        /* \"#utility.yul\":4411:4450   */\n      add\n        /* \"#utility.yul\":4404:4450   */\n      swap2\n      pop\n        /* \"#utility.yul\":4184:4456   */\n      pop\n        /* \"#utility.yul\":4092:4456   */\n      swap3\n      swap2\n      pop\n      pop\n      jump\t// out\n        /* \"#utility.yul\":4462:4828   */\n    tag_199:\n        /* \"#utility.yul\":4604:4607   */\n      0x00\n        /* \"#utility.yul\":4625:4692   */\n      tag_201\n        /* \"#utility.yul\":4689:4691   */\n      0x35\n        /* \"#utility.yul\":4684:4687   */\n      dup4\n        /* \"#utility.yul\":4625:4692   */\n      tag_194\n      jump\t// in\n    tag_201:\n        /* \"#utility.yul\":4618:4692   */\n      swap2\n      pop\n        /* \"#utility.yul\":4701:4794   */\n      tag_202\n        /* \"#utility.yul\":4790:4793   */\n      dup3\n        /* \"#utility.yul\":4701:4794   */\n      tag_203\n      jump\t// in\n    tag_202:\n        /* \"#utility.yul\":4819:4821   */\n      0x40\n        /* \"#utility.yul\":4814:4817   */\n      dup3\n        /* \"#utility.yul\":4810:4822   */\n      add\n        /* \"#utility.yul\":4803:4822   */\n      swap1\n      pop\n        /* \"#utility.yul\":4462:4828   */\n      swap2\n      swap1\n      pop\n      jump\t// out\n        /* \"#utility.yul\":4834:5200   */\n    tag_204:\n        /* \"#utility.yul\":4976:4979   */\n      0x00\n        /* \"#utility.yul\":4997:5064   */\n      tag_206\n        /* \"#utility.yul\":5061:5063   */\n      0x3a\n        /* \"#utility.yul\":5056:5059   */\n      dup4\n        /* \"#utility.yul\":4997:5064   */\n      tag_194\n      jump\t// in\n    tag_206:\n        /* \"#utility.yul\":4990:5064   */\n      swap2\n      pop\n        /* \"#utility.yul\":5073:5166   */\n      tag_207\n        /* \"#utility.yul\":5162:5165   */\n      dup3\n        /* \"#utility.yul\":5073:5166   */\n      tag_208\n      jump\t// in\n    tag_207:\n        /* \"#utility.yul\":5191:5193   */\n      0x40\n        /* \"#utility.yul\":5186:5189   */\n      dup3\n        /* \"#utility.yul\":5182:5194   */\n      add\n        /* \"#utility.yul\":5175:5194   */\n      swap1\n      pop\n        /* \"#utility.yul\":4834:5200   */\n      swap2\n      swap1\n      pop\n      jump\t// out\n        /* \"#utility.yul\":5206:5324   */\n    tag_209:\n        /* \"#utility.yul\":5293:5317   */\n      tag_211\n        /* \"#utility.yul\":5311:5316   */\n      dup2\n        /* \"#utility.yul\":5293:5317   */\n      tag_212\n      jump\t// in\n    tag_211:\n        /* \"#utility.yul\":5288:5291   */\n      dup3\n        /* \"#utility.yul\":5281:5318   */\n      mstore\n        /* \"#utility.yul\":5206:5324   */\n      pop\n      pop\n      jump\t// out\n        /* \"#utility.yul\":5330:6307   */\n    tag_35:\n        /* \"#utility.yul\":5613:5617   */\n      0x00\n        /* \"#utility.yul\":5651:5654   */\n      0xc0\n        /* \"#utility.yul\":5640:5649   */\n      dup3\n        /* \"#utility.yul\":5636:5655   */\n      add\n        /* \"#utility.yul\":5628:5655   */\n      swap1\n      pop\n        /* \"#utility.yul\":5665:5752   */\n      tag_214\n        /* \"#utility.yul\":5749:5750   */\n      0x00\n        /* \"#utility.yul\":5738:5747   */\n      dup4\n        /* \"#utility.yul\":5734:5751   */\n      add\n        /* \"#utility.yul\":5725:5731   */\n      dup10\n        /* \"#utility.yul\":5665:5752   */\n      tag_181\n      jump\t// in\n    tag_214:\n        /* \"#utility.yul\":5799:5808   */\n      dup2\n        /* \"#utility.yul\":5793:5797   */\n      dup2\n        /* \"#utility.yul\":5789:5809   */\n      sub\n        /* \"#utility.yul\":5784:5786   */\n      0x20\n        /* \"#utility.yul\":5773:5782   */\n      dup4\n        /* \"#utility.yul\":5769:5787   */\n      add\n        /* \"#utility.yul\":5762:5810   */\n      mstore\n        /* \"#utility.yul\":5827:5905   */\n      tag_215\n        /* \"#utility.yul\":5900:5904   */\n      dup2\n        /* \"#utility.yul\":5891:5897   */\n      dup9\n        /* \"#utility.yul\":5827:5905   */\n      tag_189\n      jump\t// in\n    tag_215:\n        /* \"#utility.yul\":5819:5905   */\n      swap1\n      pop\n        /* \"#utility.yul\":5952:5961   */\n      dup2\n        /* \"#utility.yul\":5946:5950   */\n      dup2\n        /* \"#utility.yul\":5942:5962   */\n      sub\n        /* \"#utility.yul\":5937:5939   */\n      0x40\n        /* \"#utility.yul\":5926:5935   */\n      dup4\n        /* \"#utility.yul\":5922:5940   */\n      add\n        /* \"#utility.yul\":5915:5963   */\n      mstore\n        /* \"#utility.yul\":5980:6058   */\n      tag_216\n        /* \"#utility.yul\":6053:6057   */\n      dup2\n        /* \"#utility.yul\":6044:6050   */\n      dup8\n        /* \"#utility.yul\":5980:6058   */\n      tag_189\n      jump\t// in\n    tag_216:\n        /* \"#utility.yul\":5972:6058   */\n      swap1\n      pop\n        /* \"#utility.yul\":6068:6140   */\n      tag_217\n        /* \"#utility.yul\":6136:6138   */\n      0x60\n        /* \"#utility.yul\":6125:6134   */\n      dup4\n        /* \"#utility.yul\":6121:6139   */\n      add\n        /* \"#utility.yul\":6112:6118   */\n      dup7\n        /* \"#utility.yul\":6068:6140   */\n      tag_209\n      jump\t// in\n    tag_217:\n        /* \"#utility.yul\":6150:6223   */\n      tag_218\n        /* \"#utility.yul\":6218:6221   */\n      0x80\n        /* \"#utility.yul\":6207:6216   */\n      dup4\n        /* \"#utility.yul\":6203:6222   */\n      add\n        /* \"#utility.yul\":6194:6200   */\n      dup6\n        /* \"#utility.yul\":6150:6223   */\n      tag_209\n      jump\t// in\n    tag_218:\n        /* \"#utility.yul\":6233:6300   */\n      tag_219\n        /* \"#utility.yul\":6295:6298   */\n      0xa0\n        /* \"#utility.yul\":6284:6293   */\n      dup4\n        /* \"#utility.yul\":6280:6299   */\n      add\n        /* \"#utility.yul\":6271:6277   */\n      dup5\n        /* \"#utility.yul\":6233:6300   */\n      tag_185\n      jump\t// in\n    tag_219:\n        /* \"#utility.yul\":5330:6307   */\n      swap8\n      swap7\n      pop\n      pop\n      pop\n      pop\n      pop\n      pop\n      pop\n      jump\t// out\n        /* \"#utility.yul\":6313:6523   */\n    tag_23:\n        /* \"#utility.yul\":6400:6404   */\n      0x00\n        /* \"#utility.yul\":6438:6440   */\n      0x20\n        /* \"#utility.yul\":6427:6436   */\n      dup3\n        /* \"#utility.yul\":6423:6441   */\n      add\n        /* \"#utility.yul\":6415:6441   */\n      swap1\n      pop\n        /* \"#utility.yul\":6451:6516   */\n      tag_221\n        /* \"#utility.yul\":6513:6514   */\n      0x00\n        /* \"#utility.yul\":6502:6511   */\n      dup4\n        /* \"#utility.yul\":6498:6515   */\n      add\n        /* \"#utility.yul\":6489:6495   */\n      dup5\n        /* \"#utility.yul\":6451:6516   */\n      tag_185\n      jump\t// in\n    tag_221:\n        /* \"#utility.yul\":6313:6523   */\n      swap3\n      swap2\n      pop\n      pop\n      jump\t// out\n        /* \"#utility.yul\":6529:6948   */\n    tag_57:\n        /* \"#utility.yul\":6695:6699   */\n      0x00\n        /* \"#utility.yul\":6733:6735   */\n      0x20\n        /* \"#utility.yul\":6722:6731   */\n      dup3\n        /* \"#utility.yul\":6718:6736   */\n      add\n        /* \"#utility.yul\":6710:6736   */\n      swap1\n      pop\n        /* \"#utility.yul\":6782:6791   */\n      dup2\n        /* \"#utility.yul\":6776:6780   */\n      dup2\n        /* \"#utility.yul\":6772:6792   */\n      sub\n        /* \"#utility.yul\":6768:6769   */\n      0x00\n        /* \"#utility.yul\":6757:6766   */\n      dup4\n        /* \"#utility.yul\":6753:6770   */\n      add\n        /* \"#utility.yul\":6746:6793   */\n      mstore\n        /* \"#utility.yul\":6810:6941   */\n      tag_223\n        /* \"#utility.yul\":6936:6940   */\n      dup2\n        /* \"#utility.yul\":6810:6941   */\n      tag_199\n      jump\t// in\n    tag_223:\n        /* \"#utility.yul\":6802:6941   */\n      swap1\n      pop\n        /* \"#utility.yul\":6529:6948   */\n      swap2\n      swap1\n      pop\n      jump\t// out\n        /* \"#utility.yul\":6954:7373   */\n    tag_53:\n        /* \"#utility.yul\":7120:7124   */\n      0x00\n        /* \"#utility.yul\":7158:7160   */\n      0x20\n        /* \"#utility.yul\":7147:7156   */\n      dup3\n        /* \"#utility.yul\":7143:7161   */\n      add\n        /* \"#utility.yul\":7135:7161   */\n      swap1\n      pop\n        /* \"#utility.yul\":7207:7216   */\n      dup2\n        /* \"#utility.yul\":7201:7205   */\n      dup2\n        /* \"#utility.yul\":7197:7217   */\n      sub\n        /* \"#utility.yul\":7193:7194   */\n      0x00\n        /* \"#utility.yul\":7182:7191   */\n      dup4\n        /* \"#utility.yul\":7178:7195   */\n      add\n        /* \"#utility.yul\":7171:7218   */\n      mstore\n        /* \"#utility.yul\":7235:7366   */\n      tag_225\n        /* \"#utility.yul\":7361:7365   */\n      dup2\n        /* \"#utility.yul\":7235:7366   */\n      tag_204\n      jump\t// in\n    tag_225:\n        /* \"#utility.yul\":7227:7366   */\n      swap1\n      pop\n        /* \"#utility.yul\":6954:7373   */\n      swap2\n      swap1\n      pop\n      jump\t// out\n        /* \"#utility.yul\":7379:7601   */\n    tag_28:\n        /* \"#utility.yul\":7472:7476   */\n      0x00\n        /* \"#utility.yul\":7510:7512   */\n      0x20\n        /* \"#utility.yul\":7499:7508   */\n      dup3\n        /* \"#utility.yul\":7495:7513   */\n      add\n        /* \"#utility.yul\":7487:7513   */\n      swap1\n      pop\n        /* \"#utility.yul\":7523:7594   */\n      tag_227\n        /* \"#utility.yul\":7591:7592   */\n      0x00\n        /* \"#utility.yul\":7580:7589   */\n      dup4\n        /* \"#utility.yul\":7576:7593   */\n      add\n        /* \"#utility.yul\":7567:7573   */\n      dup5\n        /* \"#utility.yul\":7523:7594   */\n      tag_209\n      jump\t// in\n    tag_227:\n        /* \"#utility.yul\":7379:7601   */\n      swap3\n      swap2\n      pop\n      pop\n      jump\t// out\n        /* \"#utility.yul\":7607:7736   */\n    tag_126:\n        /* \"#utility.yul\":7641:7647   */\n      0x00\n        /* \"#utility.yul\":7668:7688   */\n      tag_229\n      tag_230\n      jump\t// in\n    tag_229:\n        /* \"#utility.yul\":7658:7688   */\n      swap1\n      pop\n        /* \"#utility.yul\":7697:7730   */\n      tag_231\n        /* \"#utility.yul\":7725:7729   */\n      dup3\n        /* \"#utility.yul\":7717:7723   */\n      dup3\n        /* \"#utility.yul\":7697:7730   */\n      tag_232\n      jump\t// in\n    tag_231:\n        /* \"#utility.yul\":7607:7736   */\n      swap2\n      swap1\n      pop\n      jump\t// out\n        /* \"#utility.yul\":7742:7817   */\n    tag_230:\n        /* \"#utility.yul\":7775:7781   */\n      0x00\n        /* \"#utility.yul\":7808:7810   */\n      0x40\n        /* \"#utility.yul\":7802:7811   */\n      mload\n        /* \"#utility.yul\":7792:7811   */\n      swap1\n      pop\n        /* \"#utility.yul\":7742:7817   */\n      swap1\n      jump\t// out\n        /* \"#utility.yul\":7823:8131   */\n    tag_125:\n        /* \"#utility.yul\":7885:7889   */\n      0x00\n        /* \"#utility.yul\":7975:7993   */\n      0xffffffffffffffff\n        /* \"#utility.yul\":7967:7973   */\n      dup3\n        /* \"#utility.yul\":7964:7994   */\n      gt\n        /* \"#utility.yul\":7961:8017   */\n      iszero\n      tag_235\n      jumpi\n        /* \"#utility.yul\":7997:8015   */\n      tag_236\n      tag_237\n      jump\t// in\n    tag_236:\n        /* \"#utility.yul\":7961:8017   */\n    tag_235:\n        /* \"#utility.yul\":8035:8064   */\n      tag_238\n        /* \"#utility.yul\":8057:8063   */\n      dup3\n        /* \"#utility.yul\":8035:8064   */\n      tag_198\n      jump\t// in\n    tag_238:\n        /* \"#utility.yul\":8027:8064   */\n      swap1\n      pop\n        /* \"#utility.yul\":8119:8123   */\n      0x20\n        /* \"#utility.yul\":8113:8117   */\n      dup2\n        /* \"#utility.yul\":8109:8124   */\n      add\n        /* \"#utility.yul\":8101:8124   */\n      swap1\n      pop\n        /* \"#utility.yul\":7823:8131   */\n      swap2\n      swap1\n      pop\n      jump\t// out\n        /* \"#utility.yul\":8137:8236   */\n    tag_192:\n        /* \"#utility.yul\":8189:8195   */\n      0x00\n        /* \"#utility.yul\":8223:8228   */\n      dup2\n        /* \"#utility.yul\":8217:8229   */\n      mload\n        /* \"#utility.yul\":8207:8229   */\n      swap1\n      pop\n        /* \"#utility.yul\":8137:8236   */\n      swap2\n      swap1\n      pop\n      jump\t// out\n        /* \"#utility.yul\":8242:8411   */\n    tag_194:\n        /* \"#utility.yul\":8326:8337   */\n      0x00\n        /* \"#utility.yul\":8360:8366   */\n      dup3\n        /* \"#utility.yul\":8355:8358   */\n      dup3\n        /* \"#utility.yul\":8348:8367   */\n      mstore\n        /* \"#utility.yul\":8400:8404   */\n      0x20\n        /* \"#utility.yul\":8395:8398   */\n      dup3\n        /* \"#utility.yul\":8391:8405   */\n      add\n        /* \"#utility.yul\":8376:8405   */\n      swap1\n      pop\n        /* \"#utility.yul\":8242:8411   */\n      swap3\n      swap2\n      pop\n      pop\n      jump\t// out\n        /* \"#utility.yul\":8417:8722   */\n    tag_109:\n        /* \"#utility.yul\":8457:8460   */\n      0x00\n        /* \"#utility.yul\":8476:8496   */\n      tag_242\n        /* \"#utility.yul\":8494:8495   */\n      dup3\n        /* \"#utility.yul\":8476:8496   */\n      tag_212\n      jump\t// in\n    tag_242:\n        /* \"#utility.yul\":8471:8496   */\n      swap2\n      pop\n        /* \"#utility.yul\":8510:8530   */\n      tag_243\n        /* \"#utility.yul\":8528:8529   */\n      dup4\n        /* \"#utility.yul\":8510:8530   */\n      tag_212\n      jump\t// in\n    tag_243:\n        /* \"#utility.yul\":8505:8530   */\n      swap3\n      pop\n        /* \"#utility.yul\":8664:8665   */\n      dup3\n        /* \"#utility.yul\":8596:8662   */\n      0xffffffffffffffffffffffffffffffffffffffffffffffffffffffffffffffff\n        /* \"#utility.yul\":8592:8666   */\n      sub\n        /* \"#utility.yul\":8589:8590   */\n      dup3\n        /* \"#utility.yul\":8586:8667   */\n      gt\n        /* \"#utility.yul\":8583:8690   */\n      iszero\n      tag_244\n      jumpi\n        /* \"#utility.yul\":8670:8688   */\n      tag_245\n      tag_246\n      jump\t// in\n    tag_245:\n        /* \"#utility.yul\":8583:8690   */\n    tag_244:\n        /* \"#utility.yul\":8714:8715   */\n      dup3\n        /* \"#utility.yul\":8711:8712   */\n      dup3\n        /* \"#utility.yul\":8707:8716   */\n      add\n        /* \"#utility.yul\":8700:8716   */\n      swap1\n      pop\n        /* \"#utility.yul\":8417:8722   */\n      swap3\n      swap2\n      pop\n      pop\n      jump\t// out\n        /* \"#utility.yul\":8728:8824   */\n    tag_247:\n        /* \"#utility.yul\":8765:8772   */\n      0x00\n        /* \"#utility.yul\":8794:8818   */\n      tag_249\n        /* \"#utility.yul\":8812:8817   */\n      dup3\n        /* \"#utility.yul\":8794:8818   */\n      tag_250\n      jump\t// in\n    tag_249:\n        /* \"#utility.yul\":8783:8818   */\n      swap1\n      pop\n        /* \"#utility.yul\":8728:8824   */\n      swap2\n      swap1\n      pop\n      jump\t// out\n        /* \"#utility.yul\":8830:8934   */\n    tag_184:\n        /* \"#utility.yul\":8875:8882   */\n      0x00\n        /* \"#utility.yul\":8904:8928   */\n      tag_252\n        /* \"#utility.yul\":8922:8927   */\n      dup3\n        /* \"#utility.yul\":8904:8928   */\n      tag_250\n      jump\t// in\n    tag_252:\n        /* \"#utility.yul\":8893:8928   */\n      swap1\n      pop\n        /* \"#utility.yul\":8830:8934   */\n      swap2\n      swap1\n      pop\n      jump\t// out\n        /* \"#utility.yul\":8940:9030   */\n    tag_188:\n        /* \"#utility.yul\":8974:8981   */\n      0x00\n        /* \"#utility.yul\":9017:9022   */\n      dup2\n        /* \"#utility.yul\":9010:9023   */\n      iszero\n        /* \"#utility.yul\":9003:9024   */\n      iszero\n        /* \"#utility.yul\":8992:9024   */\n      swap1\n      pop\n        /* \"#utility.yul\":8940:9030   */\n      swap2\n      swap1\n      pop\n      jump\t// out\n        /* \"#utility.yul\":9036:9162   */\n    tag_250:\n        /* \"#utility.yul\":9073:9080   */\n      0x00\n        /* \"#utility.yul\":9113:9155   */\n      0xffffffffffffffffffffffffffffffffffffffff\n        /* \"#utility.yul\":9106:9111   */\n      dup3\n        /* \"#utility.yul\":9102:9156   */\n      and\n        /* \"#utility.yul\":9091:9156   */\n      swap1\n      pop\n        /* \"#utility.yul\":9036:9162   */\n      swap2\n      swap1\n      pop\n      jump\t// out\n        /* \"#utility.yul\":9168:9245   */\n    tag_212:\n        /* \"#utility.yul\":9205:9212   */\n      0x00\n        /* \"#utility.yul\":9234:9239   */\n      dup2\n        /* \"#utility.yul\":9223:9239   */\n      swap1\n      pop\n        /* \"#utility.yul\":9168:9245   */\n      swap2\n      swap1\n      pop\n      jump\t// out\n        /* \"#utility.yul\":9251:9405   */\n    tag_131:\n        /* \"#utility.yul\":9335:9341   */\n      dup3\n        /* \"#utility.yul\":9330:9333   */\n      dup2\n        /* \"#utility.yul\":9325:9328   */\n      dup4\n        /* \"#utility.yul\":9312:9342   */\n      calldatacopy\n        /* \"#utility.yul\":9397:9398   */\n      0x00\n        /* \"#utility.yul\":9388:9394   */\n      dup4\n        /* \"#utility.yul\":9383:9386   */\n      dup4\n        /* \"#utility.yul\":9379:9395   */\n      add\n        /* \"#utility.yul\":9372:9399   */\n      mstore\n        /* \"#utility.yul\":9251:9405   */\n      pop\n      pop\n      pop\n      jump\t// out\n        /* \"#utility.yul\":9411:9718   */\n    tag_196:\n        /* \"#utility.yul\":9479:9480   */\n      0x00\n        /* \"#utility.yul\":9489:9602   */\n    tag_258:\n        /* \"#utility.yul\":9503:9509   */\n      dup4\n        /* \"#utility.yul\":9500:9501   */\n      dup2\n        /* \"#utility.yul\":9497:9510   */\n      lt\n        /* \"#utility.yul\":9489:9602   */\n      iszero\n      tag_260\n      jumpi\n        /* \"#utility.yul\":9588:9589   */\n      dup1\n        /* \"#utility.yul\":9583:9586   */\n      dup3\n        /* \"#utility.yul\":9579:9590   */\n      add\n        /* \"#utility.yul\":9573:9591   */\n      mload\n        /* \"#utility.yul\":9569:9570   */\n      dup2\n        /* \"#utility.yul\":9564:9567   */\n      dup5\n        /* \"#utility.yul\":9560:9571   */\n      add\n        /* \"#utility.yul\":9553:9592   */\n      mstore\n        /* \"#utility.yul\":9525:9527   */\n      0x20\n        /* \"#utility.yul\":9522:9523   */\n      dup2\n        /* \"#utility.yul\":9518:9528   */\n      add\n        /* \"#utility.yul\":9513:9528   */\n      swap1\n      pop\n        /* \"#utility.yul\":9489:9602   */\n      jump(tag_258)\n    tag_260:\n        /* \"#utility.yul\":9620:9626   */\n      dup4\n        /* \"#utility.yul\":9617:9618   */\n      dup2\n        /* \"#utility.yul\":9614:9627   */\n      gt\n        /* \"#utility.yul\":9611:9712   */\n      iszero\n      tag_261\n      jumpi\n        /* \"#utility.yul\":9700:9701   */\n      0x00\n        /* \"#utility.yul\":9691:9697   */\n      dup5\n        /* \"#utility.yul\":9686:9689   */\n      dup5\n        /* \"#utility.yul\":9682:9698   */\n      add\n        /* \"#utility.yul\":9675:9702   */\n      mstore\n        /* \"#utility.yul\":9611:9712   */\n    tag_261:\n        /* \"#utility.yul\":9460:9718   */\n      pop\n        /* \"#utility.yul\":9411:9718   */\n      pop\n      pop\n      pop\n      jump\t// out\n        /* \"#utility.yul\":9724:10044   */\n    tag_79:\n        /* \"#utility.yul\":9768:9774   */\n      0x00\n        /* \"#utility.yul\":9805:9806   */\n      0x02\n        /* \"#utility.yul\":9799:9803   */\n      dup3\n        /* \"#utility.yul\":9795:9807   */\n      div\n        /* \"#utility.yul\":9785:9807   */\n      swap1\n      pop\n        /* \"#utility.yul\":9852:9853   */\n      0x01\n        /* \"#utility.yul\":9846:9850   */\n      dup3\n        /* \"#utility.yul\":9842:9854   */\n      and\n        /* \"#utility.yul\":9873:9891   */\n      dup1\n        /* \"#utility.yul\":9863:9944   */\n      tag_263\n      jumpi\n        /* \"#utility.yul\":9929:9933   */\n      0x7f\n        /* \"#utility.yul\":9921:9927   */\n      dup3\n        /* \"#utility.yul\":9917:9934   */\n      and\n        /* \"#utility.yul\":9907:9934   */\n      swap2\n      pop\n        /* \"#utility.yul\":9863:9944   */\n    tag_263:\n        /* \"#utility.yul\":9991:9993   */\n      0x20\n        /* \"#utility.yul\":9983:9989   */\n      dup3\n        /* \"#utility.yul\":9980:9994   */\n      lt\n        /* \"#utility.yul\":9960:9978   */\n      dup2\n        /* \"#utility.yul\":9957:9995   */\n      eq\n        /* \"#utility.yul\":9954:10038   */\n      iszero\n      tag_264\n      jumpi\n        /* \"#utility.yul\":10010:10028   */\n      tag_265\n      tag_266\n      jump\t// in\n    tag_265:\n        /* \"#utility.yul\":9954:10038   */\n    tag_264:\n        /* \"#utility.yul\":9775:10044   */\n      pop\n        /* \"#utility.yul\":9724:10044   */\n      swap2\n      swap1\n      pop\n      jump\t// out\n        /* \"#utility.yul\":10050:10331   */\n    tag_232:\n        /* \"#utility.yul\":10133:10160   */\n      tag_268\n        /* \"#utility.yul\":10155:10159   */\n      dup3\n        /* \"#utility.yul\":10133:10160   */\n      tag_198\n      jump\t// in\n    tag_268:\n        /* \"#utility.yul\":10125:10131   */\n      dup2\n        /* \"#utility.yul\":10121:10161   */\n      add\n        /* \"#utility.yul\":10263:10269   */\n      dup2\n        /* \"#utility.yul\":10251:10261   */\n      dup2\n        /* \"#utility.yul\":10248:10270   */\n      lt\n        /* \"#utility.yul\":10227:10245   */\n      0xffffffffffffffff\n        /* \"#utility.yul\":10215:10225   */\n      dup3\n        /* \"#utility.yul\":10212:10246   */\n      gt\n        /* \"#utility.yul\":10209:10271   */\n      or\n        /* \"#utility.yul\":10206:10294   */\n      iszero\n      tag_269\n      jumpi\n        /* \"#utility.yul\":10274:10292   */\n      tag_270\n      tag_237\n      jump\t// in\n    tag_270:\n        /* \"#utility.yul\":10206:10294   */\n    tag_269:\n        /* \"#utility.yul\":10314:10324   */\n      dup1\n        /* \"#utility.yul\":10310:10312   */\n      0x40\n        /* \"#utility.yul\":10303:10325   */\n      mstore\n        /* \"#utility.yul\":10093:10331   */\n      pop\n        /* \"#utility.yul\":10050:10331   */\n      pop\n      pop\n      jump\t// out\n        /* \"#utility.yul\":10337:10570   */\n    tag_101:\n        /* \"#utility.yul\":10376:10379   */\n      0x00\n        /* \"#utility.yul\":10399:10423   */\n      tag_272\n        /* \"#utility.yul\":10417:10422   */\n      dup3\n        /* \"#utility.yul\":10399:10423   */\n      tag_212\n      jump\t// in\n    tag_272:\n        /* \"#utility.yul\":10390:10423   */\n      swap2\n      pop\n        /* \"#utility.yul\":10445:10511   */\n      0xffffffffffffffffffffffffffffffffffffffffffffffffffffffffffffffff\n        /* \"#utility.yul\":10438:10443   */\n      dup3\n        /* \"#utility.yul\":10435:10512   */\n      eq\n        /* \"#utility.yul\":10432:10535   */\n      iszero\n      tag_273\n      jumpi\n        /* \"#utility.yul\":10515:10533   */\n      tag_274\n      tag_246\n      jump\t// in\n    tag_274:\n        /* \"#utility.yul\":10432:10535   */\n    tag_273:\n        /* \"#utility.yul\":10562:10563   */\n      0x01\n        /* \"#utility.yul\":10555:10560   */\n      dup3\n        /* \"#utility.yul\":10551:10564   */\n      add\n        /* \"#utility.yul\":10544:10564   */\n      swap1\n      pop\n        /* \"#utility.yul\":10337:10570   */\n      swap2\n      swap1\n      pop\n      jump\t// out\n        /* \"#utility.yul\":10576:10756   */\n    tag_246:\n        /* \"#utility.yul\":10624:10701   */\n      0x4e487b7100000000000000000000000000000000000000000000000000000000\n        /* \"#utility.yul\":10621:10622   */\n      0x00\n        /* \"#utility.yul\":10614:10702   */\n      mstore\n        /* \"#utility.yul\":10721:10725   */\n      0x11\n        /* \"#utility.yul\":10718:10719   */\n      0x04\n        /* \"#utility.yul\":10711:10726   */\n      mstore\n        /* \"#utility.yul\":10745:10749   */\n      0x24\n        /* \"#utility.yul\":10742:10743   */\n      0x00\n        /* \"#utility.yul\":10735:10750   */\n      revert\n        /* \"#utility.yul\":10762:10942   */\n    tag_266:\n        /* \"#utility.yul\":10810:10887   */\n      0x4e487b7100000000000000000000000000000000000000000000000000000000\n        /* \"#utility.yul\":10807:10808   */\n      0x00\n        /* \"#utility.yul\":10800:10888   */\n      mstore\n        /* \"#utility.yul\":10907:10911   */\n      0x22\n        /* \"#utility.yul\":10904:10905   */\n      0x04\n        /* \"#utility.yul\":10897:10912   */\n      mstore\n        /* \"#utility.yul\":10931:10935   */\n      0x24\n        /* \"#utility.yul\":10928:10929   */\n      0x00\n        /* \"#utility.yul\":10921:10936   */\n      revert\n        /* \"#utility.yul\":10948:11128   */\n    tag_49:\n        /* \"#utility.yul\":10996:11073   */\n      0x4e487b7100000000000000000000000000000000000000000000000000000000\n        /* \"#utility.yul\":10993:10994   */\n      0x00\n        /* \"#utility.yul\":10986:11074   */\n      mstore\n        /* \"#utility.yul\":11093:11097   */\n      0x32\n        /* \"#utility.yul\":11090:11091   */\n      0x04\n        /* \"#utility.yul\":11083:11098   */\n      mstore\n        /* \"#utility.yul\":11117:11121   */\n      0x24\n        /* \"#utility.yul\":11114:11115   */\n      0x00\n        /* \"#utility.yul\":11107:11122   */\n      revert\n        /* \"#utility.yul\":11134:11314   */\n    tag_237:\n        /* \"#utility.yul\":11182:11259   */\n      0x4e487b7100000000000000000000000000000000000000000000000000000000\n        /* \"#utility.yul\":11179:11180   */\n      0x00\n        /* \"#utility.yul\":11172:11260   */\n      mstore\n        /* \"#utility.yul\":11279:11283   */\n      0x41\n        /* \"#utility.yul\":11276:11277   */\n      0x04\n        /* \"#utility.yul\":11269:11284   */\n      mstore\n        /* \"#utility.yul\":11303:11307   */\n      0x24\n        /* \"#utility.yul\":11300:11301   */\n      0x00\n        /* \"#utility.yul\":11293:11308   */\n      revert\n        /* \"#utility.yul\":11320:11437   */\n    tag_148:\n        /* \"#utility.yul\":11429:11430   */\n      0x00\n        /* \"#utility.yul\":11426:11427   */\n      dup1\n        /* \"#utility.yul\":11419:11431   */\n      revert\n        /* \"#utility.yul\":11443:11560   */\n    tag_129:\n        /* \"#utility.yul\":11552:11553   */\n      0x00\n        /* \"#utility.yul\":11549:11550   */\n      dup1\n        /* \"#utility.yul\":11542:11554   */\n      revert\n        /* \"#utility.yul\":11566:11683   */\n    tag_169:\n        /* \"#utility.yul\":11675:11676   */\n      0x00\n        /* \"#utility.yul\":11672:11673   */\n      dup1\n        /* \"#utility.yul\":11665:11677   */\n      revert\n        /* \"#utility.yul\":11689:11806   */\n    tag_157:\n        /* \"#utility.yul\":11798:11799   */\n      0x00\n        /* \"#utility.yul\":11795:11796   */\n      dup1\n        /* \"#utility.yul\":11788:11800   */\n      revert\n        /* \"#utility.yul\":11812:11914   */\n    tag_198:\n        /* \"#utility.yul\":11853:11859   */\n      0x00\n        /* \"#utility.yul\":11904:11906   */\n      0x1f\n        /* \"#utility.yul\":11900:11907   */\n      not\n        /* \"#utility.yul\":11895:11897   */\n      0x1f\n        /* \"#utility.yul\":11888:11893   */\n      dup4\n        /* \"#utility.yul\":11884:11898   */\n      add\n        /* \"#utility.yul\":11880:11908   */\n      and\n        /* \"#utility.yul\":11870:11908   */\n      swap1\n      pop\n        /* \"#utility.yul\":11812:11914   */\n      swap2\n      swap1\n      pop\n      jump\t// out\n        /* \"#utility.yul\":11920:12160   */\n    tag_203:\n        /* \"#utility.yul\":12060:12094   */\n      0x596f7520617265206e6f7420616c6c6f77656420746f20776974686472617721\n        /* \"#utility.yul\":12056:12057   */\n      0x00\n        /* \"#utility.yul\":12048:12054   */\n      dup3\n        /* \"#utility.yul\":12044:12058   */\n      add\n        /* \"#utility.yul\":12037:12095   */\n      mstore\n        /* \"#utility.yul\":12129:12152   */\n      0x2054696d6520686173206e6f7420706173736564210000000000000000000000\n        /* \"#utility.yul\":12124:12126   */\n      0x20\n        /* \"#utility.yul\":12116:12122   */\n      dup3\n        /* \"#utility.yul\":12112:12127   */\n      add\n        /* \"#utility.yul\":12105:12153   */\n      mstore\n        /* \"#utility.yul\":11920:12160   */\n      pop\n      jump\t// out\n        /* \"#utility.yul\":12166:12411   */\n    tag_208:\n        /* \"#utility.yul\":12306:12340   */\n      0x596f7520617265206e6f7420616c6c6f77656420746f20776974686472617721\n        /* \"#utility.yul\":12302:12303   */\n      0x00\n        /* \"#utility.yul\":12294:12300   */\n      dup3\n        /* \"#utility.yul\":12290:12304   */\n      add\n        /* \"#utility.yul\":12283:12341   */\n      mstore\n        /* \"#utility.yul\":12375:12403   */\n      0x204164647265737320446f6573204e6f74204d61746368656421000000000000\n        /* \"#utility.yul\":12370:12372   */\n      0x20\n        /* \"#utility.yul\":12362:12368   */\n      dup3\n        /* \"#utility.yul\":12358:12373   */\n      add\n        /* \"#utility.yul\":12351:12404   */\n      mstore\n        /* \"#utility.yul\":12166:12411   */\n      pop\n      jump\t// out\n        /* \"#utility.yul\":12417:12539   */\n    tag_135:\n        /* \"#utility.yul\":12490:12514   */\n      tag_287\n        /* \"#utility.yul\":12508:12513   */\n      dup2\n        /* \"#utility.yul\":12490:12514   */\n      tag_247\n      jump\t// in\n    tag_287:\n        /* \"#utility.yul\":12483:12488   */\n      dup2\n        /* \"#utility.yul\":12480:12515   */\n      eq\n        /* \"#utility.yul\":12470:12533   */\n      tag_288\n      jumpi\n        /* \"#utility.yul\":12529:12530   */\n      0x00\n        /* \"#utility.yul\":12526:12527   */\n      dup1\n        /* \"#utility.yul\":12519:12531   */\n      revert\n        /* \"#utility.yul\":12470:12533   */\n    tag_288:\n        /* \"#utility.yul\":12417:12539   */\n      pop\n      jump\t// out\n        /* \"#utility.yul\":12545:12683   */\n    tag_139:\n        /* \"#utility.yul\":12626:12658   */\n      tag_290\n        /* \"#utility.yul\":12652:12657   */\n      dup2\n        /* \"#utility.yul\":12626:12658   */\n      tag_184\n      jump\t// in\n    tag_290:\n        /* \"#utility.yul\":12619:12624   */\n      dup2\n        /* \"#utility.yul\":12616:12659   */\n      eq\n        /* \"#utility.yul\":12606:12677   */\n      tag_291\n      jumpi\n        /* \"#utility.yul\":12673:12674   */\n      0x00\n        /* \"#utility.yul\":12670:12671   */\n      dup1\n        /* \"#utility.yul\":12663:12675   */\n      revert\n        /* \"#utility.yul\":12606:12677   */\n    tag_291:\n        /* \"#utility.yul\":12545:12683   */\n      pop\n      jump\t// out\n        /* \"#utility.yul\":12689:12805   */\n    tag_143:\n        /* \"#utility.yul\":12759:12780   */\n      tag_293\n        /* \"#utility.yul\":12774:12779   */\n      dup2\n        /* \"#utility.yul\":12759:12780   */\n      tag_188\n      jump\t// in\n    tag_293:\n        /* \"#utility.yul\":12752:12757   */\n      dup2\n        /* \"#utility.yul\":12749:12781   */\n      eq\n        /* \"#utility.yul\":12739:12799   */\n      tag_294\n      jumpi\n        /* \"#utility.yul\":12795:12796   */\n      0x00\n        /* \"#utility.yul\":12792:12793   */\n      dup1\n        /* \"#utility.yul\":12785:12797   */\n      revert\n        /* \"#utility.yul\":12739:12799   */\n    tag_294:\n        /* \"#utility.yul\":12689:12805   */\n      pop\n      jump\t// out\n        /* \"#utility.yul\":12811:12933   */\n    tag_153:\n        /* \"#utility.yul\":12884:12908   */\n      tag_296\n        /* \"#utility.yul\":12902:12907   */\n      dup2\n        /* \"#utility.yul\":12884:12908   */\n      tag_212\n      jump\t// in\n    tag_296:\n        /* \"#utility.yul\":12877:12882   */\n      dup2\n        /* \"#utility.yul\":12874:12909   */\n      eq\n        /* \"#utility.yul\":12864:12927   */\n      tag_297\n      jumpi\n        /* \"#utility.yul\":12923:12924   */\n      0x00\n        /* \"#utility.yul\":12920:12921   */\n      dup1\n        /* \"#utility.yul\":12913:12925   */\n      revert\n        /* \"#utility.yul\":12864:12927   */\n    tag_297:\n        /* \"#utility.yul\":12811:12933   */\n      pop\n      jump\t// out\n\n    auxdata: 0xa264697066735822122032cc2c9dafdb3fc0a23b74956543d10c17cc2498b672321cf65fcd62ac97027464736f6c63430008070033\n}\n",
				"bytecode": {
					"linkReferences": {},
					"object": "608060405234801561001057600080fd5b50336000806101000a81548173ffffffffffffffffffffffffffffffffffffffff021916908373ffffffffffffffffffffffffffffffffffffffff160217905550610ff4806100606000396000f3fe6080604052600436106100555760003560e01c806331d575c51461005a57806351cff8d9146100835780636640c9221461009f578063722713f7146100dc5780637285fd3a14610107578063f340fa0114610149575b600080fd5b34801561006657600080fd5b50610081600480360381019061007c9190610950565b610165565b005b61009d60048036038101906100989190610923565b610294565b005b3480156100ab57600080fd5b506100c660048036038101906100c191906108f6565b610451565b6040516100d39190610b5d565b60405180910390f35b3480156100e857600080fd5b506100f16104de565b6040516100fe9190610bb8565b60405180910390f35b34801561011357600080fd5b5061012e60048036038101906101299190610a15565b6104e6565b60405161014096959493929190610aee565b60405180910390f35b610163600480360381019061015e91906108f6565b61066f565b005b60016040518060c001604052808873ffffffffffffffffffffffffffffffffffffffff168152602001878152602001868152602001858152602001848152602001831515815250908060018154018082558091505060019003906000526020600020906006020160009091909190915060008201518160000160006101000a81548173ffffffffffffffffffffffffffffffffffffffff021916908373ffffffffffffffffffffffffffffffffffffffff160217905550602082015181600101908051906020019061023892919061078f565b50604082015181600201908051906020019061025592919061078f565b50606082015181600301556080820151816004015560a08201518160050160006101000a81548160ff0219169083151502179055505050505050505050565b600061029f8261067b565b9050600181815481106102b5576102b4610e41565b5b906000526020600020906006020160000160009054906101000a900473ffffffffffffffffffffffffffffffffffffffff1673ffffffffffffffffffffffffffffffffffffffff163373ffffffffffffffffffffffffffffffffffffffff1614610354576040517f08c379a000000000000000000000000000000000000000000000000000000000815260040161034b90610b98565b60405180910390fd5b61035d82610451565b61039c576040517f08c379a000000000000000000000000000000000000000000000000000000000815260040161039390610b78565b60405180910390fd5b600181815481106103b0576103af610e41565b5b906000526020600020906006020160000160009054906101000a900473ffffffffffffffffffffffffffffffffffffffff1673ffffffffffffffffffffffffffffffffffffffff166108fc6001838154811061040f5761040e610e41565b5b9060005260206000209060060201600401549081150290604051600060405180830381858888f1935050505015801561044c573d6000803e3d6000fd5b505050565b60008061045d8361067b565b90506001818154811061047357610472610e41565b5b9060005260206000209060060201600301544211156104d35760018082815481106104a1576104a0610e41565b5b906000526020600020906006020160050160006101000a81548160ff02191690831515021790555060019150506104d9565b60009150505b919050565b600047905090565b600181815481106104f657600080fd5b90600052602060002090600602016000915090508060000160009054906101000a900473ffffffffffffffffffffffffffffffffffffffff169080600101805461053f90610d37565b80601f016020809104026020016040519081016040528092919081815260200182805461056b90610d37565b80156105b85780601f1061058d576101008083540402835291602001916105b8565b820191906000526020600020905b81548152906001019060200180831161059b57829003601f168201915b5050505050908060020180546105cd90610d37565b80601f01602080910402602001604051908101604052809291908181526020018280546105f990610d37565b80156106465780601f1061061b57610100808354040283529160200191610646565b820191906000526020600020905b81548152906001019060200180831161062957829003601f168201915b5050505050908060030154908060040154908060050160009054906101000a900460ff16905086565b61067881610734565b50565b600080600090505b600180549050811015610725578273ffffffffffffffffffffffffffffffffffffffff16600182815481106106bb576106ba610e41565b5b906000526020600020906006020160000160009054906101000a900473ffffffffffffffffffffffffffffffffffffffff1673ffffffffffffffffffffffffffffffffffffffff161415610712578091505061072f565b808061071d90610d9a565b915050610683565b5060018054905090505b919050565b600061073f8261067b565b905060018054905081101561078b57346001828154811061076357610762610e41565b5b906000526020600020906006020160040160008282546107839190610c45565b925050819055505b5050565b82805461079b90610d37565b90600052602060002090601f0160209004810192826107bd5760008555610804565b82601f106107d657805160ff1916838001178555610804565b82800160010185558215610804579182015b828111156108035782518255916020019190600101906107e8565b5b5090506108119190610815565b5090565b5b8082111561082e576000816000905550600101610816565b5090565b600061084561084084610bf8565b610bd3565b90508281526020810184848401111561086157610860610ea4565b5b61086c848285610cf5565b509392505050565b60008135905061088381610f62565b92915050565b60008135905061089881610f79565b92915050565b6000813590506108ad81610f90565b92915050565b600082601f8301126108c8576108c7610e9f565b5b81356108d8848260208601610832565b91505092915050565b6000813590506108f081610fa7565b92915050565b60006020828403121561090c5761090b610eae565b5b600061091a84828501610874565b91505092915050565b60006020828403121561093957610938610eae565b5b600061094784828501610889565b91505092915050565b60008060008060008060c0878903121561096d5761096c610eae565b5b600061097b89828a01610889565b965050602087013567ffffffffffffffff81111561099c5761099b610ea9565b5b6109a889828a016108b3565b955050604087013567ffffffffffffffff8111156109c9576109c8610ea9565b5b6109d589828a016108b3565b94505060606109e689828a016108e1565b93505060806109f789828a016108e1565b92505060a0610a0889828a0161089e565b9150509295509295509295565b600060208284031215610a2b57610a2a610eae565b5b6000610a39848285016108e1565b91505092915050565b610a4b81610cad565b82525050565b610a5a81610cbf565b82525050565b6000610a6b82610c29565b610a758185610c34565b9350610a85818560208601610d04565b610a8e81610eb3565b840191505092915050565b6000610aa6603583610c34565b9150610ab182610ec4565b604082019050919050565b6000610ac9603a83610c34565b9150610ad482610f13565b604082019050919050565b610ae881610ceb565b82525050565b600060c082019050610b036000830189610a42565b8181036020830152610b158188610a60565b90508181036040830152610b298187610a60565b9050610b386060830186610adf565b610b456080830185610adf565b610b5260a0830184610a51565b979650505050505050565b6000602082019050610b726000830184610a51565b92915050565b60006020820190508181036000830152610b9181610a99565b9050919050565b60006020820190508181036000830152610bb181610abc565b9050919050565b6000602082019050610bcd6000830184610adf565b92915050565b6000610bdd610bee565b9050610be98282610d69565b919050565b6000604051905090565b600067ffffffffffffffff821115610c1357610c12610e70565b5b610c1c82610eb3565b9050602081019050919050565b600081519050919050565b600082825260208201905092915050565b6000610c5082610ceb565b9150610c5b83610ceb565b9250827fffffffffffffffffffffffffffffffffffffffffffffffffffffffffffffffff03821115610c9057610c8f610de3565b5b828201905092915050565b6000610ca682610ccb565b9050919050565b6000610cb882610ccb565b9050919050565b60008115159050919050565b600073ffffffffffffffffffffffffffffffffffffffff82169050919050565b6000819050919050565b82818337600083830152505050565b60005b83811015610d22578082015181840152602081019050610d07565b83811115610d31576000848401525b50505050565b60006002820490506001821680610d4f57607f821691505b60208210811415610d6357610d62610e12565b5b50919050565b610d7282610eb3565b810181811067ffffffffffffffff82111715610d9157610d90610e70565b5b80604052505050565b6000610da582610ceb565b91507fffffffffffffffffffffffffffffffffffffffffffffffffffffffffffffffff821415610dd857610dd7610de3565b5b600182019050919050565b7f4e487b7100000000000000000000000000000000000000000000000000000000600052601160045260246000fd5b7f4e487b7100000000000000000000000000000000000000000000000000000000600052602260045260246000fd5b7f4e487b7100000000000000000000000000000000000000000000000000000000600052603260045260246000fd5b7f4e487b7100000000000000000000000000000000000000000000000000000000600052604160045260246000fd5b600080fd5b600080fd5b600080fd5b600080fd5b6000601f19601f8301169050919050565b7f596f7520617265206e6f7420616c6c6f77656420746f2077697468647261772160008201527f2054696d6520686173206e6f7420706173736564210000000000000000000000602082015250565b7f596f7520617265206e6f7420616c6c6f77656420746f2077697468647261772160008201527f204164647265737320446f6573204e6f74204d61746368656421000000000000602082015250565b610f6b81610c9b565b8114610f7657600080fd5b50565b610f8281610cad565b8114610f8d57600080fd5b50565b610f9981610cbf565b8114610fa457600080fd5b50565b610fb081610ceb565b8114610fbb57600080fd5b5056fea264697066735822122032cc2c9dafdb3fc0a23b74956543d10c17cc2498b672321cf65fcd62ac97027464736f6c63430008070033",
					"opcodes": "PUSH1 0x80 PUSH1 0x40 MSTORE CALLVALUE DUP1 ISZERO PUSH2 0x10 JUMPI PUSH1 0x0 DUP1 REVERT JUMPDEST POP CALLER PUSH1 0x0 DUP1 PUSH2 0x100 EXP DUP2 SLOAD DUP2 PUSH20 0xFFFFFFFFFFFFFFFFFFFFFFFFFFFFFFFFFFFFFFFF MUL NOT AND SWAP1 DUP4 PUSH20 0xFFFFFFFFFFFFFFFFFFFFFFFFFFFFFFFFFFFFFFFF AND MUL OR SWAP1 SSTORE POP PUSH2 0xFF4 DUP1 PUSH2 0x60 PUSH1 0x0 CODECOPY PUSH1 0x0 RETURN INVALID PUSH1 0x80 PUSH1 0x40 MSTORE PUSH1 0x4 CALLDATASIZE LT PUSH2 0x55 JUMPI PUSH1 0x0 CALLDATALOAD PUSH1 0xE0 SHR DUP1 PUSH4 0x31D575C5 EQ PUSH2 0x5A JUMPI DUP1 PUSH4 0x51CFF8D9 EQ PUSH2 0x83 JUMPI DUP1 PUSH4 0x6640C922 EQ PUSH2 0x9F JUMPI DUP1 PUSH4 0x722713F7 EQ PUSH2 0xDC JUMPI DUP1 PUSH4 0x7285FD3A EQ PUSH2 0x107 JUMPI DUP1 PUSH4 0xF340FA01 EQ PUSH2 0x149 JUMPI JUMPDEST PUSH1 0x0 DUP1 REVERT JUMPDEST CALLVALUE DUP1 ISZERO PUSH2 0x66 JUMPI PUSH1 0x0 DUP1 REVERT JUMPDEST POP PUSH2 0x81 PUSH1 0x4 DUP1 CALLDATASIZE SUB DUP2 ADD SWAP1 PUSH2 0x7C SWAP2 SWAP1 PUSH2 0x950 JUMP JUMPDEST PUSH2 0x165 JUMP JUMPDEST STOP JUMPDEST PUSH2 0x9D PUSH1 0x4 DUP1 CALLDATASIZE SUB DUP2 ADD SWAP1 PUSH2 0x98 SWAP2 SWAP1 PUSH2 0x923 JUMP JUMPDEST PUSH2 0x294 JUMP JUMPDEST STOP JUMPDEST CALLVALUE DUP1 ISZERO PUSH2 0xAB JUMPI PUSH1 0x0 DUP1 REVERT JUMPDEST POP PUSH2 0xC6 PUSH1 0x4 DUP1 CALLDATASIZE SUB DUP2 ADD SWAP1 PUSH2 0xC1 SWAP2 SWAP1 PUSH2 0x8F6 JUMP JUMPDEST PUSH2 0x451 JUMP JUMPDEST PUSH1 0x40 MLOAD PUSH2 0xD3 SWAP2 SWAP1 PUSH2 0xB5D JUMP JUMPDEST PUSH1 0x40 MLOAD DUP1 SWAP2 SUB SWAP1 RETURN JUMPDEST CALLVALUE DUP1 ISZERO PUSH2 0xE8 JUMPI PUSH1 0x0 DUP1 REVERT JUMPDEST POP PUSH2 0xF1 PUSH2 0x4DE JUMP JUMPDEST PUSH1 0x40 MLOAD PUSH2 0xFE SWAP2 SWAP1 PUSH2 0xBB8 JUMP JUMPDEST PUSH1 0x40 MLOAD DUP1 SWAP2 SUB SWAP1 RETURN JUMPDEST CALLVALUE DUP1 ISZERO PUSH2 0x113 JUMPI PUSH1 0x0 DUP1 REVERT JUMPDEST POP PUSH2 0x12E PUSH1 0x4 DUP1 CALLDATASIZE SUB DUP2 ADD SWAP1 PUSH2 0x129 SWAP2 SWAP1 PUSH2 0xA15 JUMP JUMPDEST PUSH2 0x4E6 JUMP JUMPDEST PUSH1 0x40 MLOAD PUSH2 0x140 SWAP7 SWAP6 SWAP5 SWAP4 SWAP3 SWAP2 SWAP1 PUSH2 0xAEE JUMP JUMPDEST PUSH1 0x40 MLOAD DUP1 SWAP2 SUB SWAP1 RETURN JUMPDEST PUSH2 0x163 PUSH1 0x4 DUP1 CALLDATASIZE SUB DUP2 ADD SWAP1 PUSH2 0x15E SWAP2 SWAP1 PUSH2 0x8F6 JUMP JUMPDEST PUSH2 0x66F JUMP JUMPDEST STOP JUMPDEST PUSH1 0x1 PUSH1 0x40 MLOAD DUP1 PUSH1 0xC0 ADD PUSH1 0x40 MSTORE DUP1 DUP9 PUSH20 0xFFFFFFFFFFFFFFFFFFFFFFFFFFFFFFFFFFFFFFFF AND DUP2 MSTORE PUSH1 0x20 ADD DUP8 DUP2 MSTORE PUSH1 0x20 ADD DUP7 DUP2 MSTORE PUSH1 0x20 ADD DUP6 DUP2 MSTORE PUSH1 0x20 ADD DUP5 DUP2 MSTORE PUSH1 0x20 ADD DUP4 ISZERO ISZERO DUP2 MSTORE POP SWAP1 DUP1 PUSH1 0x1 DUP2 SLOAD ADD DUP1 DUP3 SSTORE DUP1 SWAP2 POP POP PUSH1 0x1 SWAP1 SUB SWAP1 PUSH1 0x0 MSTORE PUSH1 0x20 PUSH1 0x0 KECCAK256 SWAP1 PUSH1 0x6 MUL ADD PUSH1 0x0 SWAP1 SWAP2 SWAP1 SWAP2 SWAP1 SWAP2 POP PUSH1 0x0 DUP3 ADD MLOAD DUP2 PUSH1 0x0 ADD PUSH1 0x0 PUSH2 0x100 EXP DUP2 SLOAD DUP2 PUSH20 0xFFFFFFFFFFFFFFFFFFFFFFFFFFFFFFFFFFFFFFFF MUL NOT AND SWAP1 DUP4 PUSH20 0xFFFFFFFFFFFFFFFFFFFFFFFFFFFFFFFFFFFFFFFF AND MUL OR SWAP1 SSTORE POP PUSH1 0x20 DUP3 ADD MLOAD DUP2 PUSH1 0x1 ADD SWAP1 DUP1 MLOAD SWAP1 PUSH1 0x20 ADD SWAP1 PUSH2 0x238 SWAP3 SWAP2 SWAP1 PUSH2 0x78F JUMP JUMPDEST POP PUSH1 0x40 DUP3 ADD MLOAD DUP2 PUSH1 0x2 ADD SWAP1 DUP1 MLOAD SWAP1 PUSH1 0x20 ADD SWAP1 PUSH2 0x255 SWAP3 SWAP2 SWAP1 PUSH2 0x78F JUMP JUMPDEST POP PUSH1 0x60 DUP3 ADD MLOAD DUP2 PUSH1 0x3 ADD SSTORE PUSH1 0x80 DUP3 ADD MLOAD DUP2 PUSH1 0x4 ADD SSTORE PUSH1 0xA0 DUP3 ADD MLOAD DUP2 PUSH1 0x5 ADD PUSH1 0x0 PUSH2 0x100 EXP DUP2 SLOAD DUP2 PUSH1 0xFF MUL NOT AND SWAP1 DUP4 ISZERO ISZERO MUL OR SWAP1 SSTORE POP POP POP POP POP POP POP POP POP JUMP JUMPDEST PUSH1 0x0 PUSH2 0x29F DUP3 PUSH2 0x67B JUMP JUMPDEST SWAP1 POP PUSH1 0x1 DUP2 DUP2 SLOAD DUP2 LT PUSH2 0x2B5 JUMPI PUSH2 0x2B4 PUSH2 0xE41 JUMP JUMPDEST JUMPDEST SWAP1 PUSH1 0x0 MSTORE PUSH1 0x20 PUSH1 0x0 KECCAK256 SWAP1 PUSH1 0x6 MUL ADD PUSH1 0x0 ADD PUSH1 0x0 SWAP1 SLOAD SWAP1 PUSH2 0x100 EXP SWAP1 DIV PUSH20 0xFFFFFFFFFFFFFFFFFFFFFFFFFFFFFFFFFFFFFFFF AND PUSH20 0xFFFFFFFFFFFFFFFFFFFFFFFFFFFFFFFFFFFFFFFF AND CALLER PUSH20 0xFFFFFFFFFFFFFFFFFFFFFFFFFFFFFFFFFFFFFFFF AND EQ PUSH2 0x354 JUMPI PUSH1 0x40 MLOAD PUSH32 0x8C379A000000000000000000000000000000000000000000000000000000000 DUP2 MSTORE PUSH1 0x4 ADD PUSH2 0x34B SWAP1 PUSH2 0xB98 JUMP JUMPDEST PUSH1 0x40 MLOAD DUP1 SWAP2 SUB SWAP1 REVERT JUMPDEST PUSH2 0x35D DUP3 PUSH2 0x451 JUMP JUMPDEST PUSH2 0x39C JUMPI PUSH1 0x40 MLOAD PUSH32 0x8C379A000000000000000000000000000000000000000000000000000000000 DUP2 MSTORE PUSH1 0x4 ADD PUSH2 0x393 SWAP1 PUSH2 0xB78 JUMP JUMPDEST PUSH1 0x40 MLOAD DUP1 SWAP2 SUB SWAP1 REVERT JUMPDEST PUSH1 0x1 DUP2 DUP2 SLOAD DUP2 LT PUSH2 0x3B0 JUMPI PUSH2 0x3AF PUSH2 0xE41 JUMP JUMPDEST JUMPDEST SWAP1 PUSH1 0x0 MSTORE PUSH1 0x20 PUSH1 0x0 KECCAK256 SWAP1 PUSH1 0x6 MUL ADD PUSH1 0x0 ADD PUSH1 0x0 SWAP1 SLOAD SWAP1 PUSH2 0x100 EXP SWAP1 DIV PUSH20 0xFFFFFFFFFFFFFFFFFFFFFFFFFFFFFFFFFFFFFFFF AND PUSH20 0xFFFFFFFFFFFFFFFFFFFFFFFFFFFFFFFFFFFFFFFF AND PUSH2 0x8FC PUSH1 0x1 DUP4 DUP2 SLOAD DUP2 LT PUSH2 0x40F JUMPI PUSH2 0x40E PUSH2 0xE41 JUMP JUMPDEST JUMPDEST SWAP1 PUSH1 0x0 MSTORE PUSH1 0x20 PUSH1 0x0 KECCAK256 SWAP1 PUSH1 0x6 MUL ADD PUSH1 0x4 ADD SLOAD SWAP1 DUP2 ISZERO MUL SWAP1 PUSH1 0x40 MLOAD PUSH1 0x0 PUSH1 0x40 MLOAD DUP1 DUP4 SUB DUP2 DUP6 DUP9 DUP9 CALL SWAP4 POP POP POP POP ISZERO DUP1 ISZERO PUSH2 0x44C JUMPI RETURNDATASIZE PUSH1 0x0 DUP1 RETURNDATACOPY RETURNDATASIZE PUSH1 0x0 REVERT JUMPDEST POP POP POP JUMP JUMPDEST PUSH1 0x0 DUP1 PUSH2 0x45D DUP4 PUSH2 0x67B JUMP JUMPDEST SWAP1 POP PUSH1 0x1 DUP2 DUP2 SLOAD DUP2 LT PUSH2 0x473 JUMPI PUSH2 0x472 PUSH2 0xE41 JUMP JUMPDEST JUMPDEST SWAP1 PUSH1 0x0 MSTORE PUSH1 0x20 PUSH1 0x0 KECCAK256 SWAP1 PUSH1 0x6 MUL ADD PUSH1 0x3 ADD SLOAD TIMESTAMP GT ISZERO PUSH2 0x4D3 JUMPI PUSH1 0x1 DUP1 DUP3 DUP2 SLOAD DUP2 LT PUSH2 0x4A1 JUMPI PUSH2 0x4A0 PUSH2 0xE41 JUMP JUMPDEST JUMPDEST SWAP1 PUSH1 0x0 MSTORE PUSH1 0x20 PUSH1 0x0 KECCAK256 SWAP1 PUSH1 0x6 MUL ADD PUSH1 0x5 ADD PUSH1 0x0 PUSH2 0x100 EXP DUP2 SLOAD DUP2 PUSH1 0xFF MUL NOT AND SWAP1 DUP4 ISZERO ISZERO MUL OR SWAP1 SSTORE POP PUSH1 0x1 SWAP2 POP POP PUSH2 0x4D9 JUMP JUMPDEST PUSH1 0x0 SWAP2 POP POP JUMPDEST SWAP2 SWAP1 POP JUMP JUMPDEST PUSH1 0x0 SELFBALANCE SWAP1 POP SWAP1 JUMP JUMPDEST PUSH1 0x1 DUP2 DUP2 SLOAD DUP2 LT PUSH2 0x4F6 JUMPI PUSH1 0x0 DUP1 REVERT JUMPDEST SWAP1 PUSH1 0x0 MSTORE PUSH1 0x20 PUSH1 0x0 KECCAK256 SWAP1 PUSH1 0x6 MUL ADD PUSH1 0x0 SWAP2 POP SWAP1 POP DUP1 PUSH1 0x0 ADD PUSH1 0x0 SWAP1 SLOAD SWAP1 PUSH2 0x100 EXP SWAP1 DIV PUSH20 0xFFFFFFFFFFFFFFFFFFFFFFFFFFFFFFFFFFFFFFFF AND SWAP1 DUP1 PUSH1 0x1 ADD DUP1 SLOAD PUSH2 0x53F SWAP1 PUSH2 0xD37 JUMP JUMPDEST DUP1 PUSH1 0x1F ADD PUSH1 0x20 DUP1 SWAP2 DIV MUL PUSH1 0x20 ADD PUSH1 0x40 MLOAD SWAP1 DUP2 ADD PUSH1 0x40 MSTORE DUP1 SWAP3 SWAP2 SWAP1 DUP2 DUP2 MSTORE PUSH1 0x20 ADD DUP3 DUP1 SLOAD PUSH2 0x56B SWAP1 PUSH2 0xD37 JUMP JUMPDEST DUP1 ISZERO PUSH2 0x5B8 JUMPI DUP1 PUSH1 0x1F LT PUSH2 0x58D JUMPI PUSH2 0x100 DUP1 DUP4 SLOAD DIV MUL DUP4 MSTORE SWAP2 PUSH1 0x20 ADD SWAP2 PUSH2 0x5B8 JUMP JUMPDEST DUP3 ADD SWAP2 SWAP1 PUSH1 0x0 MSTORE PUSH1 0x20 PUSH1 0x0 KECCAK256 SWAP1 JUMPDEST DUP2 SLOAD DUP2 MSTORE SWAP1 PUSH1 0x1 ADD SWAP1 PUSH1 0x20 ADD DUP1 DUP4 GT PUSH2 0x59B JUMPI DUP3 SWAP1 SUB PUSH1 0x1F AND DUP3 ADD SWAP2 JUMPDEST POP POP POP POP POP SWAP1 DUP1 PUSH1 0x2 ADD DUP1 SLOAD PUSH2 0x5CD SWAP1 PUSH2 0xD37 JUMP JUMPDEST DUP1 PUSH1 0x1F ADD PUSH1 0x20 DUP1 SWAP2 DIV MUL PUSH1 0x20 ADD PUSH1 0x40 MLOAD SWAP1 DUP2 ADD PUSH1 0x40 MSTORE DUP1 SWAP3 SWAP2 SWAP1 DUP2 DUP2 MSTORE PUSH1 0x20 ADD DUP3 DUP1 SLOAD PUSH2 0x5F9 SWAP1 PUSH2 0xD37 JUMP JUMPDEST DUP1 ISZERO PUSH2 0x646 JUMPI DUP1 PUSH1 0x1F LT PUSH2 0x61B JUMPI PUSH2 0x100 DUP1 DUP4 SLOAD DIV MUL DUP4 MSTORE SWAP2 PUSH1 0x20 ADD SWAP2 PUSH2 0x646 JUMP JUMPDEST DUP3 ADD SWAP2 SWAP1 PUSH1 0x0 MSTORE PUSH1 0x20 PUSH1 0x0 KECCAK256 SWAP1 JUMPDEST DUP2 SLOAD DUP2 MSTORE SWAP1 PUSH1 0x1 ADD SWAP1 PUSH1 0x20 ADD DUP1 DUP4 GT PUSH2 0x629 JUMPI DUP3 SWAP1 SUB PUSH1 0x1F AND DUP3 ADD SWAP2 JUMPDEST POP POP POP POP POP SWAP1 DUP1 PUSH1 0x3 ADD SLOAD SWAP1 DUP1 PUSH1 0x4 ADD SLOAD SWAP1 DUP1 PUSH1 0x5 ADD PUSH1 0x0 SWAP1 SLOAD SWAP1 PUSH2 0x100 EXP SWAP1 DIV PUSH1 0xFF AND SWAP1 POP DUP7 JUMP JUMPDEST PUSH2 0x678 DUP2 PUSH2 0x734 JUMP JUMPDEST POP JUMP JUMPDEST PUSH1 0x0 DUP1 PUSH1 0x0 SWAP1 POP JUMPDEST PUSH1 0x1 DUP1 SLOAD SWAP1 POP DUP2 LT ISZERO PUSH2 0x725 JUMPI DUP3 PUSH20 0xFFFFFFFFFFFFFFFFFFFFFFFFFFFFFFFFFFFFFFFF AND PUSH1 0x1 DUP3 DUP2 SLOAD DUP2 LT PUSH2 0x6BB JUMPI PUSH2 0x6BA PUSH2 0xE41 JUMP JUMPDEST JUMPDEST SWAP1 PUSH1 0x0 MSTORE PUSH1 0x20 PUSH1 0x0 KECCAK256 SWAP1 PUSH1 0x6 MUL ADD PUSH1 0x0 ADD PUSH1 0x0 SWAP1 SLOAD SWAP1 PUSH2 0x100 EXP SWAP1 DIV PUSH20 0xFFFFFFFFFFFFFFFFFFFFFFFFFFFFFFFFFFFFFFFF AND PUSH20 0xFFFFFFFFFFFFFFFFFFFFFFFFFFFFFFFFFFFFFFFF AND EQ ISZERO PUSH2 0x712 JUMPI DUP1 SWAP2 POP POP PUSH2 0x72F JUMP JUMPDEST DUP1 DUP1 PUSH2 0x71D SWAP1 PUSH2 0xD9A JUMP JUMPDEST SWAP2 POP POP PUSH2 0x683 JUMP JUMPDEST POP PUSH1 0x1 DUP1 SLOAD SWAP1 POP SWAP1 POP JUMPDEST SWAP2 SWAP1 POP JUMP JUMPDEST PUSH1 0x0 PUSH2 0x73F DUP3 PUSH2 0x67B JUMP JUMPDEST SWAP1 POP PUSH1 0x1 DUP1 SLOAD SWAP1 POP DUP2 LT ISZERO PUSH2 0x78B JUMPI CALLVALUE PUSH1 0x1 DUP3 DUP2 SLOAD DUP2 LT PUSH2 0x763 JUMPI PUSH2 0x762 PUSH2 0xE41 JUMP JUMPDEST JUMPDEST SWAP1 PUSH1 0x0 MSTORE PUSH1 0x20 PUSH1 0x0 KECCAK256 SWAP1 PUSH1 0x6 MUL ADD PUSH1 0x4 ADD PUSH1 0x0 DUP3 DUP3 SLOAD PUSH2 0x783 SWAP2 SWAP1 PUSH2 0xC45 JUMP JUMPDEST SWAP3 POP POP DUP2 SWAP1 SSTORE POP JUMPDEST POP POP JUMP JUMPDEST DUP3 DUP1 SLOAD PUSH2 0x79B SWAP1 PUSH2 0xD37 JUMP JUMPDEST SWAP1 PUSH1 0x0 MSTORE PUSH1 0x20 PUSH1 0x0 KECCAK256 SWAP1 PUSH1 0x1F ADD PUSH1 0x20 SWAP1 DIV DUP2 ADD SWAP3 DUP3 PUSH2 0x7BD JUMPI PUSH1 0x0 DUP6 SSTORE PUSH2 0x804 JUMP JUMPDEST DUP3 PUSH1 0x1F LT PUSH2 0x7D6 JUMPI DUP1 MLOAD PUSH1 0xFF NOT AND DUP4 DUP1 ADD OR DUP6 SSTORE PUSH2 0x804 JUMP JUMPDEST DUP3 DUP1 ADD PUSH1 0x1 ADD DUP6 SSTORE DUP3 ISZERO PUSH2 0x804 JUMPI SWAP2 DUP3 ADD JUMPDEST DUP3 DUP2 GT ISZERO PUSH2 0x803 JUMPI DUP3 MLOAD DUP3 SSTORE SWAP2 PUSH1 0x20 ADD SWAP2 SWAP1 PUSH1 0x1 ADD SWAP1 PUSH2 0x7E8 JUMP JUMPDEST JUMPDEST POP SWAP1 POP PUSH2 0x811 SWAP2 SWAP1 PUSH2 0x815 JUMP JUMPDEST POP SWAP1 JUMP JUMPDEST JUMPDEST DUP1 DUP3 GT ISZERO PUSH2 0x82E JUMPI PUSH1 0x0 DUP2 PUSH1 0x0 SWAP1 SSTORE POP PUSH1 0x1 ADD PUSH2 0x816 JUMP JUMPDEST POP SWAP1 JUMP JUMPDEST PUSH1 0x0 PUSH2 0x845 PUSH2 0x840 DUP5 PUSH2 0xBF8 JUMP JUMPDEST PUSH2 0xBD3 JUMP JUMPDEST SWAP1 POP DUP3 DUP2 MSTORE PUSH1 0x20 DUP2 ADD DUP5 DUP5 DUP5 ADD GT ISZERO PUSH2 0x861 JUMPI PUSH2 0x860 PUSH2 0xEA4 JUMP JUMPDEST JUMPDEST PUSH2 0x86C DUP5 DUP3 DUP6 PUSH2 0xCF5 JUMP JUMPDEST POP SWAP4 SWAP3 POP POP POP JUMP JUMPDEST PUSH1 0x0 DUP2 CALLDATALOAD SWAP1 POP PUSH2 0x883 DUP2 PUSH2 0xF62 JUMP JUMPDEST SWAP3 SWAP2 POP POP JUMP JUMPDEST PUSH1 0x0 DUP2 CALLDATALOAD SWAP1 POP PUSH2 0x898 DUP2 PUSH2 0xF79 JUMP JUMPDEST SWAP3 SWAP2 POP POP JUMP JUMPDEST PUSH1 0x0 DUP2 CALLDATALOAD SWAP1 POP PUSH2 0x8AD DUP2 PUSH2 0xF90 JUMP JUMPDEST SWAP3 SWAP2 POP POP JUMP JUMPDEST PUSH1 0x0 DUP3 PUSH1 0x1F DUP4 ADD SLT PUSH2 0x8C8 JUMPI PUSH2 0x8C7 PUSH2 0xE9F JUMP JUMPDEST JUMPDEST DUP2 CALLDATALOAD PUSH2 0x8D8 DUP5 DUP3 PUSH1 0x20 DUP7 ADD PUSH2 0x832 JUMP JUMPDEST SWAP2 POP POP SWAP3 SWAP2 POP POP JUMP JUMPDEST PUSH1 0x0 DUP2 CALLDATALOAD SWAP1 POP PUSH2 0x8F0 DUP2 PUSH2 0xFA7 JUMP JUMPDEST SWAP3 SWAP2 POP POP JUMP JUMPDEST PUSH1 0x0 PUSH1 0x20 DUP3 DUP5 SUB SLT ISZERO PUSH2 0x90C JUMPI PUSH2 0x90B PUSH2 0xEAE JUMP JUMPDEST JUMPDEST PUSH1 0x0 PUSH2 0x91A DUP5 DUP3 DUP6 ADD PUSH2 0x874 JUMP JUMPDEST SWAP2 POP POP SWAP3 SWAP2 POP POP JUMP JUMPDEST PUSH1 0x0 PUSH1 0x20 DUP3 DUP5 SUB SLT ISZERO PUSH2 0x939 JUMPI PUSH2 0x938 PUSH2 0xEAE JUMP JUMPDEST JUMPDEST PUSH1 0x0 PUSH2 0x947 DUP5 DUP3 DUP6 ADD PUSH2 0x889 JUMP JUMPDEST SWAP2 POP POP SWAP3 SWAP2 POP POP JUMP JUMPDEST PUSH1 0x0 DUP1 PUSH1 0x0 DUP1 PUSH1 0x0 DUP1 PUSH1 0xC0 DUP8 DUP10 SUB SLT ISZERO PUSH2 0x96D JUMPI PUSH2 0x96C PUSH2 0xEAE JUMP JUMPDEST JUMPDEST PUSH1 0x0 PUSH2 0x97B DUP10 DUP3 DUP11 ADD PUSH2 0x889 JUMP JUMPDEST SWAP7 POP POP PUSH1 0x20 DUP8 ADD CALLDATALOAD PUSH8 0xFFFFFFFFFFFFFFFF DUP2 GT ISZERO PUSH2 0x99C JUMPI PUSH2 0x99B PUSH2 0xEA9 JUMP JUMPDEST JUMPDEST PUSH2 0x9A8 DUP10 DUP3 DUP11 ADD PUSH2 0x8B3 JUMP JUMPDEST SWAP6 POP POP PUSH1 0x40 DUP8 ADD CALLDATALOAD PUSH8 0xFFFFFFFFFFFFFFFF DUP2 GT ISZERO PUSH2 0x9C9 JUMPI PUSH2 0x9C8 PUSH2 0xEA9 JUMP JUMPDEST JUMPDEST PUSH2 0x9D5 DUP10 DUP3 DUP11 ADD PUSH2 0x8B3 JUMP JUMPDEST SWAP5 POP POP PUSH1 0x60 PUSH2 0x9E6 DUP10 DUP3 DUP11 ADD PUSH2 0x8E1 JUMP JUMPDEST SWAP4 POP POP PUSH1 0x80 PUSH2 0x9F7 DUP10 DUP3 DUP11 ADD PUSH2 0x8E1 JUMP JUMPDEST SWAP3 POP POP PUSH1 0xA0 PUSH2 0xA08 DUP10 DUP3 DUP11 ADD PUSH2 0x89E JUMP JUMPDEST SWAP2 POP POP SWAP3 SWAP6 POP SWAP3 SWAP6 POP SWAP3 SWAP6 JUMP JUMPDEST PUSH1 0x0 PUSH1 0x20 DUP3 DUP5 SUB SLT ISZERO PUSH2 0xA2B JUMPI PUSH2 0xA2A PUSH2 0xEAE JUMP JUMPDEST JUMPDEST PUSH1 0x0 PUSH2 0xA39 DUP5 DUP3 DUP6 ADD PUSH2 0x8E1 JUMP JUMPDEST SWAP2 POP POP SWAP3 SWAP2 POP POP JUMP JUMPDEST PUSH2 0xA4B DUP2 PUSH2 0xCAD JUMP JUMPDEST DUP3 MSTORE POP POP JUMP JUMPDEST PUSH2 0xA5A DUP2 PUSH2 0xCBF JUMP JUMPDEST DUP3 MSTORE POP POP JUMP JUMPDEST PUSH1 0x0 PUSH2 0xA6B DUP3 PUSH2 0xC29 JUMP JUMPDEST PUSH2 0xA75 DUP2 DUP6 PUSH2 0xC34 JUMP JUMPDEST SWAP4 POP PUSH2 0xA85 DUP2 DUP6 PUSH1 0x20 DUP7 ADD PUSH2 0xD04 JUMP JUMPDEST PUSH2 0xA8E DUP2 PUSH2 0xEB3 JUMP JUMPDEST DUP5 ADD SWAP2 POP POP SWAP3 SWAP2 POP POP JUMP JUMPDEST PUSH1 0x0 PUSH2 0xAA6 PUSH1 0x35 DUP4 PUSH2 0xC34 JUMP JUMPDEST SWAP2 POP PUSH2 0xAB1 DUP3 PUSH2 0xEC4 JUMP JUMPDEST PUSH1 0x40 DUP3 ADD SWAP1 POP SWAP2 SWAP1 POP JUMP JUMPDEST PUSH1 0x0 PUSH2 0xAC9 PUSH1 0x3A DUP4 PUSH2 0xC34 JUMP JUMPDEST SWAP2 POP PUSH2 0xAD4 DUP3 PUSH2 0xF13 JUMP JUMPDEST PUSH1 0x40 DUP3 ADD SWAP1 POP SWAP2 SWAP1 POP JUMP JUMPDEST PUSH2 0xAE8 DUP2 PUSH2 0xCEB JUMP JUMPDEST DUP3 MSTORE POP POP JUMP JUMPDEST PUSH1 0x0 PUSH1 0xC0 DUP3 ADD SWAP1 POP PUSH2 0xB03 PUSH1 0x0 DUP4 ADD DUP10 PUSH2 0xA42 JUMP JUMPDEST DUP2 DUP2 SUB PUSH1 0x20 DUP4 ADD MSTORE PUSH2 0xB15 DUP2 DUP9 PUSH2 0xA60 JUMP JUMPDEST SWAP1 POP DUP2 DUP2 SUB PUSH1 0x40 DUP4 ADD MSTORE PUSH2 0xB29 DUP2 DUP8 PUSH2 0xA60 JUMP JUMPDEST SWAP1 POP PUSH2 0xB38 PUSH1 0x60 DUP4 ADD DUP7 PUSH2 0xADF JUMP JUMPDEST PUSH2 0xB45 PUSH1 0x80 DUP4 ADD DUP6 PUSH2 0xADF JUMP JUMPDEST PUSH2 0xB52 PUSH1 0xA0 DUP4 ADD DUP5 PUSH2 0xA51 JUMP JUMPDEST SWAP8 SWAP7 POP POP POP POP POP POP POP JUMP JUMPDEST PUSH1 0x0 PUSH1 0x20 DUP3 ADD SWAP1 POP PUSH2 0xB72 PUSH1 0x0 DUP4 ADD DUP5 PUSH2 0xA51 JUMP JUMPDEST SWAP3 SWAP2 POP POP JUMP JUMPDEST PUSH1 0x0 PUSH1 0x20 DUP3 ADD SWAP1 POP DUP2 DUP2 SUB PUSH1 0x0 DUP4 ADD MSTORE PUSH2 0xB91 DUP2 PUSH2 0xA99 JUMP JUMPDEST SWAP1 POP SWAP2 SWAP1 POP JUMP JUMPDEST PUSH1 0x0 PUSH1 0x20 DUP3 ADD SWAP1 POP DUP2 DUP2 SUB PUSH1 0x0 DUP4 ADD MSTORE PUSH2 0xBB1 DUP2 PUSH2 0xABC JUMP JUMPDEST SWAP1 POP SWAP2 SWAP1 POP JUMP JUMPDEST PUSH1 0x0 PUSH1 0x20 DUP3 ADD SWAP1 POP PUSH2 0xBCD PUSH1 0x0 DUP4 ADD DUP5 PUSH2 0xADF JUMP JUMPDEST SWAP3 SWAP2 POP POP JUMP JUMPDEST PUSH1 0x0 PUSH2 0xBDD PUSH2 0xBEE JUMP JUMPDEST SWAP1 POP PUSH2 0xBE9 DUP3 DUP3 PUSH2 0xD69 JUMP JUMPDEST SWAP2 SWAP1 POP JUMP JUMPDEST PUSH1 0x0 PUSH1 0x40 MLOAD SWAP1 POP SWAP1 JUMP JUMPDEST PUSH1 0x0 PUSH8 0xFFFFFFFFFFFFFFFF DUP3 GT ISZERO PUSH2 0xC13 JUMPI PUSH2 0xC12 PUSH2 0xE70 JUMP JUMPDEST JUMPDEST PUSH2 0xC1C DUP3 PUSH2 0xEB3 JUMP JUMPDEST SWAP1 POP PUSH1 0x20 DUP2 ADD SWAP1 POP SWAP2 SWAP1 POP JUMP JUMPDEST PUSH1 0x0 DUP2 MLOAD SWAP1 POP SWAP2 SWAP1 POP JUMP JUMPDEST PUSH1 0x0 DUP3 DUP3 MSTORE PUSH1 0x20 DUP3 ADD SWAP1 POP SWAP3 SWAP2 POP POP JUMP JUMPDEST PUSH1 0x0 PUSH2 0xC50 DUP3 PUSH2 0xCEB JUMP JUMPDEST SWAP2 POP PUSH2 0xC5B DUP4 PUSH2 0xCEB JUMP JUMPDEST SWAP3 POP DUP3 PUSH32 0xFFFFFFFFFFFFFFFFFFFFFFFFFFFFFFFFFFFFFFFFFFFFFFFFFFFFFFFFFFFFFFFF SUB DUP3 GT ISZERO PUSH2 0xC90 JUMPI PUSH2 0xC8F PUSH2 0xDE3 JUMP JUMPDEST JUMPDEST DUP3 DUP3 ADD SWAP1 POP SWAP3 SWAP2 POP POP JUMP JUMPDEST PUSH1 0x0 PUSH2 0xCA6 DUP3 PUSH2 0xCCB JUMP JUMPDEST SWAP1 POP SWAP2 SWAP1 POP JUMP JUMPDEST PUSH1 0x0 PUSH2 0xCB8 DUP3 PUSH2 0xCCB JUMP JUMPDEST SWAP1 POP SWAP2 SWAP1 POP JUMP JUMPDEST PUSH1 0x0 DUP2 ISZERO ISZERO SWAP1 POP SWAP2 SWAP1 POP JUMP JUMPDEST PUSH1 0x0 PUSH20 0xFFFFFFFFFFFFFFFFFFFFFFFFFFFFFFFFFFFFFFFF DUP3 AND SWAP1 POP SWAP2 SWAP1 POP JUMP JUMPDEST PUSH1 0x0 DUP2 SWAP1 POP SWAP2 SWAP1 POP JUMP JUMPDEST DUP3 DUP2 DUP4 CALLDATACOPY PUSH1 0x0 DUP4 DUP4 ADD MSTORE POP POP POP JUMP JUMPDEST PUSH1 0x0 JUMPDEST DUP4 DUP2 LT ISZERO PUSH2 0xD22 JUMPI DUP1 DUP3 ADD MLOAD DUP2 DUP5 ADD MSTORE PUSH1 0x20 DUP2 ADD SWAP1 POP PUSH2 0xD07 JUMP JUMPDEST DUP4 DUP2 GT ISZERO PUSH2 0xD31 JUMPI PUSH1 0x0 DUP5 DUP5 ADD MSTORE JUMPDEST POP POP POP POP JUMP JUMPDEST PUSH1 0x0 PUSH1 0x2 DUP3 DIV SWAP1 POP PUSH1 0x1 DUP3 AND DUP1 PUSH2 0xD4F JUMPI PUSH1 0x7F DUP3 AND SWAP2 POP JUMPDEST PUSH1 0x20 DUP3 LT DUP2 EQ ISZERO PUSH2 0xD63 JUMPI PUSH2 0xD62 PUSH2 0xE12 JUMP JUMPDEST JUMPDEST POP SWAP2 SWAP1 POP JUMP JUMPDEST PUSH2 0xD72 DUP3 PUSH2 0xEB3 JUMP JUMPDEST DUP2 ADD DUP2 DUP2 LT PUSH8 0xFFFFFFFFFFFFFFFF DUP3 GT OR ISZERO PUSH2 0xD91 JUMPI PUSH2 0xD90 PUSH2 0xE70 JUMP JUMPDEST JUMPDEST DUP1 PUSH1 0x40 MSTORE POP POP POP JUMP JUMPDEST PUSH1 0x0 PUSH2 0xDA5 DUP3 PUSH2 0xCEB JUMP JUMPDEST SWAP2 POP PUSH32 0xFFFFFFFFFFFFFFFFFFFFFFFFFFFFFFFFFFFFFFFFFFFFFFFFFFFFFFFFFFFFFFFF DUP3 EQ ISZERO PUSH2 0xDD8 JUMPI PUSH2 0xDD7 PUSH2 0xDE3 JUMP JUMPDEST JUMPDEST PUSH1 0x1 DUP3 ADD SWAP1 POP SWAP2 SWAP1 POP JUMP JUMPDEST PUSH32 0x4E487B7100000000000000000000000000000000000000000000000000000000 PUSH1 0x0 MSTORE PUSH1 0x11 PUSH1 0x4 MSTORE PUSH1 0x24 PUSH1 0x0 REVERT JUMPDEST PUSH32 0x4E487B7100000000000000000000000000000000000000000000000000000000 PUSH1 0x0 MSTORE PUSH1 0x22 PUSH1 0x4 MSTORE PUSH1 0x24 PUSH1 0x0 REVERT JUMPDEST PUSH32 0x4E487B7100000000000000000000000000000000000000000000000000000000 PUSH1 0x0 MSTORE PUSH1 0x32 PUSH1 0x4 MSTORE PUSH1 0x24 PUSH1 0x0 REVERT JUMPDEST PUSH32 0x4E487B7100000000000000000000000000000000000000000000000000000000 PUSH1 0x0 MSTORE PUSH1 0x41 PUSH1 0x4 MSTORE PUSH1 0x24 PUSH1 0x0 REVERT JUMPDEST PUSH1 0x0 DUP1 REVERT JUMPDEST PUSH1 0x0 DUP1 REVERT JUMPDEST PUSH1 0x0 DUP1 REVERT JUMPDEST PUSH1 0x0 DUP1 REVERT JUMPDEST PUSH1 0x0 PUSH1 0x1F NOT PUSH1 0x1F DUP4 ADD AND SWAP1 POP SWAP2 SWAP1 POP JUMP JUMPDEST PUSH32 0x596F7520617265206E6F7420616C6C6F77656420746F20776974686472617721 PUSH1 0x0 DUP3 ADD MSTORE PUSH32 0x2054696D6520686173206E6F7420706173736564210000000000000000000000 PUSH1 0x20 DUP3 ADD MSTORE POP JUMP JUMPDEST PUSH32 0x596F7520617265206E6F7420616C6C6F77656420746F20776974686472617721 PUSH1 0x0 DUP3 ADD MSTORE PUSH32 0x204164647265737320446F6573204E6F74204D61746368656421000000000000 PUSH1 0x20 DUP3 ADD MSTORE POP JUMP JUMPDEST PUSH2 0xF6B DUP2 PUSH2 0xC9B JUMP JUMPDEST DUP2 EQ PUSH2 0xF76 JUMPI PUSH1 0x0 DUP1 REVERT JUMPDEST POP JUMP JUMPDEST PUSH2 0xF82 DUP2 PUSH2 0xCAD JUMP JUMPDEST DUP2 EQ PUSH2 0xF8D JUMPI PUSH1 0x0 DUP1 REVERT JUMPDEST POP JUMP JUMPDEST PUSH2 0xF99 DUP2 PUSH2 0xCBF JUMP JUMPDEST DUP2 EQ PUSH2 0xFA4 JUMPI PUSH1 0x0 DUP1 REVERT JUMPDEST POP JUMP JUMPDEST PUSH2 0xFB0 DUP2 PUSH2 0xCEB JUMP JUMPDEST DUP2 EQ PUSH2 0xFBB JUMPI PUSH1 0x0 DUP1 REVERT JUMPDEST POP JUMP INVALID LOG2 PUSH5 0x6970667358 0x22 SLT KECCAK256 ORIGIN 0xCC 0x2C SWAP14 0xAF 0xDB EXTCODEHASH 0xC0 LOG2 EXTCODESIZE PUSH21 0x956543D10C17CC2498B672321CF65FCD62AC970274 PUSH5 0x736F6C6343 STOP ADDMOD SMOD STOP CALLER "
				},
				"gasEstimates": {
					"creation": {
						"codeDepositCost": "816800",
						"executionCost": "25117",
						"totalCost": "841917"
					},
					"external": {
						"addKid(address,string,string,uint256,uint256,bool)": "infinite",
						"avaiableToWithdraw(address)": "infinite",
						"balanceOf()": "383",
						"deposit(address)": "infinite",
						"kids(uint256)": "infinite",
						"withdraw(address)": "infinite"
					},
					"internal": {
						"addToKidsBalance(address)": "infinite",
						"getKidIndex(address)": "infinite"
					}
				},
				"methodIdentifiers": {
					"addKid(address,string,string,uint256,uint256,bool)": "31d575c5",
					"avaiableToWithdraw(address)": "6640c922",
					"balanceOf()": "722713f7",
					"deposit(address)": "f340fa01",
					"kids(uint256)": "7285fd3a",
					"withdraw(address)": "51cff8d9"
				}
			},
			"storageLayout": {
				"storage": [
					{
						"astId": 3,
						"contract": "contracts/CryptoKids.sol:CryptoKids",
						"label": "owner",
						"offset": 0,
						"slot": "0",
						"type": "t_address"
					},
					{
						"astId": 29,
						"contract": "contracts/CryptoKids.sol:CryptoKids",
						"label": "kids",
						"offset": 0,
						"slot": "1",
						"type": "t_array(t_struct(Kid)25_storage)dyn_storage"
					}
				],
				"types": {
					"t_address": {
						"encoding": "inplace",
						"label": "address",
						"numberOfBytes": "20"
					},
					"t_address_payable": {
						"encoding": "inplace",
						"label": "address payable",
						"numberOfBytes": "20"
					},
					"t_array(t_struct(Kid)25_storage)dyn_storage": {
						"base": "t_struct(Kid)25_storage",
						"encoding": "dynamic_array",
						"label": "struct CryptoKids.Kid[]",
						"numberOfBytes": "32"
					},
					"t_bool": {
						"encoding": "inplace",
						"label": "bool",
						"numberOfBytes": "1"
					},
					"t_string_storage": {
						"encoding": "bytes",
						"label": "string",
						"numberOfBytes": "32"
					},
					"t_struct(Kid)25_storage": {
						"encoding": "inplace",
						"label": "struct CryptoKids.Kid",
						"members": [
							{
								"astId": 14,
								"contract": "contracts/CryptoKids.sol:CryptoKids",
								"label": "walletAddress",
								"offset": 0,
								"slot": "0",
								"type": "t_address_payable"
							},
							{
								"astId": 16,
								"contract": "contracts/CryptoKids.sol:CryptoKids",
								"label": "firstName",
								"offset": 0,
								"slot": "1",
								"type": "t_string_storage"
							},
							{
								"astId": 18,
								"contract": "contracts/CryptoKids.sol:CryptoKids",
								"label": "lastName",
								"offset": 0,
								"slot": "2",
								"type": "t_string_storage"
							},
							{
								"astId": 20,
								"contract": "contracts/CryptoKids.sol:CryptoKids",
								"label": "releaseTime",
								"offset": 0,
								"slot": "3",
								"type": "t_uint256"
							},
							{
								"astId": 22,
								"contract": "contracts/CryptoKids.sol:CryptoKids",
								"label": "amount",
								"offset": 0,
								"slot": "4",
								"type": "t_uint256"
							},
							{
								"astId": 24,
								"contract": "contracts/CryptoKids.sol:CryptoKids",
								"label": "canWithdraw",
								"offset": 0,
								"slot": "5",
								"type": "t_bool"
							}
						],
						"numberOfBytes": "192"
					},
					"t_uint256": {
						"encoding": "inplace",
						"label": "uint256",
						"numberOfBytes": "32"
					}
				}
			},
			"userdoc": {
				"kind": "user",
				"methods": {},
				"version": 1
			}
		}
	}
}