{
	"contracts/CryptoKids.sol": {
		"CryptoKids": {
			"abi": [
				{
					"inputs": [],
					"stateMutability": "nonpayable",
					"type": "constructor"
				},
				{
					"inputs": [
						{
							"internalType": "address payable",
							"name": "walletAddress",
							"type": "address"
						},
						{
							"internalType": "string",
							"name": "firstName",
							"type": "string"
						},
						{
							"internalType": "string",
							"name": "lastName",
							"type": "string"
						},
						{
							"internalType": "uint256",
							"name": "releaseTime",
							"type": "uint256"
						},
						{
							"internalType": "uint256",
							"name": "amount",
							"type": "uint256"
						},
						{
							"internalType": "bool",
							"name": "canWithdraw",
							"type": "bool"
						}
					],
					"name": "addKid",
					"outputs": [],
					"stateMutability": "nonpayable",
					"type": "function"
				},
				{
					"inputs": [
						{
							"internalType": "address",
							"name": "walletAddress",
							"type": "address"
						}
					],
					"name": "avaiableToWithdraw",
					"outputs": [
						{
							"internalType": "bool",
							"name": "",
							"type": "bool"
						}
					],
					"stateMutability": "nonpayable",
					"type": "function"
				},
				{
					"inputs": [],
					"name": "balanceOf",
					"outputs": [
						{
							"internalType": "uint256",
							"name": "",
							"type": "uint256"
						}
					],
					"stateMutability": "view",
					"type": "function"
				},
				{
					"inputs": [
						{
							"internalType": "address",
							"name": "walletAddress",
							"type": "address"
						}
					],
					"name": "deposit",
					"outputs": [],
					"stateMutability": "payable",
					"type": "function"
				},
				{
					"inputs": [
						{
							"internalType": "uint256",
							"name": "",
							"type": "uint256"
						}
					],
					"name": "kids",
					"outputs": [
						{
							"internalType": "address payable",
							"name": "walletAddress",
							"type": "address"
						},
						{
							"internalType": "string",
							"name": "firstName",
							"type": "string"
						},
						{
							"internalType": "string",
							"name": "lastName",
							"type": "string"
						},
						{
							"internalType": "uint256",
							"name": "releaseTime",
							"type": "uint256"
						},
						{
							"internalType": "uint256",
							"name": "amount",
							"type": "uint256"
						},
						{
							"internalType": "bool",
							"name": "canWithdraw",
							"type": "bool"
						}
					],
					"stateMutability": "view",
					"type": "function"
				},
				{
					"inputs": [
						{
							"internalType": "address payable",
							"name": "walletAddress",
							"type": "address"
						}
					],
					"name": "withdraw",
					"outputs": [],
					"stateMutability": "payable",
					"type": "function"
				}
			],
			"devdoc": {
				"kind": "dev",
				"methods": {},
				"version": 1
			},
			"evm": {
				"assembly": "    /* \"contracts/CryptoKids.sol\":116:2208  contract CryptoKids {... */\n  mstore(0x40, 0x80)\n    /* \"contracts/CryptoKids.sol\":167:216  constructor() {... */\n  callvalue\n  dup1\n  iszero\n  tag_1\n  jumpi\n  0x00\n  dup1\n  revert\ntag_1:\n  pop\n    /* \"contracts/CryptoKids.sol\":199:209  msg.sender */\n  caller\n    /* \"contracts/CryptoKids.sol\":191:196  owner */\n  0x00\n  dup1\n    /* \"contracts/CryptoKids.sol\":191:209  owner = msg.sender */\n  0x0100\n  exp\n  dup2\n  sload\n  dup2\n  0xffffffffffffffffffffffffffffffffffffffff\n  mul\n  not\n  and\n  swap1\n  dup4\n  0xffffffffffffffffffffffffffffffffffffffff\n  and\n  mul\n  or\n  swap1\n  sstore\n  pop\n    /* \"contracts/CryptoKids.sol\":116:2208  contract CryptoKids {... */\n  dataSize(sub_0)\n  dup1\n  dataOffset(sub_0)\n  0x00\n  codecopy\n  0x00\n  return\nstop\n\nsub_0: assembly {\n        /* \"contracts/CryptoKids.sol\":116:2208  contract CryptoKids {... */\n      mstore(0x40, 0x80)\n      jumpi(tag_1, lt(calldatasize, 0x04))\n      shr(0xe0, calldataload(0x00))\n      dup1\n      0x31d575c5\n      eq\n      tag_2\n      jumpi\n      dup1\n      0x51cff8d9\n      eq\n      tag_3\n      jumpi\n      dup1\n      0x6640c922\n      eq\n      tag_4\n      jumpi\n      dup1\n      0x722713f7\n      eq\n      tag_5\n      jumpi\n      dup1\n      0x7285fd3a\n      eq\n      tag_6\n      jumpi\n      dup1\n      0xf340fa01\n      eq\n      tag_7\n      jumpi\n    tag_1:\n      0x00\n      dup1\n      revert\n        /* \"contracts/CryptoKids.sol\":433:854  function addKid(... */\n    tag_2:\n      callvalue\n      dup1\n      iszero\n      tag_8\n      jumpi\n      0x00\n      dup1\n      revert\n    tag_8:\n      pop\n      tag_9\n      0x04\n      dup1\n      calldatasize\n      sub\n      dup2\n      add\n      swap1\n      tag_10\n      swap2\n      swap1\n      tag_11\n      jump\t// in\n    tag_10:\n      tag_12\n      jump\t// in\n    tag_9:\n      stop\n        /* \"contracts/CryptoKids.sol\":2125:2205  function withdraw(address payable walletAddress) payable public {... */\n    tag_3:\n      tag_13\n      0x04\n      dup1\n      calldatasize\n      sub\n      dup2\n      add\n      swap1\n      tag_14\n      swap2\n      swap1\n      tag_15\n      jump\t// in\n    tag_14:\n      tag_16\n      jump\t// in\n    tag_13:\n      stop\n        /* \"contracts/CryptoKids.sol\":1601:2017  function avaiableToWithdraw(address walletAddress) public returns(bool) {... */\n    tag_4:\n      callvalue\n      dup1\n      iszero\n      tag_17\n      jumpi\n      0x00\n      dup1\n      revert\n    tag_17:\n      pop\n      tag_18\n      0x04\n      dup1\n      calldatasize\n      sub\n      dup2\n      add\n      swap1\n      tag_19\n      swap2\n      swap1\n      tag_20\n      jump\t// in\n    tag_19:\n      tag_21\n      jump\t// in\n    tag_18:\n      mload(0x40)\n      tag_22\n      swap2\n      swap1\n      tag_23\n      jump\t// in\n    tag_22:\n      mload(0x40)\n      dup1\n      swap2\n      sub\n      swap1\n      return\n        /* \"contracts/CryptoKids.sol\":2027:2119  function balanceOf() public view returns(uint) {... */\n    tag_5:\n      callvalue\n      dup1\n      iszero\n      tag_24\n      jumpi\n      0x00\n      dup1\n      revert\n    tag_24:\n      pop\n      tag_25\n      tag_26\n      jump\t// in\n    tag_25:\n      mload(0x40)\n      tag_27\n      swap2\n      swap1\n      tag_28\n      jump\t// in\n    tag_27:\n      mload(0x40)\n      dup1\n      swap2\n      sub\n      swap1\n      return\n        /* \"contracts/CryptoKids.sol\":409:426  Kid[] public kids */\n    tag_6:\n      callvalue\n      dup1\n      iszero\n      tag_29\n      jumpi\n      0x00\n      dup1\n      revert\n    tag_29:\n      pop\n      tag_30\n      0x04\n      dup1\n      calldatasize\n      sub\n      dup2\n      add\n      swap1\n      tag_31\n      swap2\n      swap1\n      tag_32\n      jump\t// in\n    tag_31:\n      tag_33\n      jump\t// in\n    tag_30:\n      mload(0x40)\n      tag_34\n      swap7\n      swap6\n      swap5\n      swap4\n      swap3\n      swap2\n      swap1\n      tag_35\n      jump\t// in\n    tag_34:\n      mload(0x40)\n      dup1\n      swap2\n      sub\n      swap1\n      return\n        /* \"contracts/CryptoKids.sol\":860:963  function deposit(address walletAddress) payable public {... */\n    tag_7:\n      tag_36\n      0x04\n      dup1\n      calldatasize\n      sub\n      dup2\n      add\n      swap1\n      tag_37\n      swap2\n      swap1\n      tag_20\n      jump\t// in\n    tag_37:\n      tag_38\n      jump\t// in\n    tag_36:\n      stop\n        /* \"contracts/CryptoKids.sol\":433:854  function addKid(... */\n    tag_12:\n        /* \"contracts/CryptoKids.sol\":653:657  kids */\n      0x01\n        /* \"contracts/CryptoKids.sol\":663:846  Kid(... */\n      mload(0x40)\n      dup1\n      0xc0\n      add\n      0x40\n      mstore\n      dup1\n        /* \"contracts/CryptoKids.sol\":684:697  walletAddress */\n      dup9\n        /* \"contracts/CryptoKids.sol\":663:846  Kid(... */\n      0xffffffffffffffffffffffffffffffffffffffff\n      and\n      dup2\n      mstore\n      0x20\n      add\n        /* \"contracts/CryptoKids.sol\":715:724  firstName */\n      dup8\n        /* \"contracts/CryptoKids.sol\":663:846  Kid(... */\n      dup2\n      mstore\n      0x20\n      add\n        /* \"contracts/CryptoKids.sol\":742:750  lastName */\n      dup7\n        /* \"contracts/CryptoKids.sol\":663:846  Kid(... */\n      dup2\n      mstore\n      0x20\n      add\n        /* \"contracts/CryptoKids.sol\":768:779  releaseTime */\n      dup6\n        /* \"contracts/CryptoKids.sol\":663:846  Kid(... */\n      dup2\n      mstore\n      0x20\n      add\n        /* \"contracts/CryptoKids.sol\":797:803  amount */\n      dup5\n        /* \"contracts/CryptoKids.sol\":663:846  Kid(... */\n      dup2\n      mstore\n      0x20\n      add\n        /* \"contracts/CryptoKids.sol\":821:832  canWithdraw */\n      dup4\n        /* \"contracts/CryptoKids.sol\":663:846  Kid(... */\n      iszero\n      iszero\n      dup2\n      mstore\n      pop\n        /* \"contracts/CryptoKids.sol\":653:847  kids.push(Kid(... */\n      swap1\n      dup1\n      0x01\n      dup2\n      sload\n      add\n      dup1\n      dup3\n      sstore\n      dup1\n      swap2\n      pop\n      pop\n      0x01\n      swap1\n      sub\n      swap1\n      0x00\n      mstore\n      keccak256(0x00, 0x20)\n      swap1\n      0x06\n      mul\n      add\n      0x00\n      swap1\n      swap2\n      swap1\n      swap2\n      swap1\n      swap2\n      pop\n      0x00\n      dup3\n      add\n      mload\n      dup2\n      0x00\n      add\n      exp(0x0100, 0x00)\n      dup2\n      sload\n      dup2\n      0xffffffffffffffffffffffffffffffffffffffff\n      mul\n      not\n      and\n      swap1\n      dup4\n      0xffffffffffffffffffffffffffffffffffffffff\n      and\n      mul\n      or\n      swap1\n      sstore\n      pop\n      0x20\n      dup3\n      add\n      mload\n      dup2\n      0x01\n      add\n      swap1\n      dup1\n      mload\n      swap1\n      0x20\n      add\n      swap1\n      tag_41\n      swap3\n      swap2\n      swap1\n      tag_42\n      jump\t// in\n    tag_41:\n      pop\n      0x40\n      dup3\n      add\n      mload\n      dup2\n      0x02\n      add\n      swap1\n      dup1\n      mload\n      swap1\n      0x20\n      add\n      swap1\n      tag_43\n      swap3\n      swap2\n      swap1\n      tag_42\n      jump\t// in\n    tag_43:\n      pop\n      0x60\n      dup3\n      add\n      mload\n      dup2\n      0x03\n      add\n      sstore\n      0x80\n      dup3\n      add\n      mload\n      dup2\n      0x04\n      add\n      sstore\n      0xa0\n      dup3\n      add\n      mload\n      dup2\n      0x05\n      add\n      exp(0x0100, 0x00)\n      dup2\n      sload\n      dup2\n      0xff\n      mul\n      not\n      and\n      swap1\n      dup4\n      iszero\n      iszero\n      mul\n      or\n      swap1\n      sstore\n      pop\n      pop\n      pop\n        /* \"contracts/CryptoKids.sol\":433:854  function addKid(... */\n      pop\n      pop\n      pop\n      pop\n      pop\n      pop\n      jump\t// out\n        /* \"contracts/CryptoKids.sol\":2125:2205  function withdraw(address payable walletAddress) payable public {... */\n    tag_16:\n      pop\n      jump\t// out\n        /* \"contracts/CryptoKids.sol\":1601:2017  function avaiableToWithdraw(address walletAddress) public returns(bool) {... */\n    tag_21:\n        /* \"contracts/CryptoKids.sol\":1667:1671  bool */\n      0x00\n        /* \"contracts/CryptoKids.sol\":1683:1689  uint i */\n      dup1\n        /* \"contracts/CryptoKids.sol\":1692:1718  getKidIndex(walletAddress) */\n      tag_46\n        /* \"contracts/CryptoKids.sol\":1704:1717  walletAddress */\n      dup4\n        /* \"contracts/CryptoKids.sol\":1692:1703  getKidIndex */\n      tag_47\n        /* \"contracts/CryptoKids.sol\":1692:1718  getKidIndex(walletAddress) */\n      jump\t// in\n    tag_46:\n        /* \"contracts/CryptoKids.sol\":1683:1718  uint i = getKidIndex(walletAddress) */\n      swap1\n      pop\n        /* \"contracts/CryptoKids.sol\":1891:1895  kids */\n      0x01\n        /* \"contracts/CryptoKids.sol\":1896:1897  i */\n      dup2\n        /* \"contracts/CryptoKids.sol\":1891:1898  kids[i] */\n      dup2\n      sload\n      dup2\n      lt\n      tag_48\n      jumpi\n      tag_49\n      tag_50\n      jump\t// in\n    tag_49:\n    tag_48:\n      swap1\n      0x00\n      mstore\n      keccak256(0x00, 0x20)\n      swap1\n      0x06\n      mul\n      add\n        /* \"contracts/CryptoKids.sol\":1891:1910  kids[i].releaseTime */\n      0x03\n      add\n      sload\n        /* \"contracts/CryptoKids.sol\":1873:1888  block.timestamp */\n      timestamp\n        /* \"contracts/CryptoKids.sol\":1873:1910  block.timestamp > kids[i].releaseTime */\n      gt\n        /* \"contracts/CryptoKids.sol\":1869:1988  if (block.timestamp > kids[i].releaseTime) {... */\n      iszero\n      tag_52\n      jumpi\n        /* \"contracts/CryptoKids.sol\":1948:1952  true */\n      0x01\n        /* \"contracts/CryptoKids.sol\":1926:1930  kids */\n      dup1\n        /* \"contracts/CryptoKids.sol\":1931:1932  i */\n      dup3\n        /* \"contracts/CryptoKids.sol\":1926:1933  kids[i] */\n      dup2\n      sload\n      dup2\n      lt\n      tag_53\n      jumpi\n      tag_54\n      tag_50\n      jump\t// in\n    tag_54:\n    tag_53:\n      swap1\n      0x00\n      mstore\n      keccak256(0x00, 0x20)\n      swap1\n      0x06\n      mul\n      add\n        /* \"contracts/CryptoKids.sol\":1926:1945  kids[i].canWithdraw */\n      0x05\n      add\n      0x00\n        /* \"contracts/CryptoKids.sol\":1926:1952  kids[i].canWithdraw = true */\n      0x0100\n      exp\n      dup2\n      sload\n      dup2\n      0xff\n      mul\n      not\n      and\n      swap1\n      dup4\n      iszero\n      iszero\n      mul\n      or\n      swap1\n      sstore\n      pop\n        /* \"contracts/CryptoKids.sol\":1973:1977  true */\n      0x01\n        /* \"contracts/CryptoKids.sol\":1966:1977  return true */\n      swap2\n      pop\n      pop\n      jump(tag_45)\n        /* \"contracts/CryptoKids.sol\":1869:1988  if (block.timestamp > kids[i].releaseTime) {... */\n    tag_52:\n        /* \"contracts/CryptoKids.sol\":2005:2010  false */\n      0x00\n        /* \"contracts/CryptoKids.sol\":1998:2010  return false */\n      swap2\n      pop\n      pop\n        /* \"contracts/CryptoKids.sol\":1601:2017  function avaiableToWithdraw(address walletAddress) public returns(bool) {... */\n    tag_45:\n      swap2\n      swap1\n      pop\n      jump\t// out\n        /* \"contracts/CryptoKids.sol\":2027:2119  function balanceOf() public view returns(uint) {... */\n    tag_26:\n        /* \"contracts/CryptoKids.sol\":2068:2072  uint */\n      0x00\n        /* \"contracts/CryptoKids.sol\":2091:2112  address(this).balance */\n      selfbalance\n        /* \"contracts/CryptoKids.sol\":2084:2112  return address(this).balance */\n      swap1\n      pop\n        /* \"contracts/CryptoKids.sol\":2027:2119  function balanceOf() public view returns(uint) {... */\n      swap1\n      jump\t// out\n        /* \"contracts/CryptoKids.sol\":409:426  Kid[] public kids */\n    tag_33:\n      0x01\n      dup2\n      dup2\n      sload\n      dup2\n      lt\n      tag_57\n      jumpi\n      0x00\n      dup1\n      revert\n    tag_57:\n      swap1\n      0x00\n      mstore\n      keccak256(0x00, 0x20)\n      swap1\n      0x06\n      mul\n      add\n      0x00\n      swap2\n      pop\n      swap1\n      pop\n      dup1\n      0x00\n      add\n      0x00\n      swap1\n      sload\n      swap1\n      0x0100\n      exp\n      swap1\n      div\n      0xffffffffffffffffffffffffffffffffffffffff\n      and\n      swap1\n      dup1\n      0x01\n      add\n      dup1\n      sload\n      tag_59\n      swap1\n      tag_60\n      jump\t// in\n    tag_59:\n      dup1\n      0x1f\n      add\n      0x20\n      dup1\n      swap2\n      div\n      mul\n      0x20\n      add\n      mload(0x40)\n      swap1\n      dup2\n      add\n      0x40\n      mstore\n      dup1\n      swap3\n      swap2\n      swap1\n      dup2\n      dup2\n      mstore\n      0x20\n      add\n      dup3\n      dup1\n      sload\n      tag_61\n      swap1\n      tag_60\n      jump\t// in\n    tag_61:\n      dup1\n      iszero\n      tag_62\n      jumpi\n      dup1\n      0x1f\n      lt\n      tag_63\n      jumpi\n      0x0100\n      dup1\n      dup4\n      sload\n      div\n      mul\n      dup4\n      mstore\n      swap2\n      0x20\n      add\n      swap2\n      jump(tag_62)\n    tag_63:\n      dup3\n      add\n      swap2\n      swap1\n      0x00\n      mstore\n      keccak256(0x00, 0x20)\n      swap1\n    tag_64:\n      dup2\n      sload\n      dup2\n      mstore\n      swap1\n      0x01\n      add\n      swap1\n      0x20\n      add\n      dup1\n      dup4\n      gt\n      tag_64\n      jumpi\n      dup3\n      swap1\n      sub\n      0x1f\n      and\n      dup3\n      add\n      swap2\n    tag_62:\n      pop\n      pop\n      pop\n      pop\n      pop\n      swap1\n      dup1\n      0x02\n      add\n      dup1\n      sload\n      tag_65\n      swap1\n      tag_60\n      jump\t// in\n    tag_65:\n      dup1\n      0x1f\n      add\n      0x20\n      dup1\n      swap2\n      div\n      mul\n      0x20\n      add\n      mload(0x40)\n      swap1\n      dup2\n      add\n      0x40\n      mstore\n      dup1\n      swap3\n      swap2\n      swap1\n      dup2\n      dup2\n      mstore\n      0x20\n      add\n      dup3\n      dup1\n      sload\n      tag_66\n      swap1\n      tag_60\n      jump\t// in\n    tag_66:\n      dup1\n      iszero\n      tag_67\n      jumpi\n      dup1\n      0x1f\n      lt\n      tag_68\n      jumpi\n      0x0100\n      dup1\n      dup4\n      sload\n      div\n      mul\n      dup4\n      mstore\n      swap2\n      0x20\n      add\n      swap2\n      jump(tag_67)\n    tag_68:\n      dup3\n      add\n      swap2\n      swap1\n      0x00\n      mstore\n      keccak256(0x00, 0x20)\n      swap1\n    tag_69:\n      dup2\n      sload\n      dup2\n      mstore\n      swap1\n      0x01\n      add\n      swap1\n      0x20\n      add\n      dup1\n      dup4\n      gt\n      tag_69\n      jumpi\n      dup3\n      swap1\n      sub\n      0x1f\n      and\n      dup3\n      add\n      swap2\n    tag_67:\n      pop\n      pop\n      pop\n      pop\n      pop\n      swap1\n      dup1\n      0x03\n      add\n      sload\n      swap1\n      dup1\n      0x04\n      add\n      sload\n      swap1\n      dup1\n      0x05\n      add\n      0x00\n      swap1\n      sload\n      swap1\n      0x0100\n      exp\n      swap1\n      div\n      0xff\n      and\n      swap1\n      pop\n      dup7\n      jump\t// out\n        /* \"contracts/CryptoKids.sol\":860:963  function deposit(address walletAddress) payable public {... */\n    tag_38:\n        /* \"contracts/CryptoKids.sol\":925:956  addToKidsBalance(walletAddress) */\n      tag_71\n        /* \"contracts/CryptoKids.sol\":942:955  walletAddress */\n      dup2\n        /* \"contracts/CryptoKids.sol\":925:941  addToKidsBalance */\n      tag_72\n        /* \"contracts/CryptoKids.sol\":925:956  addToKidsBalance(walletAddress) */\n      jump\t// in\n    tag_71:\n        /* \"contracts/CryptoKids.sol\":860:963  function deposit(address walletAddress) payable public {... */\n      pop\n      jump\t// out\n        /* \"contracts/CryptoKids.sol\":1000:1368  function getKidIndex(address walletAddress) private view returns(uint) {... */\n    tag_47:\n        /* \"contracts/CryptoKids.sol\":1065:1069  uint */\n      0x00\n        /* \"contracts/CryptoKids.sol\":1086:1092  uint i */\n      dup1\n        /* \"contracts/CryptoKids.sol\":1095:1096  0 */\n      0x00\n        /* \"contracts/CryptoKids.sol\":1086:1096  uint i = 0 */\n      swap1\n      pop\n        /* \"contracts/CryptoKids.sol\":1081:1230  for( uint i = 0; i < kids.length; i++) {... */\n    tag_74:\n        /* \"contracts/CryptoKids.sol\":1102:1106  kids */\n      0x01\n        /* \"contracts/CryptoKids.sol\":1102:1113  kids.length */\n      dup1\n      sload\n      swap1\n      pop\n        /* \"contracts/CryptoKids.sol\":1098:1099  i */\n      dup2\n        /* \"contracts/CryptoKids.sol\":1098:1113  i < kids.length */\n      lt\n        /* \"contracts/CryptoKids.sol\":1081:1230  for( uint i = 0; i < kids.length; i++) {... */\n      iszero\n      tag_75\n      jumpi\n        /* \"contracts/CryptoKids.sol\":1164:1177  walletAddress */\n      dup3\n        /* \"contracts/CryptoKids.sol\":1139:1177  kids[i].walletAddress == walletAddress */\n      0xffffffffffffffffffffffffffffffffffffffff\n      and\n        /* \"contracts/CryptoKids.sol\":1139:1143  kids */\n      0x01\n        /* \"contracts/CryptoKids.sol\":1144:1145  i */\n      dup3\n        /* \"contracts/CryptoKids.sol\":1139:1146  kids[i] */\n      dup2\n      sload\n      dup2\n      lt\n      tag_77\n      jumpi\n      tag_78\n      tag_50\n      jump\t// in\n    tag_78:\n    tag_77:\n      swap1\n      0x00\n      mstore\n      keccak256(0x00, 0x20)\n      swap1\n      0x06\n      mul\n      add\n        /* \"contracts/CryptoKids.sol\":1139:1160  kids[i].walletAddress */\n      0x00\n      add\n      0x00\n      swap1\n      sload\n      swap1\n      0x0100\n      exp\n      swap1\n      div\n      0xffffffffffffffffffffffffffffffffffffffff\n      and\n        /* \"contracts/CryptoKids.sol\":1139:1177  kids[i].walletAddress == walletAddress */\n      0xffffffffffffffffffffffffffffffffffffffff\n      and\n      eq\n        /* \"contracts/CryptoKids.sol\":1134:1220  if ( kids[i].walletAddress == walletAddress) {... */\n      iszero\n      tag_80\n      jumpi\n        /* \"contracts/CryptoKids.sol\":1204:1205  i */\n      dup1\n        /* \"contracts/CryptoKids.sol\":1197:1205  return i */\n      swap2\n      pop\n      pop\n      jump(tag_73)\n        /* \"contracts/CryptoKids.sol\":1134:1220  if ( kids[i].walletAddress == walletAddress) {... */\n    tag_80:\n        /* \"contracts/CryptoKids.sol\":1115:1118  i++ */\n      dup1\n      dup1\n      tag_81\n      swap1\n      tag_82\n      jump\t// in\n    tag_81:\n      swap2\n      pop\n      pop\n        /* \"contracts/CryptoKids.sol\":1081:1230  for( uint i = 0; i < kids.length; i++) {... */\n      jump(tag_74)\n    tag_75:\n      pop\n        /* \"contracts/CryptoKids.sol\":1246:1250  kids */\n      0x01\n        /* \"contracts/CryptoKids.sol\":1246:1257  kids.length */\n      dup1\n      sload\n      swap1\n      pop\n        /* \"contracts/CryptoKids.sol\":1239:1257  return kids.length */\n      swap1\n      pop\n        /* \"contracts/CryptoKids.sol\":1000:1368  function getKidIndex(address walletAddress) private view returns(uint) {... */\n    tag_73:\n      swap2\n      swap1\n      pop\n      jump\t// out\n        /* \"contracts/CryptoKids.sol\":1374:1595  function addToKidsBalance(address walletAddress) private {... */\n    tag_72:\n        /* \"contracts/CryptoKids.sol\":1441:1457  uint theKidIndex */\n      0x00\n        /* \"contracts/CryptoKids.sol\":1460:1486  getKidIndex(walletAddress) */\n      tag_84\n        /* \"contracts/CryptoKids.sol\":1472:1485  walletAddress */\n      dup3\n        /* \"contracts/CryptoKids.sol\":1460:1471  getKidIndex */\n      tag_47\n        /* \"contracts/CryptoKids.sol\":1460:1486  getKidIndex(walletAddress) */\n      jump\t// in\n    tag_84:\n        /* \"contracts/CryptoKids.sol\":1441:1486  uint theKidIndex = getKidIndex(walletAddress) */\n      swap1\n      pop\n        /* \"contracts/CryptoKids.sol\":1514:1518  kids */\n      0x01\n        /* \"contracts/CryptoKids.sol\":1514:1525  kids.length */\n      dup1\n      sload\n      swap1\n      pop\n        /* \"contracts/CryptoKids.sol\":1500:1511  theKidIndex */\n      dup2\n        /* \"contracts/CryptoKids.sol\":1500:1525  theKidIndex < kids.length */\n      lt\n        /* \"contracts/CryptoKids.sol\":1496:1589  if (theKidIndex < kids.length) {... */\n      iszero\n      tag_85\n      jumpi\n        /* \"contracts/CryptoKids.sol\":1569:1578  msg.value */\n      callvalue\n        /* \"contracts/CryptoKids.sol\":1541:1545  kids */\n      0x01\n        /* \"contracts/CryptoKids.sol\":1546:1557  theKidIndex */\n      dup3\n        /* \"contracts/CryptoKids.sol\":1541:1558  kids[theKidIndex] */\n      dup2\n      sload\n      dup2\n      lt\n      tag_86\n      jumpi\n      tag_87\n      tag_50\n      jump\t// in\n    tag_87:\n    tag_86:\n      swap1\n      0x00\n      mstore\n      keccak256(0x00, 0x20)\n      swap1\n      0x06\n      mul\n      add\n        /* \"contracts/CryptoKids.sol\":1541:1565  kids[theKidIndex].amount */\n      0x04\n      add\n      0x00\n        /* \"contracts/CryptoKids.sol\":1541:1578  kids[theKidIndex].amount += msg.value */\n      dup3\n      dup3\n      sload\n      tag_89\n      swap2\n      swap1\n      tag_90\n      jump\t// in\n    tag_89:\n      swap3\n      pop\n      pop\n      dup2\n      swap1\n      sstore\n      pop\n        /* \"contracts/CryptoKids.sol\":1496:1589  if (theKidIndex < kids.length) {... */\n    tag_85:\n        /* \"contracts/CryptoKids.sol\":1431:1595  {... */\n      pop\n        /* \"contracts/CryptoKids.sol\":1374:1595  function addToKidsBalance(address walletAddress) private {... */\n      pop\n      jump\t// out\n    tag_42:\n      dup3\n      dup1\n      sload\n      tag_91\n      swap1\n      tag_60\n      jump\t// in\n    tag_91:\n      swap1\n      0x00\n      mstore\n      keccak256(0x00, 0x20)\n      swap1\n      0x1f\n      add\n      0x20\n      swap1\n      div\n      dup2\n      add\n      swap3\n      dup3\n      tag_93\n      jumpi\n      0x00\n      dup6\n      sstore\n      jump(tag_92)\n    tag_93:\n      dup3\n      0x1f\n      lt\n      tag_94\n      jumpi\n      dup1\n      mload\n      not(0xff)\n      and\n      dup4\n      dup1\n      add\n      or\n      dup6\n      sstore\n      jump(tag_92)\n    tag_94:\n      dup3\n      dup1\n      add\n      0x01\n      add\n      dup6\n      sstore\n      dup3\n      iszero\n      tag_92\n      jumpi\n      swap2\n      dup3\n      add\n    tag_95:\n      dup3\n      dup2\n      gt\n      iszero\n      tag_96\n      jumpi\n      dup3\n      mload\n      dup3\n      sstore\n      swap2\n      0x20\n      add\n      swap2\n      swap1\n      0x01\n      add\n      swap1\n      jump(tag_95)\n    tag_96:\n    tag_92:\n      pop\n      swap1\n      pop\n      tag_97\n      swap2\n      swap1\n      tag_98\n      jump\t// in\n    tag_97:\n      pop\n      swap1\n      jump\t// out\n    tag_98:\n    tag_99:\n      dup1\n      dup3\n      gt\n      iszero\n      tag_100\n      jumpi\n      0x00\n      dup2\n      0x00\n      swap1\n      sstore\n      pop\n      0x01\n      add\n      jump(tag_99)\n    tag_100:\n      pop\n      swap1\n      jump\t// out\n        /* \"#utility.yul\":7:419   */\n    tag_102:\n        /* \"#utility.yul\":85:90   */\n      0x00\n        /* \"#utility.yul\":110:176   */\n      tag_104\n        /* \"#utility.yul\":126:175   */\n      tag_105\n        /* \"#utility.yul\":168:174   */\n      dup5\n        /* \"#utility.yul\":126:175   */\n      tag_106\n      jump\t// in\n    tag_105:\n        /* \"#utility.yul\":110:176   */\n      tag_107\n      jump\t// in\n    tag_104:\n        /* \"#utility.yul\":101:176   */\n      swap1\n      pop\n        /* \"#utility.yul\":199:205   */\n      dup3\n        /* \"#utility.yul\":192:197   */\n      dup2\n        /* \"#utility.yul\":185:206   */\n      mstore\n        /* \"#utility.yul\":237:241   */\n      0x20\n        /* \"#utility.yul\":230:235   */\n      dup2\n        /* \"#utility.yul\":226:242   */\n      add\n        /* \"#utility.yul\":275:278   */\n      dup5\n        /* \"#utility.yul\":266:272   */\n      dup5\n        /* \"#utility.yul\":261:264   */\n      dup5\n        /* \"#utility.yul\":257:273   */\n      add\n        /* \"#utility.yul\":254:279   */\n      gt\n        /* \"#utility.yul\":251:363   */\n      iszero\n      tag_108\n      jumpi\n        /* \"#utility.yul\":282:361   */\n      tag_109\n      tag_110\n      jump\t// in\n    tag_109:\n        /* \"#utility.yul\":251:363   */\n    tag_108:\n        /* \"#utility.yul\":372:413   */\n      tag_111\n        /* \"#utility.yul\":406:412   */\n      dup5\n        /* \"#utility.yul\":401:404   */\n      dup3\n        /* \"#utility.yul\":396:399   */\n      dup6\n        /* \"#utility.yul\":372:413   */\n      tag_112\n      jump\t// in\n    tag_111:\n        /* \"#utility.yul\":91:419   */\n      pop\n        /* \"#utility.yul\":7:419   */\n      swap4\n      swap3\n      pop\n      pop\n      pop\n      jump\t// out\n        /* \"#utility.yul\":425:564   */\n    tag_113:\n        /* \"#utility.yul\":471:476   */\n      0x00\n        /* \"#utility.yul\":509:515   */\n      dup2\n        /* \"#utility.yul\":496:516   */\n      calldataload\n        /* \"#utility.yul\":487:516   */\n      swap1\n      pop\n        /* \"#utility.yul\":525:558   */\n      tag_115\n        /* \"#utility.yul\":552:557   */\n      dup2\n        /* \"#utility.yul\":525:558   */\n      tag_116\n      jump\t// in\n    tag_115:\n        /* \"#utility.yul\":425:564   */\n      swap3\n      swap2\n      pop\n      pop\n      jump\t// out\n        /* \"#utility.yul\":570:725   */\n    tag_117:\n        /* \"#utility.yul\":624:629   */\n      0x00\n        /* \"#utility.yul\":662:668   */\n      dup2\n        /* \"#utility.yul\":649:669   */\n      calldataload\n        /* \"#utility.yul\":640:669   */\n      swap1\n      pop\n        /* \"#utility.yul\":678:719   */\n      tag_119\n        /* \"#utility.yul\":713:718   */\n      dup2\n        /* \"#utility.yul\":678:719   */\n      tag_120\n      jump\t// in\n    tag_119:\n        /* \"#utility.yul\":570:725   */\n      swap3\n      swap2\n      pop\n      pop\n      jump\t// out\n        /* \"#utility.yul\":731:864   */\n    tag_121:\n        /* \"#utility.yul\":774:779   */\n      0x00\n        /* \"#utility.yul\":812:818   */\n      dup2\n        /* \"#utility.yul\":799:819   */\n      calldataload\n        /* \"#utility.yul\":790:819   */\n      swap1\n      pop\n        /* \"#utility.yul\":828:858   */\n      tag_123\n        /* \"#utility.yul\":852:857   */\n      dup2\n        /* \"#utility.yul\":828:858   */\n      tag_124\n      jump\t// in\n    tag_123:\n        /* \"#utility.yul\":731:864   */\n      swap3\n      swap2\n      pop\n      pop\n      jump\t// out\n        /* \"#utility.yul\":884:1224   */\n    tag_125:\n        /* \"#utility.yul\":940:945   */\n      0x00\n        /* \"#utility.yul\":989:992   */\n      dup3\n        /* \"#utility.yul\":982:986   */\n      0x1f\n        /* \"#utility.yul\":974:980   */\n      dup4\n        /* \"#utility.yul\":970:987   */\n      add\n        /* \"#utility.yul\":966:993   */\n      slt\n        /* \"#utility.yul\":956:1078   */\n      tag_127\n      jumpi\n        /* \"#utility.yul\":997:1076   */\n      tag_128\n      tag_129\n      jump\t// in\n    tag_128:\n        /* \"#utility.yul\":956:1078   */\n    tag_127:\n        /* \"#utility.yul\":1114:1120   */\n      dup2\n        /* \"#utility.yul\":1101:1121   */\n      calldataload\n        /* \"#utility.yul\":1139:1218   */\n      tag_130\n        /* \"#utility.yul\":1214:1217   */\n      dup5\n        /* \"#utility.yul\":1206:1212   */\n      dup3\n        /* \"#utility.yul\":1199:1203   */\n      0x20\n        /* \"#utility.yul\":1191:1197   */\n      dup7\n        /* \"#utility.yul\":1187:1204   */\n      add\n        /* \"#utility.yul\":1139:1218   */\n      tag_102\n      jump\t// in\n    tag_130:\n        /* \"#utility.yul\":1130:1218   */\n      swap2\n      pop\n        /* \"#utility.yul\":946:1224   */\n      pop\n        /* \"#utility.yul\":884:1224   */\n      swap3\n      swap2\n      pop\n      pop\n      jump\t// out\n        /* \"#utility.yul\":1230:1369   */\n    tag_131:\n        /* \"#utility.yul\":1276:1281   */\n      0x00\n        /* \"#utility.yul\":1314:1320   */\n      dup2\n        /* \"#utility.yul\":1301:1321   */\n      calldataload\n        /* \"#utility.yul\":1292:1321   */\n      swap1\n      pop\n        /* \"#utility.yul\":1330:1363   */\n      tag_133\n        /* \"#utility.yul\":1357:1362   */\n      dup2\n        /* \"#utility.yul\":1330:1363   */\n      tag_134\n      jump\t// in\n    tag_133:\n        /* \"#utility.yul\":1230:1369   */\n      swap3\n      swap2\n      pop\n      pop\n      jump\t// out\n        /* \"#utility.yul\":1375:1704   */\n    tag_20:\n        /* \"#utility.yul\":1434:1440   */\n      0x00\n        /* \"#utility.yul\":1483:1485   */\n      0x20\n        /* \"#utility.yul\":1471:1480   */\n      dup3\n        /* \"#utility.yul\":1462:1469   */\n      dup5\n        /* \"#utility.yul\":1458:1481   */\n      sub\n        /* \"#utility.yul\":1454:1486   */\n      slt\n        /* \"#utility.yul\":1451:1570   */\n      iszero\n      tag_136\n      jumpi\n        /* \"#utility.yul\":1489:1568   */\n      tag_137\n      tag_138\n      jump\t// in\n    tag_137:\n        /* \"#utility.yul\":1451:1570   */\n    tag_136:\n        /* \"#utility.yul\":1609:1610   */\n      0x00\n        /* \"#utility.yul\":1634:1687   */\n      tag_139\n        /* \"#utility.yul\":1679:1686   */\n      dup5\n        /* \"#utility.yul\":1670:1676   */\n      dup3\n        /* \"#utility.yul\":1659:1668   */\n      dup6\n        /* \"#utility.yul\":1655:1677   */\n      add\n        /* \"#utility.yul\":1634:1687   */\n      tag_113\n      jump\t// in\n    tag_139:\n        /* \"#utility.yul\":1624:1687   */\n      swap2\n      pop\n        /* \"#utility.yul\":1580:1697   */\n      pop\n        /* \"#utility.yul\":1375:1704   */\n      swap3\n      swap2\n      pop\n      pop\n      jump\t// out\n        /* \"#utility.yul\":1710:2055   */\n    tag_15:\n        /* \"#utility.yul\":1777:1783   */\n      0x00\n        /* \"#utility.yul\":1826:1828   */\n      0x20\n        /* \"#utility.yul\":1814:1823   */\n      dup3\n        /* \"#utility.yul\":1805:1812   */\n      dup5\n        /* \"#utility.yul\":1801:1824   */\n      sub\n        /* \"#utility.yul\":1797:1829   */\n      slt\n        /* \"#utility.yul\":1794:1913   */\n      iszero\n      tag_141\n      jumpi\n        /* \"#utility.yul\":1832:1911   */\n      tag_142\n      tag_138\n      jump\t// in\n    tag_142:\n        /* \"#utility.yul\":1794:1913   */\n    tag_141:\n        /* \"#utility.yul\":1952:1953   */\n      0x00\n        /* \"#utility.yul\":1977:2038   */\n      tag_143\n        /* \"#utility.yul\":2030:2037   */\n      dup5\n        /* \"#utility.yul\":2021:2027   */\n      dup3\n        /* \"#utility.yul\":2010:2019   */\n      dup6\n        /* \"#utility.yul\":2006:2028   */\n      add\n        /* \"#utility.yul\":1977:2038   */\n      tag_117\n      jump\t// in\n    tag_143:\n        /* \"#utility.yul\":1967:2038   */\n      swap2\n      pop\n        /* \"#utility.yul\":1923:2048   */\n      pop\n        /* \"#utility.yul\":1710:2055   */\n      swap3\n      swap2\n      pop\n      pop\n      jump\t// out\n        /* \"#utility.yul\":2061:3488   */\n    tag_11:\n        /* \"#utility.yul\":2190:2196   */\n      0x00\n        /* \"#utility.yul\":2198:2204   */\n      dup1\n        /* \"#utility.yul\":2206:2212   */\n      0x00\n        /* \"#utility.yul\":2214:2220   */\n      dup1\n        /* \"#utility.yul\":2222:2228   */\n      0x00\n        /* \"#utility.yul\":2230:2236   */\n      dup1\n        /* \"#utility.yul\":2279:2282   */\n      0xc0\n        /* \"#utility.yul\":2267:2276   */\n      dup8\n        /* \"#utility.yul\":2258:2265   */\n      dup10\n        /* \"#utility.yul\":2254:2277   */\n      sub\n        /* \"#utility.yul\":2250:2283   */\n      slt\n        /* \"#utility.yul\":2247:2367   */\n      iszero\n      tag_145\n      jumpi\n        /* \"#utility.yul\":2286:2365   */\n      tag_146\n      tag_138\n      jump\t// in\n    tag_146:\n        /* \"#utility.yul\":2247:2367   */\n    tag_145:\n        /* \"#utility.yul\":2406:2407   */\n      0x00\n        /* \"#utility.yul\":2431:2492   */\n      tag_147\n        /* \"#utility.yul\":2484:2491   */\n      dup10\n        /* \"#utility.yul\":2475:2481   */\n      dup3\n        /* \"#utility.yul\":2464:2473   */\n      dup11\n        /* \"#utility.yul\":2460:2482   */\n      add\n        /* \"#utility.yul\":2431:2492   */\n      tag_117\n      jump\t// in\n    tag_147:\n        /* \"#utility.yul\":2421:2492   */\n      swap7\n      pop\n        /* \"#utility.yul\":2377:2502   */\n      pop\n        /* \"#utility.yul\":2569:2571   */\n      0x20\n        /* \"#utility.yul\":2558:2567   */\n      dup8\n        /* \"#utility.yul\":2554:2572   */\n      add\n        /* \"#utility.yul\":2541:2573   */\n      calldataload\n        /* \"#utility.yul\":2600:2618   */\n      0xffffffffffffffff\n        /* \"#utility.yul\":2592:2598   */\n      dup2\n        /* \"#utility.yul\":2589:2619   */\n      gt\n        /* \"#utility.yul\":2586:2703   */\n      iszero\n      tag_148\n      jumpi\n        /* \"#utility.yul\":2622:2701   */\n      tag_149\n      tag_150\n      jump\t// in\n    tag_149:\n        /* \"#utility.yul\":2586:2703   */\n    tag_148:\n        /* \"#utility.yul\":2727:2790   */\n      tag_151\n        /* \"#utility.yul\":2782:2789   */\n      dup10\n        /* \"#utility.yul\":2773:2779   */\n      dup3\n        /* \"#utility.yul\":2762:2771   */\n      dup11\n        /* \"#utility.yul\":2758:2780   */\n      add\n        /* \"#utility.yul\":2727:2790   */\n      tag_125\n      jump\t// in\n    tag_151:\n        /* \"#utility.yul\":2717:2790   */\n      swap6\n      pop\n        /* \"#utility.yul\":2512:2800   */\n      pop\n        /* \"#utility.yul\":2867:2869   */\n      0x40\n        /* \"#utility.yul\":2856:2865   */\n      dup8\n        /* \"#utility.yul\":2852:2870   */\n      add\n        /* \"#utility.yul\":2839:2871   */\n      calldataload\n        /* \"#utility.yul\":2898:2916   */\n      0xffffffffffffffff\n        /* \"#utility.yul\":2890:2896   */\n      dup2\n        /* \"#utility.yul\":2887:2917   */\n      gt\n        /* \"#utility.yul\":2884:3001   */\n      iszero\n      tag_152\n      jumpi\n        /* \"#utility.yul\":2920:2999   */\n      tag_153\n      tag_150\n      jump\t// in\n    tag_153:\n        /* \"#utility.yul\":2884:3001   */\n    tag_152:\n        /* \"#utility.yul\":3025:3088   */\n      tag_154\n        /* \"#utility.yul\":3080:3087   */\n      dup10\n        /* \"#utility.yul\":3071:3077   */\n      dup3\n        /* \"#utility.yul\":3060:3069   */\n      dup11\n        /* \"#utility.yul\":3056:3078   */\n      add\n        /* \"#utility.yul\":3025:3088   */\n      tag_125\n      jump\t// in\n    tag_154:\n        /* \"#utility.yul\":3015:3088   */\n      swap5\n      pop\n        /* \"#utility.yul\":2810:3098   */\n      pop\n        /* \"#utility.yul\":3137:3139   */\n      0x60\n        /* \"#utility.yul\":3163:3216   */\n      tag_155\n        /* \"#utility.yul\":3208:3215   */\n      dup10\n        /* \"#utility.yul\":3199:3205   */\n      dup3\n        /* \"#utility.yul\":3188:3197   */\n      dup11\n        /* \"#utility.yul\":3184:3206   */\n      add\n        /* \"#utility.yul\":3163:3216   */\n      tag_131\n      jump\t// in\n    tag_155:\n        /* \"#utility.yul\":3153:3216   */\n      swap4\n      pop\n        /* \"#utility.yul\":3108:3226   */\n      pop\n        /* \"#utility.yul\":3265:3268   */\n      0x80\n        /* \"#utility.yul\":3292:3345   */\n      tag_156\n        /* \"#utility.yul\":3337:3344   */\n      dup10\n        /* \"#utility.yul\":3328:3334   */\n      dup3\n        /* \"#utility.yul\":3317:3326   */\n      dup11\n        /* \"#utility.yul\":3313:3335   */\n      add\n        /* \"#utility.yul\":3292:3345   */\n      tag_131\n      jump\t// in\n    tag_156:\n        /* \"#utility.yul\":3282:3345   */\n      swap3\n      pop\n        /* \"#utility.yul\":3236:3355   */\n      pop\n        /* \"#utility.yul\":3394:3397   */\n      0xa0\n        /* \"#utility.yul\":3421:3471   */\n      tag_157\n        /* \"#utility.yul\":3463:3470   */\n      dup10\n        /* \"#utility.yul\":3454:3460   */\n      dup3\n        /* \"#utility.yul\":3443:3452   */\n      dup11\n        /* \"#utility.yul\":3439:3461   */\n      add\n        /* \"#utility.yul\":3421:3471   */\n      tag_121\n      jump\t// in\n    tag_157:\n        /* \"#utility.yul\":3411:3471   */\n      swap2\n      pop\n        /* \"#utility.yul\":3365:3481   */\n      pop\n        /* \"#utility.yul\":2061:3488   */\n      swap3\n      swap6\n      pop\n      swap3\n      swap6\n      pop\n      swap3\n      swap6\n      jump\t// out\n        /* \"#utility.yul\":3494:3823   */\n    tag_32:\n        /* \"#utility.yul\":3553:3559   */\n      0x00\n        /* \"#utility.yul\":3602:3604   */\n      0x20\n        /* \"#utility.yul\":3590:3599   */\n      dup3\n        /* \"#utility.yul\":3581:3588   */\n      dup5\n        /* \"#utility.yul\":3577:3600   */\n      sub\n        /* \"#utility.yul\":3573:3605   */\n      slt\n        /* \"#utility.yul\":3570:3689   */\n      iszero\n      tag_159\n      jumpi\n        /* \"#utility.yul\":3608:3687   */\n      tag_160\n      tag_138\n      jump\t// in\n    tag_160:\n        /* \"#utility.yul\":3570:3689   */\n    tag_159:\n        /* \"#utility.yul\":3728:3729   */\n      0x00\n        /* \"#utility.yul\":3753:3806   */\n      tag_161\n        /* \"#utility.yul\":3798:3805   */\n      dup5\n        /* \"#utility.yul\":3789:3795   */\n      dup3\n        /* \"#utility.yul\":3778:3787   */\n      dup6\n        /* \"#utility.yul\":3774:3796   */\n      add\n        /* \"#utility.yul\":3753:3806   */\n      tag_131\n      jump\t// in\n    tag_161:\n        /* \"#utility.yul\":3743:3806   */\n      swap2\n      pop\n        /* \"#utility.yul\":3699:3816   */\n      pop\n        /* \"#utility.yul\":3494:3823   */\n      swap3\n      swap2\n      pop\n      pop\n      jump\t// out\n        /* \"#utility.yul\":3829:3971   */\n    tag_162:\n        /* \"#utility.yul\":3932:3964   */\n      tag_164\n        /* \"#utility.yul\":3958:3963   */\n      dup2\n        /* \"#utility.yul\":3932:3964   */\n      tag_165\n      jump\t// in\n    tag_164:\n        /* \"#utility.yul\":3927:3930   */\n      dup3\n        /* \"#utility.yul\":3920:3965   */\n      mstore\n        /* \"#utility.yul\":3829:3971   */\n      pop\n      pop\n      jump\t// out\n        /* \"#utility.yul\":3977:4086   */\n    tag_166:\n        /* \"#utility.yul\":4058:4079   */\n      tag_168\n        /* \"#utility.yul\":4073:4078   */\n      dup2\n        /* \"#utility.yul\":4058:4079   */\n      tag_169\n      jump\t// in\n    tag_168:\n        /* \"#utility.yul\":4053:4056   */\n      dup3\n        /* \"#utility.yul\":4046:4080   */\n      mstore\n        /* \"#utility.yul\":3977:4086   */\n      pop\n      pop\n      jump\t// out\n        /* \"#utility.yul\":4092:4456   */\n    tag_170:\n        /* \"#utility.yul\":4180:4183   */\n      0x00\n        /* \"#utility.yul\":4208:4247   */\n      tag_172\n        /* \"#utility.yul\":4241:4246   */\n      dup3\n        /* \"#utility.yul\":4208:4247   */\n      tag_173\n      jump\t// in\n    tag_172:\n        /* \"#utility.yul\":4263:4334   */\n      tag_174\n        /* \"#utility.yul\":4327:4333   */\n      dup2\n        /* \"#utility.yul\":4322:4325   */\n      dup6\n        /* \"#utility.yul\":4263:4334   */\n      tag_175\n      jump\t// in\n    tag_174:\n        /* \"#utility.yul\":4256:4334   */\n      swap4\n      pop\n        /* \"#utility.yul\":4343:4395   */\n      tag_176\n        /* \"#utility.yul\":4388:4394   */\n      dup2\n        /* \"#utility.yul\":4383:4386   */\n      dup6\n        /* \"#utility.yul\":4376:4380   */\n      0x20\n        /* \"#utility.yul\":4369:4374   */\n      dup7\n        /* \"#utility.yul\":4365:4381   */\n      add\n        /* \"#utility.yul\":4343:4395   */\n      tag_177\n      jump\t// in\n    tag_176:\n        /* \"#utility.yul\":4420:4449   */\n      tag_178\n        /* \"#utility.yul\":4442:4448   */\n      dup2\n        /* \"#utility.yul\":4420:4449   */\n      tag_179\n      jump\t// in\n    tag_178:\n        /* \"#utility.yul\":4415:4418   */\n      dup5\n        /* \"#utility.yul\":4411:4450   */\n      add\n        /* \"#utility.yul\":4404:4450   */\n      swap2\n      pop\n        /* \"#utility.yul\":4184:4456   */\n      pop\n        /* \"#utility.yul\":4092:4456   */\n      swap3\n      swap2\n      pop\n      pop\n      jump\t// out\n        /* \"#utility.yul\":4462:4580   */\n    tag_180:\n        /* \"#utility.yul\":4549:4573   */\n      tag_182\n        /* \"#utility.yul\":4567:4572   */\n      dup2\n        /* \"#utility.yul\":4549:4573   */\n      tag_183\n      jump\t// in\n    tag_182:\n        /* \"#utility.yul\":4544:4547   */\n      dup3\n        /* \"#utility.yul\":4537:4574   */\n      mstore\n        /* \"#utility.yul\":4462:4580   */\n      pop\n      pop\n      jump\t// out\n        /* \"#utility.yul\":4586:5563   */\n    tag_35:\n        /* \"#utility.yul\":4869:4873   */\n      0x00\n        /* \"#utility.yul\":4907:4910   */\n      0xc0\n        /* \"#utility.yul\":4896:4905   */\n      dup3\n        /* \"#utility.yul\":4892:4911   */\n      add\n        /* \"#utility.yul\":4884:4911   */\n      swap1\n      pop\n        /* \"#utility.yul\":4921:5008   */\n      tag_185\n        /* \"#utility.yul\":5005:5006   */\n      0x00\n        /* \"#utility.yul\":4994:5003   */\n      dup4\n        /* \"#utility.yul\":4990:5007   */\n      add\n        /* \"#utility.yul\":4981:4987   */\n      dup10\n        /* \"#utility.yul\":4921:5008   */\n      tag_162\n      jump\t// in\n    tag_185:\n        /* \"#utility.yul\":5055:5064   */\n      dup2\n        /* \"#utility.yul\":5049:5053   */\n      dup2\n        /* \"#utility.yul\":5045:5065   */\n      sub\n        /* \"#utility.yul\":5040:5042   */\n      0x20\n        /* \"#utility.yul\":5029:5038   */\n      dup4\n        /* \"#utility.yul\":5025:5043   */\n      add\n        /* \"#utility.yul\":5018:5066   */\n      mstore\n        /* \"#utility.yul\":5083:5161   */\n      tag_186\n        /* \"#utility.yul\":5156:5160   */\n      dup2\n        /* \"#utility.yul\":5147:5153   */\n      dup9\n        /* \"#utility.yul\":5083:5161   */\n      tag_170\n      jump\t// in\n    tag_186:\n        /* \"#utility.yul\":5075:5161   */\n      swap1\n      pop\n        /* \"#utility.yul\":5208:5217   */\n      dup2\n        /* \"#utility.yul\":5202:5206   */\n      dup2\n        /* \"#utility.yul\":5198:5218   */\n      sub\n        /* \"#utility.yul\":5193:5195   */\n      0x40\n        /* \"#utility.yul\":5182:5191   */\n      dup4\n        /* \"#utility.yul\":5178:5196   */\n      add\n        /* \"#utility.yul\":5171:5219   */\n      mstore\n        /* \"#utility.yul\":5236:5314   */\n      tag_187\n        /* \"#utility.yul\":5309:5313   */\n      dup2\n        /* \"#utility.yul\":5300:5306   */\n      dup8\n        /* \"#utility.yul\":5236:5314   */\n      tag_170\n      jump\t// in\n    tag_187:\n        /* \"#utility.yul\":5228:5314   */\n      swap1\n      pop\n        /* \"#utility.yul\":5324:5396   */\n      tag_188\n        /* \"#utility.yul\":5392:5394   */\n      0x60\n        /* \"#utility.yul\":5381:5390   */\n      dup4\n        /* \"#utility.yul\":5377:5395   */\n      add\n        /* \"#utility.yul\":5368:5374   */\n      dup7\n        /* \"#utility.yul\":5324:5396   */\n      tag_180\n      jump\t// in\n    tag_188:\n        /* \"#utility.yul\":5406:5479   */\n      tag_189\n        /* \"#utility.yul\":5474:5477   */\n      0x80\n        /* \"#utility.yul\":5463:5472   */\n      dup4\n        /* \"#utility.yul\":5459:5478   */\n      add\n        /* \"#utility.yul\":5450:5456   */\n      dup6\n        /* \"#utility.yul\":5406:5479   */\n      tag_180\n      jump\t// in\n    tag_189:\n        /* \"#utility.yul\":5489:5556   */\n      tag_190\n        /* \"#utility.yul\":5551:5554   */\n      0xa0\n        /* \"#utility.yul\":5540:5549   */\n      dup4\n        /* \"#utility.yul\":5536:5555   */\n      add\n        /* \"#utility.yul\":5527:5533   */\n      dup5\n        /* \"#utility.yul\":5489:5556   */\n      tag_166\n      jump\t// in\n    tag_190:\n        /* \"#utility.yul\":4586:5563   */\n      swap8\n      swap7\n      pop\n      pop\n      pop\n      pop\n      pop\n      pop\n      pop\n      jump\t// out\n        /* \"#utility.yul\":5569:5779   */\n    tag_23:\n        /* \"#utility.yul\":5656:5660   */\n      0x00\n        /* \"#utility.yul\":5694:5696   */\n      0x20\n        /* \"#utility.yul\":5683:5692   */\n      dup3\n        /* \"#utility.yul\":5679:5697   */\n      add\n        /* \"#utility.yul\":5671:5697   */\n      swap1\n      pop\n        /* \"#utility.yul\":5707:5772   */\n      tag_192\n        /* \"#utility.yul\":5769:5770   */\n      0x00\n        /* \"#utility.yul\":5758:5767   */\n      dup4\n        /* \"#utility.yul\":5754:5771   */\n      add\n        /* \"#utility.yul\":5745:5751   */\n      dup5\n        /* \"#utility.yul\":5707:5772   */\n      tag_166\n      jump\t// in\n    tag_192:\n        /* \"#utility.yul\":5569:5779   */\n      swap3\n      swap2\n      pop\n      pop\n      jump\t// out\n        /* \"#utility.yul\":5785:6007   */\n    tag_28:\n        /* \"#utility.yul\":5878:5882   */\n      0x00\n        /* \"#utility.yul\":5916:5918   */\n      0x20\n        /* \"#utility.yul\":5905:5914   */\n      dup3\n        /* \"#utility.yul\":5901:5919   */\n      add\n        /* \"#utility.yul\":5893:5919   */\n      swap1\n      pop\n        /* \"#utility.yul\":5929:6000   */\n      tag_194\n        /* \"#utility.yul\":5997:5998   */\n      0x00\n        /* \"#utility.yul\":5986:5995   */\n      dup4\n        /* \"#utility.yul\":5982:5999   */\n      add\n        /* \"#utility.yul\":5973:5979   */\n      dup5\n        /* \"#utility.yul\":5929:6000   */\n      tag_180\n      jump\t// in\n    tag_194:\n        /* \"#utility.yul\":5785:6007   */\n      swap3\n      swap2\n      pop\n      pop\n      jump\t// out\n        /* \"#utility.yul\":6013:6142   */\n    tag_107:\n        /* \"#utility.yul\":6047:6053   */\n      0x00\n        /* \"#utility.yul\":6074:6094   */\n      tag_196\n      tag_197\n      jump\t// in\n    tag_196:\n        /* \"#utility.yul\":6064:6094   */\n      swap1\n      pop\n        /* \"#utility.yul\":6103:6136   */\n      tag_198\n        /* \"#utility.yul\":6131:6135   */\n      dup3\n        /* \"#utility.yul\":6123:6129   */\n      dup3\n        /* \"#utility.yul\":6103:6136   */\n      tag_199\n      jump\t// in\n    tag_198:\n        /* \"#utility.yul\":6013:6142   */\n      swap2\n      swap1\n      pop\n      jump\t// out\n        /* \"#utility.yul\":6148:6223   */\n    tag_197:\n        /* \"#utility.yul\":6181:6187   */\n      0x00\n        /* \"#utility.yul\":6214:6216   */\n      0x40\n        /* \"#utility.yul\":6208:6217   */\n      mload\n        /* \"#utility.yul\":6198:6217   */\n      swap1\n      pop\n        /* \"#utility.yul\":6148:6223   */\n      swap1\n      jump\t// out\n        /* \"#utility.yul\":6229:6537   */\n    tag_106:\n        /* \"#utility.yul\":6291:6295   */\n      0x00\n        /* \"#utility.yul\":6381:6399   */\n      0xffffffffffffffff\n        /* \"#utility.yul\":6373:6379   */\n      dup3\n        /* \"#utility.yul\":6370:6400   */\n      gt\n        /* \"#utility.yul\":6367:6423   */\n      iszero\n      tag_202\n      jumpi\n        /* \"#utility.yul\":6403:6421   */\n      tag_203\n      tag_204\n      jump\t// in\n    tag_203:\n        /* \"#utility.yul\":6367:6423   */\n    tag_202:\n        /* \"#utility.yul\":6441:6470   */\n      tag_205\n        /* \"#utility.yul\":6463:6469   */\n      dup3\n        /* \"#utility.yul\":6441:6470   */\n      tag_179\n      jump\t// in\n    tag_205:\n        /* \"#utility.yul\":6433:6470   */\n      swap1\n      pop\n        /* \"#utility.yul\":6525:6529   */\n      0x20\n        /* \"#utility.yul\":6519:6523   */\n      dup2\n        /* \"#utility.yul\":6515:6530   */\n      add\n        /* \"#utility.yul\":6507:6530   */\n      swap1\n      pop\n        /* \"#utility.yul\":6229:6537   */\n      swap2\n      swap1\n      pop\n      jump\t// out\n        /* \"#utility.yul\":6543:6642   */\n    tag_173:\n        /* \"#utility.yul\":6595:6601   */\n      0x00\n        /* \"#utility.yul\":6629:6634   */\n      dup2\n        /* \"#utility.yul\":6623:6635   */\n      mload\n        /* \"#utility.yul\":6613:6635   */\n      swap1\n      pop\n        /* \"#utility.yul\":6543:6642   */\n      swap2\n      swap1\n      pop\n      jump\t// out\n        /* \"#utility.yul\":6648:6817   */\n    tag_175:\n        /* \"#utility.yul\":6732:6743   */\n      0x00\n        /* \"#utility.yul\":6766:6772   */\n      dup3\n        /* \"#utility.yul\":6761:6764   */\n      dup3\n        /* \"#utility.yul\":6754:6773   */\n      mstore\n        /* \"#utility.yul\":6806:6810   */\n      0x20\n        /* \"#utility.yul\":6801:6804   */\n      dup3\n        /* \"#utility.yul\":6797:6811   */\n      add\n        /* \"#utility.yul\":6782:6811   */\n      swap1\n      pop\n        /* \"#utility.yul\":6648:6817   */\n      swap3\n      swap2\n      pop\n      pop\n      jump\t// out\n        /* \"#utility.yul\":6823:7128   */\n    tag_90:\n        /* \"#utility.yul\":6863:6866   */\n      0x00\n        /* \"#utility.yul\":6882:6902   */\n      tag_209\n        /* \"#utility.yul\":6900:6901   */\n      dup3\n        /* \"#utility.yul\":6882:6902   */\n      tag_183\n      jump\t// in\n    tag_209:\n        /* \"#utility.yul\":6877:6902   */\n      swap2\n      pop\n        /* \"#utility.yul\":6916:6936   */\n      tag_210\n        /* \"#utility.yul\":6934:6935   */\n      dup4\n        /* \"#utility.yul\":6916:6936   */\n      tag_183\n      jump\t// in\n    tag_210:\n        /* \"#utility.yul\":6911:6936   */\n      swap3\n      pop\n        /* \"#utility.yul\":7070:7071   */\n      dup3\n        /* \"#utility.yul\":7002:7068   */\n      0xffffffffffffffffffffffffffffffffffffffffffffffffffffffffffffffff\n        /* \"#utility.yul\":6998:7072   */\n      sub\n        /* \"#utility.yul\":6995:6996   */\n      dup3\n        /* \"#utility.yul\":6992:7073   */\n      gt\n        /* \"#utility.yul\":6989:7096   */\n      iszero\n      tag_211\n      jumpi\n        /* \"#utility.yul\":7076:7094   */\n      tag_212\n      tag_213\n      jump\t// in\n    tag_212:\n        /* \"#utility.yul\":6989:7096   */\n    tag_211:\n        /* \"#utility.yul\":7120:7121   */\n      dup3\n        /* \"#utility.yul\":7117:7118   */\n      dup3\n        /* \"#utility.yul\":7113:7122   */\n      add\n        /* \"#utility.yul\":7106:7122   */\n      swap1\n      pop\n        /* \"#utility.yul\":6823:7128   */\n      swap3\n      swap2\n      pop\n      pop\n      jump\t// out\n        /* \"#utility.yul\":7134:7230   */\n    tag_214:\n        /* \"#utility.yul\":7171:7178   */\n      0x00\n        /* \"#utility.yul\":7200:7224   */\n      tag_216\n        /* \"#utility.yul\":7218:7223   */\n      dup3\n        /* \"#utility.yul\":7200:7224   */\n      tag_217\n      jump\t// in\n    tag_216:\n        /* \"#utility.yul\":7189:7224   */\n      swap1\n      pop\n        /* \"#utility.yul\":7134:7230   */\n      swap2\n      swap1\n      pop\n      jump\t// out\n        /* \"#utility.yul\":7236:7340   */\n    tag_165:\n        /* \"#utility.yul\":7281:7288   */\n      0x00\n        /* \"#utility.yul\":7310:7334   */\n      tag_219\n        /* \"#utility.yul\":7328:7333   */\n      dup3\n        /* \"#utility.yul\":7310:7334   */\n      tag_217\n      jump\t// in\n    tag_219:\n        /* \"#utility.yul\":7299:7334   */\n      swap1\n      pop\n        /* \"#utility.yul\":7236:7340   */\n      swap2\n      swap1\n      pop\n      jump\t// out\n        /* \"#utility.yul\":7346:7436   */\n    tag_169:\n        /* \"#utility.yul\":7380:7387   */\n      0x00\n        /* \"#utility.yul\":7423:7428   */\n      dup2\n        /* \"#utility.yul\":7416:7429   */\n      iszero\n        /* \"#utility.yul\":7409:7430   */\n      iszero\n        /* \"#utility.yul\":7398:7430   */\n      swap1\n      pop\n        /* \"#utility.yul\":7346:7436   */\n      swap2\n      swap1\n      pop\n      jump\t// out\n        /* \"#utility.yul\":7442:7568   */\n    tag_217:\n        /* \"#utility.yul\":7479:7486   */\n      0x00\n        /* \"#utility.yul\":7519:7561   */\n      0xffffffffffffffffffffffffffffffffffffffff\n        /* \"#utility.yul\":7512:7517   */\n      dup3\n        /* \"#utility.yul\":7508:7562   */\n      and\n        /* \"#utility.yul\":7497:7562   */\n      swap1\n      pop\n        /* \"#utility.yul\":7442:7568   */\n      swap2\n      swap1\n      pop\n      jump\t// out\n        /* \"#utility.yul\":7574:7651   */\n    tag_183:\n        /* \"#utility.yul\":7611:7618   */\n      0x00\n        /* \"#utility.yul\":7640:7645   */\n      dup2\n        /* \"#utility.yul\":7629:7645   */\n      swap1\n      pop\n        /* \"#utility.yul\":7574:7651   */\n      swap2\n      swap1\n      pop\n      jump\t// out\n        /* \"#utility.yul\":7657:7811   */\n    tag_112:\n        /* \"#utility.yul\":7741:7747   */\n      dup3\n        /* \"#utility.yul\":7736:7739   */\n      dup2\n        /* \"#utility.yul\":7731:7734   */\n      dup4\n        /* \"#utility.yul\":7718:7748   */\n      calldatacopy\n        /* \"#utility.yul\":7803:7804   */\n      0x00\n        /* \"#utility.yul\":7794:7800   */\n      dup4\n        /* \"#utility.yul\":7789:7792   */\n      dup4\n        /* \"#utility.yul\":7785:7801   */\n      add\n        /* \"#utility.yul\":7778:7805   */\n      mstore\n        /* \"#utility.yul\":7657:7811   */\n      pop\n      pop\n      pop\n      jump\t// out\n        /* \"#utility.yul\":7817:8124   */\n    tag_177:\n        /* \"#utility.yul\":7885:7886   */\n      0x00\n        /* \"#utility.yul\":7895:8008   */\n    tag_225:\n        /* \"#utility.yul\":7909:7915   */\n      dup4\n        /* \"#utility.yul\":7906:7907   */\n      dup2\n        /* \"#utility.yul\":7903:7916   */\n      lt\n        /* \"#utility.yul\":7895:8008   */\n      iszero\n      tag_227\n      jumpi\n        /* \"#utility.yul\":7994:7995   */\n      dup1\n        /* \"#utility.yul\":7989:7992   */\n      dup3\n        /* \"#utility.yul\":7985:7996   */\n      add\n        /* \"#utility.yul\":7979:7997   */\n      mload\n        /* \"#utility.yul\":7975:7976   */\n      dup2\n        /* \"#utility.yul\":7970:7973   */\n      dup5\n        /* \"#utility.yul\":7966:7977   */\n      add\n        /* \"#utility.yul\":7959:7998   */\n      mstore\n        /* \"#utility.yul\":7931:7933   */\n      0x20\n        /* \"#utility.yul\":7928:7929   */\n      dup2\n        /* \"#utility.yul\":7924:7934   */\n      add\n        /* \"#utility.yul\":7919:7934   */\n      swap1\n      pop\n        /* \"#utility.yul\":7895:8008   */\n      jump(tag_225)\n    tag_227:\n        /* \"#utility.yul\":8026:8032   */\n      dup4\n        /* \"#utility.yul\":8023:8024   */\n      dup2\n        /* \"#utility.yul\":8020:8033   */\n      gt\n        /* \"#utility.yul\":8017:8118   */\n      iszero\n      tag_228\n      jumpi\n        /* \"#utility.yul\":8106:8107   */\n      0x00\n        /* \"#utility.yul\":8097:8103   */\n      dup5\n        /* \"#utility.yul\":8092:8095   */\n      dup5\n        /* \"#utility.yul\":8088:8104   */\n      add\n        /* \"#utility.yul\":8081:8108   */\n      mstore\n        /* \"#utility.yul\":8017:8118   */\n    tag_228:\n        /* \"#utility.yul\":7866:8124   */\n      pop\n        /* \"#utility.yul\":7817:8124   */\n      pop\n      pop\n      pop\n      jump\t// out\n        /* \"#utility.yul\":8130:8450   */\n    tag_60:\n        /* \"#utility.yul\":8174:8180   */\n      0x00\n        /* \"#utility.yul\":8211:8212   */\n      0x02\n        /* \"#utility.yul\":8205:8209   */\n      dup3\n        /* \"#utility.yul\":8201:8213   */\n      div\n        /* \"#utility.yul\":8191:8213   */\n      swap1\n      pop\n        /* \"#utility.yul\":8258:8259   */\n      0x01\n        /* \"#utility.yul\":8252:8256   */\n      dup3\n        /* \"#utility.yul\":8248:8260   */\n      and\n        /* \"#utility.yul\":8279:8297   */\n      dup1\n        /* \"#utility.yul\":8269:8350   */\n      tag_230\n      jumpi\n        /* \"#utility.yul\":8335:8339   */\n      0x7f\n        /* \"#utility.yul\":8327:8333   */\n      dup3\n        /* \"#utility.yul\":8323:8340   */\n      and\n        /* \"#utility.yul\":8313:8340   */\n      swap2\n      pop\n        /* \"#utility.yul\":8269:8350   */\n    tag_230:\n        /* \"#utility.yul\":8397:8399   */\n      0x20\n        /* \"#utility.yul\":8389:8395   */\n      dup3\n        /* \"#utility.yul\":8386:8400   */\n      lt\n        /* \"#utility.yul\":8366:8384   */\n      dup2\n        /* \"#utility.yul\":8363:8401   */\n      eq\n        /* \"#utility.yul\":8360:8444   */\n      iszero\n      tag_231\n      jumpi\n        /* \"#utility.yul\":8416:8434   */\n      tag_232\n      tag_233\n      jump\t// in\n    tag_232:\n        /* \"#utility.yul\":8360:8444   */\n    tag_231:\n        /* \"#utility.yul\":8181:8450   */\n      pop\n        /* \"#utility.yul\":8130:8450   */\n      swap2\n      swap1\n      pop\n      jump\t// out\n        /* \"#utility.yul\":8456:8737   */\n    tag_199:\n        /* \"#utility.yul\":8539:8566   */\n      tag_235\n        /* \"#utility.yul\":8561:8565   */\n      dup3\n        /* \"#utility.yul\":8539:8566   */\n      tag_179\n      jump\t// in\n    tag_235:\n        /* \"#utility.yul\":8531:8537   */\n      dup2\n        /* \"#utility.yul\":8527:8567   */\n      add\n        /* \"#utility.yul\":8669:8675   */\n      dup2\n        /* \"#utility.yul\":8657:8667   */\n      dup2\n        /* \"#utility.yul\":8654:8676   */\n      lt\n        /* \"#utility.yul\":8633:8651   */\n      0xffffffffffffffff\n        /* \"#utility.yul\":8621:8631   */\n      dup3\n        /* \"#utility.yul\":8618:8652   */\n      gt\n        /* \"#utility.yul\":8615:8677   */\n      or\n        /* \"#utility.yul\":8612:8700   */\n      iszero\n      tag_236\n      jumpi\n        /* \"#utility.yul\":8680:8698   */\n      tag_237\n      tag_204\n      jump\t// in\n    tag_237:\n        /* \"#utility.yul\":8612:8700   */\n    tag_236:\n        /* \"#utility.yul\":8720:8730   */\n      dup1\n        /* \"#utility.yul\":8716:8718   */\n      0x40\n        /* \"#utility.yul\":8709:8731   */\n      mstore\n        /* \"#utility.yul\":8499:8737   */\n      pop\n        /* \"#utility.yul\":8456:8737   */\n      pop\n      pop\n      jump\t// out\n        /* \"#utility.yul\":8743:8976   */\n    tag_82:\n        /* \"#utility.yul\":8782:8785   */\n      0x00\n        /* \"#utility.yul\":8805:8829   */\n      tag_239\n        /* \"#utility.yul\":8823:8828   */\n      dup3\n        /* \"#utility.yul\":8805:8829   */\n      tag_183\n      jump\t// in\n    tag_239:\n        /* \"#utility.yul\":8796:8829   */\n      swap2\n      pop\n        /* \"#utility.yul\":8851:8917   */\n      0xffffffffffffffffffffffffffffffffffffffffffffffffffffffffffffffff\n        /* \"#utility.yul\":8844:8849   */\n      dup3\n        /* \"#utility.yul\":8841:8918   */\n      eq\n        /* \"#utility.yul\":8838:8941   */\n      iszero\n      tag_240\n      jumpi\n        /* \"#utility.yul\":8921:8939   */\n      tag_241\n      tag_213\n      jump\t// in\n    tag_241:\n        /* \"#utility.yul\":8838:8941   */\n    tag_240:\n        /* \"#utility.yul\":8968:8969   */\n      0x01\n        /* \"#utility.yul\":8961:8966   */\n      dup3\n        /* \"#utility.yul\":8957:8970   */\n      add\n        /* \"#utility.yul\":8950:8970   */\n      swap1\n      pop\n        /* \"#utility.yul\":8743:8976   */\n      swap2\n      swap1\n      pop\n      jump\t// out\n        /* \"#utility.yul\":8982:9162   */\n    tag_213:\n        /* \"#utility.yul\":9030:9107   */\n      0x4e487b7100000000000000000000000000000000000000000000000000000000\n        /* \"#utility.yul\":9027:9028   */\n      0x00\n        /* \"#utility.yul\":9020:9108   */\n      mstore\n        /* \"#utility.yul\":9127:9131   */\n      0x11\n        /* \"#utility.yul\":9124:9125   */\n      0x04\n        /* \"#utility.yul\":9117:9132   */\n      mstore\n        /* \"#utility.yul\":9151:9155   */\n      0x24\n        /* \"#utility.yul\":9148:9149   */\n      0x00\n        /* \"#utility.yul\":9141:9156   */\n      revert\n        /* \"#utility.yul\":9168:9348   */\n    tag_233:\n        /* \"#utility.yul\":9216:9293   */\n      0x4e487b7100000000000000000000000000000000000000000000000000000000\n        /* \"#utility.yul\":9213:9214   */\n      0x00\n        /* \"#utility.yul\":9206:9294   */\n      mstore\n        /* \"#utility.yul\":9313:9317   */\n      0x22\n        /* \"#utility.yul\":9310:9311   */\n      0x04\n        /* \"#utility.yul\":9303:9318   */\n      mstore\n        /* \"#utility.yul\":9337:9341   */\n      0x24\n        /* \"#utility.yul\":9334:9335   */\n      0x00\n        /* \"#utility.yul\":9327:9342   */\n      revert\n        /* \"#utility.yul\":9354:9534   */\n    tag_50:\n        /* \"#utility.yul\":9402:9479   */\n      0x4e487b7100000000000000000000000000000000000000000000000000000000\n        /* \"#utility.yul\":9399:9400   */\n      0x00\n        /* \"#utility.yul\":9392:9480   */\n      mstore\n        /* \"#utility.yul\":9499:9503   */\n      0x32\n        /* \"#utility.yul\":9496:9497   */\n      0x04\n        /* \"#utility.yul\":9489:9504   */\n      mstore\n        /* \"#utility.yul\":9523:9527   */\n      0x24\n        /* \"#utility.yul\":9520:9521   */\n      0x00\n        /* \"#utility.yul\":9513:9528   */\n      revert\n        /* \"#utility.yul\":9540:9720   */\n    tag_204:\n        /* \"#utility.yul\":9588:9665   */\n      0x4e487b7100000000000000000000000000000000000000000000000000000000\n        /* \"#utility.yul\":9585:9586   */\n      0x00\n        /* \"#utility.yul\":9578:9666   */\n      mstore\n        /* \"#utility.yul\":9685:9689   */\n      0x41\n        /* \"#utility.yul\":9682:9683   */\n      0x04\n        /* \"#utility.yul\":9675:9690   */\n      mstore\n        /* \"#utility.yul\":9709:9713   */\n      0x24\n        /* \"#utility.yul\":9706:9707   */\n      0x00\n        /* \"#utility.yul\":9699:9714   */\n      revert\n        /* \"#utility.yul\":9726:9843   */\n    tag_129:\n        /* \"#utility.yul\":9835:9836   */\n      0x00\n        /* \"#utility.yul\":9832:9833   */\n      dup1\n        /* \"#utility.yul\":9825:9837   */\n      revert\n        /* \"#utility.yul\":9849:9966   */\n    tag_110:\n        /* \"#utility.yul\":9958:9959   */\n      0x00\n        /* \"#utility.yul\":9955:9956   */\n      dup1\n        /* \"#utility.yul\":9948:9960   */\n      revert\n        /* \"#utility.yul\":9972:10089   */\n    tag_150:\n        /* \"#utility.yul\":10081:10082   */\n      0x00\n        /* \"#utility.yul\":10078:10079   */\n      dup1\n        /* \"#utility.yul\":10071:10083   */\n      revert\n        /* \"#utility.yul\":10095:10212   */\n    tag_138:\n        /* \"#utility.yul\":10204:10205   */\n      0x00\n        /* \"#utility.yul\":10201:10202   */\n      dup1\n        /* \"#utility.yul\":10194:10206   */\n      revert\n        /* \"#utility.yul\":10218:10320   */\n    tag_179:\n        /* \"#utility.yul\":10259:10265   */\n      0x00\n        /* \"#utility.yul\":10310:10312   */\n      0x1f\n        /* \"#utility.yul\":10306:10313   */\n      not\n        /* \"#utility.yul\":10301:10303   */\n      0x1f\n        /* \"#utility.yul\":10294:10299   */\n      dup4\n        /* \"#utility.yul\":10290:10304   */\n      add\n        /* \"#utility.yul\":10286:10314   */\n      and\n        /* \"#utility.yul\":10276:10314   */\n      swap1\n      pop\n        /* \"#utility.yul\":10218:10320   */\n      swap2\n      swap1\n      pop\n      jump\t// out\n        /* \"#utility.yul\":10326:10448   */\n    tag_116:\n        /* \"#utility.yul\":10399:10423   */\n      tag_252\n        /* \"#utility.yul\":10417:10422   */\n      dup2\n        /* \"#utility.yul\":10399:10423   */\n      tag_214\n      jump\t// in\n    tag_252:\n        /* \"#utility.yul\":10392:10397   */\n      dup2\n        /* \"#utility.yul\":10389:10424   */\n      eq\n        /* \"#utility.yul\":10379:10442   */\n      tag_253\n      jumpi\n        /* \"#utility.yul\":10438:10439   */\n      0x00\n        /* \"#utility.yul\":10435:10436   */\n      dup1\n        /* \"#utility.yul\":10428:10440   */\n      revert\n        /* \"#utility.yul\":10379:10442   */\n    tag_253:\n        /* \"#utility.yul\":10326:10448   */\n      pop\n      jump\t// out\n        /* \"#utility.yul\":10454:10592   */\n    tag_120:\n        /* \"#utility.yul\":10535:10567   */\n      tag_255\n        /* \"#utility.yul\":10561:10566   */\n      dup2\n        /* \"#utility.yul\":10535:10567   */\n      tag_165\n      jump\t// in\n    tag_255:\n        /* \"#utility.yul\":10528:10533   */\n      dup2\n        /* \"#utility.yul\":10525:10568   */\n      eq\n        /* \"#utility.yul\":10515:10586   */\n      tag_256\n      jumpi\n        /* \"#utility.yul\":10582:10583   */\n      0x00\n        /* \"#utility.yul\":10579:10580   */\n      dup1\n        /* \"#utility.yul\":10572:10584   */\n      revert\n        /* \"#utility.yul\":10515:10586   */\n    tag_256:\n        /* \"#utility.yul\":10454:10592   */\n      pop\n      jump\t// out\n        /* \"#utility.yul\":10598:10714   */\n    tag_124:\n        /* \"#utility.yul\":10668:10689   */\n      tag_258\n        /* \"#utility.yul\":10683:10688   */\n      dup2\n        /* \"#utility.yul\":10668:10689   */\n      tag_169\n      jump\t// in\n    tag_258:\n        /* \"#utility.yul\":10661:10666   */\n      dup2\n        /* \"#utility.yul\":10658:10690   */\n      eq\n        /* \"#utility.yul\":10648:10708   */\n      tag_259\n      jumpi\n        /* \"#utility.yul\":10704:10705   */\n      0x00\n        /* \"#utility.yul\":10701:10702   */\n      dup1\n        /* \"#utility.yul\":10694:10706   */\n      revert\n        /* \"#utility.yul\":10648:10708   */\n    tag_259:\n        /* \"#utility.yul\":10598:10714   */\n      pop\n      jump\t// out\n        /* \"#utility.yul\":10720:10842   */\n    tag_134:\n        /* \"#utility.yul\":10793:10817   */\n      tag_261\n        /* \"#utility.yul\":10811:10816   */\n      dup2\n        /* \"#utility.yul\":10793:10817   */\n      tag_183\n      jump\t// in\n    tag_261:\n        /* \"#utility.yul\":10786:10791   */\n      dup2\n        /* \"#utility.yul\":10783:10818   */\n      eq\n        /* \"#utility.yul\":10773:10836   */\n      tag_262\n      jumpi\n        /* \"#utility.yul\":10832:10833   */\n      0x00\n        /* \"#utility.yul\":10829:10830   */\n      dup1\n        /* \"#utility.yul\":10822:10834   */\n      revert\n        /* \"#utility.yul\":10773:10836   */\n    tag_262:\n        /* \"#utility.yul\":10720:10842   */\n      pop\n      jump\t// out\n\n    auxdata: 0xa264697066735822122066a9bb5bd9ea392ed8247017f263db57305ef107f11fac39a2f8711d6badd12464736f6c63430008070033\n}\n",
				"bytecode": {
					"linkReferences": {},
					"object": "608060405234801561001057600080fd5b50336000806101000a81548173ffffffffffffffffffffffffffffffffffffffff021916908373ffffffffffffffffffffffffffffffffffffffff160217905550610d16806100606000396000f3fe6080604052600436106100555760003560e01c806331d575c51461005a57806351cff8d9146100835780636640c9221461009f578063722713f7146100dc5780637285fd3a14610107578063f340fa0114610149575b600080fd5b34801561006657600080fd5b50610081600480360381019061007c9190610796565b610165565b005b61009d60048036038101906100989190610769565b610294565b005b3480156100ab57600080fd5b506100c660048036038101906100c1919061073c565b610297565b6040516100d3919061095d565b60405180910390f35b3480156100e857600080fd5b506100f1610324565b6040516100fe9190610978565b60405180910390f35b34801561011357600080fd5b5061012e6004803603810190610129919061085b565b61032c565b604051610140969594939291906108ee565b60405180910390f35b610163600480360381019061015e919061073c565b6104b5565b005b60016040518060c001604052808873ffffffffffffffffffffffffffffffffffffffff168152602001878152602001868152602001858152602001848152602001831515815250908060018154018082558091505060019003906000526020600020906006020160009091909190915060008201518160000160006101000a81548173ffffffffffffffffffffffffffffffffffffffff021916908373ffffffffffffffffffffffffffffffffffffffff16021790555060208201518160010190805190602001906102389291906105d5565b5060408201518160020190805190602001906102559291906105d5565b50606082015181600301556080820151816004015560a08201518160050160006101000a81548160ff0219169083151502179055505050505050505050565b50565b6000806102a3836104c1565b9050600181815481106102b9576102b8610c01565b5b9060005260206000209060060201600301544211156103195760018082815481106102e7576102e6610c01565b5b906000526020600020906006020160050160006101000a81548160ff021916908315150217905550600191505061031f565b60009150505b919050565b600047905090565b6001818154811061033c57600080fd5b90600052602060002090600602016000915090508060000160009054906101000a900473ffffffffffffffffffffffffffffffffffffffff169080600101805461038590610af7565b80601f01602080910402602001604051908101604052809291908181526020018280546103b190610af7565b80156103fe5780601f106103d3576101008083540402835291602001916103fe565b820191906000526020600020905b8154815290600101906020018083116103e157829003601f168201915b50505050509080600201805461041390610af7565b80601f016020809104026020016040519081016040528092919081815260200182805461043f90610af7565b801561048c5780601f106104615761010080835404028352916020019161048c565b820191906000526020600020905b81548152906001019060200180831161046f57829003601f168201915b5050505050908060030154908060040154908060050160009054906101000a900460ff16905086565b6104be8161057a565b50565b600080600090505b60018054905081101561056b578273ffffffffffffffffffffffffffffffffffffffff166001828154811061050157610500610c01565b5b906000526020600020906006020160000160009054906101000a900473ffffffffffffffffffffffffffffffffffffffff1673ffffffffffffffffffffffffffffffffffffffff1614156105585780915050610575565b808061056390610b5a565b9150506104c9565b5060018054905090505b919050565b6000610585826104c1565b90506001805490508110156105d15734600182815481106105a9576105a8610c01565b5b906000526020600020906006020160040160008282546105c99190610a05565b925050819055505b5050565b8280546105e190610af7565b90600052602060002090601f016020900481019282610603576000855561064a565b82601f1061061c57805160ff191683800117855561064a565b8280016001018555821561064a579182015b8281111561064957825182559160200191906001019061062e565b5b509050610657919061065b565b5090565b5b8082111561067457600081600090555060010161065c565b5090565b600061068b610686846109b8565b610993565b9050828152602081018484840111156106a7576106a6610c64565b5b6106b2848285610ab5565b509392505050565b6000813590506106c981610c84565b92915050565b6000813590506106de81610c9b565b92915050565b6000813590506106f381610cb2565b92915050565b600082601f83011261070e5761070d610c5f565b5b813561071e848260208601610678565b91505092915050565b60008135905061073681610cc9565b92915050565b60006020828403121561075257610751610c6e565b5b6000610760848285016106ba565b91505092915050565b60006020828403121561077f5761077e610c6e565b5b600061078d848285016106cf565b91505092915050565b60008060008060008060c087890312156107b3576107b2610c6e565b5b60006107c189828a016106cf565b965050602087013567ffffffffffffffff8111156107e2576107e1610c69565b5b6107ee89828a016106f9565b955050604087013567ffffffffffffffff81111561080f5761080e610c69565b5b61081b89828a016106f9565b945050606061082c89828a01610727565b935050608061083d89828a01610727565b92505060a061084e89828a016106e4565b9150509295509295509295565b60006020828403121561087157610870610c6e565b5b600061087f84828501610727565b91505092915050565b61089181610a6d565b82525050565b6108a081610a7f565b82525050565b60006108b1826109e9565b6108bb81856109f4565b93506108cb818560208601610ac4565b6108d481610c73565b840191505092915050565b6108e881610aab565b82525050565b600060c0820190506109036000830189610888565b818103602083015261091581886108a6565b9050818103604083015261092981876108a6565b905061093860608301866108df565b61094560808301856108df565b61095260a0830184610897565b979650505050505050565b60006020820190506109726000830184610897565b92915050565b600060208201905061098d60008301846108df565b92915050565b600061099d6109ae565b90506109a98282610b29565b919050565b6000604051905090565b600067ffffffffffffffff8211156109d3576109d2610c30565b5b6109dc82610c73565b9050602081019050919050565b600081519050919050565b600082825260208201905092915050565b6000610a1082610aab565b9150610a1b83610aab565b9250827fffffffffffffffffffffffffffffffffffffffffffffffffffffffffffffffff03821115610a5057610a4f610ba3565b5b828201905092915050565b6000610a6682610a8b565b9050919050565b6000610a7882610a8b565b9050919050565b60008115159050919050565b600073ffffffffffffffffffffffffffffffffffffffff82169050919050565b6000819050919050565b82818337600083830152505050565b60005b83811015610ae2578082015181840152602081019050610ac7565b83811115610af1576000848401525b50505050565b60006002820490506001821680610b0f57607f821691505b60208210811415610b2357610b22610bd2565b5b50919050565b610b3282610c73565b810181811067ffffffffffffffff82111715610b5157610b50610c30565b5b80604052505050565b6000610b6582610aab565b91507fffffffffffffffffffffffffffffffffffffffffffffffffffffffffffffffff821415610b9857610b97610ba3565b5b600182019050919050565b7f4e487b7100000000000000000000000000000000000000000000000000000000600052601160045260246000fd5b7f4e487b7100000000000000000000000000000000000000000000000000000000600052602260045260246000fd5b7f4e487b7100000000000000000000000000000000000000000000000000000000600052603260045260246000fd5b7f4e487b7100000000000000000000000000000000000000000000000000000000600052604160045260246000fd5b600080fd5b600080fd5b600080fd5b600080fd5b6000601f19601f8301169050919050565b610c8d81610a5b565b8114610c9857600080fd5b50565b610ca481610a6d565b8114610caf57600080fd5b50565b610cbb81610a7f565b8114610cc657600080fd5b50565b610cd281610aab565b8114610cdd57600080fd5b5056fea264697066735822122066a9bb5bd9ea392ed8247017f263db57305ef107f11fac39a2f8711d6badd12464736f6c63430008070033",
					"opcodes": "PUSH1 0x80 PUSH1 0x40 MSTORE CALLVALUE DUP1 ISZERO PUSH2 0x10 JUMPI PUSH1 0x0 DUP1 REVERT JUMPDEST POP CALLER PUSH1 0x0 DUP1 PUSH2 0x100 EXP DUP2 SLOAD DUP2 PUSH20 0xFFFFFFFFFFFFFFFFFFFFFFFFFFFFFFFFFFFFFFFF MUL NOT AND SWAP1 DUP4 PUSH20 0xFFFFFFFFFFFFFFFFFFFFFFFFFFFFFFFFFFFFFFFF AND MUL OR SWAP1 SSTORE POP PUSH2 0xD16 DUP1 PUSH2 0x60 PUSH1 0x0 CODECOPY PUSH1 0x0 RETURN INVALID PUSH1 0x80 PUSH1 0x40 MSTORE PUSH1 0x4 CALLDATASIZE LT PUSH2 0x55 JUMPI PUSH1 0x0 CALLDATALOAD PUSH1 0xE0 SHR DUP1 PUSH4 0x31D575C5 EQ PUSH2 0x5A JUMPI DUP1 PUSH4 0x51CFF8D9 EQ PUSH2 0x83 JUMPI DUP1 PUSH4 0x6640C922 EQ PUSH2 0x9F JUMPI DUP1 PUSH4 0x722713F7 EQ PUSH2 0xDC JUMPI DUP1 PUSH4 0x7285FD3A EQ PUSH2 0x107 JUMPI DUP1 PUSH4 0xF340FA01 EQ PUSH2 0x149 JUMPI JUMPDEST PUSH1 0x0 DUP1 REVERT JUMPDEST CALLVALUE DUP1 ISZERO PUSH2 0x66 JUMPI PUSH1 0x0 DUP1 REVERT JUMPDEST POP PUSH2 0x81 PUSH1 0x4 DUP1 CALLDATASIZE SUB DUP2 ADD SWAP1 PUSH2 0x7C SWAP2 SWAP1 PUSH2 0x796 JUMP JUMPDEST PUSH2 0x165 JUMP JUMPDEST STOP JUMPDEST PUSH2 0x9D PUSH1 0x4 DUP1 CALLDATASIZE SUB DUP2 ADD SWAP1 PUSH2 0x98 SWAP2 SWAP1 PUSH2 0x769 JUMP JUMPDEST PUSH2 0x294 JUMP JUMPDEST STOP JUMPDEST CALLVALUE DUP1 ISZERO PUSH2 0xAB JUMPI PUSH1 0x0 DUP1 REVERT JUMPDEST POP PUSH2 0xC6 PUSH1 0x4 DUP1 CALLDATASIZE SUB DUP2 ADD SWAP1 PUSH2 0xC1 SWAP2 SWAP1 PUSH2 0x73C JUMP JUMPDEST PUSH2 0x297 JUMP JUMPDEST PUSH1 0x40 MLOAD PUSH2 0xD3 SWAP2 SWAP1 PUSH2 0x95D JUMP JUMPDEST PUSH1 0x40 MLOAD DUP1 SWAP2 SUB SWAP1 RETURN JUMPDEST CALLVALUE DUP1 ISZERO PUSH2 0xE8 JUMPI PUSH1 0x0 DUP1 REVERT JUMPDEST POP PUSH2 0xF1 PUSH2 0x324 JUMP JUMPDEST PUSH1 0x40 MLOAD PUSH2 0xFE SWAP2 SWAP1 PUSH2 0x978 JUMP JUMPDEST PUSH1 0x40 MLOAD DUP1 SWAP2 SUB SWAP1 RETURN JUMPDEST CALLVALUE DUP1 ISZERO PUSH2 0x113 JUMPI PUSH1 0x0 DUP1 REVERT JUMPDEST POP PUSH2 0x12E PUSH1 0x4 DUP1 CALLDATASIZE SUB DUP2 ADD SWAP1 PUSH2 0x129 SWAP2 SWAP1 PUSH2 0x85B JUMP JUMPDEST PUSH2 0x32C JUMP JUMPDEST PUSH1 0x40 MLOAD PUSH2 0x140 SWAP7 SWAP6 SWAP5 SWAP4 SWAP3 SWAP2 SWAP1 PUSH2 0x8EE JUMP JUMPDEST PUSH1 0x40 MLOAD DUP1 SWAP2 SUB SWAP1 RETURN JUMPDEST PUSH2 0x163 PUSH1 0x4 DUP1 CALLDATASIZE SUB DUP2 ADD SWAP1 PUSH2 0x15E SWAP2 SWAP1 PUSH2 0x73C JUMP JUMPDEST PUSH2 0x4B5 JUMP JUMPDEST STOP JUMPDEST PUSH1 0x1 PUSH1 0x40 MLOAD DUP1 PUSH1 0xC0 ADD PUSH1 0x40 MSTORE DUP1 DUP9 PUSH20 0xFFFFFFFFFFFFFFFFFFFFFFFFFFFFFFFFFFFFFFFF AND DUP2 MSTORE PUSH1 0x20 ADD DUP8 DUP2 MSTORE PUSH1 0x20 ADD DUP7 DUP2 MSTORE PUSH1 0x20 ADD DUP6 DUP2 MSTORE PUSH1 0x20 ADD DUP5 DUP2 MSTORE PUSH1 0x20 ADD DUP4 ISZERO ISZERO DUP2 MSTORE POP SWAP1 DUP1 PUSH1 0x1 DUP2 SLOAD ADD DUP1 DUP3 SSTORE DUP1 SWAP2 POP POP PUSH1 0x1 SWAP1 SUB SWAP1 PUSH1 0x0 MSTORE PUSH1 0x20 PUSH1 0x0 KECCAK256 SWAP1 PUSH1 0x6 MUL ADD PUSH1 0x0 SWAP1 SWAP2 SWAP1 SWAP2 SWAP1 SWAP2 POP PUSH1 0x0 DUP3 ADD MLOAD DUP2 PUSH1 0x0 ADD PUSH1 0x0 PUSH2 0x100 EXP DUP2 SLOAD DUP2 PUSH20 0xFFFFFFFFFFFFFFFFFFFFFFFFFFFFFFFFFFFFFFFF MUL NOT AND SWAP1 DUP4 PUSH20 0xFFFFFFFFFFFFFFFFFFFFFFFFFFFFFFFFFFFFFFFF AND MUL OR SWAP1 SSTORE POP PUSH1 0x20 DUP3 ADD MLOAD DUP2 PUSH1 0x1 ADD SWAP1 DUP1 MLOAD SWAP1 PUSH1 0x20 ADD SWAP1 PUSH2 0x238 SWAP3 SWAP2 SWAP1 PUSH2 0x5D5 JUMP JUMPDEST POP PUSH1 0x40 DUP3 ADD MLOAD DUP2 PUSH1 0x2 ADD SWAP1 DUP1 MLOAD SWAP1 PUSH1 0x20 ADD SWAP1 PUSH2 0x255 SWAP3 SWAP2 SWAP1 PUSH2 0x5D5 JUMP JUMPDEST POP PUSH1 0x60 DUP3 ADD MLOAD DUP2 PUSH1 0x3 ADD SSTORE PUSH1 0x80 DUP3 ADD MLOAD DUP2 PUSH1 0x4 ADD SSTORE PUSH1 0xA0 DUP3 ADD MLOAD DUP2 PUSH1 0x5 ADD PUSH1 0x0 PUSH2 0x100 EXP DUP2 SLOAD DUP2 PUSH1 0xFF MUL NOT AND SWAP1 DUP4 ISZERO ISZERO MUL OR SWAP1 SSTORE POP POP POP POP POP POP POP POP POP JUMP JUMPDEST POP JUMP JUMPDEST PUSH1 0x0 DUP1 PUSH2 0x2A3 DUP4 PUSH2 0x4C1 JUMP JUMPDEST SWAP1 POP PUSH1 0x1 DUP2 DUP2 SLOAD DUP2 LT PUSH2 0x2B9 JUMPI PUSH2 0x2B8 PUSH2 0xC01 JUMP JUMPDEST JUMPDEST SWAP1 PUSH1 0x0 MSTORE PUSH1 0x20 PUSH1 0x0 KECCAK256 SWAP1 PUSH1 0x6 MUL ADD PUSH1 0x3 ADD SLOAD TIMESTAMP GT ISZERO PUSH2 0x319 JUMPI PUSH1 0x1 DUP1 DUP3 DUP2 SLOAD DUP2 LT PUSH2 0x2E7 JUMPI PUSH2 0x2E6 PUSH2 0xC01 JUMP JUMPDEST JUMPDEST SWAP1 PUSH1 0x0 MSTORE PUSH1 0x20 PUSH1 0x0 KECCAK256 SWAP1 PUSH1 0x6 MUL ADD PUSH1 0x5 ADD PUSH1 0x0 PUSH2 0x100 EXP DUP2 SLOAD DUP2 PUSH1 0xFF MUL NOT AND SWAP1 DUP4 ISZERO ISZERO MUL OR SWAP1 SSTORE POP PUSH1 0x1 SWAP2 POP POP PUSH2 0x31F JUMP JUMPDEST PUSH1 0x0 SWAP2 POP POP JUMPDEST SWAP2 SWAP1 POP JUMP JUMPDEST PUSH1 0x0 SELFBALANCE SWAP1 POP SWAP1 JUMP JUMPDEST PUSH1 0x1 DUP2 DUP2 SLOAD DUP2 LT PUSH2 0x33C JUMPI PUSH1 0x0 DUP1 REVERT JUMPDEST SWAP1 PUSH1 0x0 MSTORE PUSH1 0x20 PUSH1 0x0 KECCAK256 SWAP1 PUSH1 0x6 MUL ADD PUSH1 0x0 SWAP2 POP SWAP1 POP DUP1 PUSH1 0x0 ADD PUSH1 0x0 SWAP1 SLOAD SWAP1 PUSH2 0x100 EXP SWAP1 DIV PUSH20 0xFFFFFFFFFFFFFFFFFFFFFFFFFFFFFFFFFFFFFFFF AND SWAP1 DUP1 PUSH1 0x1 ADD DUP1 SLOAD PUSH2 0x385 SWAP1 PUSH2 0xAF7 JUMP JUMPDEST DUP1 PUSH1 0x1F ADD PUSH1 0x20 DUP1 SWAP2 DIV MUL PUSH1 0x20 ADD PUSH1 0x40 MLOAD SWAP1 DUP2 ADD PUSH1 0x40 MSTORE DUP1 SWAP3 SWAP2 SWAP1 DUP2 DUP2 MSTORE PUSH1 0x20 ADD DUP3 DUP1 SLOAD PUSH2 0x3B1 SWAP1 PUSH2 0xAF7 JUMP JUMPDEST DUP1 ISZERO PUSH2 0x3FE JUMPI DUP1 PUSH1 0x1F LT PUSH2 0x3D3 JUMPI PUSH2 0x100 DUP1 DUP4 SLOAD DIV MUL DUP4 MSTORE SWAP2 PUSH1 0x20 ADD SWAP2 PUSH2 0x3FE JUMP JUMPDEST DUP3 ADD SWAP2 SWAP1 PUSH1 0x0 MSTORE PUSH1 0x20 PUSH1 0x0 KECCAK256 SWAP1 JUMPDEST DUP2 SLOAD DUP2 MSTORE SWAP1 PUSH1 0x1 ADD SWAP1 PUSH1 0x20 ADD DUP1 DUP4 GT PUSH2 0x3E1 JUMPI DUP3 SWAP1 SUB PUSH1 0x1F AND DUP3 ADD SWAP2 JUMPDEST POP POP POP POP POP SWAP1 DUP1 PUSH1 0x2 ADD DUP1 SLOAD PUSH2 0x413 SWAP1 PUSH2 0xAF7 JUMP JUMPDEST DUP1 PUSH1 0x1F ADD PUSH1 0x20 DUP1 SWAP2 DIV MUL PUSH1 0x20 ADD PUSH1 0x40 MLOAD SWAP1 DUP2 ADD PUSH1 0x40 MSTORE DUP1 SWAP3 SWAP2 SWAP1 DUP2 DUP2 MSTORE PUSH1 0x20 ADD DUP3 DUP1 SLOAD PUSH2 0x43F SWAP1 PUSH2 0xAF7 JUMP JUMPDEST DUP1 ISZERO PUSH2 0x48C JUMPI DUP1 PUSH1 0x1F LT PUSH2 0x461 JUMPI PUSH2 0x100 DUP1 DUP4 SLOAD DIV MUL DUP4 MSTORE SWAP2 PUSH1 0x20 ADD SWAP2 PUSH2 0x48C JUMP JUMPDEST DUP3 ADD SWAP2 SWAP1 PUSH1 0x0 MSTORE PUSH1 0x20 PUSH1 0x0 KECCAK256 SWAP1 JUMPDEST DUP2 SLOAD DUP2 MSTORE SWAP1 PUSH1 0x1 ADD SWAP1 PUSH1 0x20 ADD DUP1 DUP4 GT PUSH2 0x46F JUMPI DUP3 SWAP1 SUB PUSH1 0x1F AND DUP3 ADD SWAP2 JUMPDEST POP POP POP POP POP SWAP1 DUP1 PUSH1 0x3 ADD SLOAD SWAP1 DUP1 PUSH1 0x4 ADD SLOAD SWAP1 DUP1 PUSH1 0x5 ADD PUSH1 0x0 SWAP1 SLOAD SWAP1 PUSH2 0x100 EXP SWAP1 DIV PUSH1 0xFF AND SWAP1 POP DUP7 JUMP JUMPDEST PUSH2 0x4BE DUP2 PUSH2 0x57A JUMP JUMPDEST POP JUMP JUMPDEST PUSH1 0x0 DUP1 PUSH1 0x0 SWAP1 POP JUMPDEST PUSH1 0x1 DUP1 SLOAD SWAP1 POP DUP2 LT ISZERO PUSH2 0x56B JUMPI DUP3 PUSH20 0xFFFFFFFFFFFFFFFFFFFFFFFFFFFFFFFFFFFFFFFF AND PUSH1 0x1 DUP3 DUP2 SLOAD DUP2 LT PUSH2 0x501 JUMPI PUSH2 0x500 PUSH2 0xC01 JUMP JUMPDEST JUMPDEST SWAP1 PUSH1 0x0 MSTORE PUSH1 0x20 PUSH1 0x0 KECCAK256 SWAP1 PUSH1 0x6 MUL ADD PUSH1 0x0 ADD PUSH1 0x0 SWAP1 SLOAD SWAP1 PUSH2 0x100 EXP SWAP1 DIV PUSH20 0xFFFFFFFFFFFFFFFFFFFFFFFFFFFFFFFFFFFFFFFF AND PUSH20 0xFFFFFFFFFFFFFFFFFFFFFFFFFFFFFFFFFFFFFFFF AND EQ ISZERO PUSH2 0x558 JUMPI DUP1 SWAP2 POP POP PUSH2 0x575 JUMP JUMPDEST DUP1 DUP1 PUSH2 0x563 SWAP1 PUSH2 0xB5A JUMP JUMPDEST SWAP2 POP POP PUSH2 0x4C9 JUMP JUMPDEST POP PUSH1 0x1 DUP1 SLOAD SWAP1 POP SWAP1 POP JUMPDEST SWAP2 SWAP1 POP JUMP JUMPDEST PUSH1 0x0 PUSH2 0x585 DUP3 PUSH2 0x4C1 JUMP JUMPDEST SWAP1 POP PUSH1 0x1 DUP1 SLOAD SWAP1 POP DUP2 LT ISZERO PUSH2 0x5D1 JUMPI CALLVALUE PUSH1 0x1 DUP3 DUP2 SLOAD DUP2 LT PUSH2 0x5A9 JUMPI PUSH2 0x5A8 PUSH2 0xC01 JUMP JUMPDEST JUMPDEST SWAP1 PUSH1 0x0 MSTORE PUSH1 0x20 PUSH1 0x0 KECCAK256 SWAP1 PUSH1 0x6 MUL ADD PUSH1 0x4 ADD PUSH1 0x0 DUP3 DUP3 SLOAD PUSH2 0x5C9 SWAP2 SWAP1 PUSH2 0xA05 JUMP JUMPDEST SWAP3 POP POP DUP2 SWAP1 SSTORE POP JUMPDEST POP POP JUMP JUMPDEST DUP3 DUP1 SLOAD PUSH2 0x5E1 SWAP1 PUSH2 0xAF7 JUMP JUMPDEST SWAP1 PUSH1 0x0 MSTORE PUSH1 0x20 PUSH1 0x0 KECCAK256 SWAP1 PUSH1 0x1F ADD PUSH1 0x20 SWAP1 DIV DUP2 ADD SWAP3 DUP3 PUSH2 0x603 JUMPI PUSH1 0x0 DUP6 SSTORE PUSH2 0x64A JUMP JUMPDEST DUP3 PUSH1 0x1F LT PUSH2 0x61C JUMPI DUP1 MLOAD PUSH1 0xFF NOT AND DUP4 DUP1 ADD OR DUP6 SSTORE PUSH2 0x64A JUMP JUMPDEST DUP3 DUP1 ADD PUSH1 0x1 ADD DUP6 SSTORE DUP3 ISZERO PUSH2 0x64A JUMPI SWAP2 DUP3 ADD JUMPDEST DUP3 DUP2 GT ISZERO PUSH2 0x649 JUMPI DUP3 MLOAD DUP3 SSTORE SWAP2 PUSH1 0x20 ADD SWAP2 SWAP1 PUSH1 0x1 ADD SWAP1 PUSH2 0x62E JUMP JUMPDEST JUMPDEST POP SWAP1 POP PUSH2 0x657 SWAP2 SWAP1 PUSH2 0x65B JUMP JUMPDEST POP SWAP1 JUMP JUMPDEST JUMPDEST DUP1 DUP3 GT ISZERO PUSH2 0x674 JUMPI PUSH1 0x0 DUP2 PUSH1 0x0 SWAP1 SSTORE POP PUSH1 0x1 ADD PUSH2 0x65C JUMP JUMPDEST POP SWAP1 JUMP JUMPDEST PUSH1 0x0 PUSH2 0x68B PUSH2 0x686 DUP5 PUSH2 0x9B8 JUMP JUMPDEST PUSH2 0x993 JUMP JUMPDEST SWAP1 POP DUP3 DUP2 MSTORE PUSH1 0x20 DUP2 ADD DUP5 DUP5 DUP5 ADD GT ISZERO PUSH2 0x6A7 JUMPI PUSH2 0x6A6 PUSH2 0xC64 JUMP JUMPDEST JUMPDEST PUSH2 0x6B2 DUP5 DUP3 DUP6 PUSH2 0xAB5 JUMP JUMPDEST POP SWAP4 SWAP3 POP POP POP JUMP JUMPDEST PUSH1 0x0 DUP2 CALLDATALOAD SWAP1 POP PUSH2 0x6C9 DUP2 PUSH2 0xC84 JUMP JUMPDEST SWAP3 SWAP2 POP POP JUMP JUMPDEST PUSH1 0x0 DUP2 CALLDATALOAD SWAP1 POP PUSH2 0x6DE DUP2 PUSH2 0xC9B JUMP JUMPDEST SWAP3 SWAP2 POP POP JUMP JUMPDEST PUSH1 0x0 DUP2 CALLDATALOAD SWAP1 POP PUSH2 0x6F3 DUP2 PUSH2 0xCB2 JUMP JUMPDEST SWAP3 SWAP2 POP POP JUMP JUMPDEST PUSH1 0x0 DUP3 PUSH1 0x1F DUP4 ADD SLT PUSH2 0x70E JUMPI PUSH2 0x70D PUSH2 0xC5F JUMP JUMPDEST JUMPDEST DUP2 CALLDATALOAD PUSH2 0x71E DUP5 DUP3 PUSH1 0x20 DUP7 ADD PUSH2 0x678 JUMP JUMPDEST SWAP2 POP POP SWAP3 SWAP2 POP POP JUMP JUMPDEST PUSH1 0x0 DUP2 CALLDATALOAD SWAP1 POP PUSH2 0x736 DUP2 PUSH2 0xCC9 JUMP JUMPDEST SWAP3 SWAP2 POP POP JUMP JUMPDEST PUSH1 0x0 PUSH1 0x20 DUP3 DUP5 SUB SLT ISZERO PUSH2 0x752 JUMPI PUSH2 0x751 PUSH2 0xC6E JUMP JUMPDEST JUMPDEST PUSH1 0x0 PUSH2 0x760 DUP5 DUP3 DUP6 ADD PUSH2 0x6BA JUMP JUMPDEST SWAP2 POP POP SWAP3 SWAP2 POP POP JUMP JUMPDEST PUSH1 0x0 PUSH1 0x20 DUP3 DUP5 SUB SLT ISZERO PUSH2 0x77F JUMPI PUSH2 0x77E PUSH2 0xC6E JUMP JUMPDEST JUMPDEST PUSH1 0x0 PUSH2 0x78D DUP5 DUP3 DUP6 ADD PUSH2 0x6CF JUMP JUMPDEST SWAP2 POP POP SWAP3 SWAP2 POP POP JUMP JUMPDEST PUSH1 0x0 DUP1 PUSH1 0x0 DUP1 PUSH1 0x0 DUP1 PUSH1 0xC0 DUP8 DUP10 SUB SLT ISZERO PUSH2 0x7B3 JUMPI PUSH2 0x7B2 PUSH2 0xC6E JUMP JUMPDEST JUMPDEST PUSH1 0x0 PUSH2 0x7C1 DUP10 DUP3 DUP11 ADD PUSH2 0x6CF JUMP JUMPDEST SWAP7 POP POP PUSH1 0x20 DUP8 ADD CALLDATALOAD PUSH8 0xFFFFFFFFFFFFFFFF DUP2 GT ISZERO PUSH2 0x7E2 JUMPI PUSH2 0x7E1 PUSH2 0xC69 JUMP JUMPDEST JUMPDEST PUSH2 0x7EE DUP10 DUP3 DUP11 ADD PUSH2 0x6F9 JUMP JUMPDEST SWAP6 POP POP PUSH1 0x40 DUP8 ADD CALLDATALOAD PUSH8 0xFFFFFFFFFFFFFFFF DUP2 GT ISZERO PUSH2 0x80F JUMPI PUSH2 0x80E PUSH2 0xC69 JUMP JUMPDEST JUMPDEST PUSH2 0x81B DUP10 DUP3 DUP11 ADD PUSH2 0x6F9 JUMP JUMPDEST SWAP5 POP POP PUSH1 0x60 PUSH2 0x82C DUP10 DUP3 DUP11 ADD PUSH2 0x727 JUMP JUMPDEST SWAP4 POP POP PUSH1 0x80 PUSH2 0x83D DUP10 DUP3 DUP11 ADD PUSH2 0x727 JUMP JUMPDEST SWAP3 POP POP PUSH1 0xA0 PUSH2 0x84E DUP10 DUP3 DUP11 ADD PUSH2 0x6E4 JUMP JUMPDEST SWAP2 POP POP SWAP3 SWAP6 POP SWAP3 SWAP6 POP SWAP3 SWAP6 JUMP JUMPDEST PUSH1 0x0 PUSH1 0x20 DUP3 DUP5 SUB SLT ISZERO PUSH2 0x871 JUMPI PUSH2 0x870 PUSH2 0xC6E JUMP JUMPDEST JUMPDEST PUSH1 0x0 PUSH2 0x87F DUP5 DUP3 DUP6 ADD PUSH2 0x727 JUMP JUMPDEST SWAP2 POP POP SWAP3 SWAP2 POP POP JUMP JUMPDEST PUSH2 0x891 DUP2 PUSH2 0xA6D JUMP JUMPDEST DUP3 MSTORE POP POP JUMP JUMPDEST PUSH2 0x8A0 DUP2 PUSH2 0xA7F JUMP JUMPDEST DUP3 MSTORE POP POP JUMP JUMPDEST PUSH1 0x0 PUSH2 0x8B1 DUP3 PUSH2 0x9E9 JUMP JUMPDEST PUSH2 0x8BB DUP2 DUP6 PUSH2 0x9F4 JUMP JUMPDEST SWAP4 POP PUSH2 0x8CB DUP2 DUP6 PUSH1 0x20 DUP7 ADD PUSH2 0xAC4 JUMP JUMPDEST PUSH2 0x8D4 DUP2 PUSH2 0xC73 JUMP JUMPDEST DUP5 ADD SWAP2 POP POP SWAP3 SWAP2 POP POP JUMP JUMPDEST PUSH2 0x8E8 DUP2 PUSH2 0xAAB JUMP JUMPDEST DUP3 MSTORE POP POP JUMP JUMPDEST PUSH1 0x0 PUSH1 0xC0 DUP3 ADD SWAP1 POP PUSH2 0x903 PUSH1 0x0 DUP4 ADD DUP10 PUSH2 0x888 JUMP JUMPDEST DUP2 DUP2 SUB PUSH1 0x20 DUP4 ADD MSTORE PUSH2 0x915 DUP2 DUP9 PUSH2 0x8A6 JUMP JUMPDEST SWAP1 POP DUP2 DUP2 SUB PUSH1 0x40 DUP4 ADD MSTORE PUSH2 0x929 DUP2 DUP8 PUSH2 0x8A6 JUMP JUMPDEST SWAP1 POP PUSH2 0x938 PUSH1 0x60 DUP4 ADD DUP7 PUSH2 0x8DF JUMP JUMPDEST PUSH2 0x945 PUSH1 0x80 DUP4 ADD DUP6 PUSH2 0x8DF JUMP JUMPDEST PUSH2 0x952 PUSH1 0xA0 DUP4 ADD DUP5 PUSH2 0x897 JUMP JUMPDEST SWAP8 SWAP7 POP POP POP POP POP POP POP JUMP JUMPDEST PUSH1 0x0 PUSH1 0x20 DUP3 ADD SWAP1 POP PUSH2 0x972 PUSH1 0x0 DUP4 ADD DUP5 PUSH2 0x897 JUMP JUMPDEST SWAP3 SWAP2 POP POP JUMP JUMPDEST PUSH1 0x0 PUSH1 0x20 DUP3 ADD SWAP1 POP PUSH2 0x98D PUSH1 0x0 DUP4 ADD DUP5 PUSH2 0x8DF JUMP JUMPDEST SWAP3 SWAP2 POP POP JUMP JUMPDEST PUSH1 0x0 PUSH2 0x99D PUSH2 0x9AE JUMP JUMPDEST SWAP1 POP PUSH2 0x9A9 DUP3 DUP3 PUSH2 0xB29 JUMP JUMPDEST SWAP2 SWAP1 POP JUMP JUMPDEST PUSH1 0x0 PUSH1 0x40 MLOAD SWAP1 POP SWAP1 JUMP JUMPDEST PUSH1 0x0 PUSH8 0xFFFFFFFFFFFFFFFF DUP3 GT ISZERO PUSH2 0x9D3 JUMPI PUSH2 0x9D2 PUSH2 0xC30 JUMP JUMPDEST JUMPDEST PUSH2 0x9DC DUP3 PUSH2 0xC73 JUMP JUMPDEST SWAP1 POP PUSH1 0x20 DUP2 ADD SWAP1 POP SWAP2 SWAP1 POP JUMP JUMPDEST PUSH1 0x0 DUP2 MLOAD SWAP1 POP SWAP2 SWAP1 POP JUMP JUMPDEST PUSH1 0x0 DUP3 DUP3 MSTORE PUSH1 0x20 DUP3 ADD SWAP1 POP SWAP3 SWAP2 POP POP JUMP JUMPDEST PUSH1 0x0 PUSH2 0xA10 DUP3 PUSH2 0xAAB JUMP JUMPDEST SWAP2 POP PUSH2 0xA1B DUP4 PUSH2 0xAAB JUMP JUMPDEST SWAP3 POP DUP3 PUSH32 0xFFFFFFFFFFFFFFFFFFFFFFFFFFFFFFFFFFFFFFFFFFFFFFFFFFFFFFFFFFFFFFFF SUB DUP3 GT ISZERO PUSH2 0xA50 JUMPI PUSH2 0xA4F PUSH2 0xBA3 JUMP JUMPDEST JUMPDEST DUP3 DUP3 ADD SWAP1 POP SWAP3 SWAP2 POP POP JUMP JUMPDEST PUSH1 0x0 PUSH2 0xA66 DUP3 PUSH2 0xA8B JUMP JUMPDEST SWAP1 POP SWAP2 SWAP1 POP JUMP JUMPDEST PUSH1 0x0 PUSH2 0xA78 DUP3 PUSH2 0xA8B JUMP JUMPDEST SWAP1 POP SWAP2 SWAP1 POP JUMP JUMPDEST PUSH1 0x0 DUP2 ISZERO ISZERO SWAP1 POP SWAP2 SWAP1 POP JUMP JUMPDEST PUSH1 0x0 PUSH20 0xFFFFFFFFFFFFFFFFFFFFFFFFFFFFFFFFFFFFFFFF DUP3 AND SWAP1 POP SWAP2 SWAP1 POP JUMP JUMPDEST PUSH1 0x0 DUP2 SWAP1 POP SWAP2 SWAP1 POP JUMP JUMPDEST DUP3 DUP2 DUP4 CALLDATACOPY PUSH1 0x0 DUP4 DUP4 ADD MSTORE POP POP POP JUMP JUMPDEST PUSH1 0x0 JUMPDEST DUP4 DUP2 LT ISZERO PUSH2 0xAE2 JUMPI DUP1 DUP3 ADD MLOAD DUP2 DUP5 ADD MSTORE PUSH1 0x20 DUP2 ADD SWAP1 POP PUSH2 0xAC7 JUMP JUMPDEST DUP4 DUP2 GT ISZERO PUSH2 0xAF1 JUMPI PUSH1 0x0 DUP5 DUP5 ADD MSTORE JUMPDEST POP POP POP POP JUMP JUMPDEST PUSH1 0x0 PUSH1 0x2 DUP3 DIV SWAP1 POP PUSH1 0x1 DUP3 AND DUP1 PUSH2 0xB0F JUMPI PUSH1 0x7F DUP3 AND SWAP2 POP JUMPDEST PUSH1 0x20 DUP3 LT DUP2 EQ ISZERO PUSH2 0xB23 JUMPI PUSH2 0xB22 PUSH2 0xBD2 JUMP JUMPDEST JUMPDEST POP SWAP2 SWAP1 POP JUMP JUMPDEST PUSH2 0xB32 DUP3 PUSH2 0xC73 JUMP JUMPDEST DUP2 ADD DUP2 DUP2 LT PUSH8 0xFFFFFFFFFFFFFFFF DUP3 GT OR ISZERO PUSH2 0xB51 JUMPI PUSH2 0xB50 PUSH2 0xC30 JUMP JUMPDEST JUMPDEST DUP1 PUSH1 0x40 MSTORE POP POP POP JUMP JUMPDEST PUSH1 0x0 PUSH2 0xB65 DUP3 PUSH2 0xAAB JUMP JUMPDEST SWAP2 POP PUSH32 0xFFFFFFFFFFFFFFFFFFFFFFFFFFFFFFFFFFFFFFFFFFFFFFFFFFFFFFFFFFFFFFFF DUP3 EQ ISZERO PUSH2 0xB98 JUMPI PUSH2 0xB97 PUSH2 0xBA3 JUMP JUMPDEST JUMPDEST PUSH1 0x1 DUP3 ADD SWAP1 POP SWAP2 SWAP1 POP JUMP JUMPDEST PUSH32 0x4E487B7100000000000000000000000000000000000000000000000000000000 PUSH1 0x0 MSTORE PUSH1 0x11 PUSH1 0x4 MSTORE PUSH1 0x24 PUSH1 0x0 REVERT JUMPDEST PUSH32 0x4E487B7100000000000000000000000000000000000000000000000000000000 PUSH1 0x0 MSTORE PUSH1 0x22 PUSH1 0x4 MSTORE PUSH1 0x24 PUSH1 0x0 REVERT JUMPDEST PUSH32 0x4E487B7100000000000000000000000000000000000000000000000000000000 PUSH1 0x0 MSTORE PUSH1 0x32 PUSH1 0x4 MSTORE PUSH1 0x24 PUSH1 0x0 REVERT JUMPDEST PUSH32 0x4E487B7100000000000000000000000000000000000000000000000000000000 PUSH1 0x0 MSTORE PUSH1 0x41 PUSH1 0x4 MSTORE PUSH1 0x24 PUSH1 0x0 REVERT JUMPDEST PUSH1 0x0 DUP1 REVERT JUMPDEST PUSH1 0x0 DUP1 REVERT JUMPDEST PUSH1 0x0 DUP1 REVERT JUMPDEST PUSH1 0x0 DUP1 REVERT JUMPDEST PUSH1 0x0 PUSH1 0x1F NOT PUSH1 0x1F DUP4 ADD AND SWAP1 POP SWAP2 SWAP1 POP JUMP JUMPDEST PUSH2 0xC8D DUP2 PUSH2 0xA5B JUMP JUMPDEST DUP2 EQ PUSH2 0xC98 JUMPI PUSH1 0x0 DUP1 REVERT JUMPDEST POP JUMP JUMPDEST PUSH2 0xCA4 DUP2 PUSH2 0xA6D JUMP JUMPDEST DUP2 EQ PUSH2 0xCAF JUMPI PUSH1 0x0 DUP1 REVERT JUMPDEST POP JUMP JUMPDEST PUSH2 0xCBB DUP2 PUSH2 0xA7F JUMP JUMPDEST DUP2 EQ PUSH2 0xCC6 JUMPI PUSH1 0x0 DUP1 REVERT JUMPDEST POP JUMP JUMPDEST PUSH2 0xCD2 DUP2 PUSH2 0xAAB JUMP JUMPDEST DUP2 EQ PUSH2 0xCDD JUMPI PUSH1 0x0 DUP1 REVERT JUMPDEST POP JUMP INVALID LOG2 PUSH5 0x6970667358 0x22 SLT KECCAK256 PUSH7 0xA9BB5BD9EA392E 0xD8 0x24 PUSH17 0x17F263DB57305EF107F11FAC39A2F8711D PUSH12 0xADD12464736F6C6343000807 STOP CALLER "
				},
				"gasEstimates": {
					"creation": {
						"codeDepositCost": "670000",
						"executionCost": "24968",
						"totalCost": "694968"
					},
					"external": {
						"addKid(address,string,string,uint256,uint256,bool)": "infinite",
						"avaiableToWithdraw(address)": "infinite",
						"balanceOf()": "383",
						"deposit(address)": "infinite",
						"kids(uint256)": "infinite",
						"withdraw(address)": "431"
					},
					"internal": {
						"addToKidsBalance(address)": "infinite",
						"getKidIndex(address)": "infinite"
					}
				},
				"methodIdentifiers": {
					"addKid(address,string,string,uint256,uint256,bool)": "31d575c5",
					"avaiableToWithdraw(address)": "6640c922",
					"balanceOf()": "722713f7",
					"deposit(address)": "f340fa01",
					"kids(uint256)": "7285fd3a",
					"withdraw(address)": "51cff8d9"
				}
			},
			"storageLayout": {
				"storage": [
					{
						"astId": 3,
						"contract": "contracts/CryptoKids.sol:CryptoKids",
						"label": "owner",
						"offset": 0,
						"slot": "0",
						"type": "t_address"
					},
					{
						"astId": 29,
						"contract": "contracts/CryptoKids.sol:CryptoKids",
						"label": "kids",
						"offset": 0,
						"slot": "1",
						"type": "t_array(t_struct(Kid)25_storage)dyn_storage"
					}
				],
				"types": {
					"t_address": {
						"encoding": "inplace",
						"label": "address",
						"numberOfBytes": "20"
					},
					"t_address_payable": {
						"encoding": "inplace",
						"label": "address payable",
						"numberOfBytes": "20"
					},
					"t_array(t_struct(Kid)25_storage)dyn_storage": {
						"base": "t_struct(Kid)25_storage",
						"encoding": "dynamic_array",
						"label": "struct CryptoKids.Kid[]",
						"numberOfBytes": "32"
					},
					"t_bool": {
						"encoding": "inplace",
						"label": "bool",
						"numberOfBytes": "1"
					},
					"t_string_storage": {
						"encoding": "bytes",
						"label": "string",
						"numberOfBytes": "32"
					},
					"t_struct(Kid)25_storage": {
						"encoding": "inplace",
						"label": "struct CryptoKids.Kid",
						"members": [
							{
								"astId": 14,
								"contract": "contracts/CryptoKids.sol:CryptoKids",
								"label": "walletAddress",
								"offset": 0,
								"slot": "0",
								"type": "t_address_payable"
							},
							{
								"astId": 16,
								"contract": "contracts/CryptoKids.sol:CryptoKids",
								"label": "firstName",
								"offset": 0,
								"slot": "1",
								"type": "t_string_storage"
							},
							{
								"astId": 18,
								"contract": "contracts/CryptoKids.sol:CryptoKids",
								"label": "lastName",
								"offset": 0,
								"slot": "2",
								"type": "t_string_storage"
							},
							{
								"astId": 20,
								"contract": "contracts/CryptoKids.sol:CryptoKids",
								"label": "releaseTime",
								"offset": 0,
								"slot": "3",
								"type": "t_uint256"
							},
							{
								"astId": 22,
								"contract": "contracts/CryptoKids.sol:CryptoKids",
								"label": "amount",
								"offset": 0,
								"slot": "4",
								"type": "t_uint256"
							},
							{
								"astId": 24,
								"contract": "contracts/CryptoKids.sol:CryptoKids",
								"label": "canWithdraw",
								"offset": 0,
								"slot": "5",
								"type": "t_bool"
							}
						],
						"numberOfBytes": "192"
					},
					"t_uint256": {
						"encoding": "inplace",
						"label": "uint256",
						"numberOfBytes": "32"
					}
				}
			},
			"userdoc": {
				"kind": "user",
				"methods": {},
				"version": 1
			}
		}
	}
}