{
	"contracts/CryptoKids.sol": {
		"CryptoKids": {
			"abi": [
				{
					"inputs": [],
					"stateMutability": "nonpayable",
					"type": "constructor"
				},
				{
					"inputs": [
						{
							"internalType": "address",
							"name": "walletAddress",
							"type": "address"
						},
						{
							"internalType": "string",
							"name": "firstName",
							"type": "string"
						},
						{
							"internalType": "string",
							"name": "lastName",
							"type": "string"
						},
						{
							"internalType": "uint256",
							"name": "releaseTime",
							"type": "uint256"
						},
						{
							"internalType": "uint256",
							"name": "amount",
							"type": "uint256"
						},
						{
							"internalType": "bool",
							"name": "canWithdraw",
							"type": "bool"
						}
					],
					"name": "addKid",
					"outputs": [],
					"stateMutability": "nonpayable",
					"type": "function"
				},
				{
					"inputs": [],
					"name": "balanceOf",
					"outputs": [
						{
							"internalType": "uint256",
							"name": "",
							"type": "uint256"
						}
					],
					"stateMutability": "view",
					"type": "function"
				},
				{
					"inputs": [
						{
							"internalType": "address",
							"name": "walletAddress",
							"type": "address"
						}
					],
					"name": "deposit",
					"outputs": [],
					"stateMutability": "payable",
					"type": "function"
				},
				{
					"inputs": [
						{
							"internalType": "uint256",
							"name": "",
							"type": "uint256"
						}
					],
					"name": "kids",
					"outputs": [
						{
							"internalType": "address",
							"name": "walletAddress",
							"type": "address"
						},
						{
							"internalType": "string",
							"name": "firstName",
							"type": "string"
						},
						{
							"internalType": "string",
							"name": "lastName",
							"type": "string"
						},
						{
							"internalType": "uint256",
							"name": "releaseTime",
							"type": "uint256"
						},
						{
							"internalType": "uint256",
							"name": "amount",
							"type": "uint256"
						},
						{
							"internalType": "bool",
							"name": "canWithdraw",
							"type": "bool"
						}
					],
					"stateMutability": "view",
					"type": "function"
				}
			],
			"devdoc": {
				"kind": "dev",
				"methods": {},
				"version": 1
			},
			"evm": {
				"assembly": "    /* \"contracts/CryptoKids.sol\":116:1672  contract CryptoKids {... */\n  mstore(0x40, 0x80)\n    /* \"contracts/CryptoKids.sol\":167:216  constructor() {... */\n  callvalue\n  dup1\n  iszero\n  tag_1\n  jumpi\n  0x00\n  dup1\n  revert\ntag_1:\n  pop\n    /* \"contracts/CryptoKids.sol\":199:209  msg.sender */\n  caller\n    /* \"contracts/CryptoKids.sol\":191:196  owner */\n  0x00\n  dup1\n    /* \"contracts/CryptoKids.sol\":191:209  owner = msg.sender */\n  0x0100\n  exp\n  dup2\n  sload\n  dup2\n  0xffffffffffffffffffffffffffffffffffffffff\n  mul\n  not\n  and\n  swap1\n  dup4\n  0xffffffffffffffffffffffffffffffffffffffff\n  and\n  mul\n  or\n  swap1\n  sstore\n  pop\n    /* \"contracts/CryptoKids.sol\":116:1672  contract CryptoKids {... */\n  dataSize(sub_0)\n  dup1\n  dataOffset(sub_0)\n  0x00\n  codecopy\n  0x00\n  return\nstop\n\nsub_0: assembly {\n        /* \"contracts/CryptoKids.sol\":116:1672  contract CryptoKids {... */\n      mstore(0x40, 0x80)\n      jumpi(tag_1, lt(calldatasize, 0x04))\n      shr(0xe0, calldataload(0x00))\n      dup1\n      0x31d575c5\n      eq\n      tag_2\n      jumpi\n      dup1\n      0x722713f7\n      eq\n      tag_3\n      jumpi\n      dup1\n      0x7285fd3a\n      eq\n      tag_4\n      jumpi\n      dup1\n      0xf340fa01\n      eq\n      tag_5\n      jumpi\n    tag_1:\n      0x00\n      dup1\n      revert\n        /* \"contracts/CryptoKids.sol\":425:838  function addKid(... */\n    tag_2:\n      callvalue\n      dup1\n      iszero\n      tag_6\n      jumpi\n      0x00\n      dup1\n      revert\n    tag_6:\n      pop\n      tag_7\n      0x04\n      dup1\n      calldatasize\n      sub\n      dup2\n      add\n      swap1\n      tag_8\n      swap2\n      swap1\n      tag_9\n      jump\t// in\n    tag_8:\n      tag_10\n      jump\t// in\n    tag_7:\n      stop\n        /* \"contracts/CryptoKids.sol\":1577:1669  function balanceOf() public view returns(uint) {... */\n    tag_3:\n      callvalue\n      dup1\n      iszero\n      tag_11\n      jumpi\n      0x00\n      dup1\n      revert\n    tag_11:\n      pop\n      tag_12\n      tag_13\n      jump\t// in\n    tag_12:\n      mload(0x40)\n      tag_14\n      swap2\n      swap1\n      tag_15\n      jump\t// in\n    tag_14:\n      mload(0x40)\n      dup1\n      swap2\n      sub\n      swap1\n      return\n        /* \"contracts/CryptoKids.sol\":401:418  Kid[] public kids */\n    tag_4:\n      callvalue\n      dup1\n      iszero\n      tag_16\n      jumpi\n      0x00\n      dup1\n      revert\n    tag_16:\n      pop\n      tag_17\n      0x04\n      dup1\n      calldatasize\n      sub\n      dup2\n      add\n      swap1\n      tag_18\n      swap2\n      swap1\n      tag_19\n      jump\t// in\n    tag_18:\n      tag_20\n      jump\t// in\n    tag_17:\n      mload(0x40)\n      tag_21\n      swap7\n      swap6\n      swap5\n      swap4\n      swap3\n      swap2\n      swap1\n      tag_22\n      jump\t// in\n    tag_21:\n      mload(0x40)\n      dup1\n      swap2\n      sub\n      swap1\n      return\n        /* \"contracts/CryptoKids.sol\":844:947  function deposit(address walletAddress) payable public {... */\n    tag_5:\n      tag_23\n      0x04\n      dup1\n      calldatasize\n      sub\n      dup2\n      add\n      swap1\n      tag_24\n      swap2\n      swap1\n      tag_25\n      jump\t// in\n    tag_24:\n      tag_26\n      jump\t// in\n    tag_23:\n      stop\n        /* \"contracts/CryptoKids.sol\":425:838  function addKid(... */\n    tag_10:\n        /* \"contracts/CryptoKids.sol\":637:641  kids */\n      0x01\n        /* \"contracts/CryptoKids.sol\":647:830  Kid(... */\n      mload(0x40)\n      dup1\n      0xc0\n      add\n      0x40\n      mstore\n      dup1\n        /* \"contracts/CryptoKids.sol\":668:681  walletAddress */\n      dup9\n        /* \"contracts/CryptoKids.sol\":647:830  Kid(... */\n      0xffffffffffffffffffffffffffffffffffffffff\n      and\n      dup2\n      mstore\n      0x20\n      add\n        /* \"contracts/CryptoKids.sol\":699:708  firstName */\n      dup8\n        /* \"contracts/CryptoKids.sol\":647:830  Kid(... */\n      dup2\n      mstore\n      0x20\n      add\n        /* \"contracts/CryptoKids.sol\":726:734  lastName */\n      dup7\n        /* \"contracts/CryptoKids.sol\":647:830  Kid(... */\n      dup2\n      mstore\n      0x20\n      add\n        /* \"contracts/CryptoKids.sol\":752:763  releaseTime */\n      dup6\n        /* \"contracts/CryptoKids.sol\":647:830  Kid(... */\n      dup2\n      mstore\n      0x20\n      add\n        /* \"contracts/CryptoKids.sol\":781:787  amount */\n      dup5\n        /* \"contracts/CryptoKids.sol\":647:830  Kid(... */\n      dup2\n      mstore\n      0x20\n      add\n        /* \"contracts/CryptoKids.sol\":805:816  canWithdraw */\n      dup4\n        /* \"contracts/CryptoKids.sol\":647:830  Kid(... */\n      iszero\n      iszero\n      dup2\n      mstore\n      pop\n        /* \"contracts/CryptoKids.sol\":637:831  kids.push(Kid(... */\n      swap1\n      dup1\n      0x01\n      dup2\n      sload\n      add\n      dup1\n      dup3\n      sstore\n      dup1\n      swap2\n      pop\n      pop\n      0x01\n      swap1\n      sub\n      swap1\n      0x00\n      mstore\n      keccak256(0x00, 0x20)\n      swap1\n      0x06\n      mul\n      add\n      0x00\n      swap1\n      swap2\n      swap1\n      swap2\n      swap1\n      swap2\n      pop\n      0x00\n      dup3\n      add\n      mload\n      dup2\n      0x00\n      add\n      exp(0x0100, 0x00)\n      dup2\n      sload\n      dup2\n      0xffffffffffffffffffffffffffffffffffffffff\n      mul\n      not\n      and\n      swap1\n      dup4\n      0xffffffffffffffffffffffffffffffffffffffff\n      and\n      mul\n      or\n      swap1\n      sstore\n      pop\n      0x20\n      dup3\n      add\n      mload\n      dup2\n      0x01\n      add\n      swap1\n      dup1\n      mload\n      swap1\n      0x20\n      add\n      swap1\n      tag_29\n      swap3\n      swap2\n      swap1\n      tag_30\n      jump\t// in\n    tag_29:\n      pop\n      0x40\n      dup3\n      add\n      mload\n      dup2\n      0x02\n      add\n      swap1\n      dup1\n      mload\n      swap1\n      0x20\n      add\n      swap1\n      tag_31\n      swap3\n      swap2\n      swap1\n      tag_30\n      jump\t// in\n    tag_31:\n      pop\n      0x60\n      dup3\n      add\n      mload\n      dup2\n      0x03\n      add\n      sstore\n      0x80\n      dup3\n      add\n      mload\n      dup2\n      0x04\n      add\n      sstore\n      0xa0\n      dup3\n      add\n      mload\n      dup2\n      0x05\n      add\n      exp(0x0100, 0x00)\n      dup2\n      sload\n      dup2\n      0xff\n      mul\n      not\n      and\n      swap1\n      dup4\n      iszero\n      iszero\n      mul\n      or\n      swap1\n      sstore\n      pop\n      pop\n      pop\n        /* \"contracts/CryptoKids.sol\":425:838  function addKid(... */\n      pop\n      pop\n      pop\n      pop\n      pop\n      pop\n      jump\t// out\n        /* \"contracts/CryptoKids.sol\":1577:1669  function balanceOf() public view returns(uint) {... */\n    tag_13:\n        /* \"contracts/CryptoKids.sol\":1618:1622  uint */\n      0x00\n        /* \"contracts/CryptoKids.sol\":1641:1662  address(this).balance */\n      selfbalance\n        /* \"contracts/CryptoKids.sol\":1634:1662  return address(this).balance */\n      swap1\n      pop\n        /* \"contracts/CryptoKids.sol\":1577:1669  function balanceOf() public view returns(uint) {... */\n      swap1\n      jump\t// out\n        /* \"contracts/CryptoKids.sol\":401:418  Kid[] public kids */\n    tag_20:\n      0x01\n      dup2\n      dup2\n      sload\n      dup2\n      lt\n      tag_33\n      jumpi\n      0x00\n      dup1\n      revert\n    tag_33:\n      swap1\n      0x00\n      mstore\n      keccak256(0x00, 0x20)\n      swap1\n      0x06\n      mul\n      add\n      0x00\n      swap2\n      pop\n      swap1\n      pop\n      dup1\n      0x00\n      add\n      0x00\n      swap1\n      sload\n      swap1\n      0x0100\n      exp\n      swap1\n      div\n      0xffffffffffffffffffffffffffffffffffffffff\n      and\n      swap1\n      dup1\n      0x01\n      add\n      dup1\n      sload\n      tag_35\n      swap1\n      tag_36\n      jump\t// in\n    tag_35:\n      dup1\n      0x1f\n      add\n      0x20\n      dup1\n      swap2\n      div\n      mul\n      0x20\n      add\n      mload(0x40)\n      swap1\n      dup2\n      add\n      0x40\n      mstore\n      dup1\n      swap3\n      swap2\n      swap1\n      dup2\n      dup2\n      mstore\n      0x20\n      add\n      dup3\n      dup1\n      sload\n      tag_37\n      swap1\n      tag_36\n      jump\t// in\n    tag_37:\n      dup1\n      iszero\n      tag_38\n      jumpi\n      dup1\n      0x1f\n      lt\n      tag_39\n      jumpi\n      0x0100\n      dup1\n      dup4\n      sload\n      div\n      mul\n      dup4\n      mstore\n      swap2\n      0x20\n      add\n      swap2\n      jump(tag_38)\n    tag_39:\n      dup3\n      add\n      swap2\n      swap1\n      0x00\n      mstore\n      keccak256(0x00, 0x20)\n      swap1\n    tag_40:\n      dup2\n      sload\n      dup2\n      mstore\n      swap1\n      0x01\n      add\n      swap1\n      0x20\n      add\n      dup1\n      dup4\n      gt\n      tag_40\n      jumpi\n      dup3\n      swap1\n      sub\n      0x1f\n      and\n      dup3\n      add\n      swap2\n    tag_38:\n      pop\n      pop\n      pop\n      pop\n      pop\n      swap1\n      dup1\n      0x02\n      add\n      dup1\n      sload\n      tag_41\n      swap1\n      tag_36\n      jump\t// in\n    tag_41:\n      dup1\n      0x1f\n      add\n      0x20\n      dup1\n      swap2\n      div\n      mul\n      0x20\n      add\n      mload(0x40)\n      swap1\n      dup2\n      add\n      0x40\n      mstore\n      dup1\n      swap3\n      swap2\n      swap1\n      dup2\n      dup2\n      mstore\n      0x20\n      add\n      dup3\n      dup1\n      sload\n      tag_42\n      swap1\n      tag_36\n      jump\t// in\n    tag_42:\n      dup1\n      iszero\n      tag_43\n      jumpi\n      dup1\n      0x1f\n      lt\n      tag_44\n      jumpi\n      0x0100\n      dup1\n      dup4\n      sload\n      div\n      mul\n      dup4\n      mstore\n      swap2\n      0x20\n      add\n      swap2\n      jump(tag_43)\n    tag_44:\n      dup3\n      add\n      swap2\n      swap1\n      0x00\n      mstore\n      keccak256(0x00, 0x20)\n      swap1\n    tag_45:\n      dup2\n      sload\n      dup2\n      mstore\n      swap1\n      0x01\n      add\n      swap1\n      0x20\n      add\n      dup1\n      dup4\n      gt\n      tag_45\n      jumpi\n      dup3\n      swap1\n      sub\n      0x1f\n      and\n      dup3\n      add\n      swap2\n    tag_43:\n      pop\n      pop\n      pop\n      pop\n      pop\n      swap1\n      dup1\n      0x03\n      add\n      sload\n      swap1\n      dup1\n      0x04\n      add\n      sload\n      swap1\n      dup1\n      0x05\n      add\n      0x00\n      swap1\n      sload\n      swap1\n      0x0100\n      exp\n      swap1\n      div\n      0xff\n      and\n      swap1\n      pop\n      dup7\n      jump\t// out\n        /* \"contracts/CryptoKids.sol\":844:947  function deposit(address walletAddress) payable public {... */\n    tag_26:\n        /* \"contracts/CryptoKids.sol\":909:940  addToKidsBalance(walletAddress) */\n      tag_47\n        /* \"contracts/CryptoKids.sol\":926:939  walletAddress */\n      dup2\n        /* \"contracts/CryptoKids.sol\":909:925  addToKidsBalance */\n      tag_48\n        /* \"contracts/CryptoKids.sol\":909:940  addToKidsBalance(walletAddress) */\n      jump\t// in\n    tag_47:\n        /* \"contracts/CryptoKids.sol\":844:947  function deposit(address walletAddress) payable public {... */\n      pop\n      jump\t// out\n        /* \"contracts/CryptoKids.sol\":1346:1567  function addToKidsBalance(address walletAddress) private {... */\n    tag_48:\n        /* \"contracts/CryptoKids.sol\":1413:1429  uint theKidIndex */\n      0x00\n        /* \"contracts/CryptoKids.sol\":1432:1458  getKidIndex(walletAddress) */\n      tag_50\n        /* \"contracts/CryptoKids.sol\":1444:1457  walletAddress */\n      dup3\n        /* \"contracts/CryptoKids.sol\":1432:1443  getKidIndex */\n      tag_51\n        /* \"contracts/CryptoKids.sol\":1432:1458  getKidIndex(walletAddress) */\n      jump\t// in\n    tag_50:\n        /* \"contracts/CryptoKids.sol\":1413:1458  uint theKidIndex = getKidIndex(walletAddress) */\n      swap1\n      pop\n        /* \"contracts/CryptoKids.sol\":1486:1490  kids */\n      0x01\n        /* \"contracts/CryptoKids.sol\":1486:1497  kids.length */\n      dup1\n      sload\n      swap1\n      pop\n        /* \"contracts/CryptoKids.sol\":1472:1483  theKidIndex */\n      dup2\n        /* \"contracts/CryptoKids.sol\":1472:1497  theKidIndex < kids.length */\n      lt\n        /* \"contracts/CryptoKids.sol\":1468:1561  if (theKidIndex < kids.length) {... */\n      iszero\n      tag_52\n      jumpi\n        /* \"contracts/CryptoKids.sol\":1541:1550  msg.value */\n      callvalue\n        /* \"contracts/CryptoKids.sol\":1513:1517  kids */\n      0x01\n        /* \"contracts/CryptoKids.sol\":1518:1529  theKidIndex */\n      dup3\n        /* \"contracts/CryptoKids.sol\":1513:1530  kids[theKidIndex] */\n      dup2\n      sload\n      dup2\n      lt\n      tag_53\n      jumpi\n      tag_54\n      tag_55\n      jump\t// in\n    tag_54:\n    tag_53:\n      swap1\n      0x00\n      mstore\n      keccak256(0x00, 0x20)\n      swap1\n      0x06\n      mul\n      add\n        /* \"contracts/CryptoKids.sol\":1513:1537  kids[theKidIndex].amount */\n      0x04\n      add\n      0x00\n        /* \"contracts/CryptoKids.sol\":1513:1550  kids[theKidIndex].amount += msg.value */\n      dup3\n      dup3\n      sload\n      tag_57\n      swap2\n      swap1\n      tag_58\n      jump\t// in\n    tag_57:\n      swap3\n      pop\n      pop\n      dup2\n      swap1\n      sstore\n      pop\n        /* \"contracts/CryptoKids.sol\":1468:1561  if (theKidIndex < kids.length) {... */\n    tag_52:\n        /* \"contracts/CryptoKids.sol\":1403:1567  {... */\n      pop\n        /* \"contracts/CryptoKids.sol\":1346:1567  function addToKidsBalance(address walletAddress) private {... */\n      pop\n      jump\t// out\n        /* \"contracts/CryptoKids.sol\":972:1340  function getKidIndex(address walletAddress) private view returns(uint) {... */\n    tag_51:\n        /* \"contracts/CryptoKids.sol\":1037:1041  uint */\n      0x00\n        /* \"contracts/CryptoKids.sol\":1058:1064  uint i */\n      dup1\n        /* \"contracts/CryptoKids.sol\":1067:1068  0 */\n      0x00\n        /* \"contracts/CryptoKids.sol\":1058:1068  uint i = 0 */\n      swap1\n      pop\n        /* \"contracts/CryptoKids.sol\":1053:1202  for( uint i = 0; i < kids.length; i++) {... */\n    tag_60:\n        /* \"contracts/CryptoKids.sol\":1074:1078  kids */\n      0x01\n        /* \"contracts/CryptoKids.sol\":1074:1085  kids.length */\n      dup1\n      sload\n      swap1\n      pop\n        /* \"contracts/CryptoKids.sol\":1070:1071  i */\n      dup2\n        /* \"contracts/CryptoKids.sol\":1070:1085  i < kids.length */\n      lt\n        /* \"contracts/CryptoKids.sol\":1053:1202  for( uint i = 0; i < kids.length; i++) {... */\n      iszero\n      tag_61\n      jumpi\n        /* \"contracts/CryptoKids.sol\":1136:1149  walletAddress */\n      dup3\n        /* \"contracts/CryptoKids.sol\":1111:1149  kids[i].walletAddress == walletAddress */\n      0xffffffffffffffffffffffffffffffffffffffff\n      and\n        /* \"contracts/CryptoKids.sol\":1111:1115  kids */\n      0x01\n        /* \"contracts/CryptoKids.sol\":1116:1117  i */\n      dup3\n        /* \"contracts/CryptoKids.sol\":1111:1118  kids[i] */\n      dup2\n      sload\n      dup2\n      lt\n      tag_63\n      jumpi\n      tag_64\n      tag_55\n      jump\t// in\n    tag_64:\n    tag_63:\n      swap1\n      0x00\n      mstore\n      keccak256(0x00, 0x20)\n      swap1\n      0x06\n      mul\n      add\n        /* \"contracts/CryptoKids.sol\":1111:1132  kids[i].walletAddress */\n      0x00\n      add\n      0x00\n      swap1\n      sload\n      swap1\n      0x0100\n      exp\n      swap1\n      div\n      0xffffffffffffffffffffffffffffffffffffffff\n      and\n        /* \"contracts/CryptoKids.sol\":1111:1149  kids[i].walletAddress == walletAddress */\n      0xffffffffffffffffffffffffffffffffffffffff\n      and\n      eq\n        /* \"contracts/CryptoKids.sol\":1106:1192  if ( kids[i].walletAddress == walletAddress) {... */\n      iszero\n      tag_66\n      jumpi\n        /* \"contracts/CryptoKids.sol\":1176:1177  i */\n      dup1\n        /* \"contracts/CryptoKids.sol\":1169:1177  return i */\n      swap2\n      pop\n      pop\n      jump(tag_59)\n        /* \"contracts/CryptoKids.sol\":1106:1192  if ( kids[i].walletAddress == walletAddress) {... */\n    tag_66:\n        /* \"contracts/CryptoKids.sol\":1087:1090  i++ */\n      dup1\n      dup1\n      tag_67\n      swap1\n      tag_68\n      jump\t// in\n    tag_67:\n      swap2\n      pop\n      pop\n        /* \"contracts/CryptoKids.sol\":1053:1202  for( uint i = 0; i < kids.length; i++) {... */\n      jump(tag_60)\n    tag_61:\n      pop\n        /* \"contracts/CryptoKids.sol\":1218:1222  kids */\n      0x01\n        /* \"contracts/CryptoKids.sol\":1218:1229  kids.length */\n      dup1\n      sload\n      swap1\n      pop\n        /* \"contracts/CryptoKids.sol\":1211:1229  return kids.length */\n      swap1\n      pop\n        /* \"contracts/CryptoKids.sol\":972:1340  function getKidIndex(address walletAddress) private view returns(uint) {... */\n    tag_59:\n      swap2\n      swap1\n      pop\n      jump\t// out\n    tag_30:\n      dup3\n      dup1\n      sload\n      tag_69\n      swap1\n      tag_36\n      jump\t// in\n    tag_69:\n      swap1\n      0x00\n      mstore\n      keccak256(0x00, 0x20)\n      swap1\n      0x1f\n      add\n      0x20\n      swap1\n      div\n      dup2\n      add\n      swap3\n      dup3\n      tag_71\n      jumpi\n      0x00\n      dup6\n      sstore\n      jump(tag_70)\n    tag_71:\n      dup3\n      0x1f\n      lt\n      tag_72\n      jumpi\n      dup1\n      mload\n      not(0xff)\n      and\n      dup4\n      dup1\n      add\n      or\n      dup6\n      sstore\n      jump(tag_70)\n    tag_72:\n      dup3\n      dup1\n      add\n      0x01\n      add\n      dup6\n      sstore\n      dup3\n      iszero\n      tag_70\n      jumpi\n      swap2\n      dup3\n      add\n    tag_73:\n      dup3\n      dup2\n      gt\n      iszero\n      tag_74\n      jumpi\n      dup3\n      mload\n      dup3\n      sstore\n      swap2\n      0x20\n      add\n      swap2\n      swap1\n      0x01\n      add\n      swap1\n      jump(tag_73)\n    tag_74:\n    tag_70:\n      pop\n      swap1\n      pop\n      tag_75\n      swap2\n      swap1\n      tag_76\n      jump\t// in\n    tag_75:\n      pop\n      swap1\n      jump\t// out\n    tag_76:\n    tag_77:\n      dup1\n      dup3\n      gt\n      iszero\n      tag_78\n      jumpi\n      0x00\n      dup2\n      0x00\n      swap1\n      sstore\n      pop\n      0x01\n      add\n      jump(tag_77)\n    tag_78:\n      pop\n      swap1\n      jump\t// out\n        /* \"#utility.yul\":7:419   */\n    tag_80:\n        /* \"#utility.yul\":85:90   */\n      0x00\n        /* \"#utility.yul\":110:176   */\n      tag_82\n        /* \"#utility.yul\":126:175   */\n      tag_83\n        /* \"#utility.yul\":168:174   */\n      dup5\n        /* \"#utility.yul\":126:175   */\n      tag_84\n      jump\t// in\n    tag_83:\n        /* \"#utility.yul\":110:176   */\n      tag_85\n      jump\t// in\n    tag_82:\n        /* \"#utility.yul\":101:176   */\n      swap1\n      pop\n        /* \"#utility.yul\":199:205   */\n      dup3\n        /* \"#utility.yul\":192:197   */\n      dup2\n        /* \"#utility.yul\":185:206   */\n      mstore\n        /* \"#utility.yul\":237:241   */\n      0x20\n        /* \"#utility.yul\":230:235   */\n      dup2\n        /* \"#utility.yul\":226:242   */\n      add\n        /* \"#utility.yul\":275:278   */\n      dup5\n        /* \"#utility.yul\":266:272   */\n      dup5\n        /* \"#utility.yul\":261:264   */\n      dup5\n        /* \"#utility.yul\":257:273   */\n      add\n        /* \"#utility.yul\":254:279   */\n      gt\n        /* \"#utility.yul\":251:363   */\n      iszero\n      tag_86\n      jumpi\n        /* \"#utility.yul\":282:361   */\n      tag_87\n      tag_88\n      jump\t// in\n    tag_87:\n        /* \"#utility.yul\":251:363   */\n    tag_86:\n        /* \"#utility.yul\":372:413   */\n      tag_89\n        /* \"#utility.yul\":406:412   */\n      dup5\n        /* \"#utility.yul\":401:404   */\n      dup3\n        /* \"#utility.yul\":396:399   */\n      dup6\n        /* \"#utility.yul\":372:413   */\n      tag_90\n      jump\t// in\n    tag_89:\n        /* \"#utility.yul\":91:419   */\n      pop\n        /* \"#utility.yul\":7:419   */\n      swap4\n      swap3\n      pop\n      pop\n      pop\n      jump\t// out\n        /* \"#utility.yul\":425:564   */\n    tag_91:\n        /* \"#utility.yul\":471:476   */\n      0x00\n        /* \"#utility.yul\":509:515   */\n      dup2\n        /* \"#utility.yul\":496:516   */\n      calldataload\n        /* \"#utility.yul\":487:516   */\n      swap1\n      pop\n        /* \"#utility.yul\":525:558   */\n      tag_93\n        /* \"#utility.yul\":552:557   */\n      dup2\n        /* \"#utility.yul\":525:558   */\n      tag_94\n      jump\t// in\n    tag_93:\n        /* \"#utility.yul\":425:564   */\n      swap3\n      swap2\n      pop\n      pop\n      jump\t// out\n        /* \"#utility.yul\":570:703   */\n    tag_95:\n        /* \"#utility.yul\":613:618   */\n      0x00\n        /* \"#utility.yul\":651:657   */\n      dup2\n        /* \"#utility.yul\":638:658   */\n      calldataload\n        /* \"#utility.yul\":629:658   */\n      swap1\n      pop\n        /* \"#utility.yul\":667:697   */\n      tag_97\n        /* \"#utility.yul\":691:696   */\n      dup2\n        /* \"#utility.yul\":667:697   */\n      tag_98\n      jump\t// in\n    tag_97:\n        /* \"#utility.yul\":570:703   */\n      swap3\n      swap2\n      pop\n      pop\n      jump\t// out\n        /* \"#utility.yul\":723:1063   */\n    tag_99:\n        /* \"#utility.yul\":779:784   */\n      0x00\n        /* \"#utility.yul\":828:831   */\n      dup3\n        /* \"#utility.yul\":821:825   */\n      0x1f\n        /* \"#utility.yul\":813:819   */\n      dup4\n        /* \"#utility.yul\":809:826   */\n      add\n        /* \"#utility.yul\":805:832   */\n      slt\n        /* \"#utility.yul\":795:917   */\n      tag_101\n      jumpi\n        /* \"#utility.yul\":836:915   */\n      tag_102\n      tag_103\n      jump\t// in\n    tag_102:\n        /* \"#utility.yul\":795:917   */\n    tag_101:\n        /* \"#utility.yul\":953:959   */\n      dup2\n        /* \"#utility.yul\":940:960   */\n      calldataload\n        /* \"#utility.yul\":978:1057   */\n      tag_104\n        /* \"#utility.yul\":1053:1056   */\n      dup5\n        /* \"#utility.yul\":1045:1051   */\n      dup3\n        /* \"#utility.yul\":1038:1042   */\n      0x20\n        /* \"#utility.yul\":1030:1036   */\n      dup7\n        /* \"#utility.yul\":1026:1043   */\n      add\n        /* \"#utility.yul\":978:1057   */\n      tag_80\n      jump\t// in\n    tag_104:\n        /* \"#utility.yul\":969:1057   */\n      swap2\n      pop\n        /* \"#utility.yul\":785:1063   */\n      pop\n        /* \"#utility.yul\":723:1063   */\n      swap3\n      swap2\n      pop\n      pop\n      jump\t// out\n        /* \"#utility.yul\":1069:1208   */\n    tag_105:\n        /* \"#utility.yul\":1115:1120   */\n      0x00\n        /* \"#utility.yul\":1153:1159   */\n      dup2\n        /* \"#utility.yul\":1140:1160   */\n      calldataload\n        /* \"#utility.yul\":1131:1160   */\n      swap1\n      pop\n        /* \"#utility.yul\":1169:1202   */\n      tag_107\n        /* \"#utility.yul\":1196:1201   */\n      dup2\n        /* \"#utility.yul\":1169:1202   */\n      tag_108\n      jump\t// in\n    tag_107:\n        /* \"#utility.yul\":1069:1208   */\n      swap3\n      swap2\n      pop\n      pop\n      jump\t// out\n        /* \"#utility.yul\":1214:1543   */\n    tag_25:\n        /* \"#utility.yul\":1273:1279   */\n      0x00\n        /* \"#utility.yul\":1322:1324   */\n      0x20\n        /* \"#utility.yul\":1310:1319   */\n      dup3\n        /* \"#utility.yul\":1301:1308   */\n      dup5\n        /* \"#utility.yul\":1297:1320   */\n      sub\n        /* \"#utility.yul\":1293:1325   */\n      slt\n        /* \"#utility.yul\":1290:1409   */\n      iszero\n      tag_110\n      jumpi\n        /* \"#utility.yul\":1328:1407   */\n      tag_111\n      tag_112\n      jump\t// in\n    tag_111:\n        /* \"#utility.yul\":1290:1409   */\n    tag_110:\n        /* \"#utility.yul\":1448:1449   */\n      0x00\n        /* \"#utility.yul\":1473:1526   */\n      tag_113\n        /* \"#utility.yul\":1518:1525   */\n      dup5\n        /* \"#utility.yul\":1509:1515   */\n      dup3\n        /* \"#utility.yul\":1498:1507   */\n      dup6\n        /* \"#utility.yul\":1494:1516   */\n      add\n        /* \"#utility.yul\":1473:1526   */\n      tag_91\n      jump\t// in\n    tag_113:\n        /* \"#utility.yul\":1463:1526   */\n      swap2\n      pop\n        /* \"#utility.yul\":1419:1536   */\n      pop\n        /* \"#utility.yul\":1214:1543   */\n      swap3\n      swap2\n      pop\n      pop\n      jump\t// out\n        /* \"#utility.yul\":1549:2960   */\n    tag_9:\n        /* \"#utility.yul\":1670:1676   */\n      0x00\n        /* \"#utility.yul\":1678:1684   */\n      dup1\n        /* \"#utility.yul\":1686:1692   */\n      0x00\n        /* \"#utility.yul\":1694:1700   */\n      dup1\n        /* \"#utility.yul\":1702:1708   */\n      0x00\n        /* \"#utility.yul\":1710:1716   */\n      dup1\n        /* \"#utility.yul\":1759:1762   */\n      0xc0\n        /* \"#utility.yul\":1747:1756   */\n      dup8\n        /* \"#utility.yul\":1738:1745   */\n      dup10\n        /* \"#utility.yul\":1734:1757   */\n      sub\n        /* \"#utility.yul\":1730:1763   */\n      slt\n        /* \"#utility.yul\":1727:1847   */\n      iszero\n      tag_115\n      jumpi\n        /* \"#utility.yul\":1766:1845   */\n      tag_116\n      tag_112\n      jump\t// in\n    tag_116:\n        /* \"#utility.yul\":1727:1847   */\n    tag_115:\n        /* \"#utility.yul\":1886:1887   */\n      0x00\n        /* \"#utility.yul\":1911:1964   */\n      tag_117\n        /* \"#utility.yul\":1956:1963   */\n      dup10\n        /* \"#utility.yul\":1947:1953   */\n      dup3\n        /* \"#utility.yul\":1936:1945   */\n      dup11\n        /* \"#utility.yul\":1932:1954   */\n      add\n        /* \"#utility.yul\":1911:1964   */\n      tag_91\n      jump\t// in\n    tag_117:\n        /* \"#utility.yul\":1901:1964   */\n      swap7\n      pop\n        /* \"#utility.yul\":1857:1974   */\n      pop\n        /* \"#utility.yul\":2041:2043   */\n      0x20\n        /* \"#utility.yul\":2030:2039   */\n      dup8\n        /* \"#utility.yul\":2026:2044   */\n      add\n        /* \"#utility.yul\":2013:2045   */\n      calldataload\n        /* \"#utility.yul\":2072:2090   */\n      0xffffffffffffffff\n        /* \"#utility.yul\":2064:2070   */\n      dup2\n        /* \"#utility.yul\":2061:2091   */\n      gt\n        /* \"#utility.yul\":2058:2175   */\n      iszero\n      tag_118\n      jumpi\n        /* \"#utility.yul\":2094:2173   */\n      tag_119\n      tag_120\n      jump\t// in\n    tag_119:\n        /* \"#utility.yul\":2058:2175   */\n    tag_118:\n        /* \"#utility.yul\":2199:2262   */\n      tag_121\n        /* \"#utility.yul\":2254:2261   */\n      dup10\n        /* \"#utility.yul\":2245:2251   */\n      dup3\n        /* \"#utility.yul\":2234:2243   */\n      dup11\n        /* \"#utility.yul\":2230:2252   */\n      add\n        /* \"#utility.yul\":2199:2262   */\n      tag_99\n      jump\t// in\n    tag_121:\n        /* \"#utility.yul\":2189:2262   */\n      swap6\n      pop\n        /* \"#utility.yul\":1984:2272   */\n      pop\n        /* \"#utility.yul\":2339:2341   */\n      0x40\n        /* \"#utility.yul\":2328:2337   */\n      dup8\n        /* \"#utility.yul\":2324:2342   */\n      add\n        /* \"#utility.yul\":2311:2343   */\n      calldataload\n        /* \"#utility.yul\":2370:2388   */\n      0xffffffffffffffff\n        /* \"#utility.yul\":2362:2368   */\n      dup2\n        /* \"#utility.yul\":2359:2389   */\n      gt\n        /* \"#utility.yul\":2356:2473   */\n      iszero\n      tag_122\n      jumpi\n        /* \"#utility.yul\":2392:2471   */\n      tag_123\n      tag_120\n      jump\t// in\n    tag_123:\n        /* \"#utility.yul\":2356:2473   */\n    tag_122:\n        /* \"#utility.yul\":2497:2560   */\n      tag_124\n        /* \"#utility.yul\":2552:2559   */\n      dup10\n        /* \"#utility.yul\":2543:2549   */\n      dup3\n        /* \"#utility.yul\":2532:2541   */\n      dup11\n        /* \"#utility.yul\":2528:2550   */\n      add\n        /* \"#utility.yul\":2497:2560   */\n      tag_99\n      jump\t// in\n    tag_124:\n        /* \"#utility.yul\":2487:2560   */\n      swap5\n      pop\n        /* \"#utility.yul\":2282:2570   */\n      pop\n        /* \"#utility.yul\":2609:2611   */\n      0x60\n        /* \"#utility.yul\":2635:2688   */\n      tag_125\n        /* \"#utility.yul\":2680:2687   */\n      dup10\n        /* \"#utility.yul\":2671:2677   */\n      dup3\n        /* \"#utility.yul\":2660:2669   */\n      dup11\n        /* \"#utility.yul\":2656:2678   */\n      add\n        /* \"#utility.yul\":2635:2688   */\n      tag_105\n      jump\t// in\n    tag_125:\n        /* \"#utility.yul\":2625:2688   */\n      swap4\n      pop\n        /* \"#utility.yul\":2580:2698   */\n      pop\n        /* \"#utility.yul\":2737:2740   */\n      0x80\n        /* \"#utility.yul\":2764:2817   */\n      tag_126\n        /* \"#utility.yul\":2809:2816   */\n      dup10\n        /* \"#utility.yul\":2800:2806   */\n      dup3\n        /* \"#utility.yul\":2789:2798   */\n      dup11\n        /* \"#utility.yul\":2785:2807   */\n      add\n        /* \"#utility.yul\":2764:2817   */\n      tag_105\n      jump\t// in\n    tag_126:\n        /* \"#utility.yul\":2754:2817   */\n      swap3\n      pop\n        /* \"#utility.yul\":2708:2827   */\n      pop\n        /* \"#utility.yul\":2866:2869   */\n      0xa0\n        /* \"#utility.yul\":2893:2943   */\n      tag_127\n        /* \"#utility.yul\":2935:2942   */\n      dup10\n        /* \"#utility.yul\":2926:2932   */\n      dup3\n        /* \"#utility.yul\":2915:2924   */\n      dup11\n        /* \"#utility.yul\":2911:2933   */\n      add\n        /* \"#utility.yul\":2893:2943   */\n      tag_95\n      jump\t// in\n    tag_127:\n        /* \"#utility.yul\":2883:2943   */\n      swap2\n      pop\n        /* \"#utility.yul\":2837:2953   */\n      pop\n        /* \"#utility.yul\":1549:2960   */\n      swap3\n      swap6\n      pop\n      swap3\n      swap6\n      pop\n      swap3\n      swap6\n      jump\t// out\n        /* \"#utility.yul\":2966:3295   */\n    tag_19:\n        /* \"#utility.yul\":3025:3031   */\n      0x00\n        /* \"#utility.yul\":3074:3076   */\n      0x20\n        /* \"#utility.yul\":3062:3071   */\n      dup3\n        /* \"#utility.yul\":3053:3060   */\n      dup5\n        /* \"#utility.yul\":3049:3072   */\n      sub\n        /* \"#utility.yul\":3045:3077   */\n      slt\n        /* \"#utility.yul\":3042:3161   */\n      iszero\n      tag_129\n      jumpi\n        /* \"#utility.yul\":3080:3159   */\n      tag_130\n      tag_112\n      jump\t// in\n    tag_130:\n        /* \"#utility.yul\":3042:3161   */\n    tag_129:\n        /* \"#utility.yul\":3200:3201   */\n      0x00\n        /* \"#utility.yul\":3225:3278   */\n      tag_131\n        /* \"#utility.yul\":3270:3277   */\n      dup5\n        /* \"#utility.yul\":3261:3267   */\n      dup3\n        /* \"#utility.yul\":3250:3259   */\n      dup6\n        /* \"#utility.yul\":3246:3268   */\n      add\n        /* \"#utility.yul\":3225:3278   */\n      tag_105\n      jump\t// in\n    tag_131:\n        /* \"#utility.yul\":3215:3278   */\n      swap2\n      pop\n        /* \"#utility.yul\":3171:3288   */\n      pop\n        /* \"#utility.yul\":2966:3295   */\n      swap3\n      swap2\n      pop\n      pop\n      jump\t// out\n        /* \"#utility.yul\":3301:3419   */\n    tag_132:\n        /* \"#utility.yul\":3388:3412   */\n      tag_134\n        /* \"#utility.yul\":3406:3411   */\n      dup2\n        /* \"#utility.yul\":3388:3412   */\n      tag_135\n      jump\t// in\n    tag_134:\n        /* \"#utility.yul\":3383:3386   */\n      dup3\n        /* \"#utility.yul\":3376:3413   */\n      mstore\n        /* \"#utility.yul\":3301:3419   */\n      pop\n      pop\n      jump\t// out\n        /* \"#utility.yul\":3425:3534   */\n    tag_136:\n        /* \"#utility.yul\":3506:3527   */\n      tag_138\n        /* \"#utility.yul\":3521:3526   */\n      dup2\n        /* \"#utility.yul\":3506:3527   */\n      tag_139\n      jump\t// in\n    tag_138:\n        /* \"#utility.yul\":3501:3504   */\n      dup3\n        /* \"#utility.yul\":3494:3528   */\n      mstore\n        /* \"#utility.yul\":3425:3534   */\n      pop\n      pop\n      jump\t// out\n        /* \"#utility.yul\":3540:3904   */\n    tag_140:\n        /* \"#utility.yul\":3628:3631   */\n      0x00\n        /* \"#utility.yul\":3656:3695   */\n      tag_142\n        /* \"#utility.yul\":3689:3694   */\n      dup3\n        /* \"#utility.yul\":3656:3695   */\n      tag_143\n      jump\t// in\n    tag_142:\n        /* \"#utility.yul\":3711:3782   */\n      tag_144\n        /* \"#utility.yul\":3775:3781   */\n      dup2\n        /* \"#utility.yul\":3770:3773   */\n      dup6\n        /* \"#utility.yul\":3711:3782   */\n      tag_145\n      jump\t// in\n    tag_144:\n        /* \"#utility.yul\":3704:3782   */\n      swap4\n      pop\n        /* \"#utility.yul\":3791:3843   */\n      tag_146\n        /* \"#utility.yul\":3836:3842   */\n      dup2\n        /* \"#utility.yul\":3831:3834   */\n      dup6\n        /* \"#utility.yul\":3824:3828   */\n      0x20\n        /* \"#utility.yul\":3817:3822   */\n      dup7\n        /* \"#utility.yul\":3813:3829   */\n      add\n        /* \"#utility.yul\":3791:3843   */\n      tag_147\n      jump\t// in\n    tag_146:\n        /* \"#utility.yul\":3868:3897   */\n      tag_148\n        /* \"#utility.yul\":3890:3896   */\n      dup2\n        /* \"#utility.yul\":3868:3897   */\n      tag_149\n      jump\t// in\n    tag_148:\n        /* \"#utility.yul\":3863:3866   */\n      dup5\n        /* \"#utility.yul\":3859:3898   */\n      add\n        /* \"#utility.yul\":3852:3898   */\n      swap2\n      pop\n        /* \"#utility.yul\":3632:3904   */\n      pop\n        /* \"#utility.yul\":3540:3904   */\n      swap3\n      swap2\n      pop\n      pop\n      jump\t// out\n        /* \"#utility.yul\":3910:4028   */\n    tag_150:\n        /* \"#utility.yul\":3997:4021   */\n      tag_152\n        /* \"#utility.yul\":4015:4020   */\n      dup2\n        /* \"#utility.yul\":3997:4021   */\n      tag_153\n      jump\t// in\n    tag_152:\n        /* \"#utility.yul\":3992:3995   */\n      dup3\n        /* \"#utility.yul\":3985:4022   */\n      mstore\n        /* \"#utility.yul\":3910:4028   */\n      pop\n      pop\n      jump\t// out\n        /* \"#utility.yul\":4034:4979   */\n    tag_22:\n        /* \"#utility.yul\":4301:4305   */\n      0x00\n        /* \"#utility.yul\":4339:4342   */\n      0xc0\n        /* \"#utility.yul\":4328:4337   */\n      dup3\n        /* \"#utility.yul\":4324:4343   */\n      add\n        /* \"#utility.yul\":4316:4343   */\n      swap1\n      pop\n        /* \"#utility.yul\":4353:4424   */\n      tag_155\n        /* \"#utility.yul\":4421:4422   */\n      0x00\n        /* \"#utility.yul\":4410:4419   */\n      dup4\n        /* \"#utility.yul\":4406:4423   */\n      add\n        /* \"#utility.yul\":4397:4403   */\n      dup10\n        /* \"#utility.yul\":4353:4424   */\n      tag_132\n      jump\t// in\n    tag_155:\n        /* \"#utility.yul\":4471:4480   */\n      dup2\n        /* \"#utility.yul\":4465:4469   */\n      dup2\n        /* \"#utility.yul\":4461:4481   */\n      sub\n        /* \"#utility.yul\":4456:4458   */\n      0x20\n        /* \"#utility.yul\":4445:4454   */\n      dup4\n        /* \"#utility.yul\":4441:4459   */\n      add\n        /* \"#utility.yul\":4434:4482   */\n      mstore\n        /* \"#utility.yul\":4499:4577   */\n      tag_156\n        /* \"#utility.yul\":4572:4576   */\n      dup2\n        /* \"#utility.yul\":4563:4569   */\n      dup9\n        /* \"#utility.yul\":4499:4577   */\n      tag_140\n      jump\t// in\n    tag_156:\n        /* \"#utility.yul\":4491:4577   */\n      swap1\n      pop\n        /* \"#utility.yul\":4624:4633   */\n      dup2\n        /* \"#utility.yul\":4618:4622   */\n      dup2\n        /* \"#utility.yul\":4614:4634   */\n      sub\n        /* \"#utility.yul\":4609:4611   */\n      0x40\n        /* \"#utility.yul\":4598:4607   */\n      dup4\n        /* \"#utility.yul\":4594:4612   */\n      add\n        /* \"#utility.yul\":4587:4635   */\n      mstore\n        /* \"#utility.yul\":4652:4730   */\n      tag_157\n        /* \"#utility.yul\":4725:4729   */\n      dup2\n        /* \"#utility.yul\":4716:4722   */\n      dup8\n        /* \"#utility.yul\":4652:4730   */\n      tag_140\n      jump\t// in\n    tag_157:\n        /* \"#utility.yul\":4644:4730   */\n      swap1\n      pop\n        /* \"#utility.yul\":4740:4812   */\n      tag_158\n        /* \"#utility.yul\":4808:4810   */\n      0x60\n        /* \"#utility.yul\":4797:4806   */\n      dup4\n        /* \"#utility.yul\":4793:4811   */\n      add\n        /* \"#utility.yul\":4784:4790   */\n      dup7\n        /* \"#utility.yul\":4740:4812   */\n      tag_150\n      jump\t// in\n    tag_158:\n        /* \"#utility.yul\":4822:4895   */\n      tag_159\n        /* \"#utility.yul\":4890:4893   */\n      0x80\n        /* \"#utility.yul\":4879:4888   */\n      dup4\n        /* \"#utility.yul\":4875:4894   */\n      add\n        /* \"#utility.yul\":4866:4872   */\n      dup6\n        /* \"#utility.yul\":4822:4895   */\n      tag_150\n      jump\t// in\n    tag_159:\n        /* \"#utility.yul\":4905:4972   */\n      tag_160\n        /* \"#utility.yul\":4967:4970   */\n      0xa0\n        /* \"#utility.yul\":4956:4965   */\n      dup4\n        /* \"#utility.yul\":4952:4971   */\n      add\n        /* \"#utility.yul\":4943:4949   */\n      dup5\n        /* \"#utility.yul\":4905:4972   */\n      tag_136\n      jump\t// in\n    tag_160:\n        /* \"#utility.yul\":4034:4979   */\n      swap8\n      swap7\n      pop\n      pop\n      pop\n      pop\n      pop\n      pop\n      pop\n      jump\t// out\n        /* \"#utility.yul\":4985:5207   */\n    tag_15:\n        /* \"#utility.yul\":5078:5082   */\n      0x00\n        /* \"#utility.yul\":5116:5118   */\n      0x20\n        /* \"#utility.yul\":5105:5114   */\n      dup3\n        /* \"#utility.yul\":5101:5119   */\n      add\n        /* \"#utility.yul\":5093:5119   */\n      swap1\n      pop\n        /* \"#utility.yul\":5129:5200   */\n      tag_162\n        /* \"#utility.yul\":5197:5198   */\n      0x00\n        /* \"#utility.yul\":5186:5195   */\n      dup4\n        /* \"#utility.yul\":5182:5199   */\n      add\n        /* \"#utility.yul\":5173:5179   */\n      dup5\n        /* \"#utility.yul\":5129:5200   */\n      tag_150\n      jump\t// in\n    tag_162:\n        /* \"#utility.yul\":4985:5207   */\n      swap3\n      swap2\n      pop\n      pop\n      jump\t// out\n        /* \"#utility.yul\":5213:5342   */\n    tag_85:\n        /* \"#utility.yul\":5247:5253   */\n      0x00\n        /* \"#utility.yul\":5274:5294   */\n      tag_164\n      tag_165\n      jump\t// in\n    tag_164:\n        /* \"#utility.yul\":5264:5294   */\n      swap1\n      pop\n        /* \"#utility.yul\":5303:5336   */\n      tag_166\n        /* \"#utility.yul\":5331:5335   */\n      dup3\n        /* \"#utility.yul\":5323:5329   */\n      dup3\n        /* \"#utility.yul\":5303:5336   */\n      tag_167\n      jump\t// in\n    tag_166:\n        /* \"#utility.yul\":5213:5342   */\n      swap2\n      swap1\n      pop\n      jump\t// out\n        /* \"#utility.yul\":5348:5423   */\n    tag_165:\n        /* \"#utility.yul\":5381:5387   */\n      0x00\n        /* \"#utility.yul\":5414:5416   */\n      0x40\n        /* \"#utility.yul\":5408:5417   */\n      mload\n        /* \"#utility.yul\":5398:5417   */\n      swap1\n      pop\n        /* \"#utility.yul\":5348:5423   */\n      swap1\n      jump\t// out\n        /* \"#utility.yul\":5429:5737   */\n    tag_84:\n        /* \"#utility.yul\":5491:5495   */\n      0x00\n        /* \"#utility.yul\":5581:5599   */\n      0xffffffffffffffff\n        /* \"#utility.yul\":5573:5579   */\n      dup3\n        /* \"#utility.yul\":5570:5600   */\n      gt\n        /* \"#utility.yul\":5567:5623   */\n      iszero\n      tag_170\n      jumpi\n        /* \"#utility.yul\":5603:5621   */\n      tag_171\n      tag_172\n      jump\t// in\n    tag_171:\n        /* \"#utility.yul\":5567:5623   */\n    tag_170:\n        /* \"#utility.yul\":5641:5670   */\n      tag_173\n        /* \"#utility.yul\":5663:5669   */\n      dup3\n        /* \"#utility.yul\":5641:5670   */\n      tag_149\n      jump\t// in\n    tag_173:\n        /* \"#utility.yul\":5633:5670   */\n      swap1\n      pop\n        /* \"#utility.yul\":5725:5729   */\n      0x20\n        /* \"#utility.yul\":5719:5723   */\n      dup2\n        /* \"#utility.yul\":5715:5730   */\n      add\n        /* \"#utility.yul\":5707:5730   */\n      swap1\n      pop\n        /* \"#utility.yul\":5429:5737   */\n      swap2\n      swap1\n      pop\n      jump\t// out\n        /* \"#utility.yul\":5743:5842   */\n    tag_143:\n        /* \"#utility.yul\":5795:5801   */\n      0x00\n        /* \"#utility.yul\":5829:5834   */\n      dup2\n        /* \"#utility.yul\":5823:5835   */\n      mload\n        /* \"#utility.yul\":5813:5835   */\n      swap1\n      pop\n        /* \"#utility.yul\":5743:5842   */\n      swap2\n      swap1\n      pop\n      jump\t// out\n        /* \"#utility.yul\":5848:6017   */\n    tag_145:\n        /* \"#utility.yul\":5932:5943   */\n      0x00\n        /* \"#utility.yul\":5966:5972   */\n      dup3\n        /* \"#utility.yul\":5961:5964   */\n      dup3\n        /* \"#utility.yul\":5954:5973   */\n      mstore\n        /* \"#utility.yul\":6006:6010   */\n      0x20\n        /* \"#utility.yul\":6001:6004   */\n      dup3\n        /* \"#utility.yul\":5997:6011   */\n      add\n        /* \"#utility.yul\":5982:6011   */\n      swap1\n      pop\n        /* \"#utility.yul\":5848:6017   */\n      swap3\n      swap2\n      pop\n      pop\n      jump\t// out\n        /* \"#utility.yul\":6023:6328   */\n    tag_58:\n        /* \"#utility.yul\":6063:6066   */\n      0x00\n        /* \"#utility.yul\":6082:6102   */\n      tag_177\n        /* \"#utility.yul\":6100:6101   */\n      dup3\n        /* \"#utility.yul\":6082:6102   */\n      tag_153\n      jump\t// in\n    tag_177:\n        /* \"#utility.yul\":6077:6102   */\n      swap2\n      pop\n        /* \"#utility.yul\":6116:6136   */\n      tag_178\n        /* \"#utility.yul\":6134:6135   */\n      dup4\n        /* \"#utility.yul\":6116:6136   */\n      tag_153\n      jump\t// in\n    tag_178:\n        /* \"#utility.yul\":6111:6136   */\n      swap3\n      pop\n        /* \"#utility.yul\":6270:6271   */\n      dup3\n        /* \"#utility.yul\":6202:6268   */\n      0xffffffffffffffffffffffffffffffffffffffffffffffffffffffffffffffff\n        /* \"#utility.yul\":6198:6272   */\n      sub\n        /* \"#utility.yul\":6195:6196   */\n      dup3\n        /* \"#utility.yul\":6192:6273   */\n      gt\n        /* \"#utility.yul\":6189:6296   */\n      iszero\n      tag_179\n      jumpi\n        /* \"#utility.yul\":6276:6294   */\n      tag_180\n      tag_181\n      jump\t// in\n    tag_180:\n        /* \"#utility.yul\":6189:6296   */\n    tag_179:\n        /* \"#utility.yul\":6320:6321   */\n      dup3\n        /* \"#utility.yul\":6317:6318   */\n      dup3\n        /* \"#utility.yul\":6313:6322   */\n      add\n        /* \"#utility.yul\":6306:6322   */\n      swap1\n      pop\n        /* \"#utility.yul\":6023:6328   */\n      swap3\n      swap2\n      pop\n      pop\n      jump\t// out\n        /* \"#utility.yul\":6334:6430   */\n    tag_135:\n        /* \"#utility.yul\":6371:6378   */\n      0x00\n        /* \"#utility.yul\":6400:6424   */\n      tag_183\n        /* \"#utility.yul\":6418:6423   */\n      dup3\n        /* \"#utility.yul\":6400:6424   */\n      tag_184\n      jump\t// in\n    tag_183:\n        /* \"#utility.yul\":6389:6424   */\n      swap1\n      pop\n        /* \"#utility.yul\":6334:6430   */\n      swap2\n      swap1\n      pop\n      jump\t// out\n        /* \"#utility.yul\":6436:6526   */\n    tag_139:\n        /* \"#utility.yul\":6470:6477   */\n      0x00\n        /* \"#utility.yul\":6513:6518   */\n      dup2\n        /* \"#utility.yul\":6506:6519   */\n      iszero\n        /* \"#utility.yul\":6499:6520   */\n      iszero\n        /* \"#utility.yul\":6488:6520   */\n      swap1\n      pop\n        /* \"#utility.yul\":6436:6526   */\n      swap2\n      swap1\n      pop\n      jump\t// out\n        /* \"#utility.yul\":6532:6658   */\n    tag_184:\n        /* \"#utility.yul\":6569:6576   */\n      0x00\n        /* \"#utility.yul\":6609:6651   */\n      0xffffffffffffffffffffffffffffffffffffffff\n        /* \"#utility.yul\":6602:6607   */\n      dup3\n        /* \"#utility.yul\":6598:6652   */\n      and\n        /* \"#utility.yul\":6587:6652   */\n      swap1\n      pop\n        /* \"#utility.yul\":6532:6658   */\n      swap2\n      swap1\n      pop\n      jump\t// out\n        /* \"#utility.yul\":6664:6741   */\n    tag_153:\n        /* \"#utility.yul\":6701:6708   */\n      0x00\n        /* \"#utility.yul\":6730:6735   */\n      dup2\n        /* \"#utility.yul\":6719:6735   */\n      swap1\n      pop\n        /* \"#utility.yul\":6664:6741   */\n      swap2\n      swap1\n      pop\n      jump\t// out\n        /* \"#utility.yul\":6747:6901   */\n    tag_90:\n        /* \"#utility.yul\":6831:6837   */\n      dup3\n        /* \"#utility.yul\":6826:6829   */\n      dup2\n        /* \"#utility.yul\":6821:6824   */\n      dup4\n        /* \"#utility.yul\":6808:6838   */\n      calldatacopy\n        /* \"#utility.yul\":6893:6894   */\n      0x00\n        /* \"#utility.yul\":6884:6890   */\n      dup4\n        /* \"#utility.yul\":6879:6882   */\n      dup4\n        /* \"#utility.yul\":6875:6891   */\n      add\n        /* \"#utility.yul\":6868:6895   */\n      mstore\n        /* \"#utility.yul\":6747:6901   */\n      pop\n      pop\n      pop\n      jump\t// out\n        /* \"#utility.yul\":6907:7214   */\n    tag_147:\n        /* \"#utility.yul\":6975:6976   */\n      0x00\n        /* \"#utility.yul\":6985:7098   */\n    tag_190:\n        /* \"#utility.yul\":6999:7005   */\n      dup4\n        /* \"#utility.yul\":6996:6997   */\n      dup2\n        /* \"#utility.yul\":6993:7006   */\n      lt\n        /* \"#utility.yul\":6985:7098   */\n      iszero\n      tag_192\n      jumpi\n        /* \"#utility.yul\":7084:7085   */\n      dup1\n        /* \"#utility.yul\":7079:7082   */\n      dup3\n        /* \"#utility.yul\":7075:7086   */\n      add\n        /* \"#utility.yul\":7069:7087   */\n      mload\n        /* \"#utility.yul\":7065:7066   */\n      dup2\n        /* \"#utility.yul\":7060:7063   */\n      dup5\n        /* \"#utility.yul\":7056:7067   */\n      add\n        /* \"#utility.yul\":7049:7088   */\n      mstore\n        /* \"#utility.yul\":7021:7023   */\n      0x20\n        /* \"#utility.yul\":7018:7019   */\n      dup2\n        /* \"#utility.yul\":7014:7024   */\n      add\n        /* \"#utility.yul\":7009:7024   */\n      swap1\n      pop\n        /* \"#utility.yul\":6985:7098   */\n      jump(tag_190)\n    tag_192:\n        /* \"#utility.yul\":7116:7122   */\n      dup4\n        /* \"#utility.yul\":7113:7114   */\n      dup2\n        /* \"#utility.yul\":7110:7123   */\n      gt\n        /* \"#utility.yul\":7107:7208   */\n      iszero\n      tag_193\n      jumpi\n        /* \"#utility.yul\":7196:7197   */\n      0x00\n        /* \"#utility.yul\":7187:7193   */\n      dup5\n        /* \"#utility.yul\":7182:7185   */\n      dup5\n        /* \"#utility.yul\":7178:7194   */\n      add\n        /* \"#utility.yul\":7171:7198   */\n      mstore\n        /* \"#utility.yul\":7107:7208   */\n    tag_193:\n        /* \"#utility.yul\":6956:7214   */\n      pop\n        /* \"#utility.yul\":6907:7214   */\n      pop\n      pop\n      pop\n      jump\t// out\n        /* \"#utility.yul\":7220:7540   */\n    tag_36:\n        /* \"#utility.yul\":7264:7270   */\n      0x00\n        /* \"#utility.yul\":7301:7302   */\n      0x02\n        /* \"#utility.yul\":7295:7299   */\n      dup3\n        /* \"#utility.yul\":7291:7303   */\n      div\n        /* \"#utility.yul\":7281:7303   */\n      swap1\n      pop\n        /* \"#utility.yul\":7348:7349   */\n      0x01\n        /* \"#utility.yul\":7342:7346   */\n      dup3\n        /* \"#utility.yul\":7338:7350   */\n      and\n        /* \"#utility.yul\":7369:7387   */\n      dup1\n        /* \"#utility.yul\":7359:7440   */\n      tag_195\n      jumpi\n        /* \"#utility.yul\":7425:7429   */\n      0x7f\n        /* \"#utility.yul\":7417:7423   */\n      dup3\n        /* \"#utility.yul\":7413:7430   */\n      and\n        /* \"#utility.yul\":7403:7430   */\n      swap2\n      pop\n        /* \"#utility.yul\":7359:7440   */\n    tag_195:\n        /* \"#utility.yul\":7487:7489   */\n      0x20\n        /* \"#utility.yul\":7479:7485   */\n      dup3\n        /* \"#utility.yul\":7476:7490   */\n      lt\n        /* \"#utility.yul\":7456:7474   */\n      dup2\n        /* \"#utility.yul\":7453:7491   */\n      eq\n        /* \"#utility.yul\":7450:7534   */\n      iszero\n      tag_196\n      jumpi\n        /* \"#utility.yul\":7506:7524   */\n      tag_197\n      tag_198\n      jump\t// in\n    tag_197:\n        /* \"#utility.yul\":7450:7534   */\n    tag_196:\n        /* \"#utility.yul\":7271:7540   */\n      pop\n        /* \"#utility.yul\":7220:7540   */\n      swap2\n      swap1\n      pop\n      jump\t// out\n        /* \"#utility.yul\":7546:7827   */\n    tag_167:\n        /* \"#utility.yul\":7629:7656   */\n      tag_200\n        /* \"#utility.yul\":7651:7655   */\n      dup3\n        /* \"#utility.yul\":7629:7656   */\n      tag_149\n      jump\t// in\n    tag_200:\n        /* \"#utility.yul\":7621:7627   */\n      dup2\n        /* \"#utility.yul\":7617:7657   */\n      add\n        /* \"#utility.yul\":7759:7765   */\n      dup2\n        /* \"#utility.yul\":7747:7757   */\n      dup2\n        /* \"#utility.yul\":7744:7766   */\n      lt\n        /* \"#utility.yul\":7723:7741   */\n      0xffffffffffffffff\n        /* \"#utility.yul\":7711:7721   */\n      dup3\n        /* \"#utility.yul\":7708:7742   */\n      gt\n        /* \"#utility.yul\":7705:7767   */\n      or\n        /* \"#utility.yul\":7702:7790   */\n      iszero\n      tag_201\n      jumpi\n        /* \"#utility.yul\":7770:7788   */\n      tag_202\n      tag_172\n      jump\t// in\n    tag_202:\n        /* \"#utility.yul\":7702:7790   */\n    tag_201:\n        /* \"#utility.yul\":7810:7820   */\n      dup1\n        /* \"#utility.yul\":7806:7808   */\n      0x40\n        /* \"#utility.yul\":7799:7821   */\n      mstore\n        /* \"#utility.yul\":7589:7827   */\n      pop\n        /* \"#utility.yul\":7546:7827   */\n      pop\n      pop\n      jump\t// out\n        /* \"#utility.yul\":7833:8066   */\n    tag_68:\n        /* \"#utility.yul\":7872:7875   */\n      0x00\n        /* \"#utility.yul\":7895:7919   */\n      tag_204\n        /* \"#utility.yul\":7913:7918   */\n      dup3\n        /* \"#utility.yul\":7895:7919   */\n      tag_153\n      jump\t// in\n    tag_204:\n        /* \"#utility.yul\":7886:7919   */\n      swap2\n      pop\n        /* \"#utility.yul\":7941:8007   */\n      0xffffffffffffffffffffffffffffffffffffffffffffffffffffffffffffffff\n        /* \"#utility.yul\":7934:7939   */\n      dup3\n        /* \"#utility.yul\":7931:8008   */\n      eq\n        /* \"#utility.yul\":7928:8031   */\n      iszero\n      tag_205\n      jumpi\n        /* \"#utility.yul\":8011:8029   */\n      tag_206\n      tag_181\n      jump\t// in\n    tag_206:\n        /* \"#utility.yul\":7928:8031   */\n    tag_205:\n        /* \"#utility.yul\":8058:8059   */\n      0x01\n        /* \"#utility.yul\":8051:8056   */\n      dup3\n        /* \"#utility.yul\":8047:8060   */\n      add\n        /* \"#utility.yul\":8040:8060   */\n      swap1\n      pop\n        /* \"#utility.yul\":7833:8066   */\n      swap2\n      swap1\n      pop\n      jump\t// out\n        /* \"#utility.yul\":8072:8252   */\n    tag_181:\n        /* \"#utility.yul\":8120:8197   */\n      0x4e487b7100000000000000000000000000000000000000000000000000000000\n        /* \"#utility.yul\":8117:8118   */\n      0x00\n        /* \"#utility.yul\":8110:8198   */\n      mstore\n        /* \"#utility.yul\":8217:8221   */\n      0x11\n        /* \"#utility.yul\":8214:8215   */\n      0x04\n        /* \"#utility.yul\":8207:8222   */\n      mstore\n        /* \"#utility.yul\":8241:8245   */\n      0x24\n        /* \"#utility.yul\":8238:8239   */\n      0x00\n        /* \"#utility.yul\":8231:8246   */\n      revert\n        /* \"#utility.yul\":8258:8438   */\n    tag_198:\n        /* \"#utility.yul\":8306:8383   */\n      0x4e487b7100000000000000000000000000000000000000000000000000000000\n        /* \"#utility.yul\":8303:8304   */\n      0x00\n        /* \"#utility.yul\":8296:8384   */\n      mstore\n        /* \"#utility.yul\":8403:8407   */\n      0x22\n        /* \"#utility.yul\":8400:8401   */\n      0x04\n        /* \"#utility.yul\":8393:8408   */\n      mstore\n        /* \"#utility.yul\":8427:8431   */\n      0x24\n        /* \"#utility.yul\":8424:8425   */\n      0x00\n        /* \"#utility.yul\":8417:8432   */\n      revert\n        /* \"#utility.yul\":8444:8624   */\n    tag_55:\n        /* \"#utility.yul\":8492:8569   */\n      0x4e487b7100000000000000000000000000000000000000000000000000000000\n        /* \"#utility.yul\":8489:8490   */\n      0x00\n        /* \"#utility.yul\":8482:8570   */\n      mstore\n        /* \"#utility.yul\":8589:8593   */\n      0x32\n        /* \"#utility.yul\":8586:8587   */\n      0x04\n        /* \"#utility.yul\":8579:8594   */\n      mstore\n        /* \"#utility.yul\":8613:8617   */\n      0x24\n        /* \"#utility.yul\":8610:8611   */\n      0x00\n        /* \"#utility.yul\":8603:8618   */\n      revert\n        /* \"#utility.yul\":8630:8810   */\n    tag_172:\n        /* \"#utility.yul\":8678:8755   */\n      0x4e487b7100000000000000000000000000000000000000000000000000000000\n        /* \"#utility.yul\":8675:8676   */\n      0x00\n        /* \"#utility.yul\":8668:8756   */\n      mstore\n        /* \"#utility.yul\":8775:8779   */\n      0x41\n        /* \"#utility.yul\":8772:8773   */\n      0x04\n        /* \"#utility.yul\":8765:8780   */\n      mstore\n        /* \"#utility.yul\":8799:8803   */\n      0x24\n        /* \"#utility.yul\":8796:8797   */\n      0x00\n        /* \"#utility.yul\":8789:8804   */\n      revert\n        /* \"#utility.yul\":8816:8933   */\n    tag_103:\n        /* \"#utility.yul\":8925:8926   */\n      0x00\n        /* \"#utility.yul\":8922:8923   */\n      dup1\n        /* \"#utility.yul\":8915:8927   */\n      revert\n        /* \"#utility.yul\":8939:9056   */\n    tag_88:\n        /* \"#utility.yul\":9048:9049   */\n      0x00\n        /* \"#utility.yul\":9045:9046   */\n      dup1\n        /* \"#utility.yul\":9038:9050   */\n      revert\n        /* \"#utility.yul\":9062:9179   */\n    tag_120:\n        /* \"#utility.yul\":9171:9172   */\n      0x00\n        /* \"#utility.yul\":9168:9169   */\n      dup1\n        /* \"#utility.yul\":9161:9173   */\n      revert\n        /* \"#utility.yul\":9185:9302   */\n    tag_112:\n        /* \"#utility.yul\":9294:9295   */\n      0x00\n        /* \"#utility.yul\":9291:9292   */\n      dup1\n        /* \"#utility.yul\":9284:9296   */\n      revert\n        /* \"#utility.yul\":9308:9410   */\n    tag_149:\n        /* \"#utility.yul\":9349:9355   */\n      0x00\n        /* \"#utility.yul\":9400:9402   */\n      0x1f\n        /* \"#utility.yul\":9396:9403   */\n      not\n        /* \"#utility.yul\":9391:9393   */\n      0x1f\n        /* \"#utility.yul\":9384:9389   */\n      dup4\n        /* \"#utility.yul\":9380:9394   */\n      add\n        /* \"#utility.yul\":9376:9404   */\n      and\n        /* \"#utility.yul\":9366:9404   */\n      swap1\n      pop\n        /* \"#utility.yul\":9308:9410   */\n      swap2\n      swap1\n      pop\n      jump\t// out\n        /* \"#utility.yul\":9416:9538   */\n    tag_94:\n        /* \"#utility.yul\":9489:9513   */\n      tag_217\n        /* \"#utility.yul\":9507:9512   */\n      dup2\n        /* \"#utility.yul\":9489:9513   */\n      tag_135\n      jump\t// in\n    tag_217:\n        /* \"#utility.yul\":9482:9487   */\n      dup2\n        /* \"#utility.yul\":9479:9514   */\n      eq\n        /* \"#utility.yul\":9469:9532   */\n      tag_218\n      jumpi\n        /* \"#utility.yul\":9528:9529   */\n      0x00\n        /* \"#utility.yul\":9525:9526   */\n      dup1\n        /* \"#utility.yul\":9518:9530   */\n      revert\n        /* \"#utility.yul\":9469:9532   */\n    tag_218:\n        /* \"#utility.yul\":9416:9538   */\n      pop\n      jump\t// out\n        /* \"#utility.yul\":9544:9660   */\n    tag_98:\n        /* \"#utility.yul\":9614:9635   */\n      tag_220\n        /* \"#utility.yul\":9629:9634   */\n      dup2\n        /* \"#utility.yul\":9614:9635   */\n      tag_139\n      jump\t// in\n    tag_220:\n        /* \"#utility.yul\":9607:9612   */\n      dup2\n        /* \"#utility.yul\":9604:9636   */\n      eq\n        /* \"#utility.yul\":9594:9654   */\n      tag_221\n      jumpi\n        /* \"#utility.yul\":9650:9651   */\n      0x00\n        /* \"#utility.yul\":9647:9648   */\n      dup1\n        /* \"#utility.yul\":9640:9652   */\n      revert\n        /* \"#utility.yul\":9594:9654   */\n    tag_221:\n        /* \"#utility.yul\":9544:9660   */\n      pop\n      jump\t// out\n        /* \"#utility.yul\":9666:9788   */\n    tag_108:\n        /* \"#utility.yul\":9739:9763   */\n      tag_223\n        /* \"#utility.yul\":9757:9762   */\n      dup2\n        /* \"#utility.yul\":9739:9763   */\n      tag_153\n      jump\t// in\n    tag_223:\n        /* \"#utility.yul\":9732:9737   */\n      dup2\n        /* \"#utility.yul\":9729:9764   */\n      eq\n        /* \"#utility.yul\":9719:9782   */\n      tag_224\n      jumpi\n        /* \"#utility.yul\":9778:9779   */\n      0x00\n        /* \"#utility.yul\":9775:9776   */\n      dup1\n        /* \"#utility.yul\":9768:9780   */\n      revert\n        /* \"#utility.yul\":9719:9782   */\n    tag_224:\n        /* \"#utility.yul\":9666:9788   */\n      pop\n      jump\t// out\n\n    auxdata: 0xa264697066735822122046e061ceeb11d48fb8135a1ad3c048e0ef3febc8f00e2d81d4de22fc5d4cb55c64736f6c63430008070033\n}\n",
				"bytecode": {
					"linkReferences": {},
					"object": "608060405234801561001057600080fd5b50336000806101000a81548173ffffffffffffffffffffffffffffffffffffffff021916908373ffffffffffffffffffffffffffffffffffffffff160217905550610b91806100606000396000f3fe60806040526004361061003f5760003560e01c806331d575c514610044578063722713f71461006d5780637285fd3a14610098578063f340fa01146100da575b600080fd5b34801561005057600080fd5b5061006b60048036038101906100669190610655565b6100f6565b005b34801561007957600080fd5b50610082610225565b60405161008f919061081c565b60405180910390f35b3480156100a457600080fd5b506100bf60048036038101906100ba919061071a565b61022d565b6040516100d1969594939291906107ad565b60405180910390f35b6100f460048036038101906100ef9190610628565b6103b6565b005b60016040518060c001604052808873ffffffffffffffffffffffffffffffffffffffff168152602001878152602001868152602001858152602001848152602001831515815250908060018154018082558091505060019003906000526020600020906006020160009091909190915060008201518160000160006101000a81548173ffffffffffffffffffffffffffffffffffffffff021916908373ffffffffffffffffffffffffffffffffffffffff16021790555060208201518160010190805190602001906101c99291906104d6565b5060408201518160020190805190602001906101e69291906104d6565b50606082015181600301556080820151816004015560a08201518160050160006101000a81548160ff0219169083151502179055505050505050505050565b600047905090565b6001818154811061023d57600080fd5b90600052602060002090600602016000915090508060000160009054906101000a900473ffffffffffffffffffffffffffffffffffffffff169080600101805461028690610989565b80601f01602080910402602001604051908101604052809291908181526020018280546102b290610989565b80156102ff5780601f106102d4576101008083540402835291602001916102ff565b820191906000526020600020905b8154815290600101906020018083116102e257829003601f168201915b50505050509080600201805461031490610989565b80601f016020809104026020016040519081016040528092919081815260200182805461034090610989565b801561038d5780601f106103625761010080835404028352916020019161038d565b820191906000526020600020905b81548152906001019060200180831161037057829003601f168201915b5050505050908060030154908060040154908060050160009054906101000a900460ff16905086565b6103bf816103c2565b50565b60006103cd8261041d565b90506001805490508110156104195734600182815481106103f1576103f0610a93565b5b9060005260206000209060060201600401600082825461041191906108a9565b925050819055505b5050565b600080600090505b6001805490508110156104c7578273ffffffffffffffffffffffffffffffffffffffff166001828154811061045d5761045c610a93565b5b906000526020600020906006020160000160009054906101000a900473ffffffffffffffffffffffffffffffffffffffff1673ffffffffffffffffffffffffffffffffffffffff1614156104b457809150506104d1565b80806104bf906109ec565b915050610425565b5060018054905090505b919050565b8280546104e290610989565b90600052602060002090601f016020900481019282610504576000855561054b565b82601f1061051d57805160ff191683800117855561054b565b8280016001018555821561054b579182015b8281111561054a57825182559160200191906001019061052f565b5b509050610558919061055c565b5090565b5b8082111561057557600081600090555060010161055d565b5090565b600061058c6105878461085c565b610837565b9050828152602081018484840111156105a8576105a7610af6565b5b6105b3848285610947565b509392505050565b6000813590506105ca81610b16565b92915050565b6000813590506105df81610b2d565b92915050565b600082601f8301126105fa576105f9610af1565b5b813561060a848260208601610579565b91505092915050565b60008135905061062281610b44565b92915050565b60006020828403121561063e5761063d610b00565b5b600061064c848285016105bb565b91505092915050565b60008060008060008060c0878903121561067257610671610b00565b5b600061068089828a016105bb565b965050602087013567ffffffffffffffff8111156106a1576106a0610afb565b5b6106ad89828a016105e5565b955050604087013567ffffffffffffffff8111156106ce576106cd610afb565b5b6106da89828a016105e5565b94505060606106eb89828a01610613565b93505060806106fc89828a01610613565b92505060a061070d89828a016105d0565b9150509295509295509295565b6000602082840312156107305761072f610b00565b5b600061073e84828501610613565b91505092915050565b610750816108ff565b82525050565b61075f81610911565b82525050565b60006107708261088d565b61077a8185610898565b935061078a818560208601610956565b61079381610b05565b840191505092915050565b6107a78161093d565b82525050565b600060c0820190506107c26000830189610747565b81810360208301526107d48188610765565b905081810360408301526107e88187610765565b90506107f7606083018661079e565b610804608083018561079e565b61081160a0830184610756565b979650505050505050565b6000602082019050610831600083018461079e565b92915050565b6000610841610852565b905061084d82826109bb565b919050565b6000604051905090565b600067ffffffffffffffff82111561087757610876610ac2565b5b61088082610b05565b9050602081019050919050565b600081519050919050565b600082825260208201905092915050565b60006108b48261093d565b91506108bf8361093d565b9250827fffffffffffffffffffffffffffffffffffffffffffffffffffffffffffffffff038211156108f4576108f3610a35565b5b828201905092915050565b600061090a8261091d565b9050919050565b60008115159050919050565b600073ffffffffffffffffffffffffffffffffffffffff82169050919050565b6000819050919050565b82818337600083830152505050565b60005b83811015610974578082015181840152602081019050610959565b83811115610983576000848401525b50505050565b600060028204905060018216806109a157607f821691505b602082108114156109b5576109b4610a64565b5b50919050565b6109c482610b05565b810181811067ffffffffffffffff821117156109e3576109e2610ac2565b5b80604052505050565b60006109f78261093d565b91507fffffffffffffffffffffffffffffffffffffffffffffffffffffffffffffffff821415610a2a57610a29610a35565b5b600182019050919050565b7f4e487b7100000000000000000000000000000000000000000000000000000000600052601160045260246000fd5b7f4e487b7100000000000000000000000000000000000000000000000000000000600052602260045260246000fd5b7f4e487b7100000000000000000000000000000000000000000000000000000000600052603260045260246000fd5b7f4e487b7100000000000000000000000000000000000000000000000000000000600052604160045260246000fd5b600080fd5b600080fd5b600080fd5b600080fd5b6000601f19601f8301169050919050565b610b1f816108ff565b8114610b2a57600080fd5b50565b610b3681610911565b8114610b4157600080fd5b50565b610b4d8161093d565b8114610b5857600080fd5b5056fea264697066735822122046e061ceeb11d48fb8135a1ad3c048e0ef3febc8f00e2d81d4de22fc5d4cb55c64736f6c63430008070033",
					"opcodes": "PUSH1 0x80 PUSH1 0x40 MSTORE CALLVALUE DUP1 ISZERO PUSH2 0x10 JUMPI PUSH1 0x0 DUP1 REVERT JUMPDEST POP CALLER PUSH1 0x0 DUP1 PUSH2 0x100 EXP DUP2 SLOAD DUP2 PUSH20 0xFFFFFFFFFFFFFFFFFFFFFFFFFFFFFFFFFFFFFFFF MUL NOT AND SWAP1 DUP4 PUSH20 0xFFFFFFFFFFFFFFFFFFFFFFFFFFFFFFFFFFFFFFFF AND MUL OR SWAP1 SSTORE POP PUSH2 0xB91 DUP1 PUSH2 0x60 PUSH1 0x0 CODECOPY PUSH1 0x0 RETURN INVALID PUSH1 0x80 PUSH1 0x40 MSTORE PUSH1 0x4 CALLDATASIZE LT PUSH2 0x3F JUMPI PUSH1 0x0 CALLDATALOAD PUSH1 0xE0 SHR DUP1 PUSH4 0x31D575C5 EQ PUSH2 0x44 JUMPI DUP1 PUSH4 0x722713F7 EQ PUSH2 0x6D JUMPI DUP1 PUSH4 0x7285FD3A EQ PUSH2 0x98 JUMPI DUP1 PUSH4 0xF340FA01 EQ PUSH2 0xDA JUMPI JUMPDEST PUSH1 0x0 DUP1 REVERT JUMPDEST CALLVALUE DUP1 ISZERO PUSH2 0x50 JUMPI PUSH1 0x0 DUP1 REVERT JUMPDEST POP PUSH2 0x6B PUSH1 0x4 DUP1 CALLDATASIZE SUB DUP2 ADD SWAP1 PUSH2 0x66 SWAP2 SWAP1 PUSH2 0x655 JUMP JUMPDEST PUSH2 0xF6 JUMP JUMPDEST STOP JUMPDEST CALLVALUE DUP1 ISZERO PUSH2 0x79 JUMPI PUSH1 0x0 DUP1 REVERT JUMPDEST POP PUSH2 0x82 PUSH2 0x225 JUMP JUMPDEST PUSH1 0x40 MLOAD PUSH2 0x8F SWAP2 SWAP1 PUSH2 0x81C JUMP JUMPDEST PUSH1 0x40 MLOAD DUP1 SWAP2 SUB SWAP1 RETURN JUMPDEST CALLVALUE DUP1 ISZERO PUSH2 0xA4 JUMPI PUSH1 0x0 DUP1 REVERT JUMPDEST POP PUSH2 0xBF PUSH1 0x4 DUP1 CALLDATASIZE SUB DUP2 ADD SWAP1 PUSH2 0xBA SWAP2 SWAP1 PUSH2 0x71A JUMP JUMPDEST PUSH2 0x22D JUMP JUMPDEST PUSH1 0x40 MLOAD PUSH2 0xD1 SWAP7 SWAP6 SWAP5 SWAP4 SWAP3 SWAP2 SWAP1 PUSH2 0x7AD JUMP JUMPDEST PUSH1 0x40 MLOAD DUP1 SWAP2 SUB SWAP1 RETURN JUMPDEST PUSH2 0xF4 PUSH1 0x4 DUP1 CALLDATASIZE SUB DUP2 ADD SWAP1 PUSH2 0xEF SWAP2 SWAP1 PUSH2 0x628 JUMP JUMPDEST PUSH2 0x3B6 JUMP JUMPDEST STOP JUMPDEST PUSH1 0x1 PUSH1 0x40 MLOAD DUP1 PUSH1 0xC0 ADD PUSH1 0x40 MSTORE DUP1 DUP9 PUSH20 0xFFFFFFFFFFFFFFFFFFFFFFFFFFFFFFFFFFFFFFFF AND DUP2 MSTORE PUSH1 0x20 ADD DUP8 DUP2 MSTORE PUSH1 0x20 ADD DUP7 DUP2 MSTORE PUSH1 0x20 ADD DUP6 DUP2 MSTORE PUSH1 0x20 ADD DUP5 DUP2 MSTORE PUSH1 0x20 ADD DUP4 ISZERO ISZERO DUP2 MSTORE POP SWAP1 DUP1 PUSH1 0x1 DUP2 SLOAD ADD DUP1 DUP3 SSTORE DUP1 SWAP2 POP POP PUSH1 0x1 SWAP1 SUB SWAP1 PUSH1 0x0 MSTORE PUSH1 0x20 PUSH1 0x0 KECCAK256 SWAP1 PUSH1 0x6 MUL ADD PUSH1 0x0 SWAP1 SWAP2 SWAP1 SWAP2 SWAP1 SWAP2 POP PUSH1 0x0 DUP3 ADD MLOAD DUP2 PUSH1 0x0 ADD PUSH1 0x0 PUSH2 0x100 EXP DUP2 SLOAD DUP2 PUSH20 0xFFFFFFFFFFFFFFFFFFFFFFFFFFFFFFFFFFFFFFFF MUL NOT AND SWAP1 DUP4 PUSH20 0xFFFFFFFFFFFFFFFFFFFFFFFFFFFFFFFFFFFFFFFF AND MUL OR SWAP1 SSTORE POP PUSH1 0x20 DUP3 ADD MLOAD DUP2 PUSH1 0x1 ADD SWAP1 DUP1 MLOAD SWAP1 PUSH1 0x20 ADD SWAP1 PUSH2 0x1C9 SWAP3 SWAP2 SWAP1 PUSH2 0x4D6 JUMP JUMPDEST POP PUSH1 0x40 DUP3 ADD MLOAD DUP2 PUSH1 0x2 ADD SWAP1 DUP1 MLOAD SWAP1 PUSH1 0x20 ADD SWAP1 PUSH2 0x1E6 SWAP3 SWAP2 SWAP1 PUSH2 0x4D6 JUMP JUMPDEST POP PUSH1 0x60 DUP3 ADD MLOAD DUP2 PUSH1 0x3 ADD SSTORE PUSH1 0x80 DUP3 ADD MLOAD DUP2 PUSH1 0x4 ADD SSTORE PUSH1 0xA0 DUP3 ADD MLOAD DUP2 PUSH1 0x5 ADD PUSH1 0x0 PUSH2 0x100 EXP DUP2 SLOAD DUP2 PUSH1 0xFF MUL NOT AND SWAP1 DUP4 ISZERO ISZERO MUL OR SWAP1 SSTORE POP POP POP POP POP POP POP POP POP JUMP JUMPDEST PUSH1 0x0 SELFBALANCE SWAP1 POP SWAP1 JUMP JUMPDEST PUSH1 0x1 DUP2 DUP2 SLOAD DUP2 LT PUSH2 0x23D JUMPI PUSH1 0x0 DUP1 REVERT JUMPDEST SWAP1 PUSH1 0x0 MSTORE PUSH1 0x20 PUSH1 0x0 KECCAK256 SWAP1 PUSH1 0x6 MUL ADD PUSH1 0x0 SWAP2 POP SWAP1 POP DUP1 PUSH1 0x0 ADD PUSH1 0x0 SWAP1 SLOAD SWAP1 PUSH2 0x100 EXP SWAP1 DIV PUSH20 0xFFFFFFFFFFFFFFFFFFFFFFFFFFFFFFFFFFFFFFFF AND SWAP1 DUP1 PUSH1 0x1 ADD DUP1 SLOAD PUSH2 0x286 SWAP1 PUSH2 0x989 JUMP JUMPDEST DUP1 PUSH1 0x1F ADD PUSH1 0x20 DUP1 SWAP2 DIV MUL PUSH1 0x20 ADD PUSH1 0x40 MLOAD SWAP1 DUP2 ADD PUSH1 0x40 MSTORE DUP1 SWAP3 SWAP2 SWAP1 DUP2 DUP2 MSTORE PUSH1 0x20 ADD DUP3 DUP1 SLOAD PUSH2 0x2B2 SWAP1 PUSH2 0x989 JUMP JUMPDEST DUP1 ISZERO PUSH2 0x2FF JUMPI DUP1 PUSH1 0x1F LT PUSH2 0x2D4 JUMPI PUSH2 0x100 DUP1 DUP4 SLOAD DIV MUL DUP4 MSTORE SWAP2 PUSH1 0x20 ADD SWAP2 PUSH2 0x2FF JUMP JUMPDEST DUP3 ADD SWAP2 SWAP1 PUSH1 0x0 MSTORE PUSH1 0x20 PUSH1 0x0 KECCAK256 SWAP1 JUMPDEST DUP2 SLOAD DUP2 MSTORE SWAP1 PUSH1 0x1 ADD SWAP1 PUSH1 0x20 ADD DUP1 DUP4 GT PUSH2 0x2E2 JUMPI DUP3 SWAP1 SUB PUSH1 0x1F AND DUP3 ADD SWAP2 JUMPDEST POP POP POP POP POP SWAP1 DUP1 PUSH1 0x2 ADD DUP1 SLOAD PUSH2 0x314 SWAP1 PUSH2 0x989 JUMP JUMPDEST DUP1 PUSH1 0x1F ADD PUSH1 0x20 DUP1 SWAP2 DIV MUL PUSH1 0x20 ADD PUSH1 0x40 MLOAD SWAP1 DUP2 ADD PUSH1 0x40 MSTORE DUP1 SWAP3 SWAP2 SWAP1 DUP2 DUP2 MSTORE PUSH1 0x20 ADD DUP3 DUP1 SLOAD PUSH2 0x340 SWAP1 PUSH2 0x989 JUMP JUMPDEST DUP1 ISZERO PUSH2 0x38D JUMPI DUP1 PUSH1 0x1F LT PUSH2 0x362 JUMPI PUSH2 0x100 DUP1 DUP4 SLOAD DIV MUL DUP4 MSTORE SWAP2 PUSH1 0x20 ADD SWAP2 PUSH2 0x38D JUMP JUMPDEST DUP3 ADD SWAP2 SWAP1 PUSH1 0x0 MSTORE PUSH1 0x20 PUSH1 0x0 KECCAK256 SWAP1 JUMPDEST DUP2 SLOAD DUP2 MSTORE SWAP1 PUSH1 0x1 ADD SWAP1 PUSH1 0x20 ADD DUP1 DUP4 GT PUSH2 0x370 JUMPI DUP3 SWAP1 SUB PUSH1 0x1F AND DUP3 ADD SWAP2 JUMPDEST POP POP POP POP POP SWAP1 DUP1 PUSH1 0x3 ADD SLOAD SWAP1 DUP1 PUSH1 0x4 ADD SLOAD SWAP1 DUP1 PUSH1 0x5 ADD PUSH1 0x0 SWAP1 SLOAD SWAP1 PUSH2 0x100 EXP SWAP1 DIV PUSH1 0xFF AND SWAP1 POP DUP7 JUMP JUMPDEST PUSH2 0x3BF DUP2 PUSH2 0x3C2 JUMP JUMPDEST POP JUMP JUMPDEST PUSH1 0x0 PUSH2 0x3CD DUP3 PUSH2 0x41D JUMP JUMPDEST SWAP1 POP PUSH1 0x1 DUP1 SLOAD SWAP1 POP DUP2 LT ISZERO PUSH2 0x419 JUMPI CALLVALUE PUSH1 0x1 DUP3 DUP2 SLOAD DUP2 LT PUSH2 0x3F1 JUMPI PUSH2 0x3F0 PUSH2 0xA93 JUMP JUMPDEST JUMPDEST SWAP1 PUSH1 0x0 MSTORE PUSH1 0x20 PUSH1 0x0 KECCAK256 SWAP1 PUSH1 0x6 MUL ADD PUSH1 0x4 ADD PUSH1 0x0 DUP3 DUP3 SLOAD PUSH2 0x411 SWAP2 SWAP1 PUSH2 0x8A9 JUMP JUMPDEST SWAP3 POP POP DUP2 SWAP1 SSTORE POP JUMPDEST POP POP JUMP JUMPDEST PUSH1 0x0 DUP1 PUSH1 0x0 SWAP1 POP JUMPDEST PUSH1 0x1 DUP1 SLOAD SWAP1 POP DUP2 LT ISZERO PUSH2 0x4C7 JUMPI DUP3 PUSH20 0xFFFFFFFFFFFFFFFFFFFFFFFFFFFFFFFFFFFFFFFF AND PUSH1 0x1 DUP3 DUP2 SLOAD DUP2 LT PUSH2 0x45D JUMPI PUSH2 0x45C PUSH2 0xA93 JUMP JUMPDEST JUMPDEST SWAP1 PUSH1 0x0 MSTORE PUSH1 0x20 PUSH1 0x0 KECCAK256 SWAP1 PUSH1 0x6 MUL ADD PUSH1 0x0 ADD PUSH1 0x0 SWAP1 SLOAD SWAP1 PUSH2 0x100 EXP SWAP1 DIV PUSH20 0xFFFFFFFFFFFFFFFFFFFFFFFFFFFFFFFFFFFFFFFF AND PUSH20 0xFFFFFFFFFFFFFFFFFFFFFFFFFFFFFFFFFFFFFFFF AND EQ ISZERO PUSH2 0x4B4 JUMPI DUP1 SWAP2 POP POP PUSH2 0x4D1 JUMP JUMPDEST DUP1 DUP1 PUSH2 0x4BF SWAP1 PUSH2 0x9EC JUMP JUMPDEST SWAP2 POP POP PUSH2 0x425 JUMP JUMPDEST POP PUSH1 0x1 DUP1 SLOAD SWAP1 POP SWAP1 POP JUMPDEST SWAP2 SWAP1 POP JUMP JUMPDEST DUP3 DUP1 SLOAD PUSH2 0x4E2 SWAP1 PUSH2 0x989 JUMP JUMPDEST SWAP1 PUSH1 0x0 MSTORE PUSH1 0x20 PUSH1 0x0 KECCAK256 SWAP1 PUSH1 0x1F ADD PUSH1 0x20 SWAP1 DIV DUP2 ADD SWAP3 DUP3 PUSH2 0x504 JUMPI PUSH1 0x0 DUP6 SSTORE PUSH2 0x54B JUMP JUMPDEST DUP3 PUSH1 0x1F LT PUSH2 0x51D JUMPI DUP1 MLOAD PUSH1 0xFF NOT AND DUP4 DUP1 ADD OR DUP6 SSTORE PUSH2 0x54B JUMP JUMPDEST DUP3 DUP1 ADD PUSH1 0x1 ADD DUP6 SSTORE DUP3 ISZERO PUSH2 0x54B JUMPI SWAP2 DUP3 ADD JUMPDEST DUP3 DUP2 GT ISZERO PUSH2 0x54A JUMPI DUP3 MLOAD DUP3 SSTORE SWAP2 PUSH1 0x20 ADD SWAP2 SWAP1 PUSH1 0x1 ADD SWAP1 PUSH2 0x52F JUMP JUMPDEST JUMPDEST POP SWAP1 POP PUSH2 0x558 SWAP2 SWAP1 PUSH2 0x55C JUMP JUMPDEST POP SWAP1 JUMP JUMPDEST JUMPDEST DUP1 DUP3 GT ISZERO PUSH2 0x575 JUMPI PUSH1 0x0 DUP2 PUSH1 0x0 SWAP1 SSTORE POP PUSH1 0x1 ADD PUSH2 0x55D JUMP JUMPDEST POP SWAP1 JUMP JUMPDEST PUSH1 0x0 PUSH2 0x58C PUSH2 0x587 DUP5 PUSH2 0x85C JUMP JUMPDEST PUSH2 0x837 JUMP JUMPDEST SWAP1 POP DUP3 DUP2 MSTORE PUSH1 0x20 DUP2 ADD DUP5 DUP5 DUP5 ADD GT ISZERO PUSH2 0x5A8 JUMPI PUSH2 0x5A7 PUSH2 0xAF6 JUMP JUMPDEST JUMPDEST PUSH2 0x5B3 DUP5 DUP3 DUP6 PUSH2 0x947 JUMP JUMPDEST POP SWAP4 SWAP3 POP POP POP JUMP JUMPDEST PUSH1 0x0 DUP2 CALLDATALOAD SWAP1 POP PUSH2 0x5CA DUP2 PUSH2 0xB16 JUMP JUMPDEST SWAP3 SWAP2 POP POP JUMP JUMPDEST PUSH1 0x0 DUP2 CALLDATALOAD SWAP1 POP PUSH2 0x5DF DUP2 PUSH2 0xB2D JUMP JUMPDEST SWAP3 SWAP2 POP POP JUMP JUMPDEST PUSH1 0x0 DUP3 PUSH1 0x1F DUP4 ADD SLT PUSH2 0x5FA JUMPI PUSH2 0x5F9 PUSH2 0xAF1 JUMP JUMPDEST JUMPDEST DUP2 CALLDATALOAD PUSH2 0x60A DUP5 DUP3 PUSH1 0x20 DUP7 ADD PUSH2 0x579 JUMP JUMPDEST SWAP2 POP POP SWAP3 SWAP2 POP POP JUMP JUMPDEST PUSH1 0x0 DUP2 CALLDATALOAD SWAP1 POP PUSH2 0x622 DUP2 PUSH2 0xB44 JUMP JUMPDEST SWAP3 SWAP2 POP POP JUMP JUMPDEST PUSH1 0x0 PUSH1 0x20 DUP3 DUP5 SUB SLT ISZERO PUSH2 0x63E JUMPI PUSH2 0x63D PUSH2 0xB00 JUMP JUMPDEST JUMPDEST PUSH1 0x0 PUSH2 0x64C DUP5 DUP3 DUP6 ADD PUSH2 0x5BB JUMP JUMPDEST SWAP2 POP POP SWAP3 SWAP2 POP POP JUMP JUMPDEST PUSH1 0x0 DUP1 PUSH1 0x0 DUP1 PUSH1 0x0 DUP1 PUSH1 0xC0 DUP8 DUP10 SUB SLT ISZERO PUSH2 0x672 JUMPI PUSH2 0x671 PUSH2 0xB00 JUMP JUMPDEST JUMPDEST PUSH1 0x0 PUSH2 0x680 DUP10 DUP3 DUP11 ADD PUSH2 0x5BB JUMP JUMPDEST SWAP7 POP POP PUSH1 0x20 DUP8 ADD CALLDATALOAD PUSH8 0xFFFFFFFFFFFFFFFF DUP2 GT ISZERO PUSH2 0x6A1 JUMPI PUSH2 0x6A0 PUSH2 0xAFB JUMP JUMPDEST JUMPDEST PUSH2 0x6AD DUP10 DUP3 DUP11 ADD PUSH2 0x5E5 JUMP JUMPDEST SWAP6 POP POP PUSH1 0x40 DUP8 ADD CALLDATALOAD PUSH8 0xFFFFFFFFFFFFFFFF DUP2 GT ISZERO PUSH2 0x6CE JUMPI PUSH2 0x6CD PUSH2 0xAFB JUMP JUMPDEST JUMPDEST PUSH2 0x6DA DUP10 DUP3 DUP11 ADD PUSH2 0x5E5 JUMP JUMPDEST SWAP5 POP POP PUSH1 0x60 PUSH2 0x6EB DUP10 DUP3 DUP11 ADD PUSH2 0x613 JUMP JUMPDEST SWAP4 POP POP PUSH1 0x80 PUSH2 0x6FC DUP10 DUP3 DUP11 ADD PUSH2 0x613 JUMP JUMPDEST SWAP3 POP POP PUSH1 0xA0 PUSH2 0x70D DUP10 DUP3 DUP11 ADD PUSH2 0x5D0 JUMP JUMPDEST SWAP2 POP POP SWAP3 SWAP6 POP SWAP3 SWAP6 POP SWAP3 SWAP6 JUMP JUMPDEST PUSH1 0x0 PUSH1 0x20 DUP3 DUP5 SUB SLT ISZERO PUSH2 0x730 JUMPI PUSH2 0x72F PUSH2 0xB00 JUMP JUMPDEST JUMPDEST PUSH1 0x0 PUSH2 0x73E DUP5 DUP3 DUP6 ADD PUSH2 0x613 JUMP JUMPDEST SWAP2 POP POP SWAP3 SWAP2 POP POP JUMP JUMPDEST PUSH2 0x750 DUP2 PUSH2 0x8FF JUMP JUMPDEST DUP3 MSTORE POP POP JUMP JUMPDEST PUSH2 0x75F DUP2 PUSH2 0x911 JUMP JUMPDEST DUP3 MSTORE POP POP JUMP JUMPDEST PUSH1 0x0 PUSH2 0x770 DUP3 PUSH2 0x88D JUMP JUMPDEST PUSH2 0x77A DUP2 DUP6 PUSH2 0x898 JUMP JUMPDEST SWAP4 POP PUSH2 0x78A DUP2 DUP6 PUSH1 0x20 DUP7 ADD PUSH2 0x956 JUMP JUMPDEST PUSH2 0x793 DUP2 PUSH2 0xB05 JUMP JUMPDEST DUP5 ADD SWAP2 POP POP SWAP3 SWAP2 POP POP JUMP JUMPDEST PUSH2 0x7A7 DUP2 PUSH2 0x93D JUMP JUMPDEST DUP3 MSTORE POP POP JUMP JUMPDEST PUSH1 0x0 PUSH1 0xC0 DUP3 ADD SWAP1 POP PUSH2 0x7C2 PUSH1 0x0 DUP4 ADD DUP10 PUSH2 0x747 JUMP JUMPDEST DUP2 DUP2 SUB PUSH1 0x20 DUP4 ADD MSTORE PUSH2 0x7D4 DUP2 DUP9 PUSH2 0x765 JUMP JUMPDEST SWAP1 POP DUP2 DUP2 SUB PUSH1 0x40 DUP4 ADD MSTORE PUSH2 0x7E8 DUP2 DUP8 PUSH2 0x765 JUMP JUMPDEST SWAP1 POP PUSH2 0x7F7 PUSH1 0x60 DUP4 ADD DUP7 PUSH2 0x79E JUMP JUMPDEST PUSH2 0x804 PUSH1 0x80 DUP4 ADD DUP6 PUSH2 0x79E JUMP JUMPDEST PUSH2 0x811 PUSH1 0xA0 DUP4 ADD DUP5 PUSH2 0x756 JUMP JUMPDEST SWAP8 SWAP7 POP POP POP POP POP POP POP JUMP JUMPDEST PUSH1 0x0 PUSH1 0x20 DUP3 ADD SWAP1 POP PUSH2 0x831 PUSH1 0x0 DUP4 ADD DUP5 PUSH2 0x79E JUMP JUMPDEST SWAP3 SWAP2 POP POP JUMP JUMPDEST PUSH1 0x0 PUSH2 0x841 PUSH2 0x852 JUMP JUMPDEST SWAP1 POP PUSH2 0x84D DUP3 DUP3 PUSH2 0x9BB JUMP JUMPDEST SWAP2 SWAP1 POP JUMP JUMPDEST PUSH1 0x0 PUSH1 0x40 MLOAD SWAP1 POP SWAP1 JUMP JUMPDEST PUSH1 0x0 PUSH8 0xFFFFFFFFFFFFFFFF DUP3 GT ISZERO PUSH2 0x877 JUMPI PUSH2 0x876 PUSH2 0xAC2 JUMP JUMPDEST JUMPDEST PUSH2 0x880 DUP3 PUSH2 0xB05 JUMP JUMPDEST SWAP1 POP PUSH1 0x20 DUP2 ADD SWAP1 POP SWAP2 SWAP1 POP JUMP JUMPDEST PUSH1 0x0 DUP2 MLOAD SWAP1 POP SWAP2 SWAP1 POP JUMP JUMPDEST PUSH1 0x0 DUP3 DUP3 MSTORE PUSH1 0x20 DUP3 ADD SWAP1 POP SWAP3 SWAP2 POP POP JUMP JUMPDEST PUSH1 0x0 PUSH2 0x8B4 DUP3 PUSH2 0x93D JUMP JUMPDEST SWAP2 POP PUSH2 0x8BF DUP4 PUSH2 0x93D JUMP JUMPDEST SWAP3 POP DUP3 PUSH32 0xFFFFFFFFFFFFFFFFFFFFFFFFFFFFFFFFFFFFFFFFFFFFFFFFFFFFFFFFFFFFFFFF SUB DUP3 GT ISZERO PUSH2 0x8F4 JUMPI PUSH2 0x8F3 PUSH2 0xA35 JUMP JUMPDEST JUMPDEST DUP3 DUP3 ADD SWAP1 POP SWAP3 SWAP2 POP POP JUMP JUMPDEST PUSH1 0x0 PUSH2 0x90A DUP3 PUSH2 0x91D JUMP JUMPDEST SWAP1 POP SWAP2 SWAP1 POP JUMP JUMPDEST PUSH1 0x0 DUP2 ISZERO ISZERO SWAP1 POP SWAP2 SWAP1 POP JUMP JUMPDEST PUSH1 0x0 PUSH20 0xFFFFFFFFFFFFFFFFFFFFFFFFFFFFFFFFFFFFFFFF DUP3 AND SWAP1 POP SWAP2 SWAP1 POP JUMP JUMPDEST PUSH1 0x0 DUP2 SWAP1 POP SWAP2 SWAP1 POP JUMP JUMPDEST DUP3 DUP2 DUP4 CALLDATACOPY PUSH1 0x0 DUP4 DUP4 ADD MSTORE POP POP POP JUMP JUMPDEST PUSH1 0x0 JUMPDEST DUP4 DUP2 LT ISZERO PUSH2 0x974 JUMPI DUP1 DUP3 ADD MLOAD DUP2 DUP5 ADD MSTORE PUSH1 0x20 DUP2 ADD SWAP1 POP PUSH2 0x959 JUMP JUMPDEST DUP4 DUP2 GT ISZERO PUSH2 0x983 JUMPI PUSH1 0x0 DUP5 DUP5 ADD MSTORE JUMPDEST POP POP POP POP JUMP JUMPDEST PUSH1 0x0 PUSH1 0x2 DUP3 DIV SWAP1 POP PUSH1 0x1 DUP3 AND DUP1 PUSH2 0x9A1 JUMPI PUSH1 0x7F DUP3 AND SWAP2 POP JUMPDEST PUSH1 0x20 DUP3 LT DUP2 EQ ISZERO PUSH2 0x9B5 JUMPI PUSH2 0x9B4 PUSH2 0xA64 JUMP JUMPDEST JUMPDEST POP SWAP2 SWAP1 POP JUMP JUMPDEST PUSH2 0x9C4 DUP3 PUSH2 0xB05 JUMP JUMPDEST DUP2 ADD DUP2 DUP2 LT PUSH8 0xFFFFFFFFFFFFFFFF DUP3 GT OR ISZERO PUSH2 0x9E3 JUMPI PUSH2 0x9E2 PUSH2 0xAC2 JUMP JUMPDEST JUMPDEST DUP1 PUSH1 0x40 MSTORE POP POP POP JUMP JUMPDEST PUSH1 0x0 PUSH2 0x9F7 DUP3 PUSH2 0x93D JUMP JUMPDEST SWAP2 POP PUSH32 0xFFFFFFFFFFFFFFFFFFFFFFFFFFFFFFFFFFFFFFFFFFFFFFFFFFFFFFFFFFFFFFFF DUP3 EQ ISZERO PUSH2 0xA2A JUMPI PUSH2 0xA29 PUSH2 0xA35 JUMP JUMPDEST JUMPDEST PUSH1 0x1 DUP3 ADD SWAP1 POP SWAP2 SWAP1 POP JUMP JUMPDEST PUSH32 0x4E487B7100000000000000000000000000000000000000000000000000000000 PUSH1 0x0 MSTORE PUSH1 0x11 PUSH1 0x4 MSTORE PUSH1 0x24 PUSH1 0x0 REVERT JUMPDEST PUSH32 0x4E487B7100000000000000000000000000000000000000000000000000000000 PUSH1 0x0 MSTORE PUSH1 0x22 PUSH1 0x4 MSTORE PUSH1 0x24 PUSH1 0x0 REVERT JUMPDEST PUSH32 0x4E487B7100000000000000000000000000000000000000000000000000000000 PUSH1 0x0 MSTORE PUSH1 0x32 PUSH1 0x4 MSTORE PUSH1 0x24 PUSH1 0x0 REVERT JUMPDEST PUSH32 0x4E487B7100000000000000000000000000000000000000000000000000000000 PUSH1 0x0 MSTORE PUSH1 0x41 PUSH1 0x4 MSTORE PUSH1 0x24 PUSH1 0x0 REVERT JUMPDEST PUSH1 0x0 DUP1 REVERT JUMPDEST PUSH1 0x0 DUP1 REVERT JUMPDEST PUSH1 0x0 DUP1 REVERT JUMPDEST PUSH1 0x0 DUP1 REVERT JUMPDEST PUSH1 0x0 PUSH1 0x1F NOT PUSH1 0x1F DUP4 ADD AND SWAP1 POP SWAP2 SWAP1 POP JUMP JUMPDEST PUSH2 0xB1F DUP2 PUSH2 0x8FF JUMP JUMPDEST DUP2 EQ PUSH2 0xB2A JUMPI PUSH1 0x0 DUP1 REVERT JUMPDEST POP JUMP JUMPDEST PUSH2 0xB36 DUP2 PUSH2 0x911 JUMP JUMPDEST DUP2 EQ PUSH2 0xB41 JUMPI PUSH1 0x0 DUP1 REVERT JUMPDEST POP JUMP JUMPDEST PUSH2 0xB4D DUP2 PUSH2 0x93D JUMP JUMPDEST DUP2 EQ PUSH2 0xB58 JUMPI PUSH1 0x0 DUP1 REVERT JUMPDEST POP JUMP INVALID LOG2 PUSH5 0x6970667358 0x22 SLT KECCAK256 CHAINID 0xE0 PUSH2 0xCEEB GT 0xD4 DUP16 0xB8 SGT GAS BYTE 0xD3 0xC0 BASEFEE 0xE0 0xEF EXTCODEHASH 0xEB 0xC8 CREATE 0xE 0x2D DUP2 0xD4 0xDE 0x22 0xFC 0x5D 0x4C 0xB5 0x5C PUSH5 0x736F6C6343 STOP ADDMOD SMOD STOP CALLER "
				},
				"gasEstimates": {
					"creation": {
						"codeDepositCost": "592200",
						"executionCost": "24891",
						"totalCost": "617091"
					},
					"external": {
						"addKid(address,string,string,uint256,uint256,bool)": "infinite",
						"balanceOf()": "339",
						"deposit(address)": "infinite",
						"kids(uint256)": "infinite"
					},
					"internal": {
						"addToKidsBalance(address)": "infinite",
						"getKidIndex(address)": "infinite"
					}
				},
				"methodIdentifiers": {
					"addKid(address,string,string,uint256,uint256,bool)": "31d575c5",
					"balanceOf()": "722713f7",
					"deposit(address)": "f340fa01",
					"kids(uint256)": "7285fd3a"
				}
			},
			"storageLayout": {
				"storage": [
					{
						"astId": 3,
						"contract": "contracts/CryptoKids.sol:CryptoKids",
						"label": "owner",
						"offset": 0,
						"slot": "0",
						"type": "t_address"
					},
					{
						"astId": 29,
						"contract": "contracts/CryptoKids.sol:CryptoKids",
						"label": "kids",
						"offset": 0,
						"slot": "1",
						"type": "t_array(t_struct(Kid)25_storage)dyn_storage"
					}
				],
				"types": {
					"t_address": {
						"encoding": "inplace",
						"label": "address",
						"numberOfBytes": "20"
					},
					"t_array(t_struct(Kid)25_storage)dyn_storage": {
						"base": "t_struct(Kid)25_storage",
						"encoding": "dynamic_array",
						"label": "struct CryptoKids.Kid[]",
						"numberOfBytes": "32"
					},
					"t_bool": {
						"encoding": "inplace",
						"label": "bool",
						"numberOfBytes": "1"
					},
					"t_string_storage": {
						"encoding": "bytes",
						"label": "string",
						"numberOfBytes": "32"
					},
					"t_struct(Kid)25_storage": {
						"encoding": "inplace",
						"label": "struct CryptoKids.Kid",
						"members": [
							{
								"astId": 14,
								"contract": "contracts/CryptoKids.sol:CryptoKids",
								"label": "walletAddress",
								"offset": 0,
								"slot": "0",
								"type": "t_address"
							},
							{
								"astId": 16,
								"contract": "contracts/CryptoKids.sol:CryptoKids",
								"label": "firstName",
								"offset": 0,
								"slot": "1",
								"type": "t_string_storage"
							},
							{
								"astId": 18,
								"contract": "contracts/CryptoKids.sol:CryptoKids",
								"label": "lastName",
								"offset": 0,
								"slot": "2",
								"type": "t_string_storage"
							},
							{
								"astId": 20,
								"contract": "contracts/CryptoKids.sol:CryptoKids",
								"label": "releaseTime",
								"offset": 0,
								"slot": "3",
								"type": "t_uint256"
							},
							{
								"astId": 22,
								"contract": "contracts/CryptoKids.sol:CryptoKids",
								"label": "amount",
								"offset": 0,
								"slot": "4",
								"type": "t_uint256"
							},
							{
								"astId": 24,
								"contract": "contracts/CryptoKids.sol:CryptoKids",
								"label": "canWithdraw",
								"offset": 0,
								"slot": "5",
								"type": "t_bool"
							}
						],
						"numberOfBytes": "192"
					},
					"t_uint256": {
						"encoding": "inplace",
						"label": "uint256",
						"numberOfBytes": "32"
					}
				}
			},
			"userdoc": {
				"kind": "user",
				"methods": {},
				"version": 1
			}
		}
	}
}