{
	"contracts/CryptoKids.sol": {
		"CryptoKids": {
			"abi": [
				{
					"inputs": [],
					"stateMutability": "nonpayable",
					"type": "constructor"
				},
				{
					"inputs": [
						{
							"internalType": "address",
							"name": "walletAddress",
							"type": "address"
						},
						{
							"internalType": "string",
							"name": "firstName",
							"type": "string"
						},
						{
							"internalType": "string",
							"name": "lastName",
							"type": "string"
						},
						{
							"internalType": "uint256",
							"name": "releaseTime",
							"type": "uint256"
						},
						{
							"internalType": "uint256",
							"name": "amount",
							"type": "uint256"
						},
						{
							"internalType": "bool",
							"name": "canWithdraw",
							"type": "bool"
						}
					],
					"name": "addKid",
					"outputs": [],
					"stateMutability": "nonpayable",
					"type": "function"
				},
				{
					"inputs": [
						{
							"internalType": "address",
							"name": "walletAddress",
							"type": "address"
						}
					],
					"name": "avaiableToWithdraw",
					"outputs": [
						{
							"internalType": "bool",
							"name": "",
							"type": "bool"
						}
					],
					"stateMutability": "nonpayable",
					"type": "function"
				},
				{
					"inputs": [],
					"name": "balanceOf",
					"outputs": [
						{
							"internalType": "uint256",
							"name": "",
							"type": "uint256"
						}
					],
					"stateMutability": "view",
					"type": "function"
				},
				{
					"inputs": [
						{
							"internalType": "address",
							"name": "walletAddress",
							"type": "address"
						}
					],
					"name": "deposit",
					"outputs": [],
					"stateMutability": "payable",
					"type": "function"
				},
				{
					"inputs": [
						{
							"internalType": "uint256",
							"name": "",
							"type": "uint256"
						}
					],
					"name": "kids",
					"outputs": [
						{
							"internalType": "address",
							"name": "walletAddress",
							"type": "address"
						},
						{
							"internalType": "string",
							"name": "firstName",
							"type": "string"
						},
						{
							"internalType": "string",
							"name": "lastName",
							"type": "string"
						},
						{
							"internalType": "uint256",
							"name": "releaseTime",
							"type": "uint256"
						},
						{
							"internalType": "uint256",
							"name": "amount",
							"type": "uint256"
						},
						{
							"internalType": "bool",
							"name": "canWithdraw",
							"type": "bool"
						}
					],
					"stateMutability": "view",
					"type": "function"
				}
			],
			"devdoc": {
				"kind": "dev",
				"methods": {},
				"version": 1
			},
			"evm": {
				"assembly": "    /* \"contracts/CryptoKids.sol\":116:1814  contract CryptoKids {... */\n  mstore(0x40, 0x80)\n    /* \"contracts/CryptoKids.sol\":167:216  constructor() {... */\n  callvalue\n  dup1\n  iszero\n  tag_1\n  jumpi\n  0x00\n  dup1\n  revert\ntag_1:\n  pop\n    /* \"contracts/CryptoKids.sol\":199:209  msg.sender */\n  caller\n    /* \"contracts/CryptoKids.sol\":191:196  owner */\n  0x00\n  dup1\n    /* \"contracts/CryptoKids.sol\":191:209  owner = msg.sender */\n  0x0100\n  exp\n  dup2\n  sload\n  dup2\n  0xffffffffffffffffffffffffffffffffffffffff\n  mul\n  not\n  and\n  swap1\n  dup4\n  0xffffffffffffffffffffffffffffffffffffffff\n  and\n  mul\n  or\n  swap1\n  sstore\n  pop\n    /* \"contracts/CryptoKids.sol\":116:1814  contract CryptoKids {... */\n  dataSize(sub_0)\n  dup1\n  dataOffset(sub_0)\n  0x00\n  codecopy\n  0x00\n  return\nstop\n\nsub_0: assembly {\n        /* \"contracts/CryptoKids.sol\":116:1814  contract CryptoKids {... */\n      mstore(0x40, 0x80)\n      jumpi(tag_1, lt(calldatasize, 0x04))\n      shr(0xe0, calldataload(0x00))\n      dup1\n      0x31d575c5\n      eq\n      tag_2\n      jumpi\n      dup1\n      0x6640c922\n      eq\n      tag_3\n      jumpi\n      dup1\n      0x722713f7\n      eq\n      tag_4\n      jumpi\n      dup1\n      0x7285fd3a\n      eq\n      tag_5\n      jumpi\n      dup1\n      0xf340fa01\n      eq\n      tag_6\n      jumpi\n    tag_1:\n      0x00\n      dup1\n      revert\n        /* \"contracts/CryptoKids.sol\":425:838  function addKid(... */\n    tag_2:\n      callvalue\n      dup1\n      iszero\n      tag_7\n      jumpi\n      0x00\n      dup1\n      revert\n    tag_7:\n      pop\n      tag_8\n      0x04\n      dup1\n      calldatasize\n      sub\n      dup2\n      add\n      swap1\n      tag_9\n      swap2\n      swap1\n      tag_10\n      jump\t// in\n    tag_9:\n      tag_11\n      jump\t// in\n    tag_8:\n      stop\n        /* \"contracts/CryptoKids.sol\":1585:1709  function avaiableToWithdraw(address walletAddress) public returns(bool) {... */\n    tag_3:\n      callvalue\n      dup1\n      iszero\n      tag_12\n      jumpi\n      0x00\n      dup1\n      revert\n    tag_12:\n      pop\n      tag_13\n      0x04\n      dup1\n      calldatasize\n      sub\n      dup2\n      add\n      swap1\n      tag_14\n      swap2\n      swap1\n      tag_15\n      jump\t// in\n    tag_14:\n      tag_16\n      jump\t// in\n    tag_13:\n      mload(0x40)\n      tag_17\n      swap2\n      swap1\n      tag_18\n      jump\t// in\n    tag_17:\n      mload(0x40)\n      dup1\n      swap2\n      sub\n      swap1\n      return\n        /* \"contracts/CryptoKids.sol\":1719:1811  function balanceOf() public view returns(uint) {... */\n    tag_4:\n      callvalue\n      dup1\n      iszero\n      tag_19\n      jumpi\n      0x00\n      dup1\n      revert\n    tag_19:\n      pop\n      tag_20\n      tag_21\n      jump\t// in\n    tag_20:\n      mload(0x40)\n      tag_22\n      swap2\n      swap1\n      tag_23\n      jump\t// in\n    tag_22:\n      mload(0x40)\n      dup1\n      swap2\n      sub\n      swap1\n      return\n        /* \"contracts/CryptoKids.sol\":401:418  Kid[] public kids */\n    tag_5:\n      callvalue\n      dup1\n      iszero\n      tag_24\n      jumpi\n      0x00\n      dup1\n      revert\n    tag_24:\n      pop\n      tag_25\n      0x04\n      dup1\n      calldatasize\n      sub\n      dup2\n      add\n      swap1\n      tag_26\n      swap2\n      swap1\n      tag_27\n      jump\t// in\n    tag_26:\n      tag_28\n      jump\t// in\n    tag_25:\n      mload(0x40)\n      tag_29\n      swap7\n      swap6\n      swap5\n      swap4\n      swap3\n      swap2\n      swap1\n      tag_30\n      jump\t// in\n    tag_29:\n      mload(0x40)\n      dup1\n      swap2\n      sub\n      swap1\n      return\n        /* \"contracts/CryptoKids.sol\":844:947  function deposit(address walletAddress) payable public {... */\n    tag_6:\n      tag_31\n      0x04\n      dup1\n      calldatasize\n      sub\n      dup2\n      add\n      swap1\n      tag_32\n      swap2\n      swap1\n      tag_15\n      jump\t// in\n    tag_32:\n      tag_33\n      jump\t// in\n    tag_31:\n      stop\n        /* \"contracts/CryptoKids.sol\":425:838  function addKid(... */\n    tag_11:\n        /* \"contracts/CryptoKids.sol\":637:641  kids */\n      0x01\n        /* \"contracts/CryptoKids.sol\":647:830  Kid(... */\n      mload(0x40)\n      dup1\n      0xc0\n      add\n      0x40\n      mstore\n      dup1\n        /* \"contracts/CryptoKids.sol\":668:681  walletAddress */\n      dup9\n        /* \"contracts/CryptoKids.sol\":647:830  Kid(... */\n      0xffffffffffffffffffffffffffffffffffffffff\n      and\n      dup2\n      mstore\n      0x20\n      add\n        /* \"contracts/CryptoKids.sol\":699:708  firstName */\n      dup8\n        /* \"contracts/CryptoKids.sol\":647:830  Kid(... */\n      dup2\n      mstore\n      0x20\n      add\n        /* \"contracts/CryptoKids.sol\":726:734  lastName */\n      dup7\n        /* \"contracts/CryptoKids.sol\":647:830  Kid(... */\n      dup2\n      mstore\n      0x20\n      add\n        /* \"contracts/CryptoKids.sol\":752:763  releaseTime */\n      dup6\n        /* \"contracts/CryptoKids.sol\":647:830  Kid(... */\n      dup2\n      mstore\n      0x20\n      add\n        /* \"contracts/CryptoKids.sol\":781:787  amount */\n      dup5\n        /* \"contracts/CryptoKids.sol\":647:830  Kid(... */\n      dup2\n      mstore\n      0x20\n      add\n        /* \"contracts/CryptoKids.sol\":805:816  canWithdraw */\n      dup4\n        /* \"contracts/CryptoKids.sol\":647:830  Kid(... */\n      iszero\n      iszero\n      dup2\n      mstore\n      pop\n        /* \"contracts/CryptoKids.sol\":637:831  kids.push(Kid(... */\n      swap1\n      dup1\n      0x01\n      dup2\n      sload\n      add\n      dup1\n      dup3\n      sstore\n      dup1\n      swap2\n      pop\n      pop\n      0x01\n      swap1\n      sub\n      swap1\n      0x00\n      mstore\n      keccak256(0x00, 0x20)\n      swap1\n      0x06\n      mul\n      add\n      0x00\n      swap1\n      swap2\n      swap1\n      swap2\n      swap1\n      swap2\n      pop\n      0x00\n      dup3\n      add\n      mload\n      dup2\n      0x00\n      add\n      exp(0x0100, 0x00)\n      dup2\n      sload\n      dup2\n      0xffffffffffffffffffffffffffffffffffffffff\n      mul\n      not\n      and\n      swap1\n      dup4\n      0xffffffffffffffffffffffffffffffffffffffff\n      and\n      mul\n      or\n      swap1\n      sstore\n      pop\n      0x20\n      dup3\n      add\n      mload\n      dup2\n      0x01\n      add\n      swap1\n      dup1\n      mload\n      swap1\n      0x20\n      add\n      swap1\n      tag_36\n      swap3\n      swap2\n      swap1\n      tag_37\n      jump\t// in\n    tag_36:\n      pop\n      0x40\n      dup3\n      add\n      mload\n      dup2\n      0x02\n      add\n      swap1\n      dup1\n      mload\n      swap1\n      0x20\n      add\n      swap1\n      tag_38\n      swap3\n      swap2\n      swap1\n      tag_37\n      jump\t// in\n    tag_38:\n      pop\n      0x60\n      dup3\n      add\n      mload\n      dup2\n      0x03\n      add\n      sstore\n      0x80\n      dup3\n      add\n      mload\n      dup2\n      0x04\n      add\n      sstore\n      0xa0\n      dup3\n      add\n      mload\n      dup2\n      0x05\n      add\n      exp(0x0100, 0x00)\n      dup2\n      sload\n      dup2\n      0xff\n      mul\n      not\n      and\n      swap1\n      dup4\n      iszero\n      iszero\n      mul\n      or\n      swap1\n      sstore\n      pop\n      pop\n      pop\n        /* \"contracts/CryptoKids.sol\":425:838  function addKid(... */\n      pop\n      pop\n      pop\n      pop\n      pop\n      pop\n      jump\t// out\n        /* \"contracts/CryptoKids.sol\":1585:1709  function avaiableToWithdraw(address walletAddress) public returns(bool) {... */\n    tag_16:\n        /* \"contracts/CryptoKids.sol\":1651:1655  bool */\n      0x00\n        /* \"contracts/CryptoKids.sol\":1667:1673  uint i */\n      dup1\n        /* \"contracts/CryptoKids.sol\":1676:1702  getKidIndex(walletAddress) */\n      tag_40\n        /* \"contracts/CryptoKids.sol\":1688:1701  walletAddress */\n      dup4\n        /* \"contracts/CryptoKids.sol\":1676:1687  getKidIndex */\n      tag_41\n        /* \"contracts/CryptoKids.sol\":1676:1702  getKidIndex(walletAddress) */\n      jump\t// in\n    tag_40:\n        /* \"contracts/CryptoKids.sol\":1667:1702  uint i = getKidIndex(walletAddress) */\n      swap1\n      pop\n        /* \"contracts/CryptoKids.sol\":1657:1709  {... */\n      pop\n        /* \"contracts/CryptoKids.sol\":1585:1709  function avaiableToWithdraw(address walletAddress) public returns(bool) {... */\n      swap2\n      swap1\n      pop\n      jump\t// out\n        /* \"contracts/CryptoKids.sol\":1719:1811  function balanceOf() public view returns(uint) {... */\n    tag_21:\n        /* \"contracts/CryptoKids.sol\":1760:1764  uint */\n      0x00\n        /* \"contracts/CryptoKids.sol\":1783:1804  address(this).balance */\n      selfbalance\n        /* \"contracts/CryptoKids.sol\":1776:1804  return address(this).balance */\n      swap1\n      pop\n        /* \"contracts/CryptoKids.sol\":1719:1811  function balanceOf() public view returns(uint) {... */\n      swap1\n      jump\t// out\n        /* \"contracts/CryptoKids.sol\":401:418  Kid[] public kids */\n    tag_28:\n      0x01\n      dup2\n      dup2\n      sload\n      dup2\n      lt\n      tag_43\n      jumpi\n      0x00\n      dup1\n      revert\n    tag_43:\n      swap1\n      0x00\n      mstore\n      keccak256(0x00, 0x20)\n      swap1\n      0x06\n      mul\n      add\n      0x00\n      swap2\n      pop\n      swap1\n      pop\n      dup1\n      0x00\n      add\n      0x00\n      swap1\n      sload\n      swap1\n      0x0100\n      exp\n      swap1\n      div\n      0xffffffffffffffffffffffffffffffffffffffff\n      and\n      swap1\n      dup1\n      0x01\n      add\n      dup1\n      sload\n      tag_45\n      swap1\n      tag_46\n      jump\t// in\n    tag_45:\n      dup1\n      0x1f\n      add\n      0x20\n      dup1\n      swap2\n      div\n      mul\n      0x20\n      add\n      mload(0x40)\n      swap1\n      dup2\n      add\n      0x40\n      mstore\n      dup1\n      swap3\n      swap2\n      swap1\n      dup2\n      dup2\n      mstore\n      0x20\n      add\n      dup3\n      dup1\n      sload\n      tag_47\n      swap1\n      tag_46\n      jump\t// in\n    tag_47:\n      dup1\n      iszero\n      tag_48\n      jumpi\n      dup1\n      0x1f\n      lt\n      tag_49\n      jumpi\n      0x0100\n      dup1\n      dup4\n      sload\n      div\n      mul\n      dup4\n      mstore\n      swap2\n      0x20\n      add\n      swap2\n      jump(tag_48)\n    tag_49:\n      dup3\n      add\n      swap2\n      swap1\n      0x00\n      mstore\n      keccak256(0x00, 0x20)\n      swap1\n    tag_50:\n      dup2\n      sload\n      dup2\n      mstore\n      swap1\n      0x01\n      add\n      swap1\n      0x20\n      add\n      dup1\n      dup4\n      gt\n      tag_50\n      jumpi\n      dup3\n      swap1\n      sub\n      0x1f\n      and\n      dup3\n      add\n      swap2\n    tag_48:\n      pop\n      pop\n      pop\n      pop\n      pop\n      swap1\n      dup1\n      0x02\n      add\n      dup1\n      sload\n      tag_51\n      swap1\n      tag_46\n      jump\t// in\n    tag_51:\n      dup1\n      0x1f\n      add\n      0x20\n      dup1\n      swap2\n      div\n      mul\n      0x20\n      add\n      mload(0x40)\n      swap1\n      dup2\n      add\n      0x40\n      mstore\n      dup1\n      swap3\n      swap2\n      swap1\n      dup2\n      dup2\n      mstore\n      0x20\n      add\n      dup3\n      dup1\n      sload\n      tag_52\n      swap1\n      tag_46\n      jump\t// in\n    tag_52:\n      dup1\n      iszero\n      tag_53\n      jumpi\n      dup1\n      0x1f\n      lt\n      tag_54\n      jumpi\n      0x0100\n      dup1\n      dup4\n      sload\n      div\n      mul\n      dup4\n      mstore\n      swap2\n      0x20\n      add\n      swap2\n      jump(tag_53)\n    tag_54:\n      dup3\n      add\n      swap2\n      swap1\n      0x00\n      mstore\n      keccak256(0x00, 0x20)\n      swap1\n    tag_55:\n      dup2\n      sload\n      dup2\n      mstore\n      swap1\n      0x01\n      add\n      swap1\n      0x20\n      add\n      dup1\n      dup4\n      gt\n      tag_55\n      jumpi\n      dup3\n      swap1\n      sub\n      0x1f\n      and\n      dup3\n      add\n      swap2\n    tag_53:\n      pop\n      pop\n      pop\n      pop\n      pop\n      swap1\n      dup1\n      0x03\n      add\n      sload\n      swap1\n      dup1\n      0x04\n      add\n      sload\n      swap1\n      dup1\n      0x05\n      add\n      0x00\n      swap1\n      sload\n      swap1\n      0x0100\n      exp\n      swap1\n      div\n      0xff\n      and\n      swap1\n      pop\n      dup7\n      jump\t// out\n        /* \"contracts/CryptoKids.sol\":844:947  function deposit(address walletAddress) payable public {... */\n    tag_33:\n        /* \"contracts/CryptoKids.sol\":909:940  addToKidsBalance(walletAddress) */\n      tag_57\n        /* \"contracts/CryptoKids.sol\":926:939  walletAddress */\n      dup2\n        /* \"contracts/CryptoKids.sol\":909:925  addToKidsBalance */\n      tag_58\n        /* \"contracts/CryptoKids.sol\":909:940  addToKidsBalance(walletAddress) */\n      jump\t// in\n    tag_57:\n        /* \"contracts/CryptoKids.sol\":844:947  function deposit(address walletAddress) payable public {... */\n      pop\n      jump\t// out\n        /* \"contracts/CryptoKids.sol\":984:1352  function getKidIndex(address walletAddress) private view returns(uint) {... */\n    tag_41:\n        /* \"contracts/CryptoKids.sol\":1049:1053  uint */\n      0x00\n        /* \"contracts/CryptoKids.sol\":1070:1076  uint i */\n      dup1\n        /* \"contracts/CryptoKids.sol\":1079:1080  0 */\n      0x00\n        /* \"contracts/CryptoKids.sol\":1070:1080  uint i = 0 */\n      swap1\n      pop\n        /* \"contracts/CryptoKids.sol\":1065:1214  for( uint i = 0; i < kids.length; i++) {... */\n    tag_60:\n        /* \"contracts/CryptoKids.sol\":1086:1090  kids */\n      0x01\n        /* \"contracts/CryptoKids.sol\":1086:1097  kids.length */\n      dup1\n      sload\n      swap1\n      pop\n        /* \"contracts/CryptoKids.sol\":1082:1083  i */\n      dup2\n        /* \"contracts/CryptoKids.sol\":1082:1097  i < kids.length */\n      lt\n        /* \"contracts/CryptoKids.sol\":1065:1214  for( uint i = 0; i < kids.length; i++) {... */\n      iszero\n      tag_61\n      jumpi\n        /* \"contracts/CryptoKids.sol\":1148:1161  walletAddress */\n      dup3\n        /* \"contracts/CryptoKids.sol\":1123:1161  kids[i].walletAddress == walletAddress */\n      0xffffffffffffffffffffffffffffffffffffffff\n      and\n        /* \"contracts/CryptoKids.sol\":1123:1127  kids */\n      0x01\n        /* \"contracts/CryptoKids.sol\":1128:1129  i */\n      dup3\n        /* \"contracts/CryptoKids.sol\":1123:1130  kids[i] */\n      dup2\n      sload\n      dup2\n      lt\n      tag_63\n      jumpi\n      tag_64\n      tag_65\n      jump\t// in\n    tag_64:\n    tag_63:\n      swap1\n      0x00\n      mstore\n      keccak256(0x00, 0x20)\n      swap1\n      0x06\n      mul\n      add\n        /* \"contracts/CryptoKids.sol\":1123:1144  kids[i].walletAddress */\n      0x00\n      add\n      0x00\n      swap1\n      sload\n      swap1\n      0x0100\n      exp\n      swap1\n      div\n      0xffffffffffffffffffffffffffffffffffffffff\n      and\n        /* \"contracts/CryptoKids.sol\":1123:1161  kids[i].walletAddress == walletAddress */\n      0xffffffffffffffffffffffffffffffffffffffff\n      and\n      eq\n        /* \"contracts/CryptoKids.sol\":1118:1204  if ( kids[i].walletAddress == walletAddress) {... */\n      iszero\n      tag_67\n      jumpi\n        /* \"contracts/CryptoKids.sol\":1188:1189  i */\n      dup1\n        /* \"contracts/CryptoKids.sol\":1181:1189  return i */\n      swap2\n      pop\n      pop\n      jump(tag_59)\n        /* \"contracts/CryptoKids.sol\":1118:1204  if ( kids[i].walletAddress == walletAddress) {... */\n    tag_67:\n        /* \"contracts/CryptoKids.sol\":1099:1102  i++ */\n      dup1\n      dup1\n      tag_68\n      swap1\n      tag_69\n      jump\t// in\n    tag_68:\n      swap2\n      pop\n      pop\n        /* \"contracts/CryptoKids.sol\":1065:1214  for( uint i = 0; i < kids.length; i++) {... */\n      jump(tag_60)\n    tag_61:\n      pop\n        /* \"contracts/CryptoKids.sol\":1230:1234  kids */\n      0x01\n        /* \"contracts/CryptoKids.sol\":1230:1241  kids.length */\n      dup1\n      sload\n      swap1\n      pop\n        /* \"contracts/CryptoKids.sol\":1223:1241  return kids.length */\n      swap1\n      pop\n        /* \"contracts/CryptoKids.sol\":984:1352  function getKidIndex(address walletAddress) private view returns(uint) {... */\n    tag_59:\n      swap2\n      swap1\n      pop\n      jump\t// out\n        /* \"contracts/CryptoKids.sol\":1358:1579  function addToKidsBalance(address walletAddress) private {... */\n    tag_58:\n        /* \"contracts/CryptoKids.sol\":1425:1441  uint theKidIndex */\n      0x00\n        /* \"contracts/CryptoKids.sol\":1444:1470  getKidIndex(walletAddress) */\n      tag_71\n        /* \"contracts/CryptoKids.sol\":1456:1469  walletAddress */\n      dup3\n        /* \"contracts/CryptoKids.sol\":1444:1455  getKidIndex */\n      tag_41\n        /* \"contracts/CryptoKids.sol\":1444:1470  getKidIndex(walletAddress) */\n      jump\t// in\n    tag_71:\n        /* \"contracts/CryptoKids.sol\":1425:1470  uint theKidIndex = getKidIndex(walletAddress) */\n      swap1\n      pop\n        /* \"contracts/CryptoKids.sol\":1498:1502  kids */\n      0x01\n        /* \"contracts/CryptoKids.sol\":1498:1509  kids.length */\n      dup1\n      sload\n      swap1\n      pop\n        /* \"contracts/CryptoKids.sol\":1484:1495  theKidIndex */\n      dup2\n        /* \"contracts/CryptoKids.sol\":1484:1509  theKidIndex < kids.length */\n      lt\n        /* \"contracts/CryptoKids.sol\":1480:1573  if (theKidIndex < kids.length) {... */\n      iszero\n      tag_72\n      jumpi\n        /* \"contracts/CryptoKids.sol\":1553:1562  msg.value */\n      callvalue\n        /* \"contracts/CryptoKids.sol\":1525:1529  kids */\n      0x01\n        /* \"contracts/CryptoKids.sol\":1530:1541  theKidIndex */\n      dup3\n        /* \"contracts/CryptoKids.sol\":1525:1542  kids[theKidIndex] */\n      dup2\n      sload\n      dup2\n      lt\n      tag_73\n      jumpi\n      tag_74\n      tag_65\n      jump\t// in\n    tag_74:\n    tag_73:\n      swap1\n      0x00\n      mstore\n      keccak256(0x00, 0x20)\n      swap1\n      0x06\n      mul\n      add\n        /* \"contracts/CryptoKids.sol\":1525:1549  kids[theKidIndex].amount */\n      0x04\n      add\n      0x00\n        /* \"contracts/CryptoKids.sol\":1525:1562  kids[theKidIndex].amount += msg.value */\n      dup3\n      dup3\n      sload\n      tag_76\n      swap2\n      swap1\n      tag_77\n      jump\t// in\n    tag_76:\n      swap3\n      pop\n      pop\n      dup2\n      swap1\n      sstore\n      pop\n        /* \"contracts/CryptoKids.sol\":1480:1573  if (theKidIndex < kids.length) {... */\n    tag_72:\n        /* \"contracts/CryptoKids.sol\":1415:1579  {... */\n      pop\n        /* \"contracts/CryptoKids.sol\":1358:1579  function addToKidsBalance(address walletAddress) private {... */\n      pop\n      jump\t// out\n    tag_37:\n      dup3\n      dup1\n      sload\n      tag_78\n      swap1\n      tag_46\n      jump\t// in\n    tag_78:\n      swap1\n      0x00\n      mstore\n      keccak256(0x00, 0x20)\n      swap1\n      0x1f\n      add\n      0x20\n      swap1\n      div\n      dup2\n      add\n      swap3\n      dup3\n      tag_80\n      jumpi\n      0x00\n      dup6\n      sstore\n      jump(tag_79)\n    tag_80:\n      dup3\n      0x1f\n      lt\n      tag_81\n      jumpi\n      dup1\n      mload\n      not(0xff)\n      and\n      dup4\n      dup1\n      add\n      or\n      dup6\n      sstore\n      jump(tag_79)\n    tag_81:\n      dup3\n      dup1\n      add\n      0x01\n      add\n      dup6\n      sstore\n      dup3\n      iszero\n      tag_79\n      jumpi\n      swap2\n      dup3\n      add\n    tag_82:\n      dup3\n      dup2\n      gt\n      iszero\n      tag_83\n      jumpi\n      dup3\n      mload\n      dup3\n      sstore\n      swap2\n      0x20\n      add\n      swap2\n      swap1\n      0x01\n      add\n      swap1\n      jump(tag_82)\n    tag_83:\n    tag_79:\n      pop\n      swap1\n      pop\n      tag_84\n      swap2\n      swap1\n      tag_85\n      jump\t// in\n    tag_84:\n      pop\n      swap1\n      jump\t// out\n    tag_85:\n    tag_86:\n      dup1\n      dup3\n      gt\n      iszero\n      tag_87\n      jumpi\n      0x00\n      dup2\n      0x00\n      swap1\n      sstore\n      pop\n      0x01\n      add\n      jump(tag_86)\n    tag_87:\n      pop\n      swap1\n      jump\t// out\n        /* \"#utility.yul\":7:419   */\n    tag_89:\n        /* \"#utility.yul\":85:90   */\n      0x00\n        /* \"#utility.yul\":110:176   */\n      tag_91\n        /* \"#utility.yul\":126:175   */\n      tag_92\n        /* \"#utility.yul\":168:174   */\n      dup5\n        /* \"#utility.yul\":126:175   */\n      tag_93\n      jump\t// in\n    tag_92:\n        /* \"#utility.yul\":110:176   */\n      tag_94\n      jump\t// in\n    tag_91:\n        /* \"#utility.yul\":101:176   */\n      swap1\n      pop\n        /* \"#utility.yul\":199:205   */\n      dup3\n        /* \"#utility.yul\":192:197   */\n      dup2\n        /* \"#utility.yul\":185:206   */\n      mstore\n        /* \"#utility.yul\":237:241   */\n      0x20\n        /* \"#utility.yul\":230:235   */\n      dup2\n        /* \"#utility.yul\":226:242   */\n      add\n        /* \"#utility.yul\":275:278   */\n      dup5\n        /* \"#utility.yul\":266:272   */\n      dup5\n        /* \"#utility.yul\":261:264   */\n      dup5\n        /* \"#utility.yul\":257:273   */\n      add\n        /* \"#utility.yul\":254:279   */\n      gt\n        /* \"#utility.yul\":251:363   */\n      iszero\n      tag_95\n      jumpi\n        /* \"#utility.yul\":282:361   */\n      tag_96\n      tag_97\n      jump\t// in\n    tag_96:\n        /* \"#utility.yul\":251:363   */\n    tag_95:\n        /* \"#utility.yul\":372:413   */\n      tag_98\n        /* \"#utility.yul\":406:412   */\n      dup5\n        /* \"#utility.yul\":401:404   */\n      dup3\n        /* \"#utility.yul\":396:399   */\n      dup6\n        /* \"#utility.yul\":372:413   */\n      tag_99\n      jump\t// in\n    tag_98:\n        /* \"#utility.yul\":91:419   */\n      pop\n        /* \"#utility.yul\":7:419   */\n      swap4\n      swap3\n      pop\n      pop\n      pop\n      jump\t// out\n        /* \"#utility.yul\":425:564   */\n    tag_100:\n        /* \"#utility.yul\":471:476   */\n      0x00\n        /* \"#utility.yul\":509:515   */\n      dup2\n        /* \"#utility.yul\":496:516   */\n      calldataload\n        /* \"#utility.yul\":487:516   */\n      swap1\n      pop\n        /* \"#utility.yul\":525:558   */\n      tag_102\n        /* \"#utility.yul\":552:557   */\n      dup2\n        /* \"#utility.yul\":525:558   */\n      tag_103\n      jump\t// in\n    tag_102:\n        /* \"#utility.yul\":425:564   */\n      swap3\n      swap2\n      pop\n      pop\n      jump\t// out\n        /* \"#utility.yul\":570:703   */\n    tag_104:\n        /* \"#utility.yul\":613:618   */\n      0x00\n        /* \"#utility.yul\":651:657   */\n      dup2\n        /* \"#utility.yul\":638:658   */\n      calldataload\n        /* \"#utility.yul\":629:658   */\n      swap1\n      pop\n        /* \"#utility.yul\":667:697   */\n      tag_106\n        /* \"#utility.yul\":691:696   */\n      dup2\n        /* \"#utility.yul\":667:697   */\n      tag_107\n      jump\t// in\n    tag_106:\n        /* \"#utility.yul\":570:703   */\n      swap3\n      swap2\n      pop\n      pop\n      jump\t// out\n        /* \"#utility.yul\":723:1063   */\n    tag_108:\n        /* \"#utility.yul\":779:784   */\n      0x00\n        /* \"#utility.yul\":828:831   */\n      dup3\n        /* \"#utility.yul\":821:825   */\n      0x1f\n        /* \"#utility.yul\":813:819   */\n      dup4\n        /* \"#utility.yul\":809:826   */\n      add\n        /* \"#utility.yul\":805:832   */\n      slt\n        /* \"#utility.yul\":795:917   */\n      tag_110\n      jumpi\n        /* \"#utility.yul\":836:915   */\n      tag_111\n      tag_112\n      jump\t// in\n    tag_111:\n        /* \"#utility.yul\":795:917   */\n    tag_110:\n        /* \"#utility.yul\":953:959   */\n      dup2\n        /* \"#utility.yul\":940:960   */\n      calldataload\n        /* \"#utility.yul\":978:1057   */\n      tag_113\n        /* \"#utility.yul\":1053:1056   */\n      dup5\n        /* \"#utility.yul\":1045:1051   */\n      dup3\n        /* \"#utility.yul\":1038:1042   */\n      0x20\n        /* \"#utility.yul\":1030:1036   */\n      dup7\n        /* \"#utility.yul\":1026:1043   */\n      add\n        /* \"#utility.yul\":978:1057   */\n      tag_89\n      jump\t// in\n    tag_113:\n        /* \"#utility.yul\":969:1057   */\n      swap2\n      pop\n        /* \"#utility.yul\":785:1063   */\n      pop\n        /* \"#utility.yul\":723:1063   */\n      swap3\n      swap2\n      pop\n      pop\n      jump\t// out\n        /* \"#utility.yul\":1069:1208   */\n    tag_114:\n        /* \"#utility.yul\":1115:1120   */\n      0x00\n        /* \"#utility.yul\":1153:1159   */\n      dup2\n        /* \"#utility.yul\":1140:1160   */\n      calldataload\n        /* \"#utility.yul\":1131:1160   */\n      swap1\n      pop\n        /* \"#utility.yul\":1169:1202   */\n      tag_116\n        /* \"#utility.yul\":1196:1201   */\n      dup2\n        /* \"#utility.yul\":1169:1202   */\n      tag_117\n      jump\t// in\n    tag_116:\n        /* \"#utility.yul\":1069:1208   */\n      swap3\n      swap2\n      pop\n      pop\n      jump\t// out\n        /* \"#utility.yul\":1214:1543   */\n    tag_15:\n        /* \"#utility.yul\":1273:1279   */\n      0x00\n        /* \"#utility.yul\":1322:1324   */\n      0x20\n        /* \"#utility.yul\":1310:1319   */\n      dup3\n        /* \"#utility.yul\":1301:1308   */\n      dup5\n        /* \"#utility.yul\":1297:1320   */\n      sub\n        /* \"#utility.yul\":1293:1325   */\n      slt\n        /* \"#utility.yul\":1290:1409   */\n      iszero\n      tag_119\n      jumpi\n        /* \"#utility.yul\":1328:1407   */\n      tag_120\n      tag_121\n      jump\t// in\n    tag_120:\n        /* \"#utility.yul\":1290:1409   */\n    tag_119:\n        /* \"#utility.yul\":1448:1449   */\n      0x00\n        /* \"#utility.yul\":1473:1526   */\n      tag_122\n        /* \"#utility.yul\":1518:1525   */\n      dup5\n        /* \"#utility.yul\":1509:1515   */\n      dup3\n        /* \"#utility.yul\":1498:1507   */\n      dup6\n        /* \"#utility.yul\":1494:1516   */\n      add\n        /* \"#utility.yul\":1473:1526   */\n      tag_100\n      jump\t// in\n    tag_122:\n        /* \"#utility.yul\":1463:1526   */\n      swap2\n      pop\n        /* \"#utility.yul\":1419:1536   */\n      pop\n        /* \"#utility.yul\":1214:1543   */\n      swap3\n      swap2\n      pop\n      pop\n      jump\t// out\n        /* \"#utility.yul\":1549:2960   */\n    tag_10:\n        /* \"#utility.yul\":1670:1676   */\n      0x00\n        /* \"#utility.yul\":1678:1684   */\n      dup1\n        /* \"#utility.yul\":1686:1692   */\n      0x00\n        /* \"#utility.yul\":1694:1700   */\n      dup1\n        /* \"#utility.yul\":1702:1708   */\n      0x00\n        /* \"#utility.yul\":1710:1716   */\n      dup1\n        /* \"#utility.yul\":1759:1762   */\n      0xc0\n        /* \"#utility.yul\":1747:1756   */\n      dup8\n        /* \"#utility.yul\":1738:1745   */\n      dup10\n        /* \"#utility.yul\":1734:1757   */\n      sub\n        /* \"#utility.yul\":1730:1763   */\n      slt\n        /* \"#utility.yul\":1727:1847   */\n      iszero\n      tag_124\n      jumpi\n        /* \"#utility.yul\":1766:1845   */\n      tag_125\n      tag_121\n      jump\t// in\n    tag_125:\n        /* \"#utility.yul\":1727:1847   */\n    tag_124:\n        /* \"#utility.yul\":1886:1887   */\n      0x00\n        /* \"#utility.yul\":1911:1964   */\n      tag_126\n        /* \"#utility.yul\":1956:1963   */\n      dup10\n        /* \"#utility.yul\":1947:1953   */\n      dup3\n        /* \"#utility.yul\":1936:1945   */\n      dup11\n        /* \"#utility.yul\":1932:1954   */\n      add\n        /* \"#utility.yul\":1911:1964   */\n      tag_100\n      jump\t// in\n    tag_126:\n        /* \"#utility.yul\":1901:1964   */\n      swap7\n      pop\n        /* \"#utility.yul\":1857:1974   */\n      pop\n        /* \"#utility.yul\":2041:2043   */\n      0x20\n        /* \"#utility.yul\":2030:2039   */\n      dup8\n        /* \"#utility.yul\":2026:2044   */\n      add\n        /* \"#utility.yul\":2013:2045   */\n      calldataload\n        /* \"#utility.yul\":2072:2090   */\n      0xffffffffffffffff\n        /* \"#utility.yul\":2064:2070   */\n      dup2\n        /* \"#utility.yul\":2061:2091   */\n      gt\n        /* \"#utility.yul\":2058:2175   */\n      iszero\n      tag_127\n      jumpi\n        /* \"#utility.yul\":2094:2173   */\n      tag_128\n      tag_129\n      jump\t// in\n    tag_128:\n        /* \"#utility.yul\":2058:2175   */\n    tag_127:\n        /* \"#utility.yul\":2199:2262   */\n      tag_130\n        /* \"#utility.yul\":2254:2261   */\n      dup10\n        /* \"#utility.yul\":2245:2251   */\n      dup3\n        /* \"#utility.yul\":2234:2243   */\n      dup11\n        /* \"#utility.yul\":2230:2252   */\n      add\n        /* \"#utility.yul\":2199:2262   */\n      tag_108\n      jump\t// in\n    tag_130:\n        /* \"#utility.yul\":2189:2262   */\n      swap6\n      pop\n        /* \"#utility.yul\":1984:2272   */\n      pop\n        /* \"#utility.yul\":2339:2341   */\n      0x40\n        /* \"#utility.yul\":2328:2337   */\n      dup8\n        /* \"#utility.yul\":2324:2342   */\n      add\n        /* \"#utility.yul\":2311:2343   */\n      calldataload\n        /* \"#utility.yul\":2370:2388   */\n      0xffffffffffffffff\n        /* \"#utility.yul\":2362:2368   */\n      dup2\n        /* \"#utility.yul\":2359:2389   */\n      gt\n        /* \"#utility.yul\":2356:2473   */\n      iszero\n      tag_131\n      jumpi\n        /* \"#utility.yul\":2392:2471   */\n      tag_132\n      tag_129\n      jump\t// in\n    tag_132:\n        /* \"#utility.yul\":2356:2473   */\n    tag_131:\n        /* \"#utility.yul\":2497:2560   */\n      tag_133\n        /* \"#utility.yul\":2552:2559   */\n      dup10\n        /* \"#utility.yul\":2543:2549   */\n      dup3\n        /* \"#utility.yul\":2532:2541   */\n      dup11\n        /* \"#utility.yul\":2528:2550   */\n      add\n        /* \"#utility.yul\":2497:2560   */\n      tag_108\n      jump\t// in\n    tag_133:\n        /* \"#utility.yul\":2487:2560   */\n      swap5\n      pop\n        /* \"#utility.yul\":2282:2570   */\n      pop\n        /* \"#utility.yul\":2609:2611   */\n      0x60\n        /* \"#utility.yul\":2635:2688   */\n      tag_134\n        /* \"#utility.yul\":2680:2687   */\n      dup10\n        /* \"#utility.yul\":2671:2677   */\n      dup3\n        /* \"#utility.yul\":2660:2669   */\n      dup11\n        /* \"#utility.yul\":2656:2678   */\n      add\n        /* \"#utility.yul\":2635:2688   */\n      tag_114\n      jump\t// in\n    tag_134:\n        /* \"#utility.yul\":2625:2688   */\n      swap4\n      pop\n        /* \"#utility.yul\":2580:2698   */\n      pop\n        /* \"#utility.yul\":2737:2740   */\n      0x80\n        /* \"#utility.yul\":2764:2817   */\n      tag_135\n        /* \"#utility.yul\":2809:2816   */\n      dup10\n        /* \"#utility.yul\":2800:2806   */\n      dup3\n        /* \"#utility.yul\":2789:2798   */\n      dup11\n        /* \"#utility.yul\":2785:2807   */\n      add\n        /* \"#utility.yul\":2764:2817   */\n      tag_114\n      jump\t// in\n    tag_135:\n        /* \"#utility.yul\":2754:2817   */\n      swap3\n      pop\n        /* \"#utility.yul\":2708:2827   */\n      pop\n        /* \"#utility.yul\":2866:2869   */\n      0xa0\n        /* \"#utility.yul\":2893:2943   */\n      tag_136\n        /* \"#utility.yul\":2935:2942   */\n      dup10\n        /* \"#utility.yul\":2926:2932   */\n      dup3\n        /* \"#utility.yul\":2915:2924   */\n      dup11\n        /* \"#utility.yul\":2911:2933   */\n      add\n        /* \"#utility.yul\":2893:2943   */\n      tag_104\n      jump\t// in\n    tag_136:\n        /* \"#utility.yul\":2883:2943   */\n      swap2\n      pop\n        /* \"#utility.yul\":2837:2953   */\n      pop\n        /* \"#utility.yul\":1549:2960   */\n      swap3\n      swap6\n      pop\n      swap3\n      swap6\n      pop\n      swap3\n      swap6\n      jump\t// out\n        /* \"#utility.yul\":2966:3295   */\n    tag_27:\n        /* \"#utility.yul\":3025:3031   */\n      0x00\n        /* \"#utility.yul\":3074:3076   */\n      0x20\n        /* \"#utility.yul\":3062:3071   */\n      dup3\n        /* \"#utility.yul\":3053:3060   */\n      dup5\n        /* \"#utility.yul\":3049:3072   */\n      sub\n        /* \"#utility.yul\":3045:3077   */\n      slt\n        /* \"#utility.yul\":3042:3161   */\n      iszero\n      tag_138\n      jumpi\n        /* \"#utility.yul\":3080:3159   */\n      tag_139\n      tag_121\n      jump\t// in\n    tag_139:\n        /* \"#utility.yul\":3042:3161   */\n    tag_138:\n        /* \"#utility.yul\":3200:3201   */\n      0x00\n        /* \"#utility.yul\":3225:3278   */\n      tag_140\n        /* \"#utility.yul\":3270:3277   */\n      dup5\n        /* \"#utility.yul\":3261:3267   */\n      dup3\n        /* \"#utility.yul\":3250:3259   */\n      dup6\n        /* \"#utility.yul\":3246:3268   */\n      add\n        /* \"#utility.yul\":3225:3278   */\n      tag_114\n      jump\t// in\n    tag_140:\n        /* \"#utility.yul\":3215:3278   */\n      swap2\n      pop\n        /* \"#utility.yul\":3171:3288   */\n      pop\n        /* \"#utility.yul\":2966:3295   */\n      swap3\n      swap2\n      pop\n      pop\n      jump\t// out\n        /* \"#utility.yul\":3301:3419   */\n    tag_141:\n        /* \"#utility.yul\":3388:3412   */\n      tag_143\n        /* \"#utility.yul\":3406:3411   */\n      dup2\n        /* \"#utility.yul\":3388:3412   */\n      tag_144\n      jump\t// in\n    tag_143:\n        /* \"#utility.yul\":3383:3386   */\n      dup3\n        /* \"#utility.yul\":3376:3413   */\n      mstore\n        /* \"#utility.yul\":3301:3419   */\n      pop\n      pop\n      jump\t// out\n        /* \"#utility.yul\":3425:3534   */\n    tag_145:\n        /* \"#utility.yul\":3506:3527   */\n      tag_147\n        /* \"#utility.yul\":3521:3526   */\n      dup2\n        /* \"#utility.yul\":3506:3527   */\n      tag_148\n      jump\t// in\n    tag_147:\n        /* \"#utility.yul\":3501:3504   */\n      dup3\n        /* \"#utility.yul\":3494:3528   */\n      mstore\n        /* \"#utility.yul\":3425:3534   */\n      pop\n      pop\n      jump\t// out\n        /* \"#utility.yul\":3540:3904   */\n    tag_149:\n        /* \"#utility.yul\":3628:3631   */\n      0x00\n        /* \"#utility.yul\":3656:3695   */\n      tag_151\n        /* \"#utility.yul\":3689:3694   */\n      dup3\n        /* \"#utility.yul\":3656:3695   */\n      tag_152\n      jump\t// in\n    tag_151:\n        /* \"#utility.yul\":3711:3782   */\n      tag_153\n        /* \"#utility.yul\":3775:3781   */\n      dup2\n        /* \"#utility.yul\":3770:3773   */\n      dup6\n        /* \"#utility.yul\":3711:3782   */\n      tag_154\n      jump\t// in\n    tag_153:\n        /* \"#utility.yul\":3704:3782   */\n      swap4\n      pop\n        /* \"#utility.yul\":3791:3843   */\n      tag_155\n        /* \"#utility.yul\":3836:3842   */\n      dup2\n        /* \"#utility.yul\":3831:3834   */\n      dup6\n        /* \"#utility.yul\":3824:3828   */\n      0x20\n        /* \"#utility.yul\":3817:3822   */\n      dup7\n        /* \"#utility.yul\":3813:3829   */\n      add\n        /* \"#utility.yul\":3791:3843   */\n      tag_156\n      jump\t// in\n    tag_155:\n        /* \"#utility.yul\":3868:3897   */\n      tag_157\n        /* \"#utility.yul\":3890:3896   */\n      dup2\n        /* \"#utility.yul\":3868:3897   */\n      tag_158\n      jump\t// in\n    tag_157:\n        /* \"#utility.yul\":3863:3866   */\n      dup5\n        /* \"#utility.yul\":3859:3898   */\n      add\n        /* \"#utility.yul\":3852:3898   */\n      swap2\n      pop\n        /* \"#utility.yul\":3632:3904   */\n      pop\n        /* \"#utility.yul\":3540:3904   */\n      swap3\n      swap2\n      pop\n      pop\n      jump\t// out\n        /* \"#utility.yul\":3910:4028   */\n    tag_159:\n        /* \"#utility.yul\":3997:4021   */\n      tag_161\n        /* \"#utility.yul\":4015:4020   */\n      dup2\n        /* \"#utility.yul\":3997:4021   */\n      tag_162\n      jump\t// in\n    tag_161:\n        /* \"#utility.yul\":3992:3995   */\n      dup3\n        /* \"#utility.yul\":3985:4022   */\n      mstore\n        /* \"#utility.yul\":3910:4028   */\n      pop\n      pop\n      jump\t// out\n        /* \"#utility.yul\":4034:4979   */\n    tag_30:\n        /* \"#utility.yul\":4301:4305   */\n      0x00\n        /* \"#utility.yul\":4339:4342   */\n      0xc0\n        /* \"#utility.yul\":4328:4337   */\n      dup3\n        /* \"#utility.yul\":4324:4343   */\n      add\n        /* \"#utility.yul\":4316:4343   */\n      swap1\n      pop\n        /* \"#utility.yul\":4353:4424   */\n      tag_164\n        /* \"#utility.yul\":4421:4422   */\n      0x00\n        /* \"#utility.yul\":4410:4419   */\n      dup4\n        /* \"#utility.yul\":4406:4423   */\n      add\n        /* \"#utility.yul\":4397:4403   */\n      dup10\n        /* \"#utility.yul\":4353:4424   */\n      tag_141\n      jump\t// in\n    tag_164:\n        /* \"#utility.yul\":4471:4480   */\n      dup2\n        /* \"#utility.yul\":4465:4469   */\n      dup2\n        /* \"#utility.yul\":4461:4481   */\n      sub\n        /* \"#utility.yul\":4456:4458   */\n      0x20\n        /* \"#utility.yul\":4445:4454   */\n      dup4\n        /* \"#utility.yul\":4441:4459   */\n      add\n        /* \"#utility.yul\":4434:4482   */\n      mstore\n        /* \"#utility.yul\":4499:4577   */\n      tag_165\n        /* \"#utility.yul\":4572:4576   */\n      dup2\n        /* \"#utility.yul\":4563:4569   */\n      dup9\n        /* \"#utility.yul\":4499:4577   */\n      tag_149\n      jump\t// in\n    tag_165:\n        /* \"#utility.yul\":4491:4577   */\n      swap1\n      pop\n        /* \"#utility.yul\":4624:4633   */\n      dup2\n        /* \"#utility.yul\":4618:4622   */\n      dup2\n        /* \"#utility.yul\":4614:4634   */\n      sub\n        /* \"#utility.yul\":4609:4611   */\n      0x40\n        /* \"#utility.yul\":4598:4607   */\n      dup4\n        /* \"#utility.yul\":4594:4612   */\n      add\n        /* \"#utility.yul\":4587:4635   */\n      mstore\n        /* \"#utility.yul\":4652:4730   */\n      tag_166\n        /* \"#utility.yul\":4725:4729   */\n      dup2\n        /* \"#utility.yul\":4716:4722   */\n      dup8\n        /* \"#utility.yul\":4652:4730   */\n      tag_149\n      jump\t// in\n    tag_166:\n        /* \"#utility.yul\":4644:4730   */\n      swap1\n      pop\n        /* \"#utility.yul\":4740:4812   */\n      tag_167\n        /* \"#utility.yul\":4808:4810   */\n      0x60\n        /* \"#utility.yul\":4797:4806   */\n      dup4\n        /* \"#utility.yul\":4793:4811   */\n      add\n        /* \"#utility.yul\":4784:4790   */\n      dup7\n        /* \"#utility.yul\":4740:4812   */\n      tag_159\n      jump\t// in\n    tag_167:\n        /* \"#utility.yul\":4822:4895   */\n      tag_168\n        /* \"#utility.yul\":4890:4893   */\n      0x80\n        /* \"#utility.yul\":4879:4888   */\n      dup4\n        /* \"#utility.yul\":4875:4894   */\n      add\n        /* \"#utility.yul\":4866:4872   */\n      dup6\n        /* \"#utility.yul\":4822:4895   */\n      tag_159\n      jump\t// in\n    tag_168:\n        /* \"#utility.yul\":4905:4972   */\n      tag_169\n        /* \"#utility.yul\":4967:4970   */\n      0xa0\n        /* \"#utility.yul\":4956:4965   */\n      dup4\n        /* \"#utility.yul\":4952:4971   */\n      add\n        /* \"#utility.yul\":4943:4949   */\n      dup5\n        /* \"#utility.yul\":4905:4972   */\n      tag_145\n      jump\t// in\n    tag_169:\n        /* \"#utility.yul\":4034:4979   */\n      swap8\n      swap7\n      pop\n      pop\n      pop\n      pop\n      pop\n      pop\n      pop\n      jump\t// out\n        /* \"#utility.yul\":4985:5195   */\n    tag_18:\n        /* \"#utility.yul\":5072:5076   */\n      0x00\n        /* \"#utility.yul\":5110:5112   */\n      0x20\n        /* \"#utility.yul\":5099:5108   */\n      dup3\n        /* \"#utility.yul\":5095:5113   */\n      add\n        /* \"#utility.yul\":5087:5113   */\n      swap1\n      pop\n        /* \"#utility.yul\":5123:5188   */\n      tag_171\n        /* \"#utility.yul\":5185:5186   */\n      0x00\n        /* \"#utility.yul\":5174:5183   */\n      dup4\n        /* \"#utility.yul\":5170:5187   */\n      add\n        /* \"#utility.yul\":5161:5167   */\n      dup5\n        /* \"#utility.yul\":5123:5188   */\n      tag_145\n      jump\t// in\n    tag_171:\n        /* \"#utility.yul\":4985:5195   */\n      swap3\n      swap2\n      pop\n      pop\n      jump\t// out\n        /* \"#utility.yul\":5201:5423   */\n    tag_23:\n        /* \"#utility.yul\":5294:5298   */\n      0x00\n        /* \"#utility.yul\":5332:5334   */\n      0x20\n        /* \"#utility.yul\":5321:5330   */\n      dup3\n        /* \"#utility.yul\":5317:5335   */\n      add\n        /* \"#utility.yul\":5309:5335   */\n      swap1\n      pop\n        /* \"#utility.yul\":5345:5416   */\n      tag_173\n        /* \"#utility.yul\":5413:5414   */\n      0x00\n        /* \"#utility.yul\":5402:5411   */\n      dup4\n        /* \"#utility.yul\":5398:5415   */\n      add\n        /* \"#utility.yul\":5389:5395   */\n      dup5\n        /* \"#utility.yul\":5345:5416   */\n      tag_159\n      jump\t// in\n    tag_173:\n        /* \"#utility.yul\":5201:5423   */\n      swap3\n      swap2\n      pop\n      pop\n      jump\t// out\n        /* \"#utility.yul\":5429:5558   */\n    tag_94:\n        /* \"#utility.yul\":5463:5469   */\n      0x00\n        /* \"#utility.yul\":5490:5510   */\n      tag_175\n      tag_176\n      jump\t// in\n    tag_175:\n        /* \"#utility.yul\":5480:5510   */\n      swap1\n      pop\n        /* \"#utility.yul\":5519:5552   */\n      tag_177\n        /* \"#utility.yul\":5547:5551   */\n      dup3\n        /* \"#utility.yul\":5539:5545   */\n      dup3\n        /* \"#utility.yul\":5519:5552   */\n      tag_178\n      jump\t// in\n    tag_177:\n        /* \"#utility.yul\":5429:5558   */\n      swap2\n      swap1\n      pop\n      jump\t// out\n        /* \"#utility.yul\":5564:5639   */\n    tag_176:\n        /* \"#utility.yul\":5597:5603   */\n      0x00\n        /* \"#utility.yul\":5630:5632   */\n      0x40\n        /* \"#utility.yul\":5624:5633   */\n      mload\n        /* \"#utility.yul\":5614:5633   */\n      swap1\n      pop\n        /* \"#utility.yul\":5564:5639   */\n      swap1\n      jump\t// out\n        /* \"#utility.yul\":5645:5953   */\n    tag_93:\n        /* \"#utility.yul\":5707:5711   */\n      0x00\n        /* \"#utility.yul\":5797:5815   */\n      0xffffffffffffffff\n        /* \"#utility.yul\":5789:5795   */\n      dup3\n        /* \"#utility.yul\":5786:5816   */\n      gt\n        /* \"#utility.yul\":5783:5839   */\n      iszero\n      tag_181\n      jumpi\n        /* \"#utility.yul\":5819:5837   */\n      tag_182\n      tag_183\n      jump\t// in\n    tag_182:\n        /* \"#utility.yul\":5783:5839   */\n    tag_181:\n        /* \"#utility.yul\":5857:5886   */\n      tag_184\n        /* \"#utility.yul\":5879:5885   */\n      dup3\n        /* \"#utility.yul\":5857:5886   */\n      tag_158\n      jump\t// in\n    tag_184:\n        /* \"#utility.yul\":5849:5886   */\n      swap1\n      pop\n        /* \"#utility.yul\":5941:5945   */\n      0x20\n        /* \"#utility.yul\":5935:5939   */\n      dup2\n        /* \"#utility.yul\":5931:5946   */\n      add\n        /* \"#utility.yul\":5923:5946   */\n      swap1\n      pop\n        /* \"#utility.yul\":5645:5953   */\n      swap2\n      swap1\n      pop\n      jump\t// out\n        /* \"#utility.yul\":5959:6058   */\n    tag_152:\n        /* \"#utility.yul\":6011:6017   */\n      0x00\n        /* \"#utility.yul\":6045:6050   */\n      dup2\n        /* \"#utility.yul\":6039:6051   */\n      mload\n        /* \"#utility.yul\":6029:6051   */\n      swap1\n      pop\n        /* \"#utility.yul\":5959:6058   */\n      swap2\n      swap1\n      pop\n      jump\t// out\n        /* \"#utility.yul\":6064:6233   */\n    tag_154:\n        /* \"#utility.yul\":6148:6159   */\n      0x00\n        /* \"#utility.yul\":6182:6188   */\n      dup3\n        /* \"#utility.yul\":6177:6180   */\n      dup3\n        /* \"#utility.yul\":6170:6189   */\n      mstore\n        /* \"#utility.yul\":6222:6226   */\n      0x20\n        /* \"#utility.yul\":6217:6220   */\n      dup3\n        /* \"#utility.yul\":6213:6227   */\n      add\n        /* \"#utility.yul\":6198:6227   */\n      swap1\n      pop\n        /* \"#utility.yul\":6064:6233   */\n      swap3\n      swap2\n      pop\n      pop\n      jump\t// out\n        /* \"#utility.yul\":6239:6544   */\n    tag_77:\n        /* \"#utility.yul\":6279:6282   */\n      0x00\n        /* \"#utility.yul\":6298:6318   */\n      tag_188\n        /* \"#utility.yul\":6316:6317   */\n      dup3\n        /* \"#utility.yul\":6298:6318   */\n      tag_162\n      jump\t// in\n    tag_188:\n        /* \"#utility.yul\":6293:6318   */\n      swap2\n      pop\n        /* \"#utility.yul\":6332:6352   */\n      tag_189\n        /* \"#utility.yul\":6350:6351   */\n      dup4\n        /* \"#utility.yul\":6332:6352   */\n      tag_162\n      jump\t// in\n    tag_189:\n        /* \"#utility.yul\":6327:6352   */\n      swap3\n      pop\n        /* \"#utility.yul\":6486:6487   */\n      dup3\n        /* \"#utility.yul\":6418:6484   */\n      0xffffffffffffffffffffffffffffffffffffffffffffffffffffffffffffffff\n        /* \"#utility.yul\":6414:6488   */\n      sub\n        /* \"#utility.yul\":6411:6412   */\n      dup3\n        /* \"#utility.yul\":6408:6489   */\n      gt\n        /* \"#utility.yul\":6405:6512   */\n      iszero\n      tag_190\n      jumpi\n        /* \"#utility.yul\":6492:6510   */\n      tag_191\n      tag_192\n      jump\t// in\n    tag_191:\n        /* \"#utility.yul\":6405:6512   */\n    tag_190:\n        /* \"#utility.yul\":6536:6537   */\n      dup3\n        /* \"#utility.yul\":6533:6534   */\n      dup3\n        /* \"#utility.yul\":6529:6538   */\n      add\n        /* \"#utility.yul\":6522:6538   */\n      swap1\n      pop\n        /* \"#utility.yul\":6239:6544   */\n      swap3\n      swap2\n      pop\n      pop\n      jump\t// out\n        /* \"#utility.yul\":6550:6646   */\n    tag_144:\n        /* \"#utility.yul\":6587:6594   */\n      0x00\n        /* \"#utility.yul\":6616:6640   */\n      tag_194\n        /* \"#utility.yul\":6634:6639   */\n      dup3\n        /* \"#utility.yul\":6616:6640   */\n      tag_195\n      jump\t// in\n    tag_194:\n        /* \"#utility.yul\":6605:6640   */\n      swap1\n      pop\n        /* \"#utility.yul\":6550:6646   */\n      swap2\n      swap1\n      pop\n      jump\t// out\n        /* \"#utility.yul\":6652:6742   */\n    tag_148:\n        /* \"#utility.yul\":6686:6693   */\n      0x00\n        /* \"#utility.yul\":6729:6734   */\n      dup2\n        /* \"#utility.yul\":6722:6735   */\n      iszero\n        /* \"#utility.yul\":6715:6736   */\n      iszero\n        /* \"#utility.yul\":6704:6736   */\n      swap1\n      pop\n        /* \"#utility.yul\":6652:6742   */\n      swap2\n      swap1\n      pop\n      jump\t// out\n        /* \"#utility.yul\":6748:6874   */\n    tag_195:\n        /* \"#utility.yul\":6785:6792   */\n      0x00\n        /* \"#utility.yul\":6825:6867   */\n      0xffffffffffffffffffffffffffffffffffffffff\n        /* \"#utility.yul\":6818:6823   */\n      dup3\n        /* \"#utility.yul\":6814:6868   */\n      and\n        /* \"#utility.yul\":6803:6868   */\n      swap1\n      pop\n        /* \"#utility.yul\":6748:6874   */\n      swap2\n      swap1\n      pop\n      jump\t// out\n        /* \"#utility.yul\":6880:6957   */\n    tag_162:\n        /* \"#utility.yul\":6917:6924   */\n      0x00\n        /* \"#utility.yul\":6946:6951   */\n      dup2\n        /* \"#utility.yul\":6935:6951   */\n      swap1\n      pop\n        /* \"#utility.yul\":6880:6957   */\n      swap2\n      swap1\n      pop\n      jump\t// out\n        /* \"#utility.yul\":6963:7117   */\n    tag_99:\n        /* \"#utility.yul\":7047:7053   */\n      dup3\n        /* \"#utility.yul\":7042:7045   */\n      dup2\n        /* \"#utility.yul\":7037:7040   */\n      dup4\n        /* \"#utility.yul\":7024:7054   */\n      calldatacopy\n        /* \"#utility.yul\":7109:7110   */\n      0x00\n        /* \"#utility.yul\":7100:7106   */\n      dup4\n        /* \"#utility.yul\":7095:7098   */\n      dup4\n        /* \"#utility.yul\":7091:7107   */\n      add\n        /* \"#utility.yul\":7084:7111   */\n      mstore\n        /* \"#utility.yul\":6963:7117   */\n      pop\n      pop\n      pop\n      jump\t// out\n        /* \"#utility.yul\":7123:7430   */\n    tag_156:\n        /* \"#utility.yul\":7191:7192   */\n      0x00\n        /* \"#utility.yul\":7201:7314   */\n    tag_201:\n        /* \"#utility.yul\":7215:7221   */\n      dup4\n        /* \"#utility.yul\":7212:7213   */\n      dup2\n        /* \"#utility.yul\":7209:7222   */\n      lt\n        /* \"#utility.yul\":7201:7314   */\n      iszero\n      tag_203\n      jumpi\n        /* \"#utility.yul\":7300:7301   */\n      dup1\n        /* \"#utility.yul\":7295:7298   */\n      dup3\n        /* \"#utility.yul\":7291:7302   */\n      add\n        /* \"#utility.yul\":7285:7303   */\n      mload\n        /* \"#utility.yul\":7281:7282   */\n      dup2\n        /* \"#utility.yul\":7276:7279   */\n      dup5\n        /* \"#utility.yul\":7272:7283   */\n      add\n        /* \"#utility.yul\":7265:7304   */\n      mstore\n        /* \"#utility.yul\":7237:7239   */\n      0x20\n        /* \"#utility.yul\":7234:7235   */\n      dup2\n        /* \"#utility.yul\":7230:7240   */\n      add\n        /* \"#utility.yul\":7225:7240   */\n      swap1\n      pop\n        /* \"#utility.yul\":7201:7314   */\n      jump(tag_201)\n    tag_203:\n        /* \"#utility.yul\":7332:7338   */\n      dup4\n        /* \"#utility.yul\":7329:7330   */\n      dup2\n        /* \"#utility.yul\":7326:7339   */\n      gt\n        /* \"#utility.yul\":7323:7424   */\n      iszero\n      tag_204\n      jumpi\n        /* \"#utility.yul\":7412:7413   */\n      0x00\n        /* \"#utility.yul\":7403:7409   */\n      dup5\n        /* \"#utility.yul\":7398:7401   */\n      dup5\n        /* \"#utility.yul\":7394:7410   */\n      add\n        /* \"#utility.yul\":7387:7414   */\n      mstore\n        /* \"#utility.yul\":7323:7424   */\n    tag_204:\n        /* \"#utility.yul\":7172:7430   */\n      pop\n        /* \"#utility.yul\":7123:7430   */\n      pop\n      pop\n      pop\n      jump\t// out\n        /* \"#utility.yul\":7436:7756   */\n    tag_46:\n        /* \"#utility.yul\":7480:7486   */\n      0x00\n        /* \"#utility.yul\":7517:7518   */\n      0x02\n        /* \"#utility.yul\":7511:7515   */\n      dup3\n        /* \"#utility.yul\":7507:7519   */\n      div\n        /* \"#utility.yul\":7497:7519   */\n      swap1\n      pop\n        /* \"#utility.yul\":7564:7565   */\n      0x01\n        /* \"#utility.yul\":7558:7562   */\n      dup3\n        /* \"#utility.yul\":7554:7566   */\n      and\n        /* \"#utility.yul\":7585:7603   */\n      dup1\n        /* \"#utility.yul\":7575:7656   */\n      tag_206\n      jumpi\n        /* \"#utility.yul\":7641:7645   */\n      0x7f\n        /* \"#utility.yul\":7633:7639   */\n      dup3\n        /* \"#utility.yul\":7629:7646   */\n      and\n        /* \"#utility.yul\":7619:7646   */\n      swap2\n      pop\n        /* \"#utility.yul\":7575:7656   */\n    tag_206:\n        /* \"#utility.yul\":7703:7705   */\n      0x20\n        /* \"#utility.yul\":7695:7701   */\n      dup3\n        /* \"#utility.yul\":7692:7706   */\n      lt\n        /* \"#utility.yul\":7672:7690   */\n      dup2\n        /* \"#utility.yul\":7669:7707   */\n      eq\n        /* \"#utility.yul\":7666:7750   */\n      iszero\n      tag_207\n      jumpi\n        /* \"#utility.yul\":7722:7740   */\n      tag_208\n      tag_209\n      jump\t// in\n    tag_208:\n        /* \"#utility.yul\":7666:7750   */\n    tag_207:\n        /* \"#utility.yul\":7487:7756   */\n      pop\n        /* \"#utility.yul\":7436:7756   */\n      swap2\n      swap1\n      pop\n      jump\t// out\n        /* \"#utility.yul\":7762:8043   */\n    tag_178:\n        /* \"#utility.yul\":7845:7872   */\n      tag_211\n        /* \"#utility.yul\":7867:7871   */\n      dup3\n        /* \"#utility.yul\":7845:7872   */\n      tag_158\n      jump\t// in\n    tag_211:\n        /* \"#utility.yul\":7837:7843   */\n      dup2\n        /* \"#utility.yul\":7833:7873   */\n      add\n        /* \"#utility.yul\":7975:7981   */\n      dup2\n        /* \"#utility.yul\":7963:7973   */\n      dup2\n        /* \"#utility.yul\":7960:7982   */\n      lt\n        /* \"#utility.yul\":7939:7957   */\n      0xffffffffffffffff\n        /* \"#utility.yul\":7927:7937   */\n      dup3\n        /* \"#utility.yul\":7924:7958   */\n      gt\n        /* \"#utility.yul\":7921:7983   */\n      or\n        /* \"#utility.yul\":7918:8006   */\n      iszero\n      tag_212\n      jumpi\n        /* \"#utility.yul\":7986:8004   */\n      tag_213\n      tag_183\n      jump\t// in\n    tag_213:\n        /* \"#utility.yul\":7918:8006   */\n    tag_212:\n        /* \"#utility.yul\":8026:8036   */\n      dup1\n        /* \"#utility.yul\":8022:8024   */\n      0x40\n        /* \"#utility.yul\":8015:8037   */\n      mstore\n        /* \"#utility.yul\":7805:8043   */\n      pop\n        /* \"#utility.yul\":7762:8043   */\n      pop\n      pop\n      jump\t// out\n        /* \"#utility.yul\":8049:8282   */\n    tag_69:\n        /* \"#utility.yul\":8088:8091   */\n      0x00\n        /* \"#utility.yul\":8111:8135   */\n      tag_215\n        /* \"#utility.yul\":8129:8134   */\n      dup3\n        /* \"#utility.yul\":8111:8135   */\n      tag_162\n      jump\t// in\n    tag_215:\n        /* \"#utility.yul\":8102:8135   */\n      swap2\n      pop\n        /* \"#utility.yul\":8157:8223   */\n      0xffffffffffffffffffffffffffffffffffffffffffffffffffffffffffffffff\n        /* \"#utility.yul\":8150:8155   */\n      dup3\n        /* \"#utility.yul\":8147:8224   */\n      eq\n        /* \"#utility.yul\":8144:8247   */\n      iszero\n      tag_216\n      jumpi\n        /* \"#utility.yul\":8227:8245   */\n      tag_217\n      tag_192\n      jump\t// in\n    tag_217:\n        /* \"#utility.yul\":8144:8247   */\n    tag_216:\n        /* \"#utility.yul\":8274:8275   */\n      0x01\n        /* \"#utility.yul\":8267:8272   */\n      dup3\n        /* \"#utility.yul\":8263:8276   */\n      add\n        /* \"#utility.yul\":8256:8276   */\n      swap1\n      pop\n        /* \"#utility.yul\":8049:8282   */\n      swap2\n      swap1\n      pop\n      jump\t// out\n        /* \"#utility.yul\":8288:8468   */\n    tag_192:\n        /* \"#utility.yul\":8336:8413   */\n      0x4e487b7100000000000000000000000000000000000000000000000000000000\n        /* \"#utility.yul\":8333:8334   */\n      0x00\n        /* \"#utility.yul\":8326:8414   */\n      mstore\n        /* \"#utility.yul\":8433:8437   */\n      0x11\n        /* \"#utility.yul\":8430:8431   */\n      0x04\n        /* \"#utility.yul\":8423:8438   */\n      mstore\n        /* \"#utility.yul\":8457:8461   */\n      0x24\n        /* \"#utility.yul\":8454:8455   */\n      0x00\n        /* \"#utility.yul\":8447:8462   */\n      revert\n        /* \"#utility.yul\":8474:8654   */\n    tag_209:\n        /* \"#utility.yul\":8522:8599   */\n      0x4e487b7100000000000000000000000000000000000000000000000000000000\n        /* \"#utility.yul\":8519:8520   */\n      0x00\n        /* \"#utility.yul\":8512:8600   */\n      mstore\n        /* \"#utility.yul\":8619:8623   */\n      0x22\n        /* \"#utility.yul\":8616:8617   */\n      0x04\n        /* \"#utility.yul\":8609:8624   */\n      mstore\n        /* \"#utility.yul\":8643:8647   */\n      0x24\n        /* \"#utility.yul\":8640:8641   */\n      0x00\n        /* \"#utility.yul\":8633:8648   */\n      revert\n        /* \"#utility.yul\":8660:8840   */\n    tag_65:\n        /* \"#utility.yul\":8708:8785   */\n      0x4e487b7100000000000000000000000000000000000000000000000000000000\n        /* \"#utility.yul\":8705:8706   */\n      0x00\n        /* \"#utility.yul\":8698:8786   */\n      mstore\n        /* \"#utility.yul\":8805:8809   */\n      0x32\n        /* \"#utility.yul\":8802:8803   */\n      0x04\n        /* \"#utility.yul\":8795:8810   */\n      mstore\n        /* \"#utility.yul\":8829:8833   */\n      0x24\n        /* \"#utility.yul\":8826:8827   */\n      0x00\n        /* \"#utility.yul\":8819:8834   */\n      revert\n        /* \"#utility.yul\":8846:9026   */\n    tag_183:\n        /* \"#utility.yul\":8894:8971   */\n      0x4e487b7100000000000000000000000000000000000000000000000000000000\n        /* \"#utility.yul\":8891:8892   */\n      0x00\n        /* \"#utility.yul\":8884:8972   */\n      mstore\n        /* \"#utility.yul\":8991:8995   */\n      0x41\n        /* \"#utility.yul\":8988:8989   */\n      0x04\n        /* \"#utility.yul\":8981:8996   */\n      mstore\n        /* \"#utility.yul\":9015:9019   */\n      0x24\n        /* \"#utility.yul\":9012:9013   */\n      0x00\n        /* \"#utility.yul\":9005:9020   */\n      revert\n        /* \"#utility.yul\":9032:9149   */\n    tag_112:\n        /* \"#utility.yul\":9141:9142   */\n      0x00\n        /* \"#utility.yul\":9138:9139   */\n      dup1\n        /* \"#utility.yul\":9131:9143   */\n      revert\n        /* \"#utility.yul\":9155:9272   */\n    tag_97:\n        /* \"#utility.yul\":9264:9265   */\n      0x00\n        /* \"#utility.yul\":9261:9262   */\n      dup1\n        /* \"#utility.yul\":9254:9266   */\n      revert\n        /* \"#utility.yul\":9278:9395   */\n    tag_129:\n        /* \"#utility.yul\":9387:9388   */\n      0x00\n        /* \"#utility.yul\":9384:9385   */\n      dup1\n        /* \"#utility.yul\":9377:9389   */\n      revert\n        /* \"#utility.yul\":9401:9518   */\n    tag_121:\n        /* \"#utility.yul\":9510:9511   */\n      0x00\n        /* \"#utility.yul\":9507:9508   */\n      dup1\n        /* \"#utility.yul\":9500:9512   */\n      revert\n        /* \"#utility.yul\":9524:9626   */\n    tag_158:\n        /* \"#utility.yul\":9565:9571   */\n      0x00\n        /* \"#utility.yul\":9616:9618   */\n      0x1f\n        /* \"#utility.yul\":9612:9619   */\n      not\n        /* \"#utility.yul\":9607:9609   */\n      0x1f\n        /* \"#utility.yul\":9600:9605   */\n      dup4\n        /* \"#utility.yul\":9596:9610   */\n      add\n        /* \"#utility.yul\":9592:9620   */\n      and\n        /* \"#utility.yul\":9582:9620   */\n      swap1\n      pop\n        /* \"#utility.yul\":9524:9626   */\n      swap2\n      swap1\n      pop\n      jump\t// out\n        /* \"#utility.yul\":9632:9754   */\n    tag_103:\n        /* \"#utility.yul\":9705:9729   */\n      tag_228\n        /* \"#utility.yul\":9723:9728   */\n      dup2\n        /* \"#utility.yul\":9705:9729   */\n      tag_144\n      jump\t// in\n    tag_228:\n        /* \"#utility.yul\":9698:9703   */\n      dup2\n        /* \"#utility.yul\":9695:9730   */\n      eq\n        /* \"#utility.yul\":9685:9748   */\n      tag_229\n      jumpi\n        /* \"#utility.yul\":9744:9745   */\n      0x00\n        /* \"#utility.yul\":9741:9742   */\n      dup1\n        /* \"#utility.yul\":9734:9746   */\n      revert\n        /* \"#utility.yul\":9685:9748   */\n    tag_229:\n        /* \"#utility.yul\":9632:9754   */\n      pop\n      jump\t// out\n        /* \"#utility.yul\":9760:9876   */\n    tag_107:\n        /* \"#utility.yul\":9830:9851   */\n      tag_231\n        /* \"#utility.yul\":9845:9850   */\n      dup2\n        /* \"#utility.yul\":9830:9851   */\n      tag_148\n      jump\t// in\n    tag_231:\n        /* \"#utility.yul\":9823:9828   */\n      dup2\n        /* \"#utility.yul\":9820:9852   */\n      eq\n        /* \"#utility.yul\":9810:9870   */\n      tag_232\n      jumpi\n        /* \"#utility.yul\":9866:9867   */\n      0x00\n        /* \"#utility.yul\":9863:9864   */\n      dup1\n        /* \"#utility.yul\":9856:9868   */\n      revert\n        /* \"#utility.yul\":9810:9870   */\n    tag_232:\n        /* \"#utility.yul\":9760:9876   */\n      pop\n      jump\t// out\n        /* \"#utility.yul\":9882:10004   */\n    tag_117:\n        /* \"#utility.yul\":9955:9979   */\n      tag_234\n        /* \"#utility.yul\":9973:9978   */\n      dup2\n        /* \"#utility.yul\":9955:9979   */\n      tag_162\n      jump\t// in\n    tag_234:\n        /* \"#utility.yul\":9948:9953   */\n      dup2\n        /* \"#utility.yul\":9945:9980   */\n      eq\n        /* \"#utility.yul\":9935:9998   */\n      tag_235\n      jumpi\n        /* \"#utility.yul\":9994:9995   */\n      0x00\n        /* \"#utility.yul\":9991:9992   */\n      dup1\n        /* \"#utility.yul\":9984:9996   */\n      revert\n        /* \"#utility.yul\":9935:9998   */\n    tag_235:\n        /* \"#utility.yul\":9882:10004   */\n      pop\n      jump\t// out\n\n    auxdata: 0xa2646970667358221220754079da5476d48852aeb28ad2137642ffb0aeb1c3da312d143ce34eb74b600364736f6c63430008070033\n}\n",
				"bytecode": {
					"linkReferences": {},
					"object": "608060405234801561001057600080fd5b50336000806101000a81548173ffffffffffffffffffffffffffffffffffffffff021916908373ffffffffffffffffffffffffffffffffffffffff160217905550610c08806100606000396000f3fe60806040526004361061004a5760003560e01c806331d575c51461004f5780636640c92214610078578063722713f7146100b55780637285fd3a146100e0578063f340fa0114610122575b600080fd5b34801561005b57600080fd5b50610076600480360381019061007191906106b1565b61013e565b005b34801561008457600080fd5b5061009f600480360381019061009a9190610684565b61026d565b6040516100ac9190610878565b60405180910390f35b3480156100c157600080fd5b506100ca610281565b6040516100d79190610893565b60405180910390f35b3480156100ec57600080fd5b5061010760048036038101906101029190610776565b610289565b60405161011996959493929190610809565b60405180910390f35b61013c60048036038101906101379190610684565b610412565b005b60016040518060c001604052808873ffffffffffffffffffffffffffffffffffffffff168152602001878152602001868152602001858152602001848152602001831515815250908060018154018082558091505060019003906000526020600020906006020160009091909190915060008201518160000160006101000a81548173ffffffffffffffffffffffffffffffffffffffff021916908373ffffffffffffffffffffffffffffffffffffffff1602179055506020820151816001019080519060200190610211929190610532565b50604082015181600201908051906020019061022e929190610532565b50606082015181600301556080820151816004015560a08201518160050160006101000a81548160ff0219169083151502179055505050505050505050565b6000806102798361041e565b905050919050565b600047905090565b6001818154811061029957600080fd5b90600052602060002090600602016000915090508060000160009054906101000a900473ffffffffffffffffffffffffffffffffffffffff16908060010180546102e290610a00565b80601f016020809104026020016040519081016040528092919081815260200182805461030e90610a00565b801561035b5780601f106103305761010080835404028352916020019161035b565b820191906000526020600020905b81548152906001019060200180831161033e57829003601f168201915b50505050509080600201805461037090610a00565b80601f016020809104026020016040519081016040528092919081815260200182805461039c90610a00565b80156103e95780601f106103be576101008083540402835291602001916103e9565b820191906000526020600020905b8154815290600101906020018083116103cc57829003601f168201915b5050505050908060030154908060040154908060050160009054906101000a900460ff16905086565b61041b816104d7565b50565b600080600090505b6001805490508110156104c8578273ffffffffffffffffffffffffffffffffffffffff166001828154811061045e5761045d610b0a565b5b906000526020600020906006020160000160009054906101000a900473ffffffffffffffffffffffffffffffffffffffff1673ffffffffffffffffffffffffffffffffffffffff1614156104b557809150506104d2565b80806104c090610a63565b915050610426565b5060018054905090505b919050565b60006104e28261041e565b905060018054905081101561052e57346001828154811061050657610505610b0a565b5b906000526020600020906006020160040160008282546105269190610920565b925050819055505b5050565b82805461053e90610a00565b90600052602060002090601f01602090048101928261056057600085556105a7565b82601f1061057957805160ff19168380011785556105a7565b828001600101855582156105a7579182015b828111156105a657825182559160200191906001019061058b565b5b5090506105b491906105b8565b5090565b5b808211156105d15760008160009055506001016105b9565b5090565b60006105e86105e3846108d3565b6108ae565b90508281526020810184848401111561060457610603610b6d565b5b61060f8482856109be565b509392505050565b60008135905061062681610b8d565b92915050565b60008135905061063b81610ba4565b92915050565b600082601f83011261065657610655610b68565b5b81356106668482602086016105d5565b91505092915050565b60008135905061067e81610bbb565b92915050565b60006020828403121561069a57610699610b77565b5b60006106a884828501610617565b91505092915050565b60008060008060008060c087890312156106ce576106cd610b77565b5b60006106dc89828a01610617565b965050602087013567ffffffffffffffff8111156106fd576106fc610b72565b5b61070989828a01610641565b955050604087013567ffffffffffffffff81111561072a57610729610b72565b5b61073689828a01610641565b945050606061074789828a0161066f565b935050608061075889828a0161066f565b92505060a061076989828a0161062c565b9150509295509295509295565b60006020828403121561078c5761078b610b77565b5b600061079a8482850161066f565b91505092915050565b6107ac81610976565b82525050565b6107bb81610988565b82525050565b60006107cc82610904565b6107d6818561090f565b93506107e68185602086016109cd565b6107ef81610b7c565b840191505092915050565b610803816109b4565b82525050565b600060c08201905061081e60008301896107a3565b818103602083015261083081886107c1565b9050818103604083015261084481876107c1565b905061085360608301866107fa565b61086060808301856107fa565b61086d60a08301846107b2565b979650505050505050565b600060208201905061088d60008301846107b2565b92915050565b60006020820190506108a860008301846107fa565b92915050565b60006108b86108c9565b90506108c48282610a32565b919050565b6000604051905090565b600067ffffffffffffffff8211156108ee576108ed610b39565b5b6108f782610b7c565b9050602081019050919050565b600081519050919050565b600082825260208201905092915050565b600061092b826109b4565b9150610936836109b4565b9250827fffffffffffffffffffffffffffffffffffffffffffffffffffffffffffffffff0382111561096b5761096a610aac565b5b828201905092915050565b600061098182610994565b9050919050565b60008115159050919050565b600073ffffffffffffffffffffffffffffffffffffffff82169050919050565b6000819050919050565b82818337600083830152505050565b60005b838110156109eb5780820151818401526020810190506109d0565b838111156109fa576000848401525b50505050565b60006002820490506001821680610a1857607f821691505b60208210811415610a2c57610a2b610adb565b5b50919050565b610a3b82610b7c565b810181811067ffffffffffffffff82111715610a5a57610a59610b39565b5b80604052505050565b6000610a6e826109b4565b91507fffffffffffffffffffffffffffffffffffffffffffffffffffffffffffffffff821415610aa157610aa0610aac565b5b600182019050919050565b7f4e487b7100000000000000000000000000000000000000000000000000000000600052601160045260246000fd5b7f4e487b7100000000000000000000000000000000000000000000000000000000600052602260045260246000fd5b7f4e487b7100000000000000000000000000000000000000000000000000000000600052603260045260246000fd5b7f4e487b7100000000000000000000000000000000000000000000000000000000600052604160045260246000fd5b600080fd5b600080fd5b600080fd5b600080fd5b6000601f19601f8301169050919050565b610b9681610976565b8114610ba157600080fd5b50565b610bad81610988565b8114610bb857600080fd5b50565b610bc4816109b4565b8114610bcf57600080fd5b5056fea2646970667358221220754079da5476d48852aeb28ad2137642ffb0aeb1c3da312d143ce34eb74b600364736f6c63430008070033",
					"opcodes": "PUSH1 0x80 PUSH1 0x40 MSTORE CALLVALUE DUP1 ISZERO PUSH2 0x10 JUMPI PUSH1 0x0 DUP1 REVERT JUMPDEST POP CALLER PUSH1 0x0 DUP1 PUSH2 0x100 EXP DUP2 SLOAD DUP2 PUSH20 0xFFFFFFFFFFFFFFFFFFFFFFFFFFFFFFFFFFFFFFFF MUL NOT AND SWAP1 DUP4 PUSH20 0xFFFFFFFFFFFFFFFFFFFFFFFFFFFFFFFFFFFFFFFF AND MUL OR SWAP1 SSTORE POP PUSH2 0xC08 DUP1 PUSH2 0x60 PUSH1 0x0 CODECOPY PUSH1 0x0 RETURN INVALID PUSH1 0x80 PUSH1 0x40 MSTORE PUSH1 0x4 CALLDATASIZE LT PUSH2 0x4A JUMPI PUSH1 0x0 CALLDATALOAD PUSH1 0xE0 SHR DUP1 PUSH4 0x31D575C5 EQ PUSH2 0x4F JUMPI DUP1 PUSH4 0x6640C922 EQ PUSH2 0x78 JUMPI DUP1 PUSH4 0x722713F7 EQ PUSH2 0xB5 JUMPI DUP1 PUSH4 0x7285FD3A EQ PUSH2 0xE0 JUMPI DUP1 PUSH4 0xF340FA01 EQ PUSH2 0x122 JUMPI JUMPDEST PUSH1 0x0 DUP1 REVERT JUMPDEST CALLVALUE DUP1 ISZERO PUSH2 0x5B JUMPI PUSH1 0x0 DUP1 REVERT JUMPDEST POP PUSH2 0x76 PUSH1 0x4 DUP1 CALLDATASIZE SUB DUP2 ADD SWAP1 PUSH2 0x71 SWAP2 SWAP1 PUSH2 0x6B1 JUMP JUMPDEST PUSH2 0x13E JUMP JUMPDEST STOP JUMPDEST CALLVALUE DUP1 ISZERO PUSH2 0x84 JUMPI PUSH1 0x0 DUP1 REVERT JUMPDEST POP PUSH2 0x9F PUSH1 0x4 DUP1 CALLDATASIZE SUB DUP2 ADD SWAP1 PUSH2 0x9A SWAP2 SWAP1 PUSH2 0x684 JUMP JUMPDEST PUSH2 0x26D JUMP JUMPDEST PUSH1 0x40 MLOAD PUSH2 0xAC SWAP2 SWAP1 PUSH2 0x878 JUMP JUMPDEST PUSH1 0x40 MLOAD DUP1 SWAP2 SUB SWAP1 RETURN JUMPDEST CALLVALUE DUP1 ISZERO PUSH2 0xC1 JUMPI PUSH1 0x0 DUP1 REVERT JUMPDEST POP PUSH2 0xCA PUSH2 0x281 JUMP JUMPDEST PUSH1 0x40 MLOAD PUSH2 0xD7 SWAP2 SWAP1 PUSH2 0x893 JUMP JUMPDEST PUSH1 0x40 MLOAD DUP1 SWAP2 SUB SWAP1 RETURN JUMPDEST CALLVALUE DUP1 ISZERO PUSH2 0xEC JUMPI PUSH1 0x0 DUP1 REVERT JUMPDEST POP PUSH2 0x107 PUSH1 0x4 DUP1 CALLDATASIZE SUB DUP2 ADD SWAP1 PUSH2 0x102 SWAP2 SWAP1 PUSH2 0x776 JUMP JUMPDEST PUSH2 0x289 JUMP JUMPDEST PUSH1 0x40 MLOAD PUSH2 0x119 SWAP7 SWAP6 SWAP5 SWAP4 SWAP3 SWAP2 SWAP1 PUSH2 0x809 JUMP JUMPDEST PUSH1 0x40 MLOAD DUP1 SWAP2 SUB SWAP1 RETURN JUMPDEST PUSH2 0x13C PUSH1 0x4 DUP1 CALLDATASIZE SUB DUP2 ADD SWAP1 PUSH2 0x137 SWAP2 SWAP1 PUSH2 0x684 JUMP JUMPDEST PUSH2 0x412 JUMP JUMPDEST STOP JUMPDEST PUSH1 0x1 PUSH1 0x40 MLOAD DUP1 PUSH1 0xC0 ADD PUSH1 0x40 MSTORE DUP1 DUP9 PUSH20 0xFFFFFFFFFFFFFFFFFFFFFFFFFFFFFFFFFFFFFFFF AND DUP2 MSTORE PUSH1 0x20 ADD DUP8 DUP2 MSTORE PUSH1 0x20 ADD DUP7 DUP2 MSTORE PUSH1 0x20 ADD DUP6 DUP2 MSTORE PUSH1 0x20 ADD DUP5 DUP2 MSTORE PUSH1 0x20 ADD DUP4 ISZERO ISZERO DUP2 MSTORE POP SWAP1 DUP1 PUSH1 0x1 DUP2 SLOAD ADD DUP1 DUP3 SSTORE DUP1 SWAP2 POP POP PUSH1 0x1 SWAP1 SUB SWAP1 PUSH1 0x0 MSTORE PUSH1 0x20 PUSH1 0x0 KECCAK256 SWAP1 PUSH1 0x6 MUL ADD PUSH1 0x0 SWAP1 SWAP2 SWAP1 SWAP2 SWAP1 SWAP2 POP PUSH1 0x0 DUP3 ADD MLOAD DUP2 PUSH1 0x0 ADD PUSH1 0x0 PUSH2 0x100 EXP DUP2 SLOAD DUP2 PUSH20 0xFFFFFFFFFFFFFFFFFFFFFFFFFFFFFFFFFFFFFFFF MUL NOT AND SWAP1 DUP4 PUSH20 0xFFFFFFFFFFFFFFFFFFFFFFFFFFFFFFFFFFFFFFFF AND MUL OR SWAP1 SSTORE POP PUSH1 0x20 DUP3 ADD MLOAD DUP2 PUSH1 0x1 ADD SWAP1 DUP1 MLOAD SWAP1 PUSH1 0x20 ADD SWAP1 PUSH2 0x211 SWAP3 SWAP2 SWAP1 PUSH2 0x532 JUMP JUMPDEST POP PUSH1 0x40 DUP3 ADD MLOAD DUP2 PUSH1 0x2 ADD SWAP1 DUP1 MLOAD SWAP1 PUSH1 0x20 ADD SWAP1 PUSH2 0x22E SWAP3 SWAP2 SWAP1 PUSH2 0x532 JUMP JUMPDEST POP PUSH1 0x60 DUP3 ADD MLOAD DUP2 PUSH1 0x3 ADD SSTORE PUSH1 0x80 DUP3 ADD MLOAD DUP2 PUSH1 0x4 ADD SSTORE PUSH1 0xA0 DUP3 ADD MLOAD DUP2 PUSH1 0x5 ADD PUSH1 0x0 PUSH2 0x100 EXP DUP2 SLOAD DUP2 PUSH1 0xFF MUL NOT AND SWAP1 DUP4 ISZERO ISZERO MUL OR SWAP1 SSTORE POP POP POP POP POP POP POP POP POP JUMP JUMPDEST PUSH1 0x0 DUP1 PUSH2 0x279 DUP4 PUSH2 0x41E JUMP JUMPDEST SWAP1 POP POP SWAP2 SWAP1 POP JUMP JUMPDEST PUSH1 0x0 SELFBALANCE SWAP1 POP SWAP1 JUMP JUMPDEST PUSH1 0x1 DUP2 DUP2 SLOAD DUP2 LT PUSH2 0x299 JUMPI PUSH1 0x0 DUP1 REVERT JUMPDEST SWAP1 PUSH1 0x0 MSTORE PUSH1 0x20 PUSH1 0x0 KECCAK256 SWAP1 PUSH1 0x6 MUL ADD PUSH1 0x0 SWAP2 POP SWAP1 POP DUP1 PUSH1 0x0 ADD PUSH1 0x0 SWAP1 SLOAD SWAP1 PUSH2 0x100 EXP SWAP1 DIV PUSH20 0xFFFFFFFFFFFFFFFFFFFFFFFFFFFFFFFFFFFFFFFF AND SWAP1 DUP1 PUSH1 0x1 ADD DUP1 SLOAD PUSH2 0x2E2 SWAP1 PUSH2 0xA00 JUMP JUMPDEST DUP1 PUSH1 0x1F ADD PUSH1 0x20 DUP1 SWAP2 DIV MUL PUSH1 0x20 ADD PUSH1 0x40 MLOAD SWAP1 DUP2 ADD PUSH1 0x40 MSTORE DUP1 SWAP3 SWAP2 SWAP1 DUP2 DUP2 MSTORE PUSH1 0x20 ADD DUP3 DUP1 SLOAD PUSH2 0x30E SWAP1 PUSH2 0xA00 JUMP JUMPDEST DUP1 ISZERO PUSH2 0x35B JUMPI DUP1 PUSH1 0x1F LT PUSH2 0x330 JUMPI PUSH2 0x100 DUP1 DUP4 SLOAD DIV MUL DUP4 MSTORE SWAP2 PUSH1 0x20 ADD SWAP2 PUSH2 0x35B JUMP JUMPDEST DUP3 ADD SWAP2 SWAP1 PUSH1 0x0 MSTORE PUSH1 0x20 PUSH1 0x0 KECCAK256 SWAP1 JUMPDEST DUP2 SLOAD DUP2 MSTORE SWAP1 PUSH1 0x1 ADD SWAP1 PUSH1 0x20 ADD DUP1 DUP4 GT PUSH2 0x33E JUMPI DUP3 SWAP1 SUB PUSH1 0x1F AND DUP3 ADD SWAP2 JUMPDEST POP POP POP POP POP SWAP1 DUP1 PUSH1 0x2 ADD DUP1 SLOAD PUSH2 0x370 SWAP1 PUSH2 0xA00 JUMP JUMPDEST DUP1 PUSH1 0x1F ADD PUSH1 0x20 DUP1 SWAP2 DIV MUL PUSH1 0x20 ADD PUSH1 0x40 MLOAD SWAP1 DUP2 ADD PUSH1 0x40 MSTORE DUP1 SWAP3 SWAP2 SWAP1 DUP2 DUP2 MSTORE PUSH1 0x20 ADD DUP3 DUP1 SLOAD PUSH2 0x39C SWAP1 PUSH2 0xA00 JUMP JUMPDEST DUP1 ISZERO PUSH2 0x3E9 JUMPI DUP1 PUSH1 0x1F LT PUSH2 0x3BE JUMPI PUSH2 0x100 DUP1 DUP4 SLOAD DIV MUL DUP4 MSTORE SWAP2 PUSH1 0x20 ADD SWAP2 PUSH2 0x3E9 JUMP JUMPDEST DUP3 ADD SWAP2 SWAP1 PUSH1 0x0 MSTORE PUSH1 0x20 PUSH1 0x0 KECCAK256 SWAP1 JUMPDEST DUP2 SLOAD DUP2 MSTORE SWAP1 PUSH1 0x1 ADD SWAP1 PUSH1 0x20 ADD DUP1 DUP4 GT PUSH2 0x3CC JUMPI DUP3 SWAP1 SUB PUSH1 0x1F AND DUP3 ADD SWAP2 JUMPDEST POP POP POP POP POP SWAP1 DUP1 PUSH1 0x3 ADD SLOAD SWAP1 DUP1 PUSH1 0x4 ADD SLOAD SWAP1 DUP1 PUSH1 0x5 ADD PUSH1 0x0 SWAP1 SLOAD SWAP1 PUSH2 0x100 EXP SWAP1 DIV PUSH1 0xFF AND SWAP1 POP DUP7 JUMP JUMPDEST PUSH2 0x41B DUP2 PUSH2 0x4D7 JUMP JUMPDEST POP JUMP JUMPDEST PUSH1 0x0 DUP1 PUSH1 0x0 SWAP1 POP JUMPDEST PUSH1 0x1 DUP1 SLOAD SWAP1 POP DUP2 LT ISZERO PUSH2 0x4C8 JUMPI DUP3 PUSH20 0xFFFFFFFFFFFFFFFFFFFFFFFFFFFFFFFFFFFFFFFF AND PUSH1 0x1 DUP3 DUP2 SLOAD DUP2 LT PUSH2 0x45E JUMPI PUSH2 0x45D PUSH2 0xB0A JUMP JUMPDEST JUMPDEST SWAP1 PUSH1 0x0 MSTORE PUSH1 0x20 PUSH1 0x0 KECCAK256 SWAP1 PUSH1 0x6 MUL ADD PUSH1 0x0 ADD PUSH1 0x0 SWAP1 SLOAD SWAP1 PUSH2 0x100 EXP SWAP1 DIV PUSH20 0xFFFFFFFFFFFFFFFFFFFFFFFFFFFFFFFFFFFFFFFF AND PUSH20 0xFFFFFFFFFFFFFFFFFFFFFFFFFFFFFFFFFFFFFFFF AND EQ ISZERO PUSH2 0x4B5 JUMPI DUP1 SWAP2 POP POP PUSH2 0x4D2 JUMP JUMPDEST DUP1 DUP1 PUSH2 0x4C0 SWAP1 PUSH2 0xA63 JUMP JUMPDEST SWAP2 POP POP PUSH2 0x426 JUMP JUMPDEST POP PUSH1 0x1 DUP1 SLOAD SWAP1 POP SWAP1 POP JUMPDEST SWAP2 SWAP1 POP JUMP JUMPDEST PUSH1 0x0 PUSH2 0x4E2 DUP3 PUSH2 0x41E JUMP JUMPDEST SWAP1 POP PUSH1 0x1 DUP1 SLOAD SWAP1 POP DUP2 LT ISZERO PUSH2 0x52E JUMPI CALLVALUE PUSH1 0x1 DUP3 DUP2 SLOAD DUP2 LT PUSH2 0x506 JUMPI PUSH2 0x505 PUSH2 0xB0A JUMP JUMPDEST JUMPDEST SWAP1 PUSH1 0x0 MSTORE PUSH1 0x20 PUSH1 0x0 KECCAK256 SWAP1 PUSH1 0x6 MUL ADD PUSH1 0x4 ADD PUSH1 0x0 DUP3 DUP3 SLOAD PUSH2 0x526 SWAP2 SWAP1 PUSH2 0x920 JUMP JUMPDEST SWAP3 POP POP DUP2 SWAP1 SSTORE POP JUMPDEST POP POP JUMP JUMPDEST DUP3 DUP1 SLOAD PUSH2 0x53E SWAP1 PUSH2 0xA00 JUMP JUMPDEST SWAP1 PUSH1 0x0 MSTORE PUSH1 0x20 PUSH1 0x0 KECCAK256 SWAP1 PUSH1 0x1F ADD PUSH1 0x20 SWAP1 DIV DUP2 ADD SWAP3 DUP3 PUSH2 0x560 JUMPI PUSH1 0x0 DUP6 SSTORE PUSH2 0x5A7 JUMP JUMPDEST DUP3 PUSH1 0x1F LT PUSH2 0x579 JUMPI DUP1 MLOAD PUSH1 0xFF NOT AND DUP4 DUP1 ADD OR DUP6 SSTORE PUSH2 0x5A7 JUMP JUMPDEST DUP3 DUP1 ADD PUSH1 0x1 ADD DUP6 SSTORE DUP3 ISZERO PUSH2 0x5A7 JUMPI SWAP2 DUP3 ADD JUMPDEST DUP3 DUP2 GT ISZERO PUSH2 0x5A6 JUMPI DUP3 MLOAD DUP3 SSTORE SWAP2 PUSH1 0x20 ADD SWAP2 SWAP1 PUSH1 0x1 ADD SWAP1 PUSH2 0x58B JUMP JUMPDEST JUMPDEST POP SWAP1 POP PUSH2 0x5B4 SWAP2 SWAP1 PUSH2 0x5B8 JUMP JUMPDEST POP SWAP1 JUMP JUMPDEST JUMPDEST DUP1 DUP3 GT ISZERO PUSH2 0x5D1 JUMPI PUSH1 0x0 DUP2 PUSH1 0x0 SWAP1 SSTORE POP PUSH1 0x1 ADD PUSH2 0x5B9 JUMP JUMPDEST POP SWAP1 JUMP JUMPDEST PUSH1 0x0 PUSH2 0x5E8 PUSH2 0x5E3 DUP5 PUSH2 0x8D3 JUMP JUMPDEST PUSH2 0x8AE JUMP JUMPDEST SWAP1 POP DUP3 DUP2 MSTORE PUSH1 0x20 DUP2 ADD DUP5 DUP5 DUP5 ADD GT ISZERO PUSH2 0x604 JUMPI PUSH2 0x603 PUSH2 0xB6D JUMP JUMPDEST JUMPDEST PUSH2 0x60F DUP5 DUP3 DUP6 PUSH2 0x9BE JUMP JUMPDEST POP SWAP4 SWAP3 POP POP POP JUMP JUMPDEST PUSH1 0x0 DUP2 CALLDATALOAD SWAP1 POP PUSH2 0x626 DUP2 PUSH2 0xB8D JUMP JUMPDEST SWAP3 SWAP2 POP POP JUMP JUMPDEST PUSH1 0x0 DUP2 CALLDATALOAD SWAP1 POP PUSH2 0x63B DUP2 PUSH2 0xBA4 JUMP JUMPDEST SWAP3 SWAP2 POP POP JUMP JUMPDEST PUSH1 0x0 DUP3 PUSH1 0x1F DUP4 ADD SLT PUSH2 0x656 JUMPI PUSH2 0x655 PUSH2 0xB68 JUMP JUMPDEST JUMPDEST DUP2 CALLDATALOAD PUSH2 0x666 DUP5 DUP3 PUSH1 0x20 DUP7 ADD PUSH2 0x5D5 JUMP JUMPDEST SWAP2 POP POP SWAP3 SWAP2 POP POP JUMP JUMPDEST PUSH1 0x0 DUP2 CALLDATALOAD SWAP1 POP PUSH2 0x67E DUP2 PUSH2 0xBBB JUMP JUMPDEST SWAP3 SWAP2 POP POP JUMP JUMPDEST PUSH1 0x0 PUSH1 0x20 DUP3 DUP5 SUB SLT ISZERO PUSH2 0x69A JUMPI PUSH2 0x699 PUSH2 0xB77 JUMP JUMPDEST JUMPDEST PUSH1 0x0 PUSH2 0x6A8 DUP5 DUP3 DUP6 ADD PUSH2 0x617 JUMP JUMPDEST SWAP2 POP POP SWAP3 SWAP2 POP POP JUMP JUMPDEST PUSH1 0x0 DUP1 PUSH1 0x0 DUP1 PUSH1 0x0 DUP1 PUSH1 0xC0 DUP8 DUP10 SUB SLT ISZERO PUSH2 0x6CE JUMPI PUSH2 0x6CD PUSH2 0xB77 JUMP JUMPDEST JUMPDEST PUSH1 0x0 PUSH2 0x6DC DUP10 DUP3 DUP11 ADD PUSH2 0x617 JUMP JUMPDEST SWAP7 POP POP PUSH1 0x20 DUP8 ADD CALLDATALOAD PUSH8 0xFFFFFFFFFFFFFFFF DUP2 GT ISZERO PUSH2 0x6FD JUMPI PUSH2 0x6FC PUSH2 0xB72 JUMP JUMPDEST JUMPDEST PUSH2 0x709 DUP10 DUP3 DUP11 ADD PUSH2 0x641 JUMP JUMPDEST SWAP6 POP POP PUSH1 0x40 DUP8 ADD CALLDATALOAD PUSH8 0xFFFFFFFFFFFFFFFF DUP2 GT ISZERO PUSH2 0x72A JUMPI PUSH2 0x729 PUSH2 0xB72 JUMP JUMPDEST JUMPDEST PUSH2 0x736 DUP10 DUP3 DUP11 ADD PUSH2 0x641 JUMP JUMPDEST SWAP5 POP POP PUSH1 0x60 PUSH2 0x747 DUP10 DUP3 DUP11 ADD PUSH2 0x66F JUMP JUMPDEST SWAP4 POP POP PUSH1 0x80 PUSH2 0x758 DUP10 DUP3 DUP11 ADD PUSH2 0x66F JUMP JUMPDEST SWAP3 POP POP PUSH1 0xA0 PUSH2 0x769 DUP10 DUP3 DUP11 ADD PUSH2 0x62C JUMP JUMPDEST SWAP2 POP POP SWAP3 SWAP6 POP SWAP3 SWAP6 POP SWAP3 SWAP6 JUMP JUMPDEST PUSH1 0x0 PUSH1 0x20 DUP3 DUP5 SUB SLT ISZERO PUSH2 0x78C JUMPI PUSH2 0x78B PUSH2 0xB77 JUMP JUMPDEST JUMPDEST PUSH1 0x0 PUSH2 0x79A DUP5 DUP3 DUP6 ADD PUSH2 0x66F JUMP JUMPDEST SWAP2 POP POP SWAP3 SWAP2 POP POP JUMP JUMPDEST PUSH2 0x7AC DUP2 PUSH2 0x976 JUMP JUMPDEST DUP3 MSTORE POP POP JUMP JUMPDEST PUSH2 0x7BB DUP2 PUSH2 0x988 JUMP JUMPDEST DUP3 MSTORE POP POP JUMP JUMPDEST PUSH1 0x0 PUSH2 0x7CC DUP3 PUSH2 0x904 JUMP JUMPDEST PUSH2 0x7D6 DUP2 DUP6 PUSH2 0x90F JUMP JUMPDEST SWAP4 POP PUSH2 0x7E6 DUP2 DUP6 PUSH1 0x20 DUP7 ADD PUSH2 0x9CD JUMP JUMPDEST PUSH2 0x7EF DUP2 PUSH2 0xB7C JUMP JUMPDEST DUP5 ADD SWAP2 POP POP SWAP3 SWAP2 POP POP JUMP JUMPDEST PUSH2 0x803 DUP2 PUSH2 0x9B4 JUMP JUMPDEST DUP3 MSTORE POP POP JUMP JUMPDEST PUSH1 0x0 PUSH1 0xC0 DUP3 ADD SWAP1 POP PUSH2 0x81E PUSH1 0x0 DUP4 ADD DUP10 PUSH2 0x7A3 JUMP JUMPDEST DUP2 DUP2 SUB PUSH1 0x20 DUP4 ADD MSTORE PUSH2 0x830 DUP2 DUP9 PUSH2 0x7C1 JUMP JUMPDEST SWAP1 POP DUP2 DUP2 SUB PUSH1 0x40 DUP4 ADD MSTORE PUSH2 0x844 DUP2 DUP8 PUSH2 0x7C1 JUMP JUMPDEST SWAP1 POP PUSH2 0x853 PUSH1 0x60 DUP4 ADD DUP7 PUSH2 0x7FA JUMP JUMPDEST PUSH2 0x860 PUSH1 0x80 DUP4 ADD DUP6 PUSH2 0x7FA JUMP JUMPDEST PUSH2 0x86D PUSH1 0xA0 DUP4 ADD DUP5 PUSH2 0x7B2 JUMP JUMPDEST SWAP8 SWAP7 POP POP POP POP POP POP POP JUMP JUMPDEST PUSH1 0x0 PUSH1 0x20 DUP3 ADD SWAP1 POP PUSH2 0x88D PUSH1 0x0 DUP4 ADD DUP5 PUSH2 0x7B2 JUMP JUMPDEST SWAP3 SWAP2 POP POP JUMP JUMPDEST PUSH1 0x0 PUSH1 0x20 DUP3 ADD SWAP1 POP PUSH2 0x8A8 PUSH1 0x0 DUP4 ADD DUP5 PUSH2 0x7FA JUMP JUMPDEST SWAP3 SWAP2 POP POP JUMP JUMPDEST PUSH1 0x0 PUSH2 0x8B8 PUSH2 0x8C9 JUMP JUMPDEST SWAP1 POP PUSH2 0x8C4 DUP3 DUP3 PUSH2 0xA32 JUMP JUMPDEST SWAP2 SWAP1 POP JUMP JUMPDEST PUSH1 0x0 PUSH1 0x40 MLOAD SWAP1 POP SWAP1 JUMP JUMPDEST PUSH1 0x0 PUSH8 0xFFFFFFFFFFFFFFFF DUP3 GT ISZERO PUSH2 0x8EE JUMPI PUSH2 0x8ED PUSH2 0xB39 JUMP JUMPDEST JUMPDEST PUSH2 0x8F7 DUP3 PUSH2 0xB7C JUMP JUMPDEST SWAP1 POP PUSH1 0x20 DUP2 ADD SWAP1 POP SWAP2 SWAP1 POP JUMP JUMPDEST PUSH1 0x0 DUP2 MLOAD SWAP1 POP SWAP2 SWAP1 POP JUMP JUMPDEST PUSH1 0x0 DUP3 DUP3 MSTORE PUSH1 0x20 DUP3 ADD SWAP1 POP SWAP3 SWAP2 POP POP JUMP JUMPDEST PUSH1 0x0 PUSH2 0x92B DUP3 PUSH2 0x9B4 JUMP JUMPDEST SWAP2 POP PUSH2 0x936 DUP4 PUSH2 0x9B4 JUMP JUMPDEST SWAP3 POP DUP3 PUSH32 0xFFFFFFFFFFFFFFFFFFFFFFFFFFFFFFFFFFFFFFFFFFFFFFFFFFFFFFFFFFFFFFFF SUB DUP3 GT ISZERO PUSH2 0x96B JUMPI PUSH2 0x96A PUSH2 0xAAC JUMP JUMPDEST JUMPDEST DUP3 DUP3 ADD SWAP1 POP SWAP3 SWAP2 POP POP JUMP JUMPDEST PUSH1 0x0 PUSH2 0x981 DUP3 PUSH2 0x994 JUMP JUMPDEST SWAP1 POP SWAP2 SWAP1 POP JUMP JUMPDEST PUSH1 0x0 DUP2 ISZERO ISZERO SWAP1 POP SWAP2 SWAP1 POP JUMP JUMPDEST PUSH1 0x0 PUSH20 0xFFFFFFFFFFFFFFFFFFFFFFFFFFFFFFFFFFFFFFFF DUP3 AND SWAP1 POP SWAP2 SWAP1 POP JUMP JUMPDEST PUSH1 0x0 DUP2 SWAP1 POP SWAP2 SWAP1 POP JUMP JUMPDEST DUP3 DUP2 DUP4 CALLDATACOPY PUSH1 0x0 DUP4 DUP4 ADD MSTORE POP POP POP JUMP JUMPDEST PUSH1 0x0 JUMPDEST DUP4 DUP2 LT ISZERO PUSH2 0x9EB JUMPI DUP1 DUP3 ADD MLOAD DUP2 DUP5 ADD MSTORE PUSH1 0x20 DUP2 ADD SWAP1 POP PUSH2 0x9D0 JUMP JUMPDEST DUP4 DUP2 GT ISZERO PUSH2 0x9FA JUMPI PUSH1 0x0 DUP5 DUP5 ADD MSTORE JUMPDEST POP POP POP POP JUMP JUMPDEST PUSH1 0x0 PUSH1 0x2 DUP3 DIV SWAP1 POP PUSH1 0x1 DUP3 AND DUP1 PUSH2 0xA18 JUMPI PUSH1 0x7F DUP3 AND SWAP2 POP JUMPDEST PUSH1 0x20 DUP3 LT DUP2 EQ ISZERO PUSH2 0xA2C JUMPI PUSH2 0xA2B PUSH2 0xADB JUMP JUMPDEST JUMPDEST POP SWAP2 SWAP1 POP JUMP JUMPDEST PUSH2 0xA3B DUP3 PUSH2 0xB7C JUMP JUMPDEST DUP2 ADD DUP2 DUP2 LT PUSH8 0xFFFFFFFFFFFFFFFF DUP3 GT OR ISZERO PUSH2 0xA5A JUMPI PUSH2 0xA59 PUSH2 0xB39 JUMP JUMPDEST JUMPDEST DUP1 PUSH1 0x40 MSTORE POP POP POP JUMP JUMPDEST PUSH1 0x0 PUSH2 0xA6E DUP3 PUSH2 0x9B4 JUMP JUMPDEST SWAP2 POP PUSH32 0xFFFFFFFFFFFFFFFFFFFFFFFFFFFFFFFFFFFFFFFFFFFFFFFFFFFFFFFFFFFFFFFF DUP3 EQ ISZERO PUSH2 0xAA1 JUMPI PUSH2 0xAA0 PUSH2 0xAAC JUMP JUMPDEST JUMPDEST PUSH1 0x1 DUP3 ADD SWAP1 POP SWAP2 SWAP1 POP JUMP JUMPDEST PUSH32 0x4E487B7100000000000000000000000000000000000000000000000000000000 PUSH1 0x0 MSTORE PUSH1 0x11 PUSH1 0x4 MSTORE PUSH1 0x24 PUSH1 0x0 REVERT JUMPDEST PUSH32 0x4E487B7100000000000000000000000000000000000000000000000000000000 PUSH1 0x0 MSTORE PUSH1 0x22 PUSH1 0x4 MSTORE PUSH1 0x24 PUSH1 0x0 REVERT JUMPDEST PUSH32 0x4E487B7100000000000000000000000000000000000000000000000000000000 PUSH1 0x0 MSTORE PUSH1 0x32 PUSH1 0x4 MSTORE PUSH1 0x24 PUSH1 0x0 REVERT JUMPDEST PUSH32 0x4E487B7100000000000000000000000000000000000000000000000000000000 PUSH1 0x0 MSTORE PUSH1 0x41 PUSH1 0x4 MSTORE PUSH1 0x24 PUSH1 0x0 REVERT JUMPDEST PUSH1 0x0 DUP1 REVERT JUMPDEST PUSH1 0x0 DUP1 REVERT JUMPDEST PUSH1 0x0 DUP1 REVERT JUMPDEST PUSH1 0x0 DUP1 REVERT JUMPDEST PUSH1 0x0 PUSH1 0x1F NOT PUSH1 0x1F DUP4 ADD AND SWAP1 POP SWAP2 SWAP1 POP JUMP JUMPDEST PUSH2 0xB96 DUP2 PUSH2 0x976 JUMP JUMPDEST DUP2 EQ PUSH2 0xBA1 JUMPI PUSH1 0x0 DUP1 REVERT JUMPDEST POP JUMP JUMPDEST PUSH2 0xBAD DUP2 PUSH2 0x988 JUMP JUMPDEST DUP2 EQ PUSH2 0xBB8 JUMPI PUSH1 0x0 DUP1 REVERT JUMPDEST POP JUMP JUMPDEST PUSH2 0xBC4 DUP2 PUSH2 0x9B4 JUMP JUMPDEST DUP2 EQ PUSH2 0xBCF JUMPI PUSH1 0x0 DUP1 REVERT JUMPDEST POP JUMP INVALID LOG2 PUSH5 0x6970667358 0x22 SLT KECCAK256 PUSH22 0x4079DA5476D48852AEB28AD2137642FFB0AEB1C3DA31 0x2D EQ EXTCODECOPY 0xE3 0x4E 0xB7 0x4B PUSH1 0x3 PUSH5 0x736F6C6343 STOP ADDMOD SMOD STOP CALLER "
				},
				"gasEstimates": {
					"creation": {
						"codeDepositCost": "616000",
						"executionCost": "24917",
						"totalCost": "640917"
					},
					"external": {
						"addKid(address,string,string,uint256,uint256,bool)": "infinite",
						"avaiableToWithdraw(address)": "infinite",
						"balanceOf()": "361",
						"deposit(address)": "infinite",
						"kids(uint256)": "infinite"
					},
					"internal": {
						"addToKidsBalance(address)": "infinite",
						"getKidIndex(address)": "infinite"
					}
				},
				"methodIdentifiers": {
					"addKid(address,string,string,uint256,uint256,bool)": "31d575c5",
					"avaiableToWithdraw(address)": "6640c922",
					"balanceOf()": "722713f7",
					"deposit(address)": "f340fa01",
					"kids(uint256)": "7285fd3a"
				}
			},
			"storageLayout": {
				"storage": [
					{
						"astId": 3,
						"contract": "contracts/CryptoKids.sol:CryptoKids",
						"label": "owner",
						"offset": 0,
						"slot": "0",
						"type": "t_address"
					},
					{
						"astId": 29,
						"contract": "contracts/CryptoKids.sol:CryptoKids",
						"label": "kids",
						"offset": 0,
						"slot": "1",
						"type": "t_array(t_struct(Kid)25_storage)dyn_storage"
					}
				],
				"types": {
					"t_address": {
						"encoding": "inplace",
						"label": "address",
						"numberOfBytes": "20"
					},
					"t_array(t_struct(Kid)25_storage)dyn_storage": {
						"base": "t_struct(Kid)25_storage",
						"encoding": "dynamic_array",
						"label": "struct CryptoKids.Kid[]",
						"numberOfBytes": "32"
					},
					"t_bool": {
						"encoding": "inplace",
						"label": "bool",
						"numberOfBytes": "1"
					},
					"t_string_storage": {
						"encoding": "bytes",
						"label": "string",
						"numberOfBytes": "32"
					},
					"t_struct(Kid)25_storage": {
						"encoding": "inplace",
						"label": "struct CryptoKids.Kid",
						"members": [
							{
								"astId": 14,
								"contract": "contracts/CryptoKids.sol:CryptoKids",
								"label": "walletAddress",
								"offset": 0,
								"slot": "0",
								"type": "t_address"
							},
							{
								"astId": 16,
								"contract": "contracts/CryptoKids.sol:CryptoKids",
								"label": "firstName",
								"offset": 0,
								"slot": "1",
								"type": "t_string_storage"
							},
							{
								"astId": 18,
								"contract": "contracts/CryptoKids.sol:CryptoKids",
								"label": "lastName",
								"offset": 0,
								"slot": "2",
								"type": "t_string_storage"
							},
							{
								"astId": 20,
								"contract": "contracts/CryptoKids.sol:CryptoKids",
								"label": "releaseTime",
								"offset": 0,
								"slot": "3",
								"type": "t_uint256"
							},
							{
								"astId": 22,
								"contract": "contracts/CryptoKids.sol:CryptoKids",
								"label": "amount",
								"offset": 0,
								"slot": "4",
								"type": "t_uint256"
							},
							{
								"astId": 24,
								"contract": "contracts/CryptoKids.sol:CryptoKids",
								"label": "canWithdraw",
								"offset": 0,
								"slot": "5",
								"type": "t_bool"
							}
						],
						"numberOfBytes": "192"
					},
					"t_uint256": {
						"encoding": "inplace",
						"label": "uint256",
						"numberOfBytes": "32"
					}
				}
			},
			"userdoc": {
				"kind": "user",
				"methods": {},
				"version": 1
			}
		}
	}
}