{
	"contracts/CryptoKids.sol": {
		"CryptoKids": {
			"abi": [
				{
					"inputs": [],
					"stateMutability": "nonpayable",
					"type": "constructor"
				},
				{
					"inputs": [
						{
							"internalType": "address payable",
							"name": "walletAddress",
							"type": "address"
						},
						{
							"internalType": "string",
							"name": "firstName",
							"type": "string"
						},
						{
							"internalType": "string",
							"name": "lastName",
							"type": "string"
						},
						{
							"internalType": "uint256",
							"name": "releaseTime",
							"type": "uint256"
						},
						{
							"internalType": "uint256",
							"name": "amount",
							"type": "uint256"
						},
						{
							"internalType": "bool",
							"name": "canWithdraw",
							"type": "bool"
						}
					],
					"name": "addKid",
					"outputs": [],
					"stateMutability": "nonpayable",
					"type": "function"
				},
				{
					"inputs": [
						{
							"internalType": "address",
							"name": "walletAddress",
							"type": "address"
						}
					],
					"name": "avaiableToWithdraw",
					"outputs": [
						{
							"internalType": "bool",
							"name": "",
							"type": "bool"
						}
					],
					"stateMutability": "nonpayable",
					"type": "function"
				},
				{
					"inputs": [],
					"name": "balanceOf",
					"outputs": [
						{
							"internalType": "uint256",
							"name": "",
							"type": "uint256"
						}
					],
					"stateMutability": "view",
					"type": "function"
				},
				{
					"inputs": [
						{
							"internalType": "address",
							"name": "walletAddress",
							"type": "address"
						}
					],
					"name": "deposit",
					"outputs": [],
					"stateMutability": "payable",
					"type": "function"
				},
				{
					"inputs": [
						{
							"internalType": "uint256",
							"name": "",
							"type": "uint256"
						}
					],
					"name": "kids",
					"outputs": [
						{
							"internalType": "address payable",
							"name": "walletAddress",
							"type": "address"
						},
						{
							"internalType": "string",
							"name": "firstName",
							"type": "string"
						},
						{
							"internalType": "string",
							"name": "lastName",
							"type": "string"
						},
						{
							"internalType": "uint256",
							"name": "releaseTime",
							"type": "uint256"
						},
						{
							"internalType": "uint256",
							"name": "amount",
							"type": "uint256"
						},
						{
							"internalType": "bool",
							"name": "canWithdraw",
							"type": "bool"
						}
					],
					"stateMutability": "view",
					"type": "function"
				},
				{
					"inputs": [
						{
							"internalType": "address payable",
							"name": "walletAddress",
							"type": "address"
						},
						{
							"internalType": "uint256",
							"name": "amount",
							"type": "uint256"
						}
					],
					"name": "withdraw",
					"outputs": [],
					"stateMutability": "payable",
					"type": "function"
				}
			],
			"devdoc": {
				"kind": "dev",
				"methods": {},
				"version": 1
			},
			"evm": {
				"assembly": "    /* \"contracts/CryptoKids.sol\":116:3034  contract CryptoKids {... */\n  mstore(0x40, 0x80)\n    /* \"contracts/CryptoKids.sol\":167:216  constructor() {... */\n  callvalue\n  dup1\n  iszero\n  tag_1\n  jumpi\n  0x00\n  dup1\n  revert\ntag_1:\n  pop\n    /* \"contracts/CryptoKids.sol\":199:209  msg.sender */\n  caller\n    /* \"contracts/CryptoKids.sol\":191:196  owner */\n  0x00\n  dup1\n    /* \"contracts/CryptoKids.sol\":191:209  owner = msg.sender */\n  0x0100\n  exp\n  dup2\n  sload\n  dup2\n  0xffffffffffffffffffffffffffffffffffffffff\n  mul\n  not\n  and\n  swap1\n  dup4\n  0xffffffffffffffffffffffffffffffffffffffff\n  and\n  mul\n  or\n  swap1\n  sstore\n  pop\n    /* \"contracts/CryptoKids.sol\":116:3034  contract CryptoKids {... */\n  dataSize(sub_0)\n  dup1\n  dataOffset(sub_0)\n  0x00\n  codecopy\n  0x00\n  return\nstop\n\nsub_0: assembly {\n        /* \"contracts/CryptoKids.sol\":116:3034  contract CryptoKids {... */\n      mstore(0x40, 0x80)\n      jumpi(tag_1, lt(calldatasize, 0x04))\n      shr(0xe0, calldataload(0x00))\n      dup1\n      0x31d575c5\n      eq\n      tag_2\n      jumpi\n      dup1\n      0x6640c922\n      eq\n      tag_3\n      jumpi\n      dup1\n      0x722713f7\n      eq\n      tag_4\n      jumpi\n      dup1\n      0x7285fd3a\n      eq\n      tag_5\n      jumpi\n      dup1\n      0xf340fa01\n      eq\n      tag_6\n      jumpi\n      dup1\n      0xf3fef3a3\n      eq\n      tag_7\n      jumpi\n    tag_1:\n      0x00\n      dup1\n      revert\n        /* \"contracts/CryptoKids.sol\":733:1163  function addKid(... */\n    tag_2:\n      callvalue\n      dup1\n      iszero\n      tag_8\n      jumpi\n      0x00\n      dup1\n      revert\n    tag_8:\n      pop\n      tag_9\n      0x04\n      dup1\n      calldatasize\n      sub\n      dup2\n      add\n      swap1\n      tag_10\n      swap2\n      swap1\n      tag_11\n      jump\t// in\n    tag_10:\n      tag_12\n      jump\t// in\n    tag_9:\n      stop\n        /* \"contracts/CryptoKids.sol\":1910:2386  function avaiableToWithdraw(address walletAddress) public returns(bool) {... */\n    tag_3:\n      callvalue\n      dup1\n      iszero\n      tag_13\n      jumpi\n      0x00\n      dup1\n      revert\n    tag_13:\n      pop\n      tag_14\n      0x04\n      dup1\n      calldatasize\n      sub\n      dup2\n      add\n      swap1\n      tag_15\n      swap2\n      swap1\n      tag_16\n      jump\t// in\n    tag_15:\n      tag_17\n      jump\t// in\n    tag_14:\n      mload(0x40)\n      tag_18\n      swap2\n      swap1\n      tag_19\n      jump\t// in\n    tag_18:\n      mload(0x40)\n      dup1\n      swap2\n      sub\n      swap1\n      return\n        /* \"contracts/CryptoKids.sol\":2396:2488  function balanceOf() public view returns(uint) {... */\n    tag_4:\n      callvalue\n      dup1\n      iszero\n      tag_20\n      jumpi\n      0x00\n      dup1\n      revert\n    tag_20:\n      pop\n      tag_21\n      tag_22\n      jump\t// in\n    tag_21:\n      mload(0x40)\n      tag_23\n      swap2\n      swap1\n      tag_24\n      jump\t// in\n    tag_23:\n      mload(0x40)\n      dup1\n      swap2\n      sub\n      swap1\n      return\n        /* \"contracts/CryptoKids.sol\":409:426  Kid[] public kids */\n    tag_5:\n      callvalue\n      dup1\n      iszero\n      tag_25\n      jumpi\n      0x00\n      dup1\n      revert\n    tag_25:\n      pop\n      tag_26\n      0x04\n      dup1\n      calldatasize\n      sub\n      dup2\n      add\n      swap1\n      tag_27\n      swap2\n      swap1\n      tag_28\n      jump\t// in\n    tag_27:\n      tag_29\n      jump\t// in\n    tag_26:\n      mload(0x40)\n      tag_30\n      swap7\n      swap6\n      swap5\n      swap4\n      swap3\n      swap2\n      swap1\n      tag_31\n      jump\t// in\n    tag_30:\n      mload(0x40)\n      dup1\n      swap2\n      sub\n      swap1\n      return\n        /* \"contracts/CryptoKids.sol\":1169:1272  function deposit(address walletAddress) payable public {... */\n    tag_6:\n      tag_32\n      0x04\n      dup1\n      calldatasize\n      sub\n      dup2\n      add\n      swap1\n      tag_33\n      swap2\n      swap1\n      tag_16\n      jump\t// in\n    tag_33:\n      tag_34\n      jump\t// in\n    tag_32:\n      stop\n        /* \"contracts/CryptoKids.sol\":2494:3031  function withdraw(address payable walletAddress, uint amount) payable public {... */\n    tag_7:\n      tag_35\n      0x04\n      dup1\n      calldatasize\n      sub\n      dup2\n      add\n      swap1\n      tag_36\n      swap2\n      swap1\n      tag_37\n      jump\t// in\n    tag_36:\n      tag_38\n      jump\t// in\n    tag_35:\n      stop\n        /* \"contracts/CryptoKids.sol\":733:1163  function addKid(... */\n    tag_12:\n        /* \"contracts/CryptoKids.sol\":623:628  owner */\n      0x00\n      dup1\n      sload\n      swap1\n      0x0100\n      exp\n      swap1\n      div\n      0xffffffffffffffffffffffffffffffffffffffff\n      and\n        /* \"contracts/CryptoKids.sol\":609:628  msg.sender == owner */\n      0xffffffffffffffffffffffffffffffffffffffff\n      and\n        /* \"contracts/CryptoKids.sol\":609:619  msg.sender */\n      caller\n        /* \"contracts/CryptoKids.sol\":609:628  msg.sender == owner */\n      0xffffffffffffffffffffffffffffffffffffffff\n      and\n      eq\n        /* \"contracts/CryptoKids.sol\":601:669  require(msg.sender == owner, \"Only The Owner Can Use The Function!\") */\n      tag_40\n      jumpi\n      mload(0x40)\n      0x08c379a000000000000000000000000000000000000000000000000000000000\n      dup2\n      mstore\n      0x04\n      add\n      tag_41\n      swap1\n      tag_42\n      jump\t// in\n    tag_41:\n      mload(0x40)\n      dup1\n      swap2\n      sub\n      swap1\n      revert\n    tag_40:\n        /* \"contracts/CryptoKids.sol\":962:966  kids */\n      0x01\n        /* \"contracts/CryptoKids.sol\":972:1155  Kid(... */\n      mload(0x40)\n      dup1\n      0xc0\n      add\n      0x40\n      mstore\n      dup1\n        /* \"contracts/CryptoKids.sol\":993:1006  walletAddress */\n      dup9\n        /* \"contracts/CryptoKids.sol\":972:1155  Kid(... */\n      0xffffffffffffffffffffffffffffffffffffffff\n      and\n      dup2\n      mstore\n      0x20\n      add\n        /* \"contracts/CryptoKids.sol\":1024:1033  firstName */\n      dup8\n        /* \"contracts/CryptoKids.sol\":972:1155  Kid(... */\n      dup2\n      mstore\n      0x20\n      add\n        /* \"contracts/CryptoKids.sol\":1051:1059  lastName */\n      dup7\n        /* \"contracts/CryptoKids.sol\":972:1155  Kid(... */\n      dup2\n      mstore\n      0x20\n      add\n        /* \"contracts/CryptoKids.sol\":1077:1088  releaseTime */\n      dup6\n        /* \"contracts/CryptoKids.sol\":972:1155  Kid(... */\n      dup2\n      mstore\n      0x20\n      add\n        /* \"contracts/CryptoKids.sol\":1106:1112  amount */\n      dup5\n        /* \"contracts/CryptoKids.sol\":972:1155  Kid(... */\n      dup2\n      mstore\n      0x20\n      add\n        /* \"contracts/CryptoKids.sol\":1130:1141  canWithdraw */\n      dup4\n        /* \"contracts/CryptoKids.sol\":972:1155  Kid(... */\n      iszero\n      iszero\n      dup2\n      mstore\n      pop\n        /* \"contracts/CryptoKids.sol\":962:1156  kids.push(Kid(... */\n      swap1\n      dup1\n      0x01\n      dup2\n      sload\n      add\n      dup1\n      dup3\n      sstore\n      dup1\n      swap2\n      pop\n      pop\n      0x01\n      swap1\n      sub\n      swap1\n      0x00\n      mstore\n      keccak256(0x00, 0x20)\n      swap1\n      0x06\n      mul\n      add\n      0x00\n      swap1\n      swap2\n      swap1\n      swap2\n      swap1\n      swap2\n      pop\n      0x00\n      dup3\n      add\n      mload\n      dup2\n      0x00\n      add\n      exp(0x0100, 0x00)\n      dup2\n      sload\n      dup2\n      0xffffffffffffffffffffffffffffffffffffffff\n      mul\n      not\n      and\n      swap1\n      dup4\n      0xffffffffffffffffffffffffffffffffffffffff\n      and\n      mul\n      or\n      swap1\n      sstore\n      pop\n      0x20\n      dup3\n      add\n      mload\n      dup2\n      0x01\n      add\n      swap1\n      dup1\n      mload\n      swap1\n      0x20\n      add\n      swap1\n      tag_45\n      swap3\n      swap2\n      swap1\n      tag_46\n      jump\t// in\n    tag_45:\n      pop\n      0x40\n      dup3\n      add\n      mload\n      dup2\n      0x02\n      add\n      swap1\n      dup1\n      mload\n      swap1\n      0x20\n      add\n      swap1\n      tag_47\n      swap3\n      swap2\n      swap1\n      tag_46\n      jump\t// in\n    tag_47:\n      pop\n      0x60\n      dup3\n      add\n      mload\n      dup2\n      0x03\n      add\n      sstore\n      0x80\n      dup3\n      add\n      mload\n      dup2\n      0x04\n      add\n      sstore\n      0xa0\n      dup3\n      add\n      mload\n      dup2\n      0x05\n      add\n      exp(0x0100, 0x00)\n      dup2\n      sload\n      dup2\n      0xff\n      mul\n      not\n      and\n      swap1\n      dup4\n      iszero\n      iszero\n      mul\n      or\n      swap1\n      sstore\n      pop\n      pop\n      pop\n        /* \"contracts/CryptoKids.sol\":733:1163  function addKid(... */\n      pop\n      pop\n      pop\n      pop\n      pop\n      pop\n      jump\t// out\n        /* \"contracts/CryptoKids.sol\":1910:2386  function avaiableToWithdraw(address walletAddress) public returns(bool) {... */\n    tag_17:\n        /* \"contracts/CryptoKids.sol\":1976:1980  bool */\n      0x00\n        /* \"contracts/CryptoKids.sol\":1992:1998  uint i */\n      dup1\n        /* \"contracts/CryptoKids.sol\":2001:2027  getKidIndex(walletAddress) */\n      tag_49\n        /* \"contracts/CryptoKids.sol\":2013:2026  walletAddress */\n      dup4\n        /* \"contracts/CryptoKids.sol\":2001:2012  getKidIndex */\n      tag_50\n        /* \"contracts/CryptoKids.sol\":2001:2027  getKidIndex(walletAddress) */\n      jump\t// in\n    tag_49:\n        /* \"contracts/CryptoKids.sol\":1992:2027  uint i = getKidIndex(walletAddress) */\n      swap1\n      pop\n        /* \"contracts/CryptoKids.sol\":2064:2068  kids */\n      0x01\n        /* \"contracts/CryptoKids.sol\":2069:2070  i */\n      dup2\n        /* \"contracts/CryptoKids.sol\":2064:2071  kids[i] */\n      dup2\n      sload\n      dup2\n      lt\n      tag_51\n      jumpi\n      tag_52\n      tag_53\n      jump\t// in\n    tag_52:\n    tag_51:\n      swap1\n      0x00\n      mstore\n      keccak256(0x00, 0x20)\n      swap1\n      0x06\n      mul\n      add\n        /* \"contracts/CryptoKids.sol\":2064:2083  kids[i].releaseTime */\n      0x03\n      add\n      sload\n        /* \"contracts/CryptoKids.sol\":2046:2061  block.timestamp */\n      timestamp\n        /* \"contracts/CryptoKids.sol\":2046:2083  block.timestamp > kids[i].releaseTime */\n      gt\n        /* \"contracts/CryptoKids.sol\":2038:2088  require(block.timestamp > kids[i].releaseTime, \"\") */\n      tag_55\n      jumpi\n      mload(0x40)\n      0x08c379a000000000000000000000000000000000000000000000000000000000\n      dup2\n      mstore\n      0x04\n      add\n      tag_56\n      swap1\n      tag_57\n      jump\t// in\n    tag_56:\n      mload(0x40)\n      dup1\n      swap2\n      sub\n      swap1\n      revert\n    tag_55:\n        /* \"contracts/CryptoKids.sol\":2260:2264  kids */\n      0x01\n        /* \"contracts/CryptoKids.sol\":2265:2266  i */\n      dup2\n        /* \"contracts/CryptoKids.sol\":2260:2267  kids[i] */\n      dup2\n      sload\n      dup2\n      lt\n      tag_58\n      jumpi\n      tag_59\n      tag_53\n      jump\t// in\n    tag_59:\n    tag_58:\n      swap1\n      0x00\n      mstore\n      keccak256(0x00, 0x20)\n      swap1\n      0x06\n      mul\n      add\n        /* \"contracts/CryptoKids.sol\":2260:2279  kids[i].releaseTime */\n      0x03\n      add\n      sload\n        /* \"contracts/CryptoKids.sol\":2242:2257  block.timestamp */\n      timestamp\n        /* \"contracts/CryptoKids.sol\":2242:2279  block.timestamp > kids[i].releaseTime */\n      gt\n        /* \"contracts/CryptoKids.sol\":2238:2357  if (block.timestamp > kids[i].releaseTime) {... */\n      iszero\n      tag_61\n      jumpi\n        /* \"contracts/CryptoKids.sol\":2317:2321  true */\n      0x01\n        /* \"contracts/CryptoKids.sol\":2295:2299  kids */\n      dup1\n        /* \"contracts/CryptoKids.sol\":2300:2301  i */\n      dup3\n        /* \"contracts/CryptoKids.sol\":2295:2302  kids[i] */\n      dup2\n      sload\n      dup2\n      lt\n      tag_62\n      jumpi\n      tag_63\n      tag_53\n      jump\t// in\n    tag_63:\n    tag_62:\n      swap1\n      0x00\n      mstore\n      keccak256(0x00, 0x20)\n      swap1\n      0x06\n      mul\n      add\n        /* \"contracts/CryptoKids.sol\":2295:2314  kids[i].canWithdraw */\n      0x05\n      add\n      0x00\n        /* \"contracts/CryptoKids.sol\":2295:2321  kids[i].canWithdraw = true */\n      0x0100\n      exp\n      dup2\n      sload\n      dup2\n      0xff\n      mul\n      not\n      and\n      swap1\n      dup4\n      iszero\n      iszero\n      mul\n      or\n      swap1\n      sstore\n      pop\n        /* \"contracts/CryptoKids.sol\":2342:2346  true */\n      0x01\n        /* \"contracts/CryptoKids.sol\":2335:2346  return true */\n      swap2\n      pop\n      pop\n      jump(tag_48)\n        /* \"contracts/CryptoKids.sol\":2238:2357  if (block.timestamp > kids[i].releaseTime) {... */\n    tag_61:\n        /* \"contracts/CryptoKids.sol\":2374:2379  false */\n      0x00\n        /* \"contracts/CryptoKids.sol\":2367:2379  return false */\n      swap2\n      pop\n      pop\n        /* \"contracts/CryptoKids.sol\":1910:2386  function avaiableToWithdraw(address walletAddress) public returns(bool) {... */\n    tag_48:\n      swap2\n      swap1\n      pop\n      jump\t// out\n        /* \"contracts/CryptoKids.sol\":2396:2488  function balanceOf() public view returns(uint) {... */\n    tag_22:\n        /* \"contracts/CryptoKids.sol\":2437:2441  uint */\n      0x00\n        /* \"contracts/CryptoKids.sol\":2460:2481  address(this).balance */\n      selfbalance\n        /* \"contracts/CryptoKids.sol\":2453:2481  return address(this).balance */\n      swap1\n      pop\n        /* \"contracts/CryptoKids.sol\":2396:2488  function balanceOf() public view returns(uint) {... */\n      swap1\n      jump\t// out\n        /* \"contracts/CryptoKids.sol\":409:426  Kid[] public kids */\n    tag_29:\n      0x01\n      dup2\n      dup2\n      sload\n      dup2\n      lt\n      tag_66\n      jumpi\n      0x00\n      dup1\n      revert\n    tag_66:\n      swap1\n      0x00\n      mstore\n      keccak256(0x00, 0x20)\n      swap1\n      0x06\n      mul\n      add\n      0x00\n      swap2\n      pop\n      swap1\n      pop\n      dup1\n      0x00\n      add\n      0x00\n      swap1\n      sload\n      swap1\n      0x0100\n      exp\n      swap1\n      div\n      0xffffffffffffffffffffffffffffffffffffffff\n      and\n      swap1\n      dup1\n      0x01\n      add\n      dup1\n      sload\n      tag_68\n      swap1\n      tag_69\n      jump\t// in\n    tag_68:\n      dup1\n      0x1f\n      add\n      0x20\n      dup1\n      swap2\n      div\n      mul\n      0x20\n      add\n      mload(0x40)\n      swap1\n      dup2\n      add\n      0x40\n      mstore\n      dup1\n      swap3\n      swap2\n      swap1\n      dup2\n      dup2\n      mstore\n      0x20\n      add\n      dup3\n      dup1\n      sload\n      tag_70\n      swap1\n      tag_69\n      jump\t// in\n    tag_70:\n      dup1\n      iszero\n      tag_71\n      jumpi\n      dup1\n      0x1f\n      lt\n      tag_72\n      jumpi\n      0x0100\n      dup1\n      dup4\n      sload\n      div\n      mul\n      dup4\n      mstore\n      swap2\n      0x20\n      add\n      swap2\n      jump(tag_71)\n    tag_72:\n      dup3\n      add\n      swap2\n      swap1\n      0x00\n      mstore\n      keccak256(0x00, 0x20)\n      swap1\n    tag_73:\n      dup2\n      sload\n      dup2\n      mstore\n      swap1\n      0x01\n      add\n      swap1\n      0x20\n      add\n      dup1\n      dup4\n      gt\n      tag_73\n      jumpi\n      dup3\n      swap1\n      sub\n      0x1f\n      and\n      dup3\n      add\n      swap2\n    tag_71:\n      pop\n      pop\n      pop\n      pop\n      pop\n      swap1\n      dup1\n      0x02\n      add\n      dup1\n      sload\n      tag_74\n      swap1\n      tag_69\n      jump\t// in\n    tag_74:\n      dup1\n      0x1f\n      add\n      0x20\n      dup1\n      swap2\n      div\n      mul\n      0x20\n      add\n      mload(0x40)\n      swap1\n      dup2\n      add\n      0x40\n      mstore\n      dup1\n      swap3\n      swap2\n      swap1\n      dup2\n      dup2\n      mstore\n      0x20\n      add\n      dup3\n      dup1\n      sload\n      tag_75\n      swap1\n      tag_69\n      jump\t// in\n    tag_75:\n      dup1\n      iszero\n      tag_76\n      jumpi\n      dup1\n      0x1f\n      lt\n      tag_77\n      jumpi\n      0x0100\n      dup1\n      dup4\n      sload\n      div\n      mul\n      dup4\n      mstore\n      swap2\n      0x20\n      add\n      swap2\n      jump(tag_76)\n    tag_77:\n      dup3\n      add\n      swap2\n      swap1\n      0x00\n      mstore\n      keccak256(0x00, 0x20)\n      swap1\n    tag_78:\n      dup2\n      sload\n      dup2\n      mstore\n      swap1\n      0x01\n      add\n      swap1\n      0x20\n      add\n      dup1\n      dup4\n      gt\n      tag_78\n      jumpi\n      dup3\n      swap1\n      sub\n      0x1f\n      and\n      dup3\n      add\n      swap2\n    tag_76:\n      pop\n      pop\n      pop\n      pop\n      pop\n      swap1\n      dup1\n      0x03\n      add\n      sload\n      swap1\n      dup1\n      0x04\n      add\n      sload\n      swap1\n      dup1\n      0x05\n      add\n      0x00\n      swap1\n      sload\n      swap1\n      0x0100\n      exp\n      swap1\n      div\n      0xff\n      and\n      swap1\n      pop\n      dup7\n      jump\t// out\n        /* \"contracts/CryptoKids.sol\":1169:1272  function deposit(address walletAddress) payable public {... */\n    tag_34:\n        /* \"contracts/CryptoKids.sol\":1234:1265  addToKidsBalance(walletAddress) */\n      tag_80\n        /* \"contracts/CryptoKids.sol\":1251:1264  walletAddress */\n      dup2\n        /* \"contracts/CryptoKids.sol\":1234:1250  addToKidsBalance */\n      tag_81\n        /* \"contracts/CryptoKids.sol\":1234:1265  addToKidsBalance(walletAddress) */\n      jump\t// in\n    tag_80:\n        /* \"contracts/CryptoKids.sol\":1169:1272  function deposit(address walletAddress) payable public {... */\n      pop\n      jump\t// out\n        /* \"contracts/CryptoKids.sol\":2494:3031  function withdraw(address payable walletAddress, uint amount) payable public {... */\n    tag_38:\n        /* \"contracts/CryptoKids.sol\":2581:2587  uint i */\n      0x00\n        /* \"contracts/CryptoKids.sol\":2590:2616  getKidIndex(walletAddress) */\n      tag_83\n        /* \"contracts/CryptoKids.sol\":2602:2615  walletAddress */\n      dup4\n        /* \"contracts/CryptoKids.sol\":2590:2601  getKidIndex */\n      tag_50\n        /* \"contracts/CryptoKids.sol\":2590:2616  getKidIndex(walletAddress) */\n      jump\t// in\n    tag_83:\n        /* \"contracts/CryptoKids.sol\":2581:2616  uint i = getKidIndex(walletAddress) */\n      swap1\n      pop\n        /* \"contracts/CryptoKids.sol\":2648:2652  kids */\n      0x01\n        /* \"contracts/CryptoKids.sol\":2653:2654  i */\n      dup2\n        /* \"contracts/CryptoKids.sol\":2648:2655  kids[i] */\n      dup2\n      sload\n      dup2\n      lt\n      tag_84\n      jumpi\n      tag_85\n      tag_53\n      jump\t// in\n    tag_85:\n    tag_84:\n      swap1\n      0x00\n      mstore\n      keccak256(0x00, 0x20)\n      swap1\n      0x06\n      mul\n      add\n        /* \"contracts/CryptoKids.sol\":2648:2669  kids[i].walletAddress */\n      0x00\n      add\n      0x00\n      swap1\n      sload\n      swap1\n      0x0100\n      exp\n      swap1\n      div\n      0xffffffffffffffffffffffffffffffffffffffff\n      and\n        /* \"contracts/CryptoKids.sol\":2634:2669  msg.sender == kids[i].walletAddress */\n      0xffffffffffffffffffffffffffffffffffffffff\n      and\n        /* \"contracts/CryptoKids.sol\":2634:2644  msg.sender */\n      caller\n        /* \"contracts/CryptoKids.sol\":2634:2669  msg.sender == kids[i].walletAddress */\n      0xffffffffffffffffffffffffffffffffffffffff\n      and\n      eq\n        /* \"contracts/CryptoKids.sol\":2626:2732  require(msg.sender == kids[i].walletAddress, \"You are not allowed to withdraw! Address Does Not Matched!\") */\n      tag_87\n      jumpi\n      mload(0x40)\n      0x08c379a000000000000000000000000000000000000000000000000000000000\n      dup2\n      mstore\n      0x04\n      add\n      tag_88\n      swap1\n      tag_89\n      jump\t// in\n    tag_88:\n      mload(0x40)\n      dup1\n      swap2\n      sub\n      swap1\n      revert\n    tag_87:\n        /* \"contracts/CryptoKids.sol\":2750:2783  avaiableToWithdraw(walletAddress) */\n      tag_90\n        /* \"contracts/CryptoKids.sol\":2769:2782  walletAddress */\n      dup4\n        /* \"contracts/CryptoKids.sol\":2750:2768  avaiableToWithdraw */\n      tag_17\n        /* \"contracts/CryptoKids.sol\":2750:2783  avaiableToWithdraw(walletAddress) */\n      jump\t// in\n    tag_90:\n        /* \"contracts/CryptoKids.sol\":2742:2841  require(avaiableToWithdraw(walletAddress), \"You are not allowed to withdraw! Time has not passed!\") */\n      tag_91\n      jumpi\n      mload(0x40)\n      0x08c379a000000000000000000000000000000000000000000000000000000000\n      dup2\n      mstore\n      0x04\n      add\n      tag_92\n      swap1\n      tag_93\n      jump\t// in\n    tag_92:\n      mload(0x40)\n      dup1\n      swap2\n      sub\n      swap1\n      revert\n    tag_91:\n        /* \"contracts/CryptoKids.sol\":2877:2883  amount */\n      dup2\n        /* \"contracts/CryptoKids.sol\":2859:2863  kids */\n      0x01\n        /* \"contracts/CryptoKids.sol\":2864:2865  i */\n      dup3\n        /* \"contracts/CryptoKids.sol\":2859:2866  kids[i] */\n      dup2\n      sload\n      dup2\n      lt\n      tag_94\n      jumpi\n      tag_95\n      tag_53\n      jump\t// in\n    tag_95:\n    tag_94:\n      swap1\n      0x00\n      mstore\n      keccak256(0x00, 0x20)\n      swap1\n      0x06\n      mul\n      add\n        /* \"contracts/CryptoKids.sol\":2859:2873  kids[i].amount */\n      0x04\n      add\n      sload\n        /* \"contracts/CryptoKids.sol\":2859:2883  kids[i].amount >= amount */\n      lt\n      iszero\n        /* \"contracts/CryptoKids.sol\":2851:2942  require(kids[i].amount >= amount, \"You are not allowed to withdraw! No Sufficient Amount!\") */\n      tag_97\n      jumpi\n      mload(0x40)\n      0x08c379a000000000000000000000000000000000000000000000000000000000\n      dup2\n      mstore\n      0x04\n      add\n      tag_98\n      swap1\n      tag_99\n      jump\t// in\n    tag_98:\n      mload(0x40)\n      dup1\n      swap2\n      sub\n      swap1\n      revert\n    tag_97:\n        /* \"contracts/CryptoKids.sol\":2952:2956  kids */\n      0x01\n        /* \"contracts/CryptoKids.sol\":2957:2958  i */\n      dup2\n        /* \"contracts/CryptoKids.sol\":2952:2959  kids[i] */\n      dup2\n      sload\n      dup2\n      lt\n      tag_100\n      jumpi\n      tag_101\n      tag_53\n      jump\t// in\n    tag_101:\n    tag_100:\n      swap1\n      0x00\n      mstore\n      keccak256(0x00, 0x20)\n      swap1\n      0x06\n      mul\n      add\n        /* \"contracts/CryptoKids.sol\":2952:2973  kids[i].walletAddress */\n      0x00\n      add\n      0x00\n      swap1\n      sload\n      swap1\n      0x0100\n      exp\n      swap1\n      div\n      0xffffffffffffffffffffffffffffffffffffffff\n      and\n        /* \"contracts/CryptoKids.sol\":2952:2982  kids[i].walletAddress.transfer */\n      0xffffffffffffffffffffffffffffffffffffffff\n      and\n        /* \"contracts/CryptoKids.sol\":2952:2990  kids[i].walletAddress.transfer(amount) */\n      0x08fc\n        /* \"contracts/CryptoKids.sol\":2983:2989  amount */\n      dup4\n        /* \"contracts/CryptoKids.sol\":2952:2990  kids[i].walletAddress.transfer(amount) */\n      swap1\n      dup2\n      iszero\n      mul\n      swap1\n      mload(0x40)\n      0x00\n      mload(0x40)\n      dup1\n      dup4\n      sub\n      dup2\n      dup6\n      dup9\n      dup9\n      call\n      swap4\n      pop\n      pop\n      pop\n      pop\n      iszero\n      dup1\n      iszero\n      tag_104\n      jumpi\n      returndatasize\n      0x00\n      dup1\n      returndatacopy\n      revert(0x00, returndatasize)\n    tag_104:\n      pop\n        /* \"contracts/CryptoKids.sol\":3018:3024  amount */\n      dup2\n        /* \"contracts/CryptoKids.sol\":3000:3004  kids */\n      0x01\n        /* \"contracts/CryptoKids.sol\":3005:3006  i */\n      dup3\n        /* \"contracts/CryptoKids.sol\":3000:3007  kids[i] */\n      dup2\n      sload\n      dup2\n      lt\n      tag_105\n      jumpi\n      tag_106\n      tag_53\n      jump\t// in\n    tag_106:\n    tag_105:\n      swap1\n      0x00\n      mstore\n      keccak256(0x00, 0x20)\n      swap1\n      0x06\n      mul\n      add\n        /* \"contracts/CryptoKids.sol\":3000:3014  kids[i].amount */\n      0x04\n      add\n      0x00\n        /* \"contracts/CryptoKids.sol\":3000:3024  kids[i].amount -= amount */\n      dup3\n      dup3\n      sload\n      tag_108\n      swap2\n      swap1\n      tag_109\n      jump\t// in\n    tag_108:\n      swap3\n      pop\n      pop\n      dup2\n      swap1\n      sstore\n      pop\n        /* \"contracts/CryptoKids.sol\":2571:3031  {... */\n      pop\n        /* \"contracts/CryptoKids.sol\":2494:3031  function withdraw(address payable walletAddress, uint amount) payable public {... */\n      pop\n      pop\n      jump\t// out\n        /* \"contracts/CryptoKids.sol\":1309:1677  function getKidIndex(address walletAddress) private view returns(uint) {... */\n    tag_50:\n        /* \"contracts/CryptoKids.sol\":1374:1378  uint */\n      0x00\n        /* \"contracts/CryptoKids.sol\":1395:1401  uint i */\n      dup1\n        /* \"contracts/CryptoKids.sol\":1404:1405  0 */\n      0x00\n        /* \"contracts/CryptoKids.sol\":1395:1405  uint i = 0 */\n      swap1\n      pop\n        /* \"contracts/CryptoKids.sol\":1390:1539  for( uint i = 0; i < kids.length; i++) {... */\n    tag_111:\n        /* \"contracts/CryptoKids.sol\":1411:1415  kids */\n      0x01\n        /* \"contracts/CryptoKids.sol\":1411:1422  kids.length */\n      dup1\n      sload\n      swap1\n      pop\n        /* \"contracts/CryptoKids.sol\":1407:1408  i */\n      dup2\n        /* \"contracts/CryptoKids.sol\":1407:1422  i < kids.length */\n      lt\n        /* \"contracts/CryptoKids.sol\":1390:1539  for( uint i = 0; i < kids.length; i++) {... */\n      iszero\n      tag_112\n      jumpi\n        /* \"contracts/CryptoKids.sol\":1473:1486  walletAddress */\n      dup3\n        /* \"contracts/CryptoKids.sol\":1448:1486  kids[i].walletAddress == walletAddress */\n      0xffffffffffffffffffffffffffffffffffffffff\n      and\n        /* \"contracts/CryptoKids.sol\":1448:1452  kids */\n      0x01\n        /* \"contracts/CryptoKids.sol\":1453:1454  i */\n      dup3\n        /* \"contracts/CryptoKids.sol\":1448:1455  kids[i] */\n      dup2\n      sload\n      dup2\n      lt\n      tag_114\n      jumpi\n      tag_115\n      tag_53\n      jump\t// in\n    tag_115:\n    tag_114:\n      swap1\n      0x00\n      mstore\n      keccak256(0x00, 0x20)\n      swap1\n      0x06\n      mul\n      add\n        /* \"contracts/CryptoKids.sol\":1448:1469  kids[i].walletAddress */\n      0x00\n      add\n      0x00\n      swap1\n      sload\n      swap1\n      0x0100\n      exp\n      swap1\n      div\n      0xffffffffffffffffffffffffffffffffffffffff\n      and\n        /* \"contracts/CryptoKids.sol\":1448:1486  kids[i].walletAddress == walletAddress */\n      0xffffffffffffffffffffffffffffffffffffffff\n      and\n      eq\n        /* \"contracts/CryptoKids.sol\":1443:1529  if ( kids[i].walletAddress == walletAddress) {... */\n      iszero\n      tag_117\n      jumpi\n        /* \"contracts/CryptoKids.sol\":1513:1514  i */\n      dup1\n        /* \"contracts/CryptoKids.sol\":1506:1514  return i */\n      swap2\n      pop\n      pop\n      jump(tag_110)\n        /* \"contracts/CryptoKids.sol\":1443:1529  if ( kids[i].walletAddress == walletAddress) {... */\n    tag_117:\n        /* \"contracts/CryptoKids.sol\":1424:1427  i++ */\n      dup1\n      dup1\n      tag_118\n      swap1\n      tag_119\n      jump\t// in\n    tag_118:\n      swap2\n      pop\n      pop\n        /* \"contracts/CryptoKids.sol\":1390:1539  for( uint i = 0; i < kids.length; i++) {... */\n      jump(tag_111)\n    tag_112:\n      pop\n        /* \"contracts/CryptoKids.sol\":1555:1559  kids */\n      0x01\n        /* \"contracts/CryptoKids.sol\":1555:1566  kids.length */\n      dup1\n      sload\n      swap1\n      pop\n        /* \"contracts/CryptoKids.sol\":1548:1566  return kids.length */\n      swap1\n      pop\n        /* \"contracts/CryptoKids.sol\":1309:1677  function getKidIndex(address walletAddress) private view returns(uint) {... */\n    tag_110:\n      swap2\n      swap1\n      pop\n      jump\t// out\n        /* \"contracts/CryptoKids.sol\":1683:1904  function addToKidsBalance(address walletAddress) private {... */\n    tag_81:\n        /* \"contracts/CryptoKids.sol\":1750:1766  uint theKidIndex */\n      0x00\n        /* \"contracts/CryptoKids.sol\":1769:1795  getKidIndex(walletAddress) */\n      tag_121\n        /* \"contracts/CryptoKids.sol\":1781:1794  walletAddress */\n      dup3\n        /* \"contracts/CryptoKids.sol\":1769:1780  getKidIndex */\n      tag_50\n        /* \"contracts/CryptoKids.sol\":1769:1795  getKidIndex(walletAddress) */\n      jump\t// in\n    tag_121:\n        /* \"contracts/CryptoKids.sol\":1750:1795  uint theKidIndex = getKidIndex(walletAddress) */\n      swap1\n      pop\n        /* \"contracts/CryptoKids.sol\":1823:1827  kids */\n      0x01\n        /* \"contracts/CryptoKids.sol\":1823:1834  kids.length */\n      dup1\n      sload\n      swap1\n      pop\n        /* \"contracts/CryptoKids.sol\":1809:1820  theKidIndex */\n      dup2\n        /* \"contracts/CryptoKids.sol\":1809:1834  theKidIndex < kids.length */\n      lt\n        /* \"contracts/CryptoKids.sol\":1805:1898  if (theKidIndex < kids.length) {... */\n      iszero\n      tag_122\n      jumpi\n        /* \"contracts/CryptoKids.sol\":1878:1887  msg.value */\n      callvalue\n        /* \"contracts/CryptoKids.sol\":1850:1854  kids */\n      0x01\n        /* \"contracts/CryptoKids.sol\":1855:1866  theKidIndex */\n      dup3\n        /* \"contracts/CryptoKids.sol\":1850:1867  kids[theKidIndex] */\n      dup2\n      sload\n      dup2\n      lt\n      tag_123\n      jumpi\n      tag_124\n      tag_53\n      jump\t// in\n    tag_124:\n    tag_123:\n      swap1\n      0x00\n      mstore\n      keccak256(0x00, 0x20)\n      swap1\n      0x06\n      mul\n      add\n        /* \"contracts/CryptoKids.sol\":1850:1874  kids[theKidIndex].amount */\n      0x04\n      add\n      0x00\n        /* \"contracts/CryptoKids.sol\":1850:1887  kids[theKidIndex].amount += msg.value */\n      dup3\n      dup3\n      sload\n      tag_126\n      swap2\n      swap1\n      tag_127\n      jump\t// in\n    tag_126:\n      swap3\n      pop\n      pop\n      dup2\n      swap1\n      sstore\n      pop\n        /* \"contracts/CryptoKids.sol\":1805:1898  if (theKidIndex < kids.length) {... */\n    tag_122:\n        /* \"contracts/CryptoKids.sol\":1740:1904  {... */\n      pop\n        /* \"contracts/CryptoKids.sol\":1683:1904  function addToKidsBalance(address walletAddress) private {... */\n      pop\n      jump\t// out\n    tag_46:\n      dup3\n      dup1\n      sload\n      tag_128\n      swap1\n      tag_69\n      jump\t// in\n    tag_128:\n      swap1\n      0x00\n      mstore\n      keccak256(0x00, 0x20)\n      swap1\n      0x1f\n      add\n      0x20\n      swap1\n      div\n      dup2\n      add\n      swap3\n      dup3\n      tag_130\n      jumpi\n      0x00\n      dup6\n      sstore\n      jump(tag_129)\n    tag_130:\n      dup3\n      0x1f\n      lt\n      tag_131\n      jumpi\n      dup1\n      mload\n      not(0xff)\n      and\n      dup4\n      dup1\n      add\n      or\n      dup6\n      sstore\n      jump(tag_129)\n    tag_131:\n      dup3\n      dup1\n      add\n      0x01\n      add\n      dup6\n      sstore\n      dup3\n      iszero\n      tag_129\n      jumpi\n      swap2\n      dup3\n      add\n    tag_132:\n      dup3\n      dup2\n      gt\n      iszero\n      tag_133\n      jumpi\n      dup3\n      mload\n      dup3\n      sstore\n      swap2\n      0x20\n      add\n      swap2\n      swap1\n      0x01\n      add\n      swap1\n      jump(tag_132)\n    tag_133:\n    tag_129:\n      pop\n      swap1\n      pop\n      tag_134\n      swap2\n      swap1\n      tag_135\n      jump\t// in\n    tag_134:\n      pop\n      swap1\n      jump\t// out\n    tag_135:\n    tag_136:\n      dup1\n      dup3\n      gt\n      iszero\n      tag_137\n      jumpi\n      0x00\n      dup2\n      0x00\n      swap1\n      sstore\n      pop\n      0x01\n      add\n      jump(tag_136)\n    tag_137:\n      pop\n      swap1\n      jump\t// out\n        /* \"#utility.yul\":7:419   */\n    tag_139:\n        /* \"#utility.yul\":85:90   */\n      0x00\n        /* \"#utility.yul\":110:176   */\n      tag_141\n        /* \"#utility.yul\":126:175   */\n      tag_142\n        /* \"#utility.yul\":168:174   */\n      dup5\n        /* \"#utility.yul\":126:175   */\n      tag_143\n      jump\t// in\n    tag_142:\n        /* \"#utility.yul\":110:176   */\n      tag_144\n      jump\t// in\n    tag_141:\n        /* \"#utility.yul\":101:176   */\n      swap1\n      pop\n        /* \"#utility.yul\":199:205   */\n      dup3\n        /* \"#utility.yul\":192:197   */\n      dup2\n        /* \"#utility.yul\":185:206   */\n      mstore\n        /* \"#utility.yul\":237:241   */\n      0x20\n        /* \"#utility.yul\":230:235   */\n      dup2\n        /* \"#utility.yul\":226:242   */\n      add\n        /* \"#utility.yul\":275:278   */\n      dup5\n        /* \"#utility.yul\":266:272   */\n      dup5\n        /* \"#utility.yul\":261:264   */\n      dup5\n        /* \"#utility.yul\":257:273   */\n      add\n        /* \"#utility.yul\":254:279   */\n      gt\n        /* \"#utility.yul\":251:363   */\n      iszero\n      tag_145\n      jumpi\n        /* \"#utility.yul\":282:361   */\n      tag_146\n      tag_147\n      jump\t// in\n    tag_146:\n        /* \"#utility.yul\":251:363   */\n    tag_145:\n        /* \"#utility.yul\":372:413   */\n      tag_148\n        /* \"#utility.yul\":406:412   */\n      dup5\n        /* \"#utility.yul\":401:404   */\n      dup3\n        /* \"#utility.yul\":396:399   */\n      dup6\n        /* \"#utility.yul\":372:413   */\n      tag_149\n      jump\t// in\n    tag_148:\n        /* \"#utility.yul\":91:419   */\n      pop\n        /* \"#utility.yul\":7:419   */\n      swap4\n      swap3\n      pop\n      pop\n      pop\n      jump\t// out\n        /* \"#utility.yul\":425:564   */\n    tag_150:\n        /* \"#utility.yul\":471:476   */\n      0x00\n        /* \"#utility.yul\":509:515   */\n      dup2\n        /* \"#utility.yul\":496:516   */\n      calldataload\n        /* \"#utility.yul\":487:516   */\n      swap1\n      pop\n        /* \"#utility.yul\":525:558   */\n      tag_152\n        /* \"#utility.yul\":552:557   */\n      dup2\n        /* \"#utility.yul\":525:558   */\n      tag_153\n      jump\t// in\n    tag_152:\n        /* \"#utility.yul\":425:564   */\n      swap3\n      swap2\n      pop\n      pop\n      jump\t// out\n        /* \"#utility.yul\":570:725   */\n    tag_154:\n        /* \"#utility.yul\":624:629   */\n      0x00\n        /* \"#utility.yul\":662:668   */\n      dup2\n        /* \"#utility.yul\":649:669   */\n      calldataload\n        /* \"#utility.yul\":640:669   */\n      swap1\n      pop\n        /* \"#utility.yul\":678:719   */\n      tag_156\n        /* \"#utility.yul\":713:718   */\n      dup2\n        /* \"#utility.yul\":678:719   */\n      tag_157\n      jump\t// in\n    tag_156:\n        /* \"#utility.yul\":570:725   */\n      swap3\n      swap2\n      pop\n      pop\n      jump\t// out\n        /* \"#utility.yul\":731:864   */\n    tag_158:\n        /* \"#utility.yul\":774:779   */\n      0x00\n        /* \"#utility.yul\":812:818   */\n      dup2\n        /* \"#utility.yul\":799:819   */\n      calldataload\n        /* \"#utility.yul\":790:819   */\n      swap1\n      pop\n        /* \"#utility.yul\":828:858   */\n      tag_160\n        /* \"#utility.yul\":852:857   */\n      dup2\n        /* \"#utility.yul\":828:858   */\n      tag_161\n      jump\t// in\n    tag_160:\n        /* \"#utility.yul\":731:864   */\n      swap3\n      swap2\n      pop\n      pop\n      jump\t// out\n        /* \"#utility.yul\":884:1224   */\n    tag_162:\n        /* \"#utility.yul\":940:945   */\n      0x00\n        /* \"#utility.yul\":989:992   */\n      dup3\n        /* \"#utility.yul\":982:986   */\n      0x1f\n        /* \"#utility.yul\":974:980   */\n      dup4\n        /* \"#utility.yul\":970:987   */\n      add\n        /* \"#utility.yul\":966:993   */\n      slt\n        /* \"#utility.yul\":956:1078   */\n      tag_164\n      jumpi\n        /* \"#utility.yul\":997:1076   */\n      tag_165\n      tag_166\n      jump\t// in\n    tag_165:\n        /* \"#utility.yul\":956:1078   */\n    tag_164:\n        /* \"#utility.yul\":1114:1120   */\n      dup2\n        /* \"#utility.yul\":1101:1121   */\n      calldataload\n        /* \"#utility.yul\":1139:1218   */\n      tag_167\n        /* \"#utility.yul\":1214:1217   */\n      dup5\n        /* \"#utility.yul\":1206:1212   */\n      dup3\n        /* \"#utility.yul\":1199:1203   */\n      0x20\n        /* \"#utility.yul\":1191:1197   */\n      dup7\n        /* \"#utility.yul\":1187:1204   */\n      add\n        /* \"#utility.yul\":1139:1218   */\n      tag_139\n      jump\t// in\n    tag_167:\n        /* \"#utility.yul\":1130:1218   */\n      swap2\n      pop\n        /* \"#utility.yul\":946:1224   */\n      pop\n        /* \"#utility.yul\":884:1224   */\n      swap3\n      swap2\n      pop\n      pop\n      jump\t// out\n        /* \"#utility.yul\":1230:1369   */\n    tag_168:\n        /* \"#utility.yul\":1276:1281   */\n      0x00\n        /* \"#utility.yul\":1314:1320   */\n      dup2\n        /* \"#utility.yul\":1301:1321   */\n      calldataload\n        /* \"#utility.yul\":1292:1321   */\n      swap1\n      pop\n        /* \"#utility.yul\":1330:1363   */\n      tag_170\n        /* \"#utility.yul\":1357:1362   */\n      dup2\n        /* \"#utility.yul\":1330:1363   */\n      tag_171\n      jump\t// in\n    tag_170:\n        /* \"#utility.yul\":1230:1369   */\n      swap3\n      swap2\n      pop\n      pop\n      jump\t// out\n        /* \"#utility.yul\":1375:1704   */\n    tag_16:\n        /* \"#utility.yul\":1434:1440   */\n      0x00\n        /* \"#utility.yul\":1483:1485   */\n      0x20\n        /* \"#utility.yul\":1471:1480   */\n      dup3\n        /* \"#utility.yul\":1462:1469   */\n      dup5\n        /* \"#utility.yul\":1458:1481   */\n      sub\n        /* \"#utility.yul\":1454:1486   */\n      slt\n        /* \"#utility.yul\":1451:1570   */\n      iszero\n      tag_173\n      jumpi\n        /* \"#utility.yul\":1489:1568   */\n      tag_174\n      tag_175\n      jump\t// in\n    tag_174:\n        /* \"#utility.yul\":1451:1570   */\n    tag_173:\n        /* \"#utility.yul\":1609:1610   */\n      0x00\n        /* \"#utility.yul\":1634:1687   */\n      tag_176\n        /* \"#utility.yul\":1679:1686   */\n      dup5\n        /* \"#utility.yul\":1670:1676   */\n      dup3\n        /* \"#utility.yul\":1659:1668   */\n      dup6\n        /* \"#utility.yul\":1655:1677   */\n      add\n        /* \"#utility.yul\":1634:1687   */\n      tag_150\n      jump\t// in\n    tag_176:\n        /* \"#utility.yul\":1624:1687   */\n      swap2\n      pop\n        /* \"#utility.yul\":1580:1697   */\n      pop\n        /* \"#utility.yul\":1375:1704   */\n      swap3\n      swap2\n      pop\n      pop\n      jump\t// out\n        /* \"#utility.yul\":1710:3137   */\n    tag_11:\n        /* \"#utility.yul\":1839:1845   */\n      0x00\n        /* \"#utility.yul\":1847:1853   */\n      dup1\n        /* \"#utility.yul\":1855:1861   */\n      0x00\n        /* \"#utility.yul\":1863:1869   */\n      dup1\n        /* \"#utility.yul\":1871:1877   */\n      0x00\n        /* \"#utility.yul\":1879:1885   */\n      dup1\n        /* \"#utility.yul\":1928:1931   */\n      0xc0\n        /* \"#utility.yul\":1916:1925   */\n      dup8\n        /* \"#utility.yul\":1907:1914   */\n      dup10\n        /* \"#utility.yul\":1903:1926   */\n      sub\n        /* \"#utility.yul\":1899:1932   */\n      slt\n        /* \"#utility.yul\":1896:2016   */\n      iszero\n      tag_178\n      jumpi\n        /* \"#utility.yul\":1935:2014   */\n      tag_179\n      tag_175\n      jump\t// in\n    tag_179:\n        /* \"#utility.yul\":1896:2016   */\n    tag_178:\n        /* \"#utility.yul\":2055:2056   */\n      0x00\n        /* \"#utility.yul\":2080:2141   */\n      tag_180\n        /* \"#utility.yul\":2133:2140   */\n      dup10\n        /* \"#utility.yul\":2124:2130   */\n      dup3\n        /* \"#utility.yul\":2113:2122   */\n      dup11\n        /* \"#utility.yul\":2109:2131   */\n      add\n        /* \"#utility.yul\":2080:2141   */\n      tag_154\n      jump\t// in\n    tag_180:\n        /* \"#utility.yul\":2070:2141   */\n      swap7\n      pop\n        /* \"#utility.yul\":2026:2151   */\n      pop\n        /* \"#utility.yul\":2218:2220   */\n      0x20\n        /* \"#utility.yul\":2207:2216   */\n      dup8\n        /* \"#utility.yul\":2203:2221   */\n      add\n        /* \"#utility.yul\":2190:2222   */\n      calldataload\n        /* \"#utility.yul\":2249:2267   */\n      0xffffffffffffffff\n        /* \"#utility.yul\":2241:2247   */\n      dup2\n        /* \"#utility.yul\":2238:2268   */\n      gt\n        /* \"#utility.yul\":2235:2352   */\n      iszero\n      tag_181\n      jumpi\n        /* \"#utility.yul\":2271:2350   */\n      tag_182\n      tag_183\n      jump\t// in\n    tag_182:\n        /* \"#utility.yul\":2235:2352   */\n    tag_181:\n        /* \"#utility.yul\":2376:2439   */\n      tag_184\n        /* \"#utility.yul\":2431:2438   */\n      dup10\n        /* \"#utility.yul\":2422:2428   */\n      dup3\n        /* \"#utility.yul\":2411:2420   */\n      dup11\n        /* \"#utility.yul\":2407:2429   */\n      add\n        /* \"#utility.yul\":2376:2439   */\n      tag_162\n      jump\t// in\n    tag_184:\n        /* \"#utility.yul\":2366:2439   */\n      swap6\n      pop\n        /* \"#utility.yul\":2161:2449   */\n      pop\n        /* \"#utility.yul\":2516:2518   */\n      0x40\n        /* \"#utility.yul\":2505:2514   */\n      dup8\n        /* \"#utility.yul\":2501:2519   */\n      add\n        /* \"#utility.yul\":2488:2520   */\n      calldataload\n        /* \"#utility.yul\":2547:2565   */\n      0xffffffffffffffff\n        /* \"#utility.yul\":2539:2545   */\n      dup2\n        /* \"#utility.yul\":2536:2566   */\n      gt\n        /* \"#utility.yul\":2533:2650   */\n      iszero\n      tag_185\n      jumpi\n        /* \"#utility.yul\":2569:2648   */\n      tag_186\n      tag_183\n      jump\t// in\n    tag_186:\n        /* \"#utility.yul\":2533:2650   */\n    tag_185:\n        /* \"#utility.yul\":2674:2737   */\n      tag_187\n        /* \"#utility.yul\":2729:2736   */\n      dup10\n        /* \"#utility.yul\":2720:2726   */\n      dup3\n        /* \"#utility.yul\":2709:2718   */\n      dup11\n        /* \"#utility.yul\":2705:2727   */\n      add\n        /* \"#utility.yul\":2674:2737   */\n      tag_162\n      jump\t// in\n    tag_187:\n        /* \"#utility.yul\":2664:2737   */\n      swap5\n      pop\n        /* \"#utility.yul\":2459:2747   */\n      pop\n        /* \"#utility.yul\":2786:2788   */\n      0x60\n        /* \"#utility.yul\":2812:2865   */\n      tag_188\n        /* \"#utility.yul\":2857:2864   */\n      dup10\n        /* \"#utility.yul\":2848:2854   */\n      dup3\n        /* \"#utility.yul\":2837:2846   */\n      dup11\n        /* \"#utility.yul\":2833:2855   */\n      add\n        /* \"#utility.yul\":2812:2865   */\n      tag_168\n      jump\t// in\n    tag_188:\n        /* \"#utility.yul\":2802:2865   */\n      swap4\n      pop\n        /* \"#utility.yul\":2757:2875   */\n      pop\n        /* \"#utility.yul\":2914:2917   */\n      0x80\n        /* \"#utility.yul\":2941:2994   */\n      tag_189\n        /* \"#utility.yul\":2986:2993   */\n      dup10\n        /* \"#utility.yul\":2977:2983   */\n      dup3\n        /* \"#utility.yul\":2966:2975   */\n      dup11\n        /* \"#utility.yul\":2962:2984   */\n      add\n        /* \"#utility.yul\":2941:2994   */\n      tag_168\n      jump\t// in\n    tag_189:\n        /* \"#utility.yul\":2931:2994   */\n      swap3\n      pop\n        /* \"#utility.yul\":2885:3004   */\n      pop\n        /* \"#utility.yul\":3043:3046   */\n      0xa0\n        /* \"#utility.yul\":3070:3120   */\n      tag_190\n        /* \"#utility.yul\":3112:3119   */\n      dup10\n        /* \"#utility.yul\":3103:3109   */\n      dup3\n        /* \"#utility.yul\":3092:3101   */\n      dup11\n        /* \"#utility.yul\":3088:3110   */\n      add\n        /* \"#utility.yul\":3070:3120   */\n      tag_158\n      jump\t// in\n    tag_190:\n        /* \"#utility.yul\":3060:3120   */\n      swap2\n      pop\n        /* \"#utility.yul\":3014:3130   */\n      pop\n        /* \"#utility.yul\":1710:3137   */\n      swap3\n      swap6\n      pop\n      swap3\n      swap6\n      pop\n      swap3\n      swap6\n      jump\t// out\n        /* \"#utility.yul\":3143:3633   */\n    tag_37:\n        /* \"#utility.yul\":3219:3225   */\n      0x00\n        /* \"#utility.yul\":3227:3233   */\n      dup1\n        /* \"#utility.yul\":3276:3278   */\n      0x40\n        /* \"#utility.yul\":3264:3273   */\n      dup4\n        /* \"#utility.yul\":3255:3262   */\n      dup6\n        /* \"#utility.yul\":3251:3274   */\n      sub\n        /* \"#utility.yul\":3247:3279   */\n      slt\n        /* \"#utility.yul\":3244:3363   */\n      iszero\n      tag_192\n      jumpi\n        /* \"#utility.yul\":3282:3361   */\n      tag_193\n      tag_175\n      jump\t// in\n    tag_193:\n        /* \"#utility.yul\":3244:3363   */\n    tag_192:\n        /* \"#utility.yul\":3402:3403   */\n      0x00\n        /* \"#utility.yul\":3427:3488   */\n      tag_194\n        /* \"#utility.yul\":3480:3487   */\n      dup6\n        /* \"#utility.yul\":3471:3477   */\n      dup3\n        /* \"#utility.yul\":3460:3469   */\n      dup7\n        /* \"#utility.yul\":3456:3478   */\n      add\n        /* \"#utility.yul\":3427:3488   */\n      tag_154\n      jump\t// in\n    tag_194:\n        /* \"#utility.yul\":3417:3488   */\n      swap3\n      pop\n        /* \"#utility.yul\":3373:3498   */\n      pop\n        /* \"#utility.yul\":3537:3539   */\n      0x20\n        /* \"#utility.yul\":3563:3616   */\n      tag_195\n        /* \"#utility.yul\":3608:3615   */\n      dup6\n        /* \"#utility.yul\":3599:3605   */\n      dup3\n        /* \"#utility.yul\":3588:3597   */\n      dup7\n        /* \"#utility.yul\":3584:3606   */\n      add\n        /* \"#utility.yul\":3563:3616   */\n      tag_168\n      jump\t// in\n    tag_195:\n        /* \"#utility.yul\":3553:3616   */\n      swap2\n      pop\n        /* \"#utility.yul\":3508:3626   */\n      pop\n        /* \"#utility.yul\":3143:3633   */\n      swap3\n      pop\n      swap3\n      swap1\n      pop\n      jump\t// out\n        /* \"#utility.yul\":3639:3968   */\n    tag_28:\n        /* \"#utility.yul\":3698:3704   */\n      0x00\n        /* \"#utility.yul\":3747:3749   */\n      0x20\n        /* \"#utility.yul\":3735:3744   */\n      dup3\n        /* \"#utility.yul\":3726:3733   */\n      dup5\n        /* \"#utility.yul\":3722:3745   */\n      sub\n        /* \"#utility.yul\":3718:3750   */\n      slt\n        /* \"#utility.yul\":3715:3834   */\n      iszero\n      tag_197\n      jumpi\n        /* \"#utility.yul\":3753:3832   */\n      tag_198\n      tag_175\n      jump\t// in\n    tag_198:\n        /* \"#utility.yul\":3715:3834   */\n    tag_197:\n        /* \"#utility.yul\":3873:3874   */\n      0x00\n        /* \"#utility.yul\":3898:3951   */\n      tag_199\n        /* \"#utility.yul\":3943:3950   */\n      dup5\n        /* \"#utility.yul\":3934:3940   */\n      dup3\n        /* \"#utility.yul\":3923:3932   */\n      dup6\n        /* \"#utility.yul\":3919:3941   */\n      add\n        /* \"#utility.yul\":3898:3951   */\n      tag_168\n      jump\t// in\n    tag_199:\n        /* \"#utility.yul\":3888:3951   */\n      swap2\n      pop\n        /* \"#utility.yul\":3844:3961   */\n      pop\n        /* \"#utility.yul\":3639:3968   */\n      swap3\n      swap2\n      pop\n      pop\n      jump\t// out\n        /* \"#utility.yul\":3974:4116   */\n    tag_200:\n        /* \"#utility.yul\":4077:4109   */\n      tag_202\n        /* \"#utility.yul\":4103:4108   */\n      dup2\n        /* \"#utility.yul\":4077:4109   */\n      tag_203\n      jump\t// in\n    tag_202:\n        /* \"#utility.yul\":4072:4075   */\n      dup3\n        /* \"#utility.yul\":4065:4110   */\n      mstore\n        /* \"#utility.yul\":3974:4116   */\n      pop\n      pop\n      jump\t// out\n        /* \"#utility.yul\":4122:4231   */\n    tag_204:\n        /* \"#utility.yul\":4203:4224   */\n      tag_206\n        /* \"#utility.yul\":4218:4223   */\n      dup2\n        /* \"#utility.yul\":4203:4224   */\n      tag_207\n      jump\t// in\n    tag_206:\n        /* \"#utility.yul\":4198:4201   */\n      dup3\n        /* \"#utility.yul\":4191:4225   */\n      mstore\n        /* \"#utility.yul\":4122:4231   */\n      pop\n      pop\n      jump\t// out\n        /* \"#utility.yul\":4237:4601   */\n    tag_208:\n        /* \"#utility.yul\":4325:4328   */\n      0x00\n        /* \"#utility.yul\":4353:4392   */\n      tag_210\n        /* \"#utility.yul\":4386:4391   */\n      dup3\n        /* \"#utility.yul\":4353:4392   */\n      tag_211\n      jump\t// in\n    tag_210:\n        /* \"#utility.yul\":4408:4479   */\n      tag_212\n        /* \"#utility.yul\":4472:4478   */\n      dup2\n        /* \"#utility.yul\":4467:4470   */\n      dup6\n        /* \"#utility.yul\":4408:4479   */\n      tag_213\n      jump\t// in\n    tag_212:\n        /* \"#utility.yul\":4401:4479   */\n      swap4\n      pop\n        /* \"#utility.yul\":4488:4540   */\n      tag_214\n        /* \"#utility.yul\":4533:4539   */\n      dup2\n        /* \"#utility.yul\":4528:4531   */\n      dup6\n        /* \"#utility.yul\":4521:4525   */\n      0x20\n        /* \"#utility.yul\":4514:4519   */\n      dup7\n        /* \"#utility.yul\":4510:4526   */\n      add\n        /* \"#utility.yul\":4488:4540   */\n      tag_215\n      jump\t// in\n    tag_214:\n        /* \"#utility.yul\":4565:4594   */\n      tag_216\n        /* \"#utility.yul\":4587:4593   */\n      dup2\n        /* \"#utility.yul\":4565:4594   */\n      tag_217\n      jump\t// in\n    tag_216:\n        /* \"#utility.yul\":4560:4563   */\n      dup5\n        /* \"#utility.yul\":4556:4595   */\n      add\n        /* \"#utility.yul\":4549:4595   */\n      swap2\n      pop\n        /* \"#utility.yul\":4329:4601   */\n      pop\n        /* \"#utility.yul\":4237:4601   */\n      swap3\n      swap2\n      pop\n      pop\n      jump\t// out\n        /* \"#utility.yul\":4607:4973   */\n    tag_218:\n        /* \"#utility.yul\":4749:4752   */\n      0x00\n        /* \"#utility.yul\":4770:4837   */\n      tag_220\n        /* \"#utility.yul\":4834:4836   */\n      0x36\n        /* \"#utility.yul\":4829:4832   */\n      dup4\n        /* \"#utility.yul\":4770:4837   */\n      tag_213\n      jump\t// in\n    tag_220:\n        /* \"#utility.yul\":4763:4837   */\n      swap2\n      pop\n        /* \"#utility.yul\":4846:4939   */\n      tag_221\n        /* \"#utility.yul\":4935:4938   */\n      dup3\n        /* \"#utility.yul\":4846:4939   */\n      tag_222\n      jump\t// in\n    tag_221:\n        /* \"#utility.yul\":4964:4966   */\n      0x40\n        /* \"#utility.yul\":4959:4962   */\n      dup3\n        /* \"#utility.yul\":4955:4967   */\n      add\n        /* \"#utility.yul\":4948:4967   */\n      swap1\n      pop\n        /* \"#utility.yul\":4607:4973   */\n      swap2\n      swap1\n      pop\n      jump\t// out\n        /* \"#utility.yul\":4979:5345   */\n    tag_223:\n        /* \"#utility.yul\":5121:5124   */\n      0x00\n        /* \"#utility.yul\":5142:5209   */\n      tag_225\n        /* \"#utility.yul\":5206:5208   */\n      0x35\n        /* \"#utility.yul\":5201:5204   */\n      dup4\n        /* \"#utility.yul\":5142:5209   */\n      tag_213\n      jump\t// in\n    tag_225:\n        /* \"#utility.yul\":5135:5209   */\n      swap2\n      pop\n        /* \"#utility.yul\":5218:5311   */\n      tag_226\n        /* \"#utility.yul\":5307:5310   */\n      dup3\n        /* \"#utility.yul\":5218:5311   */\n      tag_227\n      jump\t// in\n    tag_226:\n        /* \"#utility.yul\":5336:5338   */\n      0x40\n        /* \"#utility.yul\":5331:5334   */\n      dup3\n        /* \"#utility.yul\":5327:5339   */\n      add\n        /* \"#utility.yul\":5320:5339   */\n      swap1\n      pop\n        /* \"#utility.yul\":4979:5345   */\n      swap2\n      swap1\n      pop\n      jump\t// out\n        /* \"#utility.yul\":5351:5717   */\n    tag_228:\n        /* \"#utility.yul\":5493:5496   */\n      0x00\n        /* \"#utility.yul\":5514:5581   */\n      tag_230\n        /* \"#utility.yul\":5578:5580   */\n      0x24\n        /* \"#utility.yul\":5573:5576   */\n      dup4\n        /* \"#utility.yul\":5514:5581   */\n      tag_213\n      jump\t// in\n    tag_230:\n        /* \"#utility.yul\":5507:5581   */\n      swap2\n      pop\n        /* \"#utility.yul\":5590:5683   */\n      tag_231\n        /* \"#utility.yul\":5679:5682   */\n      dup3\n        /* \"#utility.yul\":5590:5683   */\n      tag_232\n      jump\t// in\n    tag_231:\n        /* \"#utility.yul\":5708:5710   */\n      0x40\n        /* \"#utility.yul\":5703:5706   */\n      dup3\n        /* \"#utility.yul\":5699:5711   */\n      add\n        /* \"#utility.yul\":5692:5711   */\n      swap1\n      pop\n        /* \"#utility.yul\":5351:5717   */\n      swap2\n      swap1\n      pop\n      jump\t// out\n        /* \"#utility.yul\":5723:6089   */\n    tag_233:\n        /* \"#utility.yul\":5865:5868   */\n      0x00\n        /* \"#utility.yul\":5886:5953   */\n      tag_235\n        /* \"#utility.yul\":5950:5952   */\n      0x3a\n        /* \"#utility.yul\":5945:5948   */\n      dup4\n        /* \"#utility.yul\":5886:5953   */\n      tag_213\n      jump\t// in\n    tag_235:\n        /* \"#utility.yul\":5879:5953   */\n      swap2\n      pop\n        /* \"#utility.yul\":5962:6055   */\n      tag_236\n        /* \"#utility.yul\":6051:6054   */\n      dup3\n        /* \"#utility.yul\":5962:6055   */\n      tag_237\n      jump\t// in\n    tag_236:\n        /* \"#utility.yul\":6080:6082   */\n      0x40\n        /* \"#utility.yul\":6075:6078   */\n      dup3\n        /* \"#utility.yul\":6071:6083   */\n      add\n        /* \"#utility.yul\":6064:6083   */\n      swap1\n      pop\n        /* \"#utility.yul\":5723:6089   */\n      swap2\n      swap1\n      pop\n      jump\t// out\n        /* \"#utility.yul\":6095:6459   */\n    tag_238:\n        /* \"#utility.yul\":6237:6240   */\n      0x00\n        /* \"#utility.yul\":6258:6324   */\n      tag_240\n        /* \"#utility.yul\":6322:6323   */\n      0x00\n        /* \"#utility.yul\":6317:6320   */\n      dup4\n        /* \"#utility.yul\":6258:6324   */\n      tag_213\n      jump\t// in\n    tag_240:\n        /* \"#utility.yul\":6251:6324   */\n      swap2\n      pop\n        /* \"#utility.yul\":6333:6426   */\n      tag_241\n        /* \"#utility.yul\":6422:6425   */\n      dup3\n        /* \"#utility.yul\":6333:6426   */\n      tag_242\n      jump\t// in\n    tag_241:\n        /* \"#utility.yul\":6451:6452   */\n      0x00\n        /* \"#utility.yul\":6446:6449   */\n      dup3\n        /* \"#utility.yul\":6442:6453   */\n      add\n        /* \"#utility.yul\":6435:6453   */\n      swap1\n      pop\n        /* \"#utility.yul\":6095:6459   */\n      swap2\n      swap1\n      pop\n      jump\t// out\n        /* \"#utility.yul\":6465:6583   */\n    tag_243:\n        /* \"#utility.yul\":6552:6576   */\n      tag_245\n        /* \"#utility.yul\":6570:6575   */\n      dup2\n        /* \"#utility.yul\":6552:6576   */\n      tag_246\n      jump\t// in\n    tag_245:\n        /* \"#utility.yul\":6547:6550   */\n      dup3\n        /* \"#utility.yul\":6540:6577   */\n      mstore\n        /* \"#utility.yul\":6465:6583   */\n      pop\n      pop\n      jump\t// out\n        /* \"#utility.yul\":6589:7566   */\n    tag_31:\n        /* \"#utility.yul\":6872:6876   */\n      0x00\n        /* \"#utility.yul\":6910:6913   */\n      0xc0\n        /* \"#utility.yul\":6899:6908   */\n      dup3\n        /* \"#utility.yul\":6895:6914   */\n      add\n        /* \"#utility.yul\":6887:6914   */\n      swap1\n      pop\n        /* \"#utility.yul\":6924:7011   */\n      tag_248\n        /* \"#utility.yul\":7008:7009   */\n      0x00\n        /* \"#utility.yul\":6997:7006   */\n      dup4\n        /* \"#utility.yul\":6993:7010   */\n      add\n        /* \"#utility.yul\":6984:6990   */\n      dup10\n        /* \"#utility.yul\":6924:7011   */\n      tag_200\n      jump\t// in\n    tag_248:\n        /* \"#utility.yul\":7058:7067   */\n      dup2\n        /* \"#utility.yul\":7052:7056   */\n      dup2\n        /* \"#utility.yul\":7048:7068   */\n      sub\n        /* \"#utility.yul\":7043:7045   */\n      0x20\n        /* \"#utility.yul\":7032:7041   */\n      dup4\n        /* \"#utility.yul\":7028:7046   */\n      add\n        /* \"#utility.yul\":7021:7069   */\n      mstore\n        /* \"#utility.yul\":7086:7164   */\n      tag_249\n        /* \"#utility.yul\":7159:7163   */\n      dup2\n        /* \"#utility.yul\":7150:7156   */\n      dup9\n        /* \"#utility.yul\":7086:7164   */\n      tag_208\n      jump\t// in\n    tag_249:\n        /* \"#utility.yul\":7078:7164   */\n      swap1\n      pop\n        /* \"#utility.yul\":7211:7220   */\n      dup2\n        /* \"#utility.yul\":7205:7209   */\n      dup2\n        /* \"#utility.yul\":7201:7221   */\n      sub\n        /* \"#utility.yul\":7196:7198   */\n      0x40\n        /* \"#utility.yul\":7185:7194   */\n      dup4\n        /* \"#utility.yul\":7181:7199   */\n      add\n        /* \"#utility.yul\":7174:7222   */\n      mstore\n        /* \"#utility.yul\":7239:7317   */\n      tag_250\n        /* \"#utility.yul\":7312:7316   */\n      dup2\n        /* \"#utility.yul\":7303:7309   */\n      dup8\n        /* \"#utility.yul\":7239:7317   */\n      tag_208\n      jump\t// in\n    tag_250:\n        /* \"#utility.yul\":7231:7317   */\n      swap1\n      pop\n        /* \"#utility.yul\":7327:7399   */\n      tag_251\n        /* \"#utility.yul\":7395:7397   */\n      0x60\n        /* \"#utility.yul\":7384:7393   */\n      dup4\n        /* \"#utility.yul\":7380:7398   */\n      add\n        /* \"#utility.yul\":7371:7377   */\n      dup7\n        /* \"#utility.yul\":7327:7399   */\n      tag_243\n      jump\t// in\n    tag_251:\n        /* \"#utility.yul\":7409:7482   */\n      tag_252\n        /* \"#utility.yul\":7477:7480   */\n      0x80\n        /* \"#utility.yul\":7466:7475   */\n      dup4\n        /* \"#utility.yul\":7462:7481   */\n      add\n        /* \"#utility.yul\":7453:7459   */\n      dup6\n        /* \"#utility.yul\":7409:7482   */\n      tag_243\n      jump\t// in\n    tag_252:\n        /* \"#utility.yul\":7492:7559   */\n      tag_253\n        /* \"#utility.yul\":7554:7557   */\n      0xa0\n        /* \"#utility.yul\":7543:7552   */\n      dup4\n        /* \"#utility.yul\":7539:7558   */\n      add\n        /* \"#utility.yul\":7530:7536   */\n      dup5\n        /* \"#utility.yul\":7492:7559   */\n      tag_204\n      jump\t// in\n    tag_253:\n        /* \"#utility.yul\":6589:7566   */\n      swap8\n      swap7\n      pop\n      pop\n      pop\n      pop\n      pop\n      pop\n      pop\n      jump\t// out\n        /* \"#utility.yul\":7572:7782   */\n    tag_19:\n        /* \"#utility.yul\":7659:7663   */\n      0x00\n        /* \"#utility.yul\":7697:7699   */\n      0x20\n        /* \"#utility.yul\":7686:7695   */\n      dup3\n        /* \"#utility.yul\":7682:7700   */\n      add\n        /* \"#utility.yul\":7674:7700   */\n      swap1\n      pop\n        /* \"#utility.yul\":7710:7775   */\n      tag_255\n        /* \"#utility.yul\":7772:7773   */\n      0x00\n        /* \"#utility.yul\":7761:7770   */\n      dup4\n        /* \"#utility.yul\":7757:7774   */\n      add\n        /* \"#utility.yul\":7748:7754   */\n      dup5\n        /* \"#utility.yul\":7710:7775   */\n      tag_204\n      jump\t// in\n    tag_255:\n        /* \"#utility.yul\":7572:7782   */\n      swap3\n      swap2\n      pop\n      pop\n      jump\t// out\n        /* \"#utility.yul\":7788:8207   */\n    tag_99:\n        /* \"#utility.yul\":7954:7958   */\n      0x00\n        /* \"#utility.yul\":7992:7994   */\n      0x20\n        /* \"#utility.yul\":7981:7990   */\n      dup3\n        /* \"#utility.yul\":7977:7995   */\n      add\n        /* \"#utility.yul\":7969:7995   */\n      swap1\n      pop\n        /* \"#utility.yul\":8041:8050   */\n      dup2\n        /* \"#utility.yul\":8035:8039   */\n      dup2\n        /* \"#utility.yul\":8031:8051   */\n      sub\n        /* \"#utility.yul\":8027:8028   */\n      0x00\n        /* \"#utility.yul\":8016:8025   */\n      dup4\n        /* \"#utility.yul\":8012:8029   */\n      add\n        /* \"#utility.yul\":8005:8052   */\n      mstore\n        /* \"#utility.yul\":8069:8200   */\n      tag_257\n        /* \"#utility.yul\":8195:8199   */\n      dup2\n        /* \"#utility.yul\":8069:8200   */\n      tag_218\n      jump\t// in\n    tag_257:\n        /* \"#utility.yul\":8061:8200   */\n      swap1\n      pop\n        /* \"#utility.yul\":7788:8207   */\n      swap2\n      swap1\n      pop\n      jump\t// out\n        /* \"#utility.yul\":8213:8632   */\n    tag_93:\n        /* \"#utility.yul\":8379:8383   */\n      0x00\n        /* \"#utility.yul\":8417:8419   */\n      0x20\n        /* \"#utility.yul\":8406:8415   */\n      dup3\n        /* \"#utility.yul\":8402:8420   */\n      add\n        /* \"#utility.yul\":8394:8420   */\n      swap1\n      pop\n        /* \"#utility.yul\":8466:8475   */\n      dup2\n        /* \"#utility.yul\":8460:8464   */\n      dup2\n        /* \"#utility.yul\":8456:8476   */\n      sub\n        /* \"#utility.yul\":8452:8453   */\n      0x00\n        /* \"#utility.yul\":8441:8450   */\n      dup4\n        /* \"#utility.yul\":8437:8454   */\n      add\n        /* \"#utility.yul\":8430:8477   */\n      mstore\n        /* \"#utility.yul\":8494:8625   */\n      tag_259\n        /* \"#utility.yul\":8620:8624   */\n      dup2\n        /* \"#utility.yul\":8494:8625   */\n      tag_223\n      jump\t// in\n    tag_259:\n        /* \"#utility.yul\":8486:8625   */\n      swap1\n      pop\n        /* \"#utility.yul\":8213:8632   */\n      swap2\n      swap1\n      pop\n      jump\t// out\n        /* \"#utility.yul\":8638:9057   */\n    tag_42:\n        /* \"#utility.yul\":8804:8808   */\n      0x00\n        /* \"#utility.yul\":8842:8844   */\n      0x20\n        /* \"#utility.yul\":8831:8840   */\n      dup3\n        /* \"#utility.yul\":8827:8845   */\n      add\n        /* \"#utility.yul\":8819:8845   */\n      swap1\n      pop\n        /* \"#utility.yul\":8891:8900   */\n      dup2\n        /* \"#utility.yul\":8885:8889   */\n      dup2\n        /* \"#utility.yul\":8881:8901   */\n      sub\n        /* \"#utility.yul\":8877:8878   */\n      0x00\n        /* \"#utility.yul\":8866:8875   */\n      dup4\n        /* \"#utility.yul\":8862:8879   */\n      add\n        /* \"#utility.yul\":8855:8902   */\n      mstore\n        /* \"#utility.yul\":8919:9050   */\n      tag_261\n        /* \"#utility.yul\":9045:9049   */\n      dup2\n        /* \"#utility.yul\":8919:9050   */\n      tag_228\n      jump\t// in\n    tag_261:\n        /* \"#utility.yul\":8911:9050   */\n      swap1\n      pop\n        /* \"#utility.yul\":8638:9057   */\n      swap2\n      swap1\n      pop\n      jump\t// out\n        /* \"#utility.yul\":9063:9482   */\n    tag_89:\n        /* \"#utility.yul\":9229:9233   */\n      0x00\n        /* \"#utility.yul\":9267:9269   */\n      0x20\n        /* \"#utility.yul\":9256:9265   */\n      dup3\n        /* \"#utility.yul\":9252:9270   */\n      add\n        /* \"#utility.yul\":9244:9270   */\n      swap1\n      pop\n        /* \"#utility.yul\":9316:9325   */\n      dup2\n        /* \"#utility.yul\":9310:9314   */\n      dup2\n        /* \"#utility.yul\":9306:9326   */\n      sub\n        /* \"#utility.yul\":9302:9303   */\n      0x00\n        /* \"#utility.yul\":9291:9300   */\n      dup4\n        /* \"#utility.yul\":9287:9304   */\n      add\n        /* \"#utility.yul\":9280:9327   */\n      mstore\n        /* \"#utility.yul\":9344:9475   */\n      tag_263\n        /* \"#utility.yul\":9470:9474   */\n      dup2\n        /* \"#utility.yul\":9344:9475   */\n      tag_233\n      jump\t// in\n    tag_263:\n        /* \"#utility.yul\":9336:9475   */\n      swap1\n      pop\n        /* \"#utility.yul\":9063:9482   */\n      swap2\n      swap1\n      pop\n      jump\t// out\n        /* \"#utility.yul\":9488:9907   */\n    tag_57:\n        /* \"#utility.yul\":9654:9658   */\n      0x00\n        /* \"#utility.yul\":9692:9694   */\n      0x20\n        /* \"#utility.yul\":9681:9690   */\n      dup3\n        /* \"#utility.yul\":9677:9695   */\n      add\n        /* \"#utility.yul\":9669:9695   */\n      swap1\n      pop\n        /* \"#utility.yul\":9741:9750   */\n      dup2\n        /* \"#utility.yul\":9735:9739   */\n      dup2\n        /* \"#utility.yul\":9731:9751   */\n      sub\n        /* \"#utility.yul\":9727:9728   */\n      0x00\n        /* \"#utility.yul\":9716:9725   */\n      dup4\n        /* \"#utility.yul\":9712:9729   */\n      add\n        /* \"#utility.yul\":9705:9752   */\n      mstore\n        /* \"#utility.yul\":9769:9900   */\n      tag_265\n        /* \"#utility.yul\":9895:9899   */\n      dup2\n        /* \"#utility.yul\":9769:9900   */\n      tag_238\n      jump\t// in\n    tag_265:\n        /* \"#utility.yul\":9761:9900   */\n      swap1\n      pop\n        /* \"#utility.yul\":9488:9907   */\n      swap2\n      swap1\n      pop\n      jump\t// out\n        /* \"#utility.yul\":9913:10135   */\n    tag_24:\n        /* \"#utility.yul\":10006:10010   */\n      0x00\n        /* \"#utility.yul\":10044:10046   */\n      0x20\n        /* \"#utility.yul\":10033:10042   */\n      dup3\n        /* \"#utility.yul\":10029:10047   */\n      add\n        /* \"#utility.yul\":10021:10047   */\n      swap1\n      pop\n        /* \"#utility.yul\":10057:10128   */\n      tag_267\n        /* \"#utility.yul\":10125:10126   */\n      0x00\n        /* \"#utility.yul\":10114:10123   */\n      dup4\n        /* \"#utility.yul\":10110:10127   */\n      add\n        /* \"#utility.yul\":10101:10107   */\n      dup5\n        /* \"#utility.yul\":10057:10128   */\n      tag_243\n      jump\t// in\n    tag_267:\n        /* \"#utility.yul\":9913:10135   */\n      swap3\n      swap2\n      pop\n      pop\n      jump\t// out\n        /* \"#utility.yul\":10141:10270   */\n    tag_144:\n        /* \"#utility.yul\":10175:10181   */\n      0x00\n        /* \"#utility.yul\":10202:10222   */\n      tag_269\n      tag_270\n      jump\t// in\n    tag_269:\n        /* \"#utility.yul\":10192:10222   */\n      swap1\n      pop\n        /* \"#utility.yul\":10231:10264   */\n      tag_271\n        /* \"#utility.yul\":10259:10263   */\n      dup3\n        /* \"#utility.yul\":10251:10257   */\n      dup3\n        /* \"#utility.yul\":10231:10264   */\n      tag_272\n      jump\t// in\n    tag_271:\n        /* \"#utility.yul\":10141:10270   */\n      swap2\n      swap1\n      pop\n      jump\t// out\n        /* \"#utility.yul\":10276:10351   */\n    tag_270:\n        /* \"#utility.yul\":10309:10315   */\n      0x00\n        /* \"#utility.yul\":10342:10344   */\n      0x40\n        /* \"#utility.yul\":10336:10345   */\n      mload\n        /* \"#utility.yul\":10326:10345   */\n      swap1\n      pop\n        /* \"#utility.yul\":10276:10351   */\n      swap1\n      jump\t// out\n        /* \"#utility.yul\":10357:10665   */\n    tag_143:\n        /* \"#utility.yul\":10419:10423   */\n      0x00\n        /* \"#utility.yul\":10509:10527   */\n      0xffffffffffffffff\n        /* \"#utility.yul\":10501:10507   */\n      dup3\n        /* \"#utility.yul\":10498:10528   */\n      gt\n        /* \"#utility.yul\":10495:10551   */\n      iszero\n      tag_275\n      jumpi\n        /* \"#utility.yul\":10531:10549   */\n      tag_276\n      tag_277\n      jump\t// in\n    tag_276:\n        /* \"#utility.yul\":10495:10551   */\n    tag_275:\n        /* \"#utility.yul\":10569:10598   */\n      tag_278\n        /* \"#utility.yul\":10591:10597   */\n      dup3\n        /* \"#utility.yul\":10569:10598   */\n      tag_217\n      jump\t// in\n    tag_278:\n        /* \"#utility.yul\":10561:10598   */\n      swap1\n      pop\n        /* \"#utility.yul\":10653:10657   */\n      0x20\n        /* \"#utility.yul\":10647:10651   */\n      dup2\n        /* \"#utility.yul\":10643:10658   */\n      add\n        /* \"#utility.yul\":10635:10658   */\n      swap1\n      pop\n        /* \"#utility.yul\":10357:10665   */\n      swap2\n      swap1\n      pop\n      jump\t// out\n        /* \"#utility.yul\":10671:10770   */\n    tag_211:\n        /* \"#utility.yul\":10723:10729   */\n      0x00\n        /* \"#utility.yul\":10757:10762   */\n      dup2\n        /* \"#utility.yul\":10751:10763   */\n      mload\n        /* \"#utility.yul\":10741:10763   */\n      swap1\n      pop\n        /* \"#utility.yul\":10671:10770   */\n      swap2\n      swap1\n      pop\n      jump\t// out\n        /* \"#utility.yul\":10776:10945   */\n    tag_213:\n        /* \"#utility.yul\":10860:10871   */\n      0x00\n        /* \"#utility.yul\":10894:10900   */\n      dup3\n        /* \"#utility.yul\":10889:10892   */\n      dup3\n        /* \"#utility.yul\":10882:10901   */\n      mstore\n        /* \"#utility.yul\":10934:10938   */\n      0x20\n        /* \"#utility.yul\":10929:10932   */\n      dup3\n        /* \"#utility.yul\":10925:10939   */\n      add\n        /* \"#utility.yul\":10910:10939   */\n      swap1\n      pop\n        /* \"#utility.yul\":10776:10945   */\n      swap3\n      swap2\n      pop\n      pop\n      jump\t// out\n        /* \"#utility.yul\":10951:11256   */\n    tag_127:\n        /* \"#utility.yul\":10991:10994   */\n      0x00\n        /* \"#utility.yul\":11010:11030   */\n      tag_282\n        /* \"#utility.yul\":11028:11029   */\n      dup3\n        /* \"#utility.yul\":11010:11030   */\n      tag_246\n      jump\t// in\n    tag_282:\n        /* \"#utility.yul\":11005:11030   */\n      swap2\n      pop\n        /* \"#utility.yul\":11044:11064   */\n      tag_283\n        /* \"#utility.yul\":11062:11063   */\n      dup4\n        /* \"#utility.yul\":11044:11064   */\n      tag_246\n      jump\t// in\n    tag_283:\n        /* \"#utility.yul\":11039:11064   */\n      swap3\n      pop\n        /* \"#utility.yul\":11198:11199   */\n      dup3\n        /* \"#utility.yul\":11130:11196   */\n      0xffffffffffffffffffffffffffffffffffffffffffffffffffffffffffffffff\n        /* \"#utility.yul\":11126:11200   */\n      sub\n        /* \"#utility.yul\":11123:11124   */\n      dup3\n        /* \"#utility.yul\":11120:11201   */\n      gt\n        /* \"#utility.yul\":11117:11224   */\n      iszero\n      tag_284\n      jumpi\n        /* \"#utility.yul\":11204:11222   */\n      tag_285\n      tag_286\n      jump\t// in\n    tag_285:\n        /* \"#utility.yul\":11117:11224   */\n    tag_284:\n        /* \"#utility.yul\":11248:11249   */\n      dup3\n        /* \"#utility.yul\":11245:11246   */\n      dup3\n        /* \"#utility.yul\":11241:11250   */\n      add\n        /* \"#utility.yul\":11234:11250   */\n      swap1\n      pop\n        /* \"#utility.yul\":10951:11256   */\n      swap3\n      swap2\n      pop\n      pop\n      jump\t// out\n        /* \"#utility.yul\":11262:11453   */\n    tag_109:\n        /* \"#utility.yul\":11302:11306   */\n      0x00\n        /* \"#utility.yul\":11322:11342   */\n      tag_288\n        /* \"#utility.yul\":11340:11341   */\n      dup3\n        /* \"#utility.yul\":11322:11342   */\n      tag_246\n      jump\t// in\n    tag_288:\n        /* \"#utility.yul\":11317:11342   */\n      swap2\n      pop\n        /* \"#utility.yul\":11356:11376   */\n      tag_289\n        /* \"#utility.yul\":11374:11375   */\n      dup4\n        /* \"#utility.yul\":11356:11376   */\n      tag_246\n      jump\t// in\n    tag_289:\n        /* \"#utility.yul\":11351:11376   */\n      swap3\n      pop\n        /* \"#utility.yul\":11395:11396   */\n      dup3\n        /* \"#utility.yul\":11392:11393   */\n      dup3\n        /* \"#utility.yul\":11389:11397   */\n      lt\n        /* \"#utility.yul\":11386:11420   */\n      iszero\n      tag_290\n      jumpi\n        /* \"#utility.yul\":11400:11418   */\n      tag_291\n      tag_286\n      jump\t// in\n    tag_291:\n        /* \"#utility.yul\":11386:11420   */\n    tag_290:\n        /* \"#utility.yul\":11445:11446   */\n      dup3\n        /* \"#utility.yul\":11442:11443   */\n      dup3\n        /* \"#utility.yul\":11438:11447   */\n      sub\n        /* \"#utility.yul\":11430:11447   */\n      swap1\n      pop\n        /* \"#utility.yul\":11262:11453   */\n      swap3\n      swap2\n      pop\n      pop\n      jump\t// out\n        /* \"#utility.yul\":11459:11555   */\n    tag_292:\n        /* \"#utility.yul\":11496:11503   */\n      0x00\n        /* \"#utility.yul\":11525:11549   */\n      tag_294\n        /* \"#utility.yul\":11543:11548   */\n      dup3\n        /* \"#utility.yul\":11525:11549   */\n      tag_295\n      jump\t// in\n    tag_294:\n        /* \"#utility.yul\":11514:11549   */\n      swap1\n      pop\n        /* \"#utility.yul\":11459:11555   */\n      swap2\n      swap1\n      pop\n      jump\t// out\n        /* \"#utility.yul\":11561:11665   */\n    tag_203:\n        /* \"#utility.yul\":11606:11613   */\n      0x00\n        /* \"#utility.yul\":11635:11659   */\n      tag_297\n        /* \"#utility.yul\":11653:11658   */\n      dup3\n        /* \"#utility.yul\":11635:11659   */\n      tag_295\n      jump\t// in\n    tag_297:\n        /* \"#utility.yul\":11624:11659   */\n      swap1\n      pop\n        /* \"#utility.yul\":11561:11665   */\n      swap2\n      swap1\n      pop\n      jump\t// out\n        /* \"#utility.yul\":11671:11761   */\n    tag_207:\n        /* \"#utility.yul\":11705:11712   */\n      0x00\n        /* \"#utility.yul\":11748:11753   */\n      dup2\n        /* \"#utility.yul\":11741:11754   */\n      iszero\n        /* \"#utility.yul\":11734:11755   */\n      iszero\n        /* \"#utility.yul\":11723:11755   */\n      swap1\n      pop\n        /* \"#utility.yul\":11671:11761   */\n      swap2\n      swap1\n      pop\n      jump\t// out\n        /* \"#utility.yul\":11767:11893   */\n    tag_295:\n        /* \"#utility.yul\":11804:11811   */\n      0x00\n        /* \"#utility.yul\":11844:11886   */\n      0xffffffffffffffffffffffffffffffffffffffff\n        /* \"#utility.yul\":11837:11842   */\n      dup3\n        /* \"#utility.yul\":11833:11887   */\n      and\n        /* \"#utility.yul\":11822:11887   */\n      swap1\n      pop\n        /* \"#utility.yul\":11767:11893   */\n      swap2\n      swap1\n      pop\n      jump\t// out\n        /* \"#utility.yul\":11899:11976   */\n    tag_246:\n        /* \"#utility.yul\":11936:11943   */\n      0x00\n        /* \"#utility.yul\":11965:11970   */\n      dup2\n        /* \"#utility.yul\":11954:11970   */\n      swap1\n      pop\n        /* \"#utility.yul\":11899:11976   */\n      swap2\n      swap1\n      pop\n      jump\t// out\n        /* \"#utility.yul\":11982:12136   */\n    tag_149:\n        /* \"#utility.yul\":12066:12072   */\n      dup3\n        /* \"#utility.yul\":12061:12064   */\n      dup2\n        /* \"#utility.yul\":12056:12059   */\n      dup4\n        /* \"#utility.yul\":12043:12073   */\n      calldatacopy\n        /* \"#utility.yul\":12128:12129   */\n      0x00\n        /* \"#utility.yul\":12119:12125   */\n      dup4\n        /* \"#utility.yul\":12114:12117   */\n      dup4\n        /* \"#utility.yul\":12110:12126   */\n      add\n        /* \"#utility.yul\":12103:12130   */\n      mstore\n        /* \"#utility.yul\":11982:12136   */\n      pop\n      pop\n      pop\n      jump\t// out\n        /* \"#utility.yul\":12142:12449   */\n    tag_215:\n        /* \"#utility.yul\":12210:12211   */\n      0x00\n        /* \"#utility.yul\":12220:12333   */\n    tag_303:\n        /* \"#utility.yul\":12234:12240   */\n      dup4\n        /* \"#utility.yul\":12231:12232   */\n      dup2\n        /* \"#utility.yul\":12228:12241   */\n      lt\n        /* \"#utility.yul\":12220:12333   */\n      iszero\n      tag_305\n      jumpi\n        /* \"#utility.yul\":12319:12320   */\n      dup1\n        /* \"#utility.yul\":12314:12317   */\n      dup3\n        /* \"#utility.yul\":12310:12321   */\n      add\n        /* \"#utility.yul\":12304:12322   */\n      mload\n        /* \"#utility.yul\":12300:12301   */\n      dup2\n        /* \"#utility.yul\":12295:12298   */\n      dup5\n        /* \"#utility.yul\":12291:12302   */\n      add\n        /* \"#utility.yul\":12284:12323   */\n      mstore\n        /* \"#utility.yul\":12256:12258   */\n      0x20\n        /* \"#utility.yul\":12253:12254   */\n      dup2\n        /* \"#utility.yul\":12249:12259   */\n      add\n        /* \"#utility.yul\":12244:12259   */\n      swap1\n      pop\n        /* \"#utility.yul\":12220:12333   */\n      jump(tag_303)\n    tag_305:\n        /* \"#utility.yul\":12351:12357   */\n      dup4\n        /* \"#utility.yul\":12348:12349   */\n      dup2\n        /* \"#utility.yul\":12345:12358   */\n      gt\n        /* \"#utility.yul\":12342:12443   */\n      iszero\n      tag_306\n      jumpi\n        /* \"#utility.yul\":12431:12432   */\n      0x00\n        /* \"#utility.yul\":12422:12428   */\n      dup5\n        /* \"#utility.yul\":12417:12420   */\n      dup5\n        /* \"#utility.yul\":12413:12429   */\n      add\n        /* \"#utility.yul\":12406:12433   */\n      mstore\n        /* \"#utility.yul\":12342:12443   */\n    tag_306:\n        /* \"#utility.yul\":12191:12449   */\n      pop\n        /* \"#utility.yul\":12142:12449   */\n      pop\n      pop\n      pop\n      jump\t// out\n        /* \"#utility.yul\":12455:12775   */\n    tag_69:\n        /* \"#utility.yul\":12499:12505   */\n      0x00\n        /* \"#utility.yul\":12536:12537   */\n      0x02\n        /* \"#utility.yul\":12530:12534   */\n      dup3\n        /* \"#utility.yul\":12526:12538   */\n      div\n        /* \"#utility.yul\":12516:12538   */\n      swap1\n      pop\n        /* \"#utility.yul\":12583:12584   */\n      0x01\n        /* \"#utility.yul\":12577:12581   */\n      dup3\n        /* \"#utility.yul\":12573:12585   */\n      and\n        /* \"#utility.yul\":12604:12622   */\n      dup1\n        /* \"#utility.yul\":12594:12675   */\n      tag_308\n      jumpi\n        /* \"#utility.yul\":12660:12664   */\n      0x7f\n        /* \"#utility.yul\":12652:12658   */\n      dup3\n        /* \"#utility.yul\":12648:12665   */\n      and\n        /* \"#utility.yul\":12638:12665   */\n      swap2\n      pop\n        /* \"#utility.yul\":12594:12675   */\n    tag_308:\n        /* \"#utility.yul\":12722:12724   */\n      0x20\n        /* \"#utility.yul\":12714:12720   */\n      dup3\n        /* \"#utility.yul\":12711:12725   */\n      lt\n        /* \"#utility.yul\":12691:12709   */\n      dup2\n        /* \"#utility.yul\":12688:12726   */\n      eq\n        /* \"#utility.yul\":12685:12769   */\n      iszero\n      tag_309\n      jumpi\n        /* \"#utility.yul\":12741:12759   */\n      tag_310\n      tag_311\n      jump\t// in\n    tag_310:\n        /* \"#utility.yul\":12685:12769   */\n    tag_309:\n        /* \"#utility.yul\":12506:12775   */\n      pop\n        /* \"#utility.yul\":12455:12775   */\n      swap2\n      swap1\n      pop\n      jump\t// out\n        /* \"#utility.yul\":12781:13062   */\n    tag_272:\n        /* \"#utility.yul\":12864:12891   */\n      tag_313\n        /* \"#utility.yul\":12886:12890   */\n      dup3\n        /* \"#utility.yul\":12864:12891   */\n      tag_217\n      jump\t// in\n    tag_313:\n        /* \"#utility.yul\":12856:12862   */\n      dup2\n        /* \"#utility.yul\":12852:12892   */\n      add\n        /* \"#utility.yul\":12994:13000   */\n      dup2\n        /* \"#utility.yul\":12982:12992   */\n      dup2\n        /* \"#utility.yul\":12979:13001   */\n      lt\n        /* \"#utility.yul\":12958:12976   */\n      0xffffffffffffffff\n        /* \"#utility.yul\":12946:12956   */\n      dup3\n        /* \"#utility.yul\":12943:12977   */\n      gt\n        /* \"#utility.yul\":12940:13002   */\n      or\n        /* \"#utility.yul\":12937:13025   */\n      iszero\n      tag_314\n      jumpi\n        /* \"#utility.yul\":13005:13023   */\n      tag_315\n      tag_277\n      jump\t// in\n    tag_315:\n        /* \"#utility.yul\":12937:13025   */\n    tag_314:\n        /* \"#utility.yul\":13045:13055   */\n      dup1\n        /* \"#utility.yul\":13041:13043   */\n      0x40\n        /* \"#utility.yul\":13034:13056   */\n      mstore\n        /* \"#utility.yul\":12824:13062   */\n      pop\n        /* \"#utility.yul\":12781:13062   */\n      pop\n      pop\n      jump\t// out\n        /* \"#utility.yul\":13068:13301   */\n    tag_119:\n        /* \"#utility.yul\":13107:13110   */\n      0x00\n        /* \"#utility.yul\":13130:13154   */\n      tag_317\n        /* \"#utility.yul\":13148:13153   */\n      dup3\n        /* \"#utility.yul\":13130:13154   */\n      tag_246\n      jump\t// in\n    tag_317:\n        /* \"#utility.yul\":13121:13154   */\n      swap2\n      pop\n        /* \"#utility.yul\":13176:13242   */\n      0xffffffffffffffffffffffffffffffffffffffffffffffffffffffffffffffff\n        /* \"#utility.yul\":13169:13174   */\n      dup3\n        /* \"#utility.yul\":13166:13243   */\n      eq\n        /* \"#utility.yul\":13163:13266   */\n      iszero\n      tag_318\n      jumpi\n        /* \"#utility.yul\":13246:13264   */\n      tag_319\n      tag_286\n      jump\t// in\n    tag_319:\n        /* \"#utility.yul\":13163:13266   */\n    tag_318:\n        /* \"#utility.yul\":13293:13294   */\n      0x01\n        /* \"#utility.yul\":13286:13291   */\n      dup3\n        /* \"#utility.yul\":13282:13295   */\n      add\n        /* \"#utility.yul\":13275:13295   */\n      swap1\n      pop\n        /* \"#utility.yul\":13068:13301   */\n      swap2\n      swap1\n      pop\n      jump\t// out\n        /* \"#utility.yul\":13307:13487   */\n    tag_286:\n        /* \"#utility.yul\":13355:13432   */\n      0x4e487b7100000000000000000000000000000000000000000000000000000000\n        /* \"#utility.yul\":13352:13353   */\n      0x00\n        /* \"#utility.yul\":13345:13433   */\n      mstore\n        /* \"#utility.yul\":13452:13456   */\n      0x11\n        /* \"#utility.yul\":13449:13450   */\n      0x04\n        /* \"#utility.yul\":13442:13457   */\n      mstore\n        /* \"#utility.yul\":13476:13480   */\n      0x24\n        /* \"#utility.yul\":13473:13474   */\n      0x00\n        /* \"#utility.yul\":13466:13481   */\n      revert\n        /* \"#utility.yul\":13493:13673   */\n    tag_311:\n        /* \"#utility.yul\":13541:13618   */\n      0x4e487b7100000000000000000000000000000000000000000000000000000000\n        /* \"#utility.yul\":13538:13539   */\n      0x00\n        /* \"#utility.yul\":13531:13619   */\n      mstore\n        /* \"#utility.yul\":13638:13642   */\n      0x22\n        /* \"#utility.yul\":13635:13636   */\n      0x04\n        /* \"#utility.yul\":13628:13643   */\n      mstore\n        /* \"#utility.yul\":13662:13666   */\n      0x24\n        /* \"#utility.yul\":13659:13660   */\n      0x00\n        /* \"#utility.yul\":13652:13667   */\n      revert\n        /* \"#utility.yul\":13679:13859   */\n    tag_53:\n        /* \"#utility.yul\":13727:13804   */\n      0x4e487b7100000000000000000000000000000000000000000000000000000000\n        /* \"#utility.yul\":13724:13725   */\n      0x00\n        /* \"#utility.yul\":13717:13805   */\n      mstore\n        /* \"#utility.yul\":13824:13828   */\n      0x32\n        /* \"#utility.yul\":13821:13822   */\n      0x04\n        /* \"#utility.yul\":13814:13829   */\n      mstore\n        /* \"#utility.yul\":13848:13852   */\n      0x24\n        /* \"#utility.yul\":13845:13846   */\n      0x00\n        /* \"#utility.yul\":13838:13853   */\n      revert\n        /* \"#utility.yul\":13865:14045   */\n    tag_277:\n        /* \"#utility.yul\":13913:13990   */\n      0x4e487b7100000000000000000000000000000000000000000000000000000000\n        /* \"#utility.yul\":13910:13911   */\n      0x00\n        /* \"#utility.yul\":13903:13991   */\n      mstore\n        /* \"#utility.yul\":14010:14014   */\n      0x41\n        /* \"#utility.yul\":14007:14008   */\n      0x04\n        /* \"#utility.yul\":14000:14015   */\n      mstore\n        /* \"#utility.yul\":14034:14038   */\n      0x24\n        /* \"#utility.yul\":14031:14032   */\n      0x00\n        /* \"#utility.yul\":14024:14039   */\n      revert\n        /* \"#utility.yul\":14051:14168   */\n    tag_166:\n        /* \"#utility.yul\":14160:14161   */\n      0x00\n        /* \"#utility.yul\":14157:14158   */\n      dup1\n        /* \"#utility.yul\":14150:14162   */\n      revert\n        /* \"#utility.yul\":14174:14291   */\n    tag_147:\n        /* \"#utility.yul\":14283:14284   */\n      0x00\n        /* \"#utility.yul\":14280:14281   */\n      dup1\n        /* \"#utility.yul\":14273:14285   */\n      revert\n        /* \"#utility.yul\":14297:14414   */\n    tag_183:\n        /* \"#utility.yul\":14406:14407   */\n      0x00\n        /* \"#utility.yul\":14403:14404   */\n      dup1\n        /* \"#utility.yul\":14396:14408   */\n      revert\n        /* \"#utility.yul\":14420:14537   */\n    tag_175:\n        /* \"#utility.yul\":14529:14530   */\n      0x00\n        /* \"#utility.yul\":14526:14527   */\n      dup1\n        /* \"#utility.yul\":14519:14531   */\n      revert\n        /* \"#utility.yul\":14543:14645   */\n    tag_217:\n        /* \"#utility.yul\":14584:14590   */\n      0x00\n        /* \"#utility.yul\":14635:14637   */\n      0x1f\n        /* \"#utility.yul\":14631:14638   */\n      not\n        /* \"#utility.yul\":14626:14628   */\n      0x1f\n        /* \"#utility.yul\":14619:14624   */\n      dup4\n        /* \"#utility.yul\":14615:14629   */\n      add\n        /* \"#utility.yul\":14611:14639   */\n      and\n        /* \"#utility.yul\":14601:14639   */\n      swap1\n      pop\n        /* \"#utility.yul\":14543:14645   */\n      swap2\n      swap1\n      pop\n      jump\t// out\n        /* \"#utility.yul\":14651:14892   */\n    tag_222:\n        /* \"#utility.yul\":14791:14825   */\n      0x596f7520617265206e6f7420616c6c6f77656420746f20776974686472617721\n        /* \"#utility.yul\":14787:14788   */\n      0x00\n        /* \"#utility.yul\":14779:14785   */\n      dup3\n        /* \"#utility.yul\":14775:14789   */\n      add\n        /* \"#utility.yul\":14768:14826   */\n      mstore\n        /* \"#utility.yul\":14860:14884   */\n      0x204e6f2053756666696369656e7420416d6f756e742100000000000000000000\n        /* \"#utility.yul\":14855:14857   */\n      0x20\n        /* \"#utility.yul\":14847:14853   */\n      dup3\n        /* \"#utility.yul\":14843:14858   */\n      add\n        /* \"#utility.yul\":14836:14885   */\n      mstore\n        /* \"#utility.yul\":14651:14892   */\n      pop\n      jump\t// out\n        /* \"#utility.yul\":14898:15138   */\n    tag_227:\n        /* \"#utility.yul\":15038:15072   */\n      0x596f7520617265206e6f7420616c6c6f77656420746f20776974686472617721\n        /* \"#utility.yul\":15034:15035   */\n      0x00\n        /* \"#utility.yul\":15026:15032   */\n      dup3\n        /* \"#utility.yul\":15022:15036   */\n      add\n        /* \"#utility.yul\":15015:15073   */\n      mstore\n        /* \"#utility.yul\":15107:15130   */\n      0x2054696d6520686173206e6f7420706173736564210000000000000000000000\n        /* \"#utility.yul\":15102:15104   */\n      0x20\n        /* \"#utility.yul\":15094:15100   */\n      dup3\n        /* \"#utility.yul\":15090:15105   */\n      add\n        /* \"#utility.yul\":15083:15131   */\n      mstore\n        /* \"#utility.yul\":14898:15138   */\n      pop\n      jump\t// out\n        /* \"#utility.yul\":15144:15367   */\n    tag_232:\n        /* \"#utility.yul\":15284:15318   */\n      0x4f6e6c7920546865204f776e65722043616e20557365205468652046756e6374\n        /* \"#utility.yul\":15280:15281   */\n      0x00\n        /* \"#utility.yul\":15272:15278   */\n      dup3\n        /* \"#utility.yul\":15268:15282   */\n      add\n        /* \"#utility.yul\":15261:15319   */\n      mstore\n        /* \"#utility.yul\":15353:15359   */\n      0x696f6e2100000000000000000000000000000000000000000000000000000000\n        /* \"#utility.yul\":15348:15350   */\n      0x20\n        /* \"#utility.yul\":15340:15346   */\n      dup3\n        /* \"#utility.yul\":15336:15351   */\n      add\n        /* \"#utility.yul\":15329:15360   */\n      mstore\n        /* \"#utility.yul\":15144:15367   */\n      pop\n      jump\t// out\n        /* \"#utility.yul\":15373:15618   */\n    tag_237:\n        /* \"#utility.yul\":15513:15547   */\n      0x596f7520617265206e6f7420616c6c6f77656420746f20776974686472617721\n        /* \"#utility.yul\":15509:15510   */\n      0x00\n        /* \"#utility.yul\":15501:15507   */\n      dup3\n        /* \"#utility.yul\":15497:15511   */\n      add\n        /* \"#utility.yul\":15490:15548   */\n      mstore\n        /* \"#utility.yul\":15582:15610   */\n      0x204164647265737320446f6573204e6f74204d61746368656421000000000000\n        /* \"#utility.yul\":15577:15579   */\n      0x20\n        /* \"#utility.yul\":15569:15575   */\n      dup3\n        /* \"#utility.yul\":15565:15580   */\n      add\n        /* \"#utility.yul\":15558:15611   */\n      mstore\n        /* \"#utility.yul\":15373:15618   */\n      pop\n      jump\t// out\n        /* \"#utility.yul\":15624:15738   */\n    tag_242:\n      pop\n      jump\t// out\n        /* \"#utility.yul\":15744:15866   */\n    tag_153:\n        /* \"#utility.yul\":15817:15841   */\n      tag_335\n        /* \"#utility.yul\":15835:15840   */\n      dup2\n        /* \"#utility.yul\":15817:15841   */\n      tag_292\n      jump\t// in\n    tag_335:\n        /* \"#utility.yul\":15810:15815   */\n      dup2\n        /* \"#utility.yul\":15807:15842   */\n      eq\n        /* \"#utility.yul\":15797:15860   */\n      tag_336\n      jumpi\n        /* \"#utility.yul\":15856:15857   */\n      0x00\n        /* \"#utility.yul\":15853:15854   */\n      dup1\n        /* \"#utility.yul\":15846:15858   */\n      revert\n        /* \"#utility.yul\":15797:15860   */\n    tag_336:\n        /* \"#utility.yul\":15744:15866   */\n      pop\n      jump\t// out\n        /* \"#utility.yul\":15872:16010   */\n    tag_157:\n        /* \"#utility.yul\":15953:15985   */\n      tag_338\n        /* \"#utility.yul\":15979:15984   */\n      dup2\n        /* \"#utility.yul\":15953:15985   */\n      tag_203\n      jump\t// in\n    tag_338:\n        /* \"#utility.yul\":15946:15951   */\n      dup2\n        /* \"#utility.yul\":15943:15986   */\n      eq\n        /* \"#utility.yul\":15933:16004   */\n      tag_339\n      jumpi\n        /* \"#utility.yul\":16000:16001   */\n      0x00\n        /* \"#utility.yul\":15997:15998   */\n      dup1\n        /* \"#utility.yul\":15990:16002   */\n      revert\n        /* \"#utility.yul\":15933:16004   */\n    tag_339:\n        /* \"#utility.yul\":15872:16010   */\n      pop\n      jump\t// out\n        /* \"#utility.yul\":16016:16132   */\n    tag_161:\n        /* \"#utility.yul\":16086:16107   */\n      tag_341\n        /* \"#utility.yul\":16101:16106   */\n      dup2\n        /* \"#utility.yul\":16086:16107   */\n      tag_207\n      jump\t// in\n    tag_341:\n        /* \"#utility.yul\":16079:16084   */\n      dup2\n        /* \"#utility.yul\":16076:16108   */\n      eq\n        /* \"#utility.yul\":16066:16126   */\n      tag_342\n      jumpi\n        /* \"#utility.yul\":16122:16123   */\n      0x00\n        /* \"#utility.yul\":16119:16120   */\n      dup1\n        /* \"#utility.yul\":16112:16124   */\n      revert\n        /* \"#utility.yul\":16066:16126   */\n    tag_342:\n        /* \"#utility.yul\":16016:16132   */\n      pop\n      jump\t// out\n        /* \"#utility.yul\":16138:16260   */\n    tag_171:\n        /* \"#utility.yul\":16211:16235   */\n      tag_344\n        /* \"#utility.yul\":16229:16234   */\n      dup2\n        /* \"#utility.yul\":16211:16235   */\n      tag_246\n      jump\t// in\n    tag_344:\n        /* \"#utility.yul\":16204:16209   */\n      dup2\n        /* \"#utility.yul\":16201:16236   */\n      eq\n        /* \"#utility.yul\":16191:16254   */\n      tag_345\n      jumpi\n        /* \"#utility.yul\":16250:16251   */\n      0x00\n        /* \"#utility.yul\":16247:16248   */\n      dup1\n        /* \"#utility.yul\":16240:16252   */\n      revert\n        /* \"#utility.yul\":16191:16254   */\n    tag_345:\n        /* \"#utility.yul\":16138:16260   */\n      pop\n      jump\t// out\n\n    auxdata: 0xa264697066735822122079e053a2c5e6aa90bb2feb72a43c7dc8155ff69a2e81aa6a572bc4193e2bdd4f64736f6c63430008070033\n}\n",
				"bytecode": {
					"linkReferences": {},
					"object": "608060405234801561001057600080fd5b50336000806101000a81548173ffffffffffffffffffffffffffffffffffffffff021916908373ffffffffffffffffffffffffffffffffffffffff16021790555061131a806100606000396000f3fe6080604052600436106100555760003560e01c806331d575c51461005a5780636640c92214610083578063722713f7146100c05780637285fd3a146100eb578063f340fa011461012d578063f3fef3a314610149575b600080fd5b34801561006657600080fd5b50610081600480360381019061007c9190610a98565b610165565b005b34801561008f57600080fd5b506100aa60048036038101906100a59190610a6b565b610322565b6040516100b79190610d4e565b60405180910390f35b3480156100cc57600080fd5b506100d5610416565b6040516100e29190610e09565b60405180910390f35b3480156100f757600080fd5b50610112600480360381019061010d9190610b9d565b61041e565b60405161012496959493929190610cdf565b60405180910390f35b61014760048036038101906101429190610a6b565b6105a7565b005b610163600480360381019061015e9190610b5d565b6105b3565b005b60008054906101000a900473ffffffffffffffffffffffffffffffffffffffff1673ffffffffffffffffffffffffffffffffffffffff163373ffffffffffffffffffffffffffffffffffffffff16146101f3576040517f08c379a00000000000000000000000000000000000000000000000000000000081526004016101ea90610da9565b60405180910390fd5b60016040518060c001604052808873ffffffffffffffffffffffffffffffffffffffff168152602001878152602001868152602001858152602001848152602001831515815250908060018154018082558091505060019003906000526020600020906006020160009091909190915060008201518160000160006101000a81548173ffffffffffffffffffffffffffffffffffffffff021916908373ffffffffffffffffffffffffffffffffffffffff16021790555060208201518160010190805190602001906102c6929190610904565b5060408201518160020190805190602001906102e3929190610904565b50606082015181600301556080820151816004015560a08201518160050160006101000a81548160ff0219169083151502179055505050505050505050565b60008061032e836107f0565b905060018181548110610344576103436110c6565b5b9060005260206000209060060201600301544211610397576040517f08c379a000000000000000000000000000000000000000000000000000000000815260040161038e90610de9565b60405180910390fd5b600181815481106103ab576103aa6110c6565b5b90600052602060002090600602016003015442111561040b5760018082815481106103d9576103d86110c6565b5b906000526020600020906006020160050160006101000a81548160ff0219169083151502179055506001915050610411565b60009150505b919050565b600047905090565b6001818154811061042e57600080fd5b90600052602060002090600602016000915090508060000160009054906101000a900473ffffffffffffffffffffffffffffffffffffffff169080600101805461047790610fbc565b80601f01602080910402602001604051908101604052809291908181526020018280546104a390610fbc565b80156104f05780601f106104c5576101008083540402835291602001916104f0565b820191906000526020600020905b8154815290600101906020018083116104d357829003601f168201915b50505050509080600201805461050590610fbc565b80601f016020809104026020016040519081016040528092919081815260200182805461053190610fbc565b801561057e5780601f106105535761010080835404028352916020019161057e565b820191906000526020600020905b81548152906001019060200180831161056157829003601f168201915b5050505050908060030154908060040154908060050160009054906101000a900460ff16905086565b6105b0816108a9565b50565b60006105be836107f0565b9050600181815481106105d4576105d36110c6565b5b906000526020600020906006020160000160009054906101000a900473ffffffffffffffffffffffffffffffffffffffff1673ffffffffffffffffffffffffffffffffffffffff163373ffffffffffffffffffffffffffffffffffffffff1614610673576040517f08c379a000000000000000000000000000000000000000000000000000000000815260040161066a90610dc9565b60405180910390fd5b61067c83610322565b6106bb576040517f08c379a00000000000000000000000000000000000000000000000000000000081526004016106b290610d89565b60405180910390fd5b81600182815481106106d0576106cf6110c6565b5b9060005260206000209060060201600401541015610723576040517f08c379a000000000000000000000000000000000000000000000000000000000815260040161071a90610d69565b60405180910390fd5b60018181548110610737576107366110c6565b5b906000526020600020906006020160000160009054906101000a900473ffffffffffffffffffffffffffffffffffffffff1673ffffffffffffffffffffffffffffffffffffffff166108fc839081150290604051600060405180830381858888f193505050501580156107ae573d6000803e3d6000fd5b5081600182815481106107c4576107c36110c6565b5b906000526020600020906006020160040160008282546107e49190610eec565b92505081905550505050565b600080600090505b60018054905081101561089a578273ffffffffffffffffffffffffffffffffffffffff16600182815481106108305761082f6110c6565b5b906000526020600020906006020160000160009054906101000a900473ffffffffffffffffffffffffffffffffffffffff1673ffffffffffffffffffffffffffffffffffffffff16141561088757809150506108a4565b80806108929061101f565b9150506107f8565b5060018054905090505b919050565b60006108b4826107f0565b90506001805490508110156109005734600182815481106108d8576108d76110c6565b5b906000526020600020906006020160040160008282546108f89190610e96565b925050819055505b5050565b82805461091090610fbc565b90600052602060002090601f0160209004810192826109325760008555610979565b82601f1061094b57805160ff1916838001178555610979565b82800160010185558215610979579182015b8281111561097857825182559160200191906001019061095d565b5b509050610986919061098a565b5090565b5b808211156109a357600081600090555060010161098b565b5090565b60006109ba6109b584610e49565b610e24565b9050828152602081018484840111156109d6576109d5611129565b5b6109e1848285610f7a565b509392505050565b6000813590506109f881611288565b92915050565b600081359050610a0d8161129f565b92915050565b600081359050610a22816112b6565b92915050565b600082601f830112610a3d57610a3c611124565b5b8135610a4d8482602086016109a7565b91505092915050565b600081359050610a65816112cd565b92915050565b600060208284031215610a8157610a80611133565b5b6000610a8f848285016109e9565b91505092915050565b60008060008060008060c08789031215610ab557610ab4611133565b5b6000610ac389828a016109fe565b965050602087013567ffffffffffffffff811115610ae457610ae361112e565b5b610af089828a01610a28565b955050604087013567ffffffffffffffff811115610b1157610b1061112e565b5b610b1d89828a01610a28565b9450506060610b2e89828a01610a56565b9350506080610b3f89828a01610a56565b92505060a0610b5089828a01610a13565b9150509295509295509295565b60008060408385031215610b7457610b73611133565b5b6000610b82858286016109fe565b9250506020610b9385828601610a56565b9150509250929050565b600060208284031215610bb357610bb2611133565b5b6000610bc184828501610a56565b91505092915050565b610bd381610f32565b82525050565b610be281610f44565b82525050565b6000610bf382610e7a565b610bfd8185610e85565b9350610c0d818560208601610f89565b610c1681611138565b840191505092915050565b6000610c2e603683610e85565b9150610c3982611149565b604082019050919050565b6000610c51603583610e85565b9150610c5c82611198565b604082019050919050565b6000610c74602483610e85565b9150610c7f826111e7565b604082019050919050565b6000610c97603a83610e85565b9150610ca282611236565b604082019050919050565b6000610cba600083610e85565b9150610cc582611285565b600082019050919050565b610cd981610f70565b82525050565b600060c082019050610cf46000830189610bca565b8181036020830152610d068188610be8565b90508181036040830152610d1a8187610be8565b9050610d296060830186610cd0565b610d366080830185610cd0565b610d4360a0830184610bd9565b979650505050505050565b6000602082019050610d636000830184610bd9565b92915050565b60006020820190508181036000830152610d8281610c21565b9050919050565b60006020820190508181036000830152610da281610c44565b9050919050565b60006020820190508181036000830152610dc281610c67565b9050919050565b60006020820190508181036000830152610de281610c8a565b9050919050565b60006020820190508181036000830152610e0281610cad565b9050919050565b6000602082019050610e1e6000830184610cd0565b92915050565b6000610e2e610e3f565b9050610e3a8282610fee565b919050565b6000604051905090565b600067ffffffffffffffff821115610e6457610e636110f5565b5b610e6d82611138565b9050602081019050919050565b600081519050919050565b600082825260208201905092915050565b6000610ea182610f70565b9150610eac83610f70565b9250827fffffffffffffffffffffffffffffffffffffffffffffffffffffffffffffffff03821115610ee157610ee0611068565b5b828201905092915050565b6000610ef782610f70565b9150610f0283610f70565b925082821015610f1557610f14611068565b5b828203905092915050565b6000610f2b82610f50565b9050919050565b6000610f3d82610f50565b9050919050565b60008115159050919050565b600073ffffffffffffffffffffffffffffffffffffffff82169050919050565b6000819050919050565b82818337600083830152505050565b60005b83811015610fa7578082015181840152602081019050610f8c565b83811115610fb6576000848401525b50505050565b60006002820490506001821680610fd457607f821691505b60208210811415610fe857610fe7611097565b5b50919050565b610ff782611138565b810181811067ffffffffffffffff82111715611016576110156110f5565b5b80604052505050565b600061102a82610f70565b91507fffffffffffffffffffffffffffffffffffffffffffffffffffffffffffffffff82141561105d5761105c611068565b5b600182019050919050565b7f4e487b7100000000000000000000000000000000000000000000000000000000600052601160045260246000fd5b7f4e487b7100000000000000000000000000000000000000000000000000000000600052602260045260246000fd5b7f4e487b7100000000000000000000000000000000000000000000000000000000600052603260045260246000fd5b7f4e487b7100000000000000000000000000000000000000000000000000000000600052604160045260246000fd5b600080fd5b600080fd5b600080fd5b600080fd5b6000601f19601f8301169050919050565b7f596f7520617265206e6f7420616c6c6f77656420746f2077697468647261772160008201527f204e6f2053756666696369656e7420416d6f756e742100000000000000000000602082015250565b7f596f7520617265206e6f7420616c6c6f77656420746f2077697468647261772160008201527f2054696d6520686173206e6f7420706173736564210000000000000000000000602082015250565b7f4f6e6c7920546865204f776e65722043616e20557365205468652046756e637460008201527f696f6e2100000000000000000000000000000000000000000000000000000000602082015250565b7f596f7520617265206e6f7420616c6c6f77656420746f2077697468647261772160008201527f204164647265737320446f6573204e6f74204d61746368656421000000000000602082015250565b50565b61129181610f20565b811461129c57600080fd5b50565b6112a881610f32565b81146112b357600080fd5b50565b6112bf81610f44565b81146112ca57600080fd5b50565b6112d681610f70565b81146112e157600080fd5b5056fea264697066735822122079e053a2c5e6aa90bb2feb72a43c7dc8155ff69a2e81aa6a572bc4193e2bdd4f64736f6c63430008070033",
					"opcodes": "PUSH1 0x80 PUSH1 0x40 MSTORE CALLVALUE DUP1 ISZERO PUSH2 0x10 JUMPI PUSH1 0x0 DUP1 REVERT JUMPDEST POP CALLER PUSH1 0x0 DUP1 PUSH2 0x100 EXP DUP2 SLOAD DUP2 PUSH20 0xFFFFFFFFFFFFFFFFFFFFFFFFFFFFFFFFFFFFFFFF MUL NOT AND SWAP1 DUP4 PUSH20 0xFFFFFFFFFFFFFFFFFFFFFFFFFFFFFFFFFFFFFFFF AND MUL OR SWAP1 SSTORE POP PUSH2 0x131A DUP1 PUSH2 0x60 PUSH1 0x0 CODECOPY PUSH1 0x0 RETURN INVALID PUSH1 0x80 PUSH1 0x40 MSTORE PUSH1 0x4 CALLDATASIZE LT PUSH2 0x55 JUMPI PUSH1 0x0 CALLDATALOAD PUSH1 0xE0 SHR DUP1 PUSH4 0x31D575C5 EQ PUSH2 0x5A JUMPI DUP1 PUSH4 0x6640C922 EQ PUSH2 0x83 JUMPI DUP1 PUSH4 0x722713F7 EQ PUSH2 0xC0 JUMPI DUP1 PUSH4 0x7285FD3A EQ PUSH2 0xEB JUMPI DUP1 PUSH4 0xF340FA01 EQ PUSH2 0x12D JUMPI DUP1 PUSH4 0xF3FEF3A3 EQ PUSH2 0x149 JUMPI JUMPDEST PUSH1 0x0 DUP1 REVERT JUMPDEST CALLVALUE DUP1 ISZERO PUSH2 0x66 JUMPI PUSH1 0x0 DUP1 REVERT JUMPDEST POP PUSH2 0x81 PUSH1 0x4 DUP1 CALLDATASIZE SUB DUP2 ADD SWAP1 PUSH2 0x7C SWAP2 SWAP1 PUSH2 0xA98 JUMP JUMPDEST PUSH2 0x165 JUMP JUMPDEST STOP JUMPDEST CALLVALUE DUP1 ISZERO PUSH2 0x8F JUMPI PUSH1 0x0 DUP1 REVERT JUMPDEST POP PUSH2 0xAA PUSH1 0x4 DUP1 CALLDATASIZE SUB DUP2 ADD SWAP1 PUSH2 0xA5 SWAP2 SWAP1 PUSH2 0xA6B JUMP JUMPDEST PUSH2 0x322 JUMP JUMPDEST PUSH1 0x40 MLOAD PUSH2 0xB7 SWAP2 SWAP1 PUSH2 0xD4E JUMP JUMPDEST PUSH1 0x40 MLOAD DUP1 SWAP2 SUB SWAP1 RETURN JUMPDEST CALLVALUE DUP1 ISZERO PUSH2 0xCC JUMPI PUSH1 0x0 DUP1 REVERT JUMPDEST POP PUSH2 0xD5 PUSH2 0x416 JUMP JUMPDEST PUSH1 0x40 MLOAD PUSH2 0xE2 SWAP2 SWAP1 PUSH2 0xE09 JUMP JUMPDEST PUSH1 0x40 MLOAD DUP1 SWAP2 SUB SWAP1 RETURN JUMPDEST CALLVALUE DUP1 ISZERO PUSH2 0xF7 JUMPI PUSH1 0x0 DUP1 REVERT JUMPDEST POP PUSH2 0x112 PUSH1 0x4 DUP1 CALLDATASIZE SUB DUP2 ADD SWAP1 PUSH2 0x10D SWAP2 SWAP1 PUSH2 0xB9D JUMP JUMPDEST PUSH2 0x41E JUMP JUMPDEST PUSH1 0x40 MLOAD PUSH2 0x124 SWAP7 SWAP6 SWAP5 SWAP4 SWAP3 SWAP2 SWAP1 PUSH2 0xCDF JUMP JUMPDEST PUSH1 0x40 MLOAD DUP1 SWAP2 SUB SWAP1 RETURN JUMPDEST PUSH2 0x147 PUSH1 0x4 DUP1 CALLDATASIZE SUB DUP2 ADD SWAP1 PUSH2 0x142 SWAP2 SWAP1 PUSH2 0xA6B JUMP JUMPDEST PUSH2 0x5A7 JUMP JUMPDEST STOP JUMPDEST PUSH2 0x163 PUSH1 0x4 DUP1 CALLDATASIZE SUB DUP2 ADD SWAP1 PUSH2 0x15E SWAP2 SWAP1 PUSH2 0xB5D JUMP JUMPDEST PUSH2 0x5B3 JUMP JUMPDEST STOP JUMPDEST PUSH1 0x0 DUP1 SLOAD SWAP1 PUSH2 0x100 EXP SWAP1 DIV PUSH20 0xFFFFFFFFFFFFFFFFFFFFFFFFFFFFFFFFFFFFFFFF AND PUSH20 0xFFFFFFFFFFFFFFFFFFFFFFFFFFFFFFFFFFFFFFFF AND CALLER PUSH20 0xFFFFFFFFFFFFFFFFFFFFFFFFFFFFFFFFFFFFFFFF AND EQ PUSH2 0x1F3 JUMPI PUSH1 0x40 MLOAD PUSH32 0x8C379A000000000000000000000000000000000000000000000000000000000 DUP2 MSTORE PUSH1 0x4 ADD PUSH2 0x1EA SWAP1 PUSH2 0xDA9 JUMP JUMPDEST PUSH1 0x40 MLOAD DUP1 SWAP2 SUB SWAP1 REVERT JUMPDEST PUSH1 0x1 PUSH1 0x40 MLOAD DUP1 PUSH1 0xC0 ADD PUSH1 0x40 MSTORE DUP1 DUP9 PUSH20 0xFFFFFFFFFFFFFFFFFFFFFFFFFFFFFFFFFFFFFFFF AND DUP2 MSTORE PUSH1 0x20 ADD DUP8 DUP2 MSTORE PUSH1 0x20 ADD DUP7 DUP2 MSTORE PUSH1 0x20 ADD DUP6 DUP2 MSTORE PUSH1 0x20 ADD DUP5 DUP2 MSTORE PUSH1 0x20 ADD DUP4 ISZERO ISZERO DUP2 MSTORE POP SWAP1 DUP1 PUSH1 0x1 DUP2 SLOAD ADD DUP1 DUP3 SSTORE DUP1 SWAP2 POP POP PUSH1 0x1 SWAP1 SUB SWAP1 PUSH1 0x0 MSTORE PUSH1 0x20 PUSH1 0x0 KECCAK256 SWAP1 PUSH1 0x6 MUL ADD PUSH1 0x0 SWAP1 SWAP2 SWAP1 SWAP2 SWAP1 SWAP2 POP PUSH1 0x0 DUP3 ADD MLOAD DUP2 PUSH1 0x0 ADD PUSH1 0x0 PUSH2 0x100 EXP DUP2 SLOAD DUP2 PUSH20 0xFFFFFFFFFFFFFFFFFFFFFFFFFFFFFFFFFFFFFFFF MUL NOT AND SWAP1 DUP4 PUSH20 0xFFFFFFFFFFFFFFFFFFFFFFFFFFFFFFFFFFFFFFFF AND MUL OR SWAP1 SSTORE POP PUSH1 0x20 DUP3 ADD MLOAD DUP2 PUSH1 0x1 ADD SWAP1 DUP1 MLOAD SWAP1 PUSH1 0x20 ADD SWAP1 PUSH2 0x2C6 SWAP3 SWAP2 SWAP1 PUSH2 0x904 JUMP JUMPDEST POP PUSH1 0x40 DUP3 ADD MLOAD DUP2 PUSH1 0x2 ADD SWAP1 DUP1 MLOAD SWAP1 PUSH1 0x20 ADD SWAP1 PUSH2 0x2E3 SWAP3 SWAP2 SWAP1 PUSH2 0x904 JUMP JUMPDEST POP PUSH1 0x60 DUP3 ADD MLOAD DUP2 PUSH1 0x3 ADD SSTORE PUSH1 0x80 DUP3 ADD MLOAD DUP2 PUSH1 0x4 ADD SSTORE PUSH1 0xA0 DUP3 ADD MLOAD DUP2 PUSH1 0x5 ADD PUSH1 0x0 PUSH2 0x100 EXP DUP2 SLOAD DUP2 PUSH1 0xFF MUL NOT AND SWAP1 DUP4 ISZERO ISZERO MUL OR SWAP1 SSTORE POP POP POP POP POP POP POP POP POP JUMP JUMPDEST PUSH1 0x0 DUP1 PUSH2 0x32E DUP4 PUSH2 0x7F0 JUMP JUMPDEST SWAP1 POP PUSH1 0x1 DUP2 DUP2 SLOAD DUP2 LT PUSH2 0x344 JUMPI PUSH2 0x343 PUSH2 0x10C6 JUMP JUMPDEST JUMPDEST SWAP1 PUSH1 0x0 MSTORE PUSH1 0x20 PUSH1 0x0 KECCAK256 SWAP1 PUSH1 0x6 MUL ADD PUSH1 0x3 ADD SLOAD TIMESTAMP GT PUSH2 0x397 JUMPI PUSH1 0x40 MLOAD PUSH32 0x8C379A000000000000000000000000000000000000000000000000000000000 DUP2 MSTORE PUSH1 0x4 ADD PUSH2 0x38E SWAP1 PUSH2 0xDE9 JUMP JUMPDEST PUSH1 0x40 MLOAD DUP1 SWAP2 SUB SWAP1 REVERT JUMPDEST PUSH1 0x1 DUP2 DUP2 SLOAD DUP2 LT PUSH2 0x3AB JUMPI PUSH2 0x3AA PUSH2 0x10C6 JUMP JUMPDEST JUMPDEST SWAP1 PUSH1 0x0 MSTORE PUSH1 0x20 PUSH1 0x0 KECCAK256 SWAP1 PUSH1 0x6 MUL ADD PUSH1 0x3 ADD SLOAD TIMESTAMP GT ISZERO PUSH2 0x40B JUMPI PUSH1 0x1 DUP1 DUP3 DUP2 SLOAD DUP2 LT PUSH2 0x3D9 JUMPI PUSH2 0x3D8 PUSH2 0x10C6 JUMP JUMPDEST JUMPDEST SWAP1 PUSH1 0x0 MSTORE PUSH1 0x20 PUSH1 0x0 KECCAK256 SWAP1 PUSH1 0x6 MUL ADD PUSH1 0x5 ADD PUSH1 0x0 PUSH2 0x100 EXP DUP2 SLOAD DUP2 PUSH1 0xFF MUL NOT AND SWAP1 DUP4 ISZERO ISZERO MUL OR SWAP1 SSTORE POP PUSH1 0x1 SWAP2 POP POP PUSH2 0x411 JUMP JUMPDEST PUSH1 0x0 SWAP2 POP POP JUMPDEST SWAP2 SWAP1 POP JUMP JUMPDEST PUSH1 0x0 SELFBALANCE SWAP1 POP SWAP1 JUMP JUMPDEST PUSH1 0x1 DUP2 DUP2 SLOAD DUP2 LT PUSH2 0x42E JUMPI PUSH1 0x0 DUP1 REVERT JUMPDEST SWAP1 PUSH1 0x0 MSTORE PUSH1 0x20 PUSH1 0x0 KECCAK256 SWAP1 PUSH1 0x6 MUL ADD PUSH1 0x0 SWAP2 POP SWAP1 POP DUP1 PUSH1 0x0 ADD PUSH1 0x0 SWAP1 SLOAD SWAP1 PUSH2 0x100 EXP SWAP1 DIV PUSH20 0xFFFFFFFFFFFFFFFFFFFFFFFFFFFFFFFFFFFFFFFF AND SWAP1 DUP1 PUSH1 0x1 ADD DUP1 SLOAD PUSH2 0x477 SWAP1 PUSH2 0xFBC JUMP JUMPDEST DUP1 PUSH1 0x1F ADD PUSH1 0x20 DUP1 SWAP2 DIV MUL PUSH1 0x20 ADD PUSH1 0x40 MLOAD SWAP1 DUP2 ADD PUSH1 0x40 MSTORE DUP1 SWAP3 SWAP2 SWAP1 DUP2 DUP2 MSTORE PUSH1 0x20 ADD DUP3 DUP1 SLOAD PUSH2 0x4A3 SWAP1 PUSH2 0xFBC JUMP JUMPDEST DUP1 ISZERO PUSH2 0x4F0 JUMPI DUP1 PUSH1 0x1F LT PUSH2 0x4C5 JUMPI PUSH2 0x100 DUP1 DUP4 SLOAD DIV MUL DUP4 MSTORE SWAP2 PUSH1 0x20 ADD SWAP2 PUSH2 0x4F0 JUMP JUMPDEST DUP3 ADD SWAP2 SWAP1 PUSH1 0x0 MSTORE PUSH1 0x20 PUSH1 0x0 KECCAK256 SWAP1 JUMPDEST DUP2 SLOAD DUP2 MSTORE SWAP1 PUSH1 0x1 ADD SWAP1 PUSH1 0x20 ADD DUP1 DUP4 GT PUSH2 0x4D3 JUMPI DUP3 SWAP1 SUB PUSH1 0x1F AND DUP3 ADD SWAP2 JUMPDEST POP POP POP POP POP SWAP1 DUP1 PUSH1 0x2 ADD DUP1 SLOAD PUSH2 0x505 SWAP1 PUSH2 0xFBC JUMP JUMPDEST DUP1 PUSH1 0x1F ADD PUSH1 0x20 DUP1 SWAP2 DIV MUL PUSH1 0x20 ADD PUSH1 0x40 MLOAD SWAP1 DUP2 ADD PUSH1 0x40 MSTORE DUP1 SWAP3 SWAP2 SWAP1 DUP2 DUP2 MSTORE PUSH1 0x20 ADD DUP3 DUP1 SLOAD PUSH2 0x531 SWAP1 PUSH2 0xFBC JUMP JUMPDEST DUP1 ISZERO PUSH2 0x57E JUMPI DUP1 PUSH1 0x1F LT PUSH2 0x553 JUMPI PUSH2 0x100 DUP1 DUP4 SLOAD DIV MUL DUP4 MSTORE SWAP2 PUSH1 0x20 ADD SWAP2 PUSH2 0x57E JUMP JUMPDEST DUP3 ADD SWAP2 SWAP1 PUSH1 0x0 MSTORE PUSH1 0x20 PUSH1 0x0 KECCAK256 SWAP1 JUMPDEST DUP2 SLOAD DUP2 MSTORE SWAP1 PUSH1 0x1 ADD SWAP1 PUSH1 0x20 ADD DUP1 DUP4 GT PUSH2 0x561 JUMPI DUP3 SWAP1 SUB PUSH1 0x1F AND DUP3 ADD SWAP2 JUMPDEST POP POP POP POP POP SWAP1 DUP1 PUSH1 0x3 ADD SLOAD SWAP1 DUP1 PUSH1 0x4 ADD SLOAD SWAP1 DUP1 PUSH1 0x5 ADD PUSH1 0x0 SWAP1 SLOAD SWAP1 PUSH2 0x100 EXP SWAP1 DIV PUSH1 0xFF AND SWAP1 POP DUP7 JUMP JUMPDEST PUSH2 0x5B0 DUP2 PUSH2 0x8A9 JUMP JUMPDEST POP JUMP JUMPDEST PUSH1 0x0 PUSH2 0x5BE DUP4 PUSH2 0x7F0 JUMP JUMPDEST SWAP1 POP PUSH1 0x1 DUP2 DUP2 SLOAD DUP2 LT PUSH2 0x5D4 JUMPI PUSH2 0x5D3 PUSH2 0x10C6 JUMP JUMPDEST JUMPDEST SWAP1 PUSH1 0x0 MSTORE PUSH1 0x20 PUSH1 0x0 KECCAK256 SWAP1 PUSH1 0x6 MUL ADD PUSH1 0x0 ADD PUSH1 0x0 SWAP1 SLOAD SWAP1 PUSH2 0x100 EXP SWAP1 DIV PUSH20 0xFFFFFFFFFFFFFFFFFFFFFFFFFFFFFFFFFFFFFFFF AND PUSH20 0xFFFFFFFFFFFFFFFFFFFFFFFFFFFFFFFFFFFFFFFF AND CALLER PUSH20 0xFFFFFFFFFFFFFFFFFFFFFFFFFFFFFFFFFFFFFFFF AND EQ PUSH2 0x673 JUMPI PUSH1 0x40 MLOAD PUSH32 0x8C379A000000000000000000000000000000000000000000000000000000000 DUP2 MSTORE PUSH1 0x4 ADD PUSH2 0x66A SWAP1 PUSH2 0xDC9 JUMP JUMPDEST PUSH1 0x40 MLOAD DUP1 SWAP2 SUB SWAP1 REVERT JUMPDEST PUSH2 0x67C DUP4 PUSH2 0x322 JUMP JUMPDEST PUSH2 0x6BB JUMPI PUSH1 0x40 MLOAD PUSH32 0x8C379A000000000000000000000000000000000000000000000000000000000 DUP2 MSTORE PUSH1 0x4 ADD PUSH2 0x6B2 SWAP1 PUSH2 0xD89 JUMP JUMPDEST PUSH1 0x40 MLOAD DUP1 SWAP2 SUB SWAP1 REVERT JUMPDEST DUP2 PUSH1 0x1 DUP3 DUP2 SLOAD DUP2 LT PUSH2 0x6D0 JUMPI PUSH2 0x6CF PUSH2 0x10C6 JUMP JUMPDEST JUMPDEST SWAP1 PUSH1 0x0 MSTORE PUSH1 0x20 PUSH1 0x0 KECCAK256 SWAP1 PUSH1 0x6 MUL ADD PUSH1 0x4 ADD SLOAD LT ISZERO PUSH2 0x723 JUMPI PUSH1 0x40 MLOAD PUSH32 0x8C379A000000000000000000000000000000000000000000000000000000000 DUP2 MSTORE PUSH1 0x4 ADD PUSH2 0x71A SWAP1 PUSH2 0xD69 JUMP JUMPDEST PUSH1 0x40 MLOAD DUP1 SWAP2 SUB SWAP1 REVERT JUMPDEST PUSH1 0x1 DUP2 DUP2 SLOAD DUP2 LT PUSH2 0x737 JUMPI PUSH2 0x736 PUSH2 0x10C6 JUMP JUMPDEST JUMPDEST SWAP1 PUSH1 0x0 MSTORE PUSH1 0x20 PUSH1 0x0 KECCAK256 SWAP1 PUSH1 0x6 MUL ADD PUSH1 0x0 ADD PUSH1 0x0 SWAP1 SLOAD SWAP1 PUSH2 0x100 EXP SWAP1 DIV PUSH20 0xFFFFFFFFFFFFFFFFFFFFFFFFFFFFFFFFFFFFFFFF AND PUSH20 0xFFFFFFFFFFFFFFFFFFFFFFFFFFFFFFFFFFFFFFFF AND PUSH2 0x8FC DUP4 SWAP1 DUP2 ISZERO MUL SWAP1 PUSH1 0x40 MLOAD PUSH1 0x0 PUSH1 0x40 MLOAD DUP1 DUP4 SUB DUP2 DUP6 DUP9 DUP9 CALL SWAP4 POP POP POP POP ISZERO DUP1 ISZERO PUSH2 0x7AE JUMPI RETURNDATASIZE PUSH1 0x0 DUP1 RETURNDATACOPY RETURNDATASIZE PUSH1 0x0 REVERT JUMPDEST POP DUP2 PUSH1 0x1 DUP3 DUP2 SLOAD DUP2 LT PUSH2 0x7C4 JUMPI PUSH2 0x7C3 PUSH2 0x10C6 JUMP JUMPDEST JUMPDEST SWAP1 PUSH1 0x0 MSTORE PUSH1 0x20 PUSH1 0x0 KECCAK256 SWAP1 PUSH1 0x6 MUL ADD PUSH1 0x4 ADD PUSH1 0x0 DUP3 DUP3 SLOAD PUSH2 0x7E4 SWAP2 SWAP1 PUSH2 0xEEC JUMP JUMPDEST SWAP3 POP POP DUP2 SWAP1 SSTORE POP POP POP POP JUMP JUMPDEST PUSH1 0x0 DUP1 PUSH1 0x0 SWAP1 POP JUMPDEST PUSH1 0x1 DUP1 SLOAD SWAP1 POP DUP2 LT ISZERO PUSH2 0x89A JUMPI DUP3 PUSH20 0xFFFFFFFFFFFFFFFFFFFFFFFFFFFFFFFFFFFFFFFF AND PUSH1 0x1 DUP3 DUP2 SLOAD DUP2 LT PUSH2 0x830 JUMPI PUSH2 0x82F PUSH2 0x10C6 JUMP JUMPDEST JUMPDEST SWAP1 PUSH1 0x0 MSTORE PUSH1 0x20 PUSH1 0x0 KECCAK256 SWAP1 PUSH1 0x6 MUL ADD PUSH1 0x0 ADD PUSH1 0x0 SWAP1 SLOAD SWAP1 PUSH2 0x100 EXP SWAP1 DIV PUSH20 0xFFFFFFFFFFFFFFFFFFFFFFFFFFFFFFFFFFFFFFFF AND PUSH20 0xFFFFFFFFFFFFFFFFFFFFFFFFFFFFFFFFFFFFFFFF AND EQ ISZERO PUSH2 0x887 JUMPI DUP1 SWAP2 POP POP PUSH2 0x8A4 JUMP JUMPDEST DUP1 DUP1 PUSH2 0x892 SWAP1 PUSH2 0x101F JUMP JUMPDEST SWAP2 POP POP PUSH2 0x7F8 JUMP JUMPDEST POP PUSH1 0x1 DUP1 SLOAD SWAP1 POP SWAP1 POP JUMPDEST SWAP2 SWAP1 POP JUMP JUMPDEST PUSH1 0x0 PUSH2 0x8B4 DUP3 PUSH2 0x7F0 JUMP JUMPDEST SWAP1 POP PUSH1 0x1 DUP1 SLOAD SWAP1 POP DUP2 LT ISZERO PUSH2 0x900 JUMPI CALLVALUE PUSH1 0x1 DUP3 DUP2 SLOAD DUP2 LT PUSH2 0x8D8 JUMPI PUSH2 0x8D7 PUSH2 0x10C6 JUMP JUMPDEST JUMPDEST SWAP1 PUSH1 0x0 MSTORE PUSH1 0x20 PUSH1 0x0 KECCAK256 SWAP1 PUSH1 0x6 MUL ADD PUSH1 0x4 ADD PUSH1 0x0 DUP3 DUP3 SLOAD PUSH2 0x8F8 SWAP2 SWAP1 PUSH2 0xE96 JUMP JUMPDEST SWAP3 POP POP DUP2 SWAP1 SSTORE POP JUMPDEST POP POP JUMP JUMPDEST DUP3 DUP1 SLOAD PUSH2 0x910 SWAP1 PUSH2 0xFBC JUMP JUMPDEST SWAP1 PUSH1 0x0 MSTORE PUSH1 0x20 PUSH1 0x0 KECCAK256 SWAP1 PUSH1 0x1F ADD PUSH1 0x20 SWAP1 DIV DUP2 ADD SWAP3 DUP3 PUSH2 0x932 JUMPI PUSH1 0x0 DUP6 SSTORE PUSH2 0x979 JUMP JUMPDEST DUP3 PUSH1 0x1F LT PUSH2 0x94B JUMPI DUP1 MLOAD PUSH1 0xFF NOT AND DUP4 DUP1 ADD OR DUP6 SSTORE PUSH2 0x979 JUMP JUMPDEST DUP3 DUP1 ADD PUSH1 0x1 ADD DUP6 SSTORE DUP3 ISZERO PUSH2 0x979 JUMPI SWAP2 DUP3 ADD JUMPDEST DUP3 DUP2 GT ISZERO PUSH2 0x978 JUMPI DUP3 MLOAD DUP3 SSTORE SWAP2 PUSH1 0x20 ADD SWAP2 SWAP1 PUSH1 0x1 ADD SWAP1 PUSH2 0x95D JUMP JUMPDEST JUMPDEST POP SWAP1 POP PUSH2 0x986 SWAP2 SWAP1 PUSH2 0x98A JUMP JUMPDEST POP SWAP1 JUMP JUMPDEST JUMPDEST DUP1 DUP3 GT ISZERO PUSH2 0x9A3 JUMPI PUSH1 0x0 DUP2 PUSH1 0x0 SWAP1 SSTORE POP PUSH1 0x1 ADD PUSH2 0x98B JUMP JUMPDEST POP SWAP1 JUMP JUMPDEST PUSH1 0x0 PUSH2 0x9BA PUSH2 0x9B5 DUP5 PUSH2 0xE49 JUMP JUMPDEST PUSH2 0xE24 JUMP JUMPDEST SWAP1 POP DUP3 DUP2 MSTORE PUSH1 0x20 DUP2 ADD DUP5 DUP5 DUP5 ADD GT ISZERO PUSH2 0x9D6 JUMPI PUSH2 0x9D5 PUSH2 0x1129 JUMP JUMPDEST JUMPDEST PUSH2 0x9E1 DUP5 DUP3 DUP6 PUSH2 0xF7A JUMP JUMPDEST POP SWAP4 SWAP3 POP POP POP JUMP JUMPDEST PUSH1 0x0 DUP2 CALLDATALOAD SWAP1 POP PUSH2 0x9F8 DUP2 PUSH2 0x1288 JUMP JUMPDEST SWAP3 SWAP2 POP POP JUMP JUMPDEST PUSH1 0x0 DUP2 CALLDATALOAD SWAP1 POP PUSH2 0xA0D DUP2 PUSH2 0x129F JUMP JUMPDEST SWAP3 SWAP2 POP POP JUMP JUMPDEST PUSH1 0x0 DUP2 CALLDATALOAD SWAP1 POP PUSH2 0xA22 DUP2 PUSH2 0x12B6 JUMP JUMPDEST SWAP3 SWAP2 POP POP JUMP JUMPDEST PUSH1 0x0 DUP3 PUSH1 0x1F DUP4 ADD SLT PUSH2 0xA3D JUMPI PUSH2 0xA3C PUSH2 0x1124 JUMP JUMPDEST JUMPDEST DUP2 CALLDATALOAD PUSH2 0xA4D DUP5 DUP3 PUSH1 0x20 DUP7 ADD PUSH2 0x9A7 JUMP JUMPDEST SWAP2 POP POP SWAP3 SWAP2 POP POP JUMP JUMPDEST PUSH1 0x0 DUP2 CALLDATALOAD SWAP1 POP PUSH2 0xA65 DUP2 PUSH2 0x12CD JUMP JUMPDEST SWAP3 SWAP2 POP POP JUMP JUMPDEST PUSH1 0x0 PUSH1 0x20 DUP3 DUP5 SUB SLT ISZERO PUSH2 0xA81 JUMPI PUSH2 0xA80 PUSH2 0x1133 JUMP JUMPDEST JUMPDEST PUSH1 0x0 PUSH2 0xA8F DUP5 DUP3 DUP6 ADD PUSH2 0x9E9 JUMP JUMPDEST SWAP2 POP POP SWAP3 SWAP2 POP POP JUMP JUMPDEST PUSH1 0x0 DUP1 PUSH1 0x0 DUP1 PUSH1 0x0 DUP1 PUSH1 0xC0 DUP8 DUP10 SUB SLT ISZERO PUSH2 0xAB5 JUMPI PUSH2 0xAB4 PUSH2 0x1133 JUMP JUMPDEST JUMPDEST PUSH1 0x0 PUSH2 0xAC3 DUP10 DUP3 DUP11 ADD PUSH2 0x9FE JUMP JUMPDEST SWAP7 POP POP PUSH1 0x20 DUP8 ADD CALLDATALOAD PUSH8 0xFFFFFFFFFFFFFFFF DUP2 GT ISZERO PUSH2 0xAE4 JUMPI PUSH2 0xAE3 PUSH2 0x112E JUMP JUMPDEST JUMPDEST PUSH2 0xAF0 DUP10 DUP3 DUP11 ADD PUSH2 0xA28 JUMP JUMPDEST SWAP6 POP POP PUSH1 0x40 DUP8 ADD CALLDATALOAD PUSH8 0xFFFFFFFFFFFFFFFF DUP2 GT ISZERO PUSH2 0xB11 JUMPI PUSH2 0xB10 PUSH2 0x112E JUMP JUMPDEST JUMPDEST PUSH2 0xB1D DUP10 DUP3 DUP11 ADD PUSH2 0xA28 JUMP JUMPDEST SWAP5 POP POP PUSH1 0x60 PUSH2 0xB2E DUP10 DUP3 DUP11 ADD PUSH2 0xA56 JUMP JUMPDEST SWAP4 POP POP PUSH1 0x80 PUSH2 0xB3F DUP10 DUP3 DUP11 ADD PUSH2 0xA56 JUMP JUMPDEST SWAP3 POP POP PUSH1 0xA0 PUSH2 0xB50 DUP10 DUP3 DUP11 ADD PUSH2 0xA13 JUMP JUMPDEST SWAP2 POP POP SWAP3 SWAP6 POP SWAP3 SWAP6 POP SWAP3 SWAP6 JUMP JUMPDEST PUSH1 0x0 DUP1 PUSH1 0x40 DUP4 DUP6 SUB SLT ISZERO PUSH2 0xB74 JUMPI PUSH2 0xB73 PUSH2 0x1133 JUMP JUMPDEST JUMPDEST PUSH1 0x0 PUSH2 0xB82 DUP6 DUP3 DUP7 ADD PUSH2 0x9FE JUMP JUMPDEST SWAP3 POP POP PUSH1 0x20 PUSH2 0xB93 DUP6 DUP3 DUP7 ADD PUSH2 0xA56 JUMP JUMPDEST SWAP2 POP POP SWAP3 POP SWAP3 SWAP1 POP JUMP JUMPDEST PUSH1 0x0 PUSH1 0x20 DUP3 DUP5 SUB SLT ISZERO PUSH2 0xBB3 JUMPI PUSH2 0xBB2 PUSH2 0x1133 JUMP JUMPDEST JUMPDEST PUSH1 0x0 PUSH2 0xBC1 DUP5 DUP3 DUP6 ADD PUSH2 0xA56 JUMP JUMPDEST SWAP2 POP POP SWAP3 SWAP2 POP POP JUMP JUMPDEST PUSH2 0xBD3 DUP2 PUSH2 0xF32 JUMP JUMPDEST DUP3 MSTORE POP POP JUMP JUMPDEST PUSH2 0xBE2 DUP2 PUSH2 0xF44 JUMP JUMPDEST DUP3 MSTORE POP POP JUMP JUMPDEST PUSH1 0x0 PUSH2 0xBF3 DUP3 PUSH2 0xE7A JUMP JUMPDEST PUSH2 0xBFD DUP2 DUP6 PUSH2 0xE85 JUMP JUMPDEST SWAP4 POP PUSH2 0xC0D DUP2 DUP6 PUSH1 0x20 DUP7 ADD PUSH2 0xF89 JUMP JUMPDEST PUSH2 0xC16 DUP2 PUSH2 0x1138 JUMP JUMPDEST DUP5 ADD SWAP2 POP POP SWAP3 SWAP2 POP POP JUMP JUMPDEST PUSH1 0x0 PUSH2 0xC2E PUSH1 0x36 DUP4 PUSH2 0xE85 JUMP JUMPDEST SWAP2 POP PUSH2 0xC39 DUP3 PUSH2 0x1149 JUMP JUMPDEST PUSH1 0x40 DUP3 ADD SWAP1 POP SWAP2 SWAP1 POP JUMP JUMPDEST PUSH1 0x0 PUSH2 0xC51 PUSH1 0x35 DUP4 PUSH2 0xE85 JUMP JUMPDEST SWAP2 POP PUSH2 0xC5C DUP3 PUSH2 0x1198 JUMP JUMPDEST PUSH1 0x40 DUP3 ADD SWAP1 POP SWAP2 SWAP1 POP JUMP JUMPDEST PUSH1 0x0 PUSH2 0xC74 PUSH1 0x24 DUP4 PUSH2 0xE85 JUMP JUMPDEST SWAP2 POP PUSH2 0xC7F DUP3 PUSH2 0x11E7 JUMP JUMPDEST PUSH1 0x40 DUP3 ADD SWAP1 POP SWAP2 SWAP1 POP JUMP JUMPDEST PUSH1 0x0 PUSH2 0xC97 PUSH1 0x3A DUP4 PUSH2 0xE85 JUMP JUMPDEST SWAP2 POP PUSH2 0xCA2 DUP3 PUSH2 0x1236 JUMP JUMPDEST PUSH1 0x40 DUP3 ADD SWAP1 POP SWAP2 SWAP1 POP JUMP JUMPDEST PUSH1 0x0 PUSH2 0xCBA PUSH1 0x0 DUP4 PUSH2 0xE85 JUMP JUMPDEST SWAP2 POP PUSH2 0xCC5 DUP3 PUSH2 0x1285 JUMP JUMPDEST PUSH1 0x0 DUP3 ADD SWAP1 POP SWAP2 SWAP1 POP JUMP JUMPDEST PUSH2 0xCD9 DUP2 PUSH2 0xF70 JUMP JUMPDEST DUP3 MSTORE POP POP JUMP JUMPDEST PUSH1 0x0 PUSH1 0xC0 DUP3 ADD SWAP1 POP PUSH2 0xCF4 PUSH1 0x0 DUP4 ADD DUP10 PUSH2 0xBCA JUMP JUMPDEST DUP2 DUP2 SUB PUSH1 0x20 DUP4 ADD MSTORE PUSH2 0xD06 DUP2 DUP9 PUSH2 0xBE8 JUMP JUMPDEST SWAP1 POP DUP2 DUP2 SUB PUSH1 0x40 DUP4 ADD MSTORE PUSH2 0xD1A DUP2 DUP8 PUSH2 0xBE8 JUMP JUMPDEST SWAP1 POP PUSH2 0xD29 PUSH1 0x60 DUP4 ADD DUP7 PUSH2 0xCD0 JUMP JUMPDEST PUSH2 0xD36 PUSH1 0x80 DUP4 ADD DUP6 PUSH2 0xCD0 JUMP JUMPDEST PUSH2 0xD43 PUSH1 0xA0 DUP4 ADD DUP5 PUSH2 0xBD9 JUMP JUMPDEST SWAP8 SWAP7 POP POP POP POP POP POP POP JUMP JUMPDEST PUSH1 0x0 PUSH1 0x20 DUP3 ADD SWAP1 POP PUSH2 0xD63 PUSH1 0x0 DUP4 ADD DUP5 PUSH2 0xBD9 JUMP JUMPDEST SWAP3 SWAP2 POP POP JUMP JUMPDEST PUSH1 0x0 PUSH1 0x20 DUP3 ADD SWAP1 POP DUP2 DUP2 SUB PUSH1 0x0 DUP4 ADD MSTORE PUSH2 0xD82 DUP2 PUSH2 0xC21 JUMP JUMPDEST SWAP1 POP SWAP2 SWAP1 POP JUMP JUMPDEST PUSH1 0x0 PUSH1 0x20 DUP3 ADD SWAP1 POP DUP2 DUP2 SUB PUSH1 0x0 DUP4 ADD MSTORE PUSH2 0xDA2 DUP2 PUSH2 0xC44 JUMP JUMPDEST SWAP1 POP SWAP2 SWAP1 POP JUMP JUMPDEST PUSH1 0x0 PUSH1 0x20 DUP3 ADD SWAP1 POP DUP2 DUP2 SUB PUSH1 0x0 DUP4 ADD MSTORE PUSH2 0xDC2 DUP2 PUSH2 0xC67 JUMP JUMPDEST SWAP1 POP SWAP2 SWAP1 POP JUMP JUMPDEST PUSH1 0x0 PUSH1 0x20 DUP3 ADD SWAP1 POP DUP2 DUP2 SUB PUSH1 0x0 DUP4 ADD MSTORE PUSH2 0xDE2 DUP2 PUSH2 0xC8A JUMP JUMPDEST SWAP1 POP SWAP2 SWAP1 POP JUMP JUMPDEST PUSH1 0x0 PUSH1 0x20 DUP3 ADD SWAP1 POP DUP2 DUP2 SUB PUSH1 0x0 DUP4 ADD MSTORE PUSH2 0xE02 DUP2 PUSH2 0xCAD JUMP JUMPDEST SWAP1 POP SWAP2 SWAP1 POP JUMP JUMPDEST PUSH1 0x0 PUSH1 0x20 DUP3 ADD SWAP1 POP PUSH2 0xE1E PUSH1 0x0 DUP4 ADD DUP5 PUSH2 0xCD0 JUMP JUMPDEST SWAP3 SWAP2 POP POP JUMP JUMPDEST PUSH1 0x0 PUSH2 0xE2E PUSH2 0xE3F JUMP JUMPDEST SWAP1 POP PUSH2 0xE3A DUP3 DUP3 PUSH2 0xFEE JUMP JUMPDEST SWAP2 SWAP1 POP JUMP JUMPDEST PUSH1 0x0 PUSH1 0x40 MLOAD SWAP1 POP SWAP1 JUMP JUMPDEST PUSH1 0x0 PUSH8 0xFFFFFFFFFFFFFFFF DUP3 GT ISZERO PUSH2 0xE64 JUMPI PUSH2 0xE63 PUSH2 0x10F5 JUMP JUMPDEST JUMPDEST PUSH2 0xE6D DUP3 PUSH2 0x1138 JUMP JUMPDEST SWAP1 POP PUSH1 0x20 DUP2 ADD SWAP1 POP SWAP2 SWAP1 POP JUMP JUMPDEST PUSH1 0x0 DUP2 MLOAD SWAP1 POP SWAP2 SWAP1 POP JUMP JUMPDEST PUSH1 0x0 DUP3 DUP3 MSTORE PUSH1 0x20 DUP3 ADD SWAP1 POP SWAP3 SWAP2 POP POP JUMP JUMPDEST PUSH1 0x0 PUSH2 0xEA1 DUP3 PUSH2 0xF70 JUMP JUMPDEST SWAP2 POP PUSH2 0xEAC DUP4 PUSH2 0xF70 JUMP JUMPDEST SWAP3 POP DUP3 PUSH32 0xFFFFFFFFFFFFFFFFFFFFFFFFFFFFFFFFFFFFFFFFFFFFFFFFFFFFFFFFFFFFFFFF SUB DUP3 GT ISZERO PUSH2 0xEE1 JUMPI PUSH2 0xEE0 PUSH2 0x1068 JUMP JUMPDEST JUMPDEST DUP3 DUP3 ADD SWAP1 POP SWAP3 SWAP2 POP POP JUMP JUMPDEST PUSH1 0x0 PUSH2 0xEF7 DUP3 PUSH2 0xF70 JUMP JUMPDEST SWAP2 POP PUSH2 0xF02 DUP4 PUSH2 0xF70 JUMP JUMPDEST SWAP3 POP DUP3 DUP3 LT ISZERO PUSH2 0xF15 JUMPI PUSH2 0xF14 PUSH2 0x1068 JUMP JUMPDEST JUMPDEST DUP3 DUP3 SUB SWAP1 POP SWAP3 SWAP2 POP POP JUMP JUMPDEST PUSH1 0x0 PUSH2 0xF2B DUP3 PUSH2 0xF50 JUMP JUMPDEST SWAP1 POP SWAP2 SWAP1 POP JUMP JUMPDEST PUSH1 0x0 PUSH2 0xF3D DUP3 PUSH2 0xF50 JUMP JUMPDEST SWAP1 POP SWAP2 SWAP1 POP JUMP JUMPDEST PUSH1 0x0 DUP2 ISZERO ISZERO SWAP1 POP SWAP2 SWAP1 POP JUMP JUMPDEST PUSH1 0x0 PUSH20 0xFFFFFFFFFFFFFFFFFFFFFFFFFFFFFFFFFFFFFFFF DUP3 AND SWAP1 POP SWAP2 SWAP1 POP JUMP JUMPDEST PUSH1 0x0 DUP2 SWAP1 POP SWAP2 SWAP1 POP JUMP JUMPDEST DUP3 DUP2 DUP4 CALLDATACOPY PUSH1 0x0 DUP4 DUP4 ADD MSTORE POP POP POP JUMP JUMPDEST PUSH1 0x0 JUMPDEST DUP4 DUP2 LT ISZERO PUSH2 0xFA7 JUMPI DUP1 DUP3 ADD MLOAD DUP2 DUP5 ADD MSTORE PUSH1 0x20 DUP2 ADD SWAP1 POP PUSH2 0xF8C JUMP JUMPDEST DUP4 DUP2 GT ISZERO PUSH2 0xFB6 JUMPI PUSH1 0x0 DUP5 DUP5 ADD MSTORE JUMPDEST POP POP POP POP JUMP JUMPDEST PUSH1 0x0 PUSH1 0x2 DUP3 DIV SWAP1 POP PUSH1 0x1 DUP3 AND DUP1 PUSH2 0xFD4 JUMPI PUSH1 0x7F DUP3 AND SWAP2 POP JUMPDEST PUSH1 0x20 DUP3 LT DUP2 EQ ISZERO PUSH2 0xFE8 JUMPI PUSH2 0xFE7 PUSH2 0x1097 JUMP JUMPDEST JUMPDEST POP SWAP2 SWAP1 POP JUMP JUMPDEST PUSH2 0xFF7 DUP3 PUSH2 0x1138 JUMP JUMPDEST DUP2 ADD DUP2 DUP2 LT PUSH8 0xFFFFFFFFFFFFFFFF DUP3 GT OR ISZERO PUSH2 0x1016 JUMPI PUSH2 0x1015 PUSH2 0x10F5 JUMP JUMPDEST JUMPDEST DUP1 PUSH1 0x40 MSTORE POP POP POP JUMP JUMPDEST PUSH1 0x0 PUSH2 0x102A DUP3 PUSH2 0xF70 JUMP JUMPDEST SWAP2 POP PUSH32 0xFFFFFFFFFFFFFFFFFFFFFFFFFFFFFFFFFFFFFFFFFFFFFFFFFFFFFFFFFFFFFFFF DUP3 EQ ISZERO PUSH2 0x105D JUMPI PUSH2 0x105C PUSH2 0x1068 JUMP JUMPDEST JUMPDEST PUSH1 0x1 DUP3 ADD SWAP1 POP SWAP2 SWAP1 POP JUMP JUMPDEST PUSH32 0x4E487B7100000000000000000000000000000000000000000000000000000000 PUSH1 0x0 MSTORE PUSH1 0x11 PUSH1 0x4 MSTORE PUSH1 0x24 PUSH1 0x0 REVERT JUMPDEST PUSH32 0x4E487B7100000000000000000000000000000000000000000000000000000000 PUSH1 0x0 MSTORE PUSH1 0x22 PUSH1 0x4 MSTORE PUSH1 0x24 PUSH1 0x0 REVERT JUMPDEST PUSH32 0x4E487B7100000000000000000000000000000000000000000000000000000000 PUSH1 0x0 MSTORE PUSH1 0x32 PUSH1 0x4 MSTORE PUSH1 0x24 PUSH1 0x0 REVERT JUMPDEST PUSH32 0x4E487B7100000000000000000000000000000000000000000000000000000000 PUSH1 0x0 MSTORE PUSH1 0x41 PUSH1 0x4 MSTORE PUSH1 0x24 PUSH1 0x0 REVERT JUMPDEST PUSH1 0x0 DUP1 REVERT JUMPDEST PUSH1 0x0 DUP1 REVERT JUMPDEST PUSH1 0x0 DUP1 REVERT JUMPDEST PUSH1 0x0 DUP1 REVERT JUMPDEST PUSH1 0x0 PUSH1 0x1F NOT PUSH1 0x1F DUP4 ADD AND SWAP1 POP SWAP2 SWAP1 POP JUMP JUMPDEST PUSH32 0x596F7520617265206E6F7420616C6C6F77656420746F20776974686472617721 PUSH1 0x0 DUP3 ADD MSTORE PUSH32 0x204E6F2053756666696369656E7420416D6F756E742100000000000000000000 PUSH1 0x20 DUP3 ADD MSTORE POP JUMP JUMPDEST PUSH32 0x596F7520617265206E6F7420616C6C6F77656420746F20776974686472617721 PUSH1 0x0 DUP3 ADD MSTORE PUSH32 0x2054696D6520686173206E6F7420706173736564210000000000000000000000 PUSH1 0x20 DUP3 ADD MSTORE POP JUMP JUMPDEST PUSH32 0x4F6E6C7920546865204F776E65722043616E20557365205468652046756E6374 PUSH1 0x0 DUP3 ADD MSTORE PUSH32 0x696F6E2100000000000000000000000000000000000000000000000000000000 PUSH1 0x20 DUP3 ADD MSTORE POP JUMP JUMPDEST PUSH32 0x596F7520617265206E6F7420616C6C6F77656420746F20776974686472617721 PUSH1 0x0 DUP3 ADD MSTORE PUSH32 0x204164647265737320446F6573204E6F74204D61746368656421000000000000 PUSH1 0x20 DUP3 ADD MSTORE POP JUMP JUMPDEST POP JUMP JUMPDEST PUSH2 0x1291 DUP2 PUSH2 0xF20 JUMP JUMPDEST DUP2 EQ PUSH2 0x129C JUMPI PUSH1 0x0 DUP1 REVERT JUMPDEST POP JUMP JUMPDEST PUSH2 0x12A8 DUP2 PUSH2 0xF32 JUMP JUMPDEST DUP2 EQ PUSH2 0x12B3 JUMPI PUSH1 0x0 DUP1 REVERT JUMPDEST POP JUMP JUMPDEST PUSH2 0x12BF DUP2 PUSH2 0xF44 JUMP JUMPDEST DUP2 EQ PUSH2 0x12CA JUMPI PUSH1 0x0 DUP1 REVERT JUMPDEST POP JUMP JUMPDEST PUSH2 0x12D6 DUP2 PUSH2 0xF70 JUMP JUMPDEST DUP2 EQ PUSH2 0x12E1 JUMPI PUSH1 0x0 DUP1 REVERT JUMPDEST POP JUMP INVALID LOG2 PUSH5 0x6970667358 0x22 SLT KECCAK256 PUSH26 0xE053A2C5E6AA90BB2FEB72A43C7DC8155FF69A2E81AA6A572BC4 NOT RETURNDATACOPY 0x2B 0xDD 0x4F PUSH5 0x736F6C6343 STOP ADDMOD SMOD STOP CALLER "
				},
				"gasEstimates": {
					"creation": {
						"codeDepositCost": "978000",
						"executionCost": "25280",
						"totalCost": "1003280"
					},
					"external": {
						"addKid(address,string,string,uint256,uint256,bool)": "infinite",
						"avaiableToWithdraw(address)": "infinite",
						"balanceOf()": "361",
						"deposit(address)": "infinite",
						"kids(uint256)": "infinite",
						"withdraw(address,uint256)": "infinite"
					},
					"internal": {
						"addToKidsBalance(address)": "infinite",
						"getKidIndex(address)": "infinite"
					}
				},
				"methodIdentifiers": {
					"addKid(address,string,string,uint256,uint256,bool)": "31d575c5",
					"avaiableToWithdraw(address)": "6640c922",
					"balanceOf()": "722713f7",
					"deposit(address)": "f340fa01",
					"kids(uint256)": "7285fd3a",
					"withdraw(address,uint256)": "f3fef3a3"
				}
			},
			"storageLayout": {
				"storage": [
					{
						"astId": 3,
						"contract": "contracts/CryptoKids.sol:CryptoKids",
						"label": "owner",
						"offset": 0,
						"slot": "0",
						"type": "t_address"
					},
					{
						"astId": 29,
						"contract": "contracts/CryptoKids.sol:CryptoKids",
						"label": "kids",
						"offset": 0,
						"slot": "1",
						"type": "t_array(t_struct(Kid)25_storage)dyn_storage"
					}
				],
				"types": {
					"t_address": {
						"encoding": "inplace",
						"label": "address",
						"numberOfBytes": "20"
					},
					"t_address_payable": {
						"encoding": "inplace",
						"label": "address payable",
						"numberOfBytes": "20"
					},
					"t_array(t_struct(Kid)25_storage)dyn_storage": {
						"base": "t_struct(Kid)25_storage",
						"encoding": "dynamic_array",
						"label": "struct CryptoKids.Kid[]",
						"numberOfBytes": "32"
					},
					"t_bool": {
						"encoding": "inplace",
						"label": "bool",
						"numberOfBytes": "1"
					},
					"t_string_storage": {
						"encoding": "bytes",
						"label": "string",
						"numberOfBytes": "32"
					},
					"t_struct(Kid)25_storage": {
						"encoding": "inplace",
						"label": "struct CryptoKids.Kid",
						"members": [
							{
								"astId": 14,
								"contract": "contracts/CryptoKids.sol:CryptoKids",
								"label": "walletAddress",
								"offset": 0,
								"slot": "0",
								"type": "t_address_payable"
							},
							{
								"astId": 16,
								"contract": "contracts/CryptoKids.sol:CryptoKids",
								"label": "firstName",
								"offset": 0,
								"slot": "1",
								"type": "t_string_storage"
							},
							{
								"astId": 18,
								"contract": "contracts/CryptoKids.sol:CryptoKids",
								"label": "lastName",
								"offset": 0,
								"slot": "2",
								"type": "t_string_storage"
							},
							{
								"astId": 20,
								"contract": "contracts/CryptoKids.sol:CryptoKids",
								"label": "releaseTime",
								"offset": 0,
								"slot": "3",
								"type": "t_uint256"
							},
							{
								"astId": 22,
								"contract": "contracts/CryptoKids.sol:CryptoKids",
								"label": "amount",
								"offset": 0,
								"slot": "4",
								"type": "t_uint256"
							},
							{
								"astId": 24,
								"contract": "contracts/CryptoKids.sol:CryptoKids",
								"label": "canWithdraw",
								"offset": 0,
								"slot": "5",
								"type": "t_bool"
							}
						],
						"numberOfBytes": "192"
					},
					"t_uint256": {
						"encoding": "inplace",
						"label": "uint256",
						"numberOfBytes": "32"
					}
				}
			},
			"userdoc": {
				"kind": "user",
				"methods": {},
				"version": 1
			}
		}
	}
}